:020000040800F2
:10000000082E002011030008593800083934000870
:10001000153700087D1E00089D4400080000000000
:10002000000000000000000000000000790200084D
:10003000C31E000800000000BD020008F13F0008D8
:100040002B0300082B0300082B0300082B030008D8
:100050002B0300082B0300082B0300082B030008C8
:100060002B0300082B0300082B0300082B030008B8
:100070002B0300082B030008811E00088D1E0008BA
:100080002B0300082B0300082B0300082B03000898
:100090002B0300082B0300082B0300082B03000888
:1000A0002B0300086D4000082B0300082B030008F9
:1000B0002B0300082B0300082B0300082B03000868
:1000C0002B0300082B0300082B0300082B03000858
:1000D0002B030008894400082B0300082B030008A9
:1000E0002B0300082B0300082B0300082B03000838
:1000F0002B0300082B0300082B0300082B03000828
:100100002B0300082B0300082B0300082B03000817
:100110002B0300082B0300082B0300082B03000807
:100120002B0300082B0300082B0300082B030008F7
:1001300000F002F800F090F80AA090E8000C824469
:100140008344AAF10107DA4501D100F085F8AFF246
:10015000090EBAE80F0013F0010F18BFFB1A43F0A5
:1001600001031847D8C90000F8C90000103A24BF9D
:1001700078C878C1FAD8520724BF30C830C144BF0C
:1001800004680C607047000000230024002500264E
:10019000103A28BF78C1FBD8520728BF30C148BFEA
:1001A0000B6070476E2900F07584702900F067813C
:1001B000662909F04B83652909F04883672909F00E
:1001C0004583612909F0448303681B0A28BF41F075
:1001D0008001692900F02284642900F01F847529B8
:1001E00000F01C846F2900F04585782900F03381E8
:1001F000E92900F0DF84E42900F0DC84F52900F02F
:10020000D984EF2900F04285F82900F03281036893
:10021000DB0928BF41F08001632901F05181732976
:1002200001F05681E32901F06181F32901F0668133
:10023000002070471FB500F059FB0400002000218A
:1002400009F09AF9401C60600020002109F0AAF929
:10025000E0601FBD10B510BD01F074F91146FFF745
:10026000E9FF07F06BFA01F041FA03B4FFF7F2FF80
:1002700003BC01F041FA0000224B19680868B0E89D
:10028000F00F80F30988BFF36F8F4FF0000080F309
:1002900011884EF00D0E70470000000006480068FF
:1002A000006880F3088862B661B6BFF34F8FBFF372
:1002B0006F8F00DF00BF00BF08ED00E0EFF30980A3
:1002C000BFF36F8F0F4B1A6820E9F00F106008B56D
:1002D0004FF0500080F31188BFF34F8FBFF36F8F43
:1002E00008F050FA4FF0000080F31188BDE8084094
:1002F00019680868B0E8F00F80F30988BFF36F8FC2
:10030000704700BF4C000020EFF3058070470000ED
:100310000948804709480047FEE7FEE7FEE7FEE799
:10032000FEE7FEE7FEE7FEE7FEE7FEE704480549D5
:10033000054A064B7047000069400008310100087B
:1003400008280020082E0020082A0020082A002063
:1003500010B500F0CBFA001D10BD00BF1D920000CB
:100360001CB50C46064B7B4469460090204600F0C5
:10037000AAFB04460020694600F0B8FB20461CBDDD
:10038000830700000FB41CB5084B06AA7B446946DE
:100390000090059800F097FB04460020694600F0A5
:1003A000A5FB20461CBC5DF814FB00005D070000A7
:1003B00070B5044685690068C10601D5302600E0A5
:1003C0002026C00707D070BDD4E9012130469047F0
:1003D000206A401C20626D1EF6D570BD70B50446C3
:1003E00085690078C00707D170BDD4E901212020BC
:1003F0009047206A401C20626D1EF6D570BD00003B
:10040000F0B40D460188090502D5214C7C4402E078
:100410001F4C7C440E34002100F1240608E002F059
:100420000F071209E75D42EA03721B097754491C62
:1004300052EA0307F3D102780023120704D5702D86
:1004400006D009B1022311342246F0BC00F08DBA67
:1004500001231034F8E770B504460D4621461068B4
:1004600000F051FA024629462046BDE870400023BC
:10047000C6E7D21D22F00703D3E90023C0E70368D3
:10048000126843F0200303600823C3610023B7E729
:100490005EC500002DE9F05F894604464FF0000A72
:1004A000DFF874B1FB44C0F820A02046E16888471B
:1004B000002874D0252806D0D4E901219047206A6D
:1004C000401C2062F1E700265F462046E16888472D
:1004D0002028054607DB312D05D2781910F8200CAD
:1004E00008B10643F1E7B00701D526F00406C4F8C9
:1004F0001CA00027C4F818A02A2D09D0284603F014
:10050000F2FF38B304EB8708303DC8F8185019E003
:1005100059F8041B204604EB87029161E168884783
:10052000012F054618D1E069002820DA26F02006C0
:100530001DE0D8F8180000EB800005EB40003038D3
:10054000C8F818002046E1688847054603F0CBFF4D
:100550000028EED1012F0AD02E2D08D12046E168C7
:1005600088477F1C0546022F46F02006C4DBA069A1
:10057000002803DA404246F00106A061F00701D0EE
:1005800026F010066C2D0BD0682D09D04C2D39D0DB
:100590006A2D35D0742D35D07A2D33D016E038E061
:1005A000E1682F4620468847B842054609D16C2F9E
:1005B00026D04FF48060E168064320468847054610
:1005C00004E06C2F1AD04FF4807006430DB3A5F1F0
:1005D0004100192802D8203546F400664A462946CB
:1005E000204626604E46FFF7DDFD80B101280BD086
:1005F000F61D26F0070000F1080956E74020E4E761
:100600008020D8E70020D6E706F104094DE7284608
:1006100052E7206ABDE8F09FEEC4000040EA010303
:10062000024630B59B0710D14FF0013400E008C2FC
:1006300008C91D1B9D4315EAC41FF8D013F0FF0124
:1006400002F8011B0DD01B0AF8E711F8013B002B43
:1006500002F8013B05D011F8013B002B02F8013BE9
:10066000F3D130BD10B5431C02E010F8011B71B18D
:100670008107FAD14FF0013202C88C1A8C4314EA78
:10068000C211F9D0C01A0A0603D0C01E10BDC01A8C
:1006900010BD0A0401D0801E10BD0902FCD0401E0E
:1006A00010BD40EA010370B59B072ED14FF0013613
:1006B000042A2AD308C810C99D1B9D43121F15EA9E
:1006C000C61517D0D8B2E1B2401A50EA056110D170
:1006D00098B2A1B2401A50EA05410AD123F07F40F6
:1006E00024F07F41401A50EA052102D1180EA0EBF8
:1006F000146070BDA342DBD018BA21BA884201D978
:10070000012070BD4FF0FF3070BD0AB9002070BDF0
:1007100010F8013B11F8014B63B1A3420AD1521EFC
:1007200008D010F8013B11F8014B1BB1A34201D1D5
:10073000521EEDD1181B70BD032A40F2308010F01C
:10074000030C00F0158011F8013BBCF1020F62446C
:1007500098BF11F801CB00F8013B38BF11F8013BFD
:10076000A2F1040298BF00F801CB38BF00F8013BAA
:1007700011F0030300F09482083AC0F0088051F8A9
:10078000043B083A51F804CBA0E80810F5E7121D25
:100790005CBF51F8043B40F8043BAFF30080D20744
:1007A00024BF11F8013B11F801CB48BF11F8012B10
:1007B00024BF00F8013B00F801CB48BF00F8012B33
:1007C000704702F0FF0343EA032242EA024200F0CC
:1007D00002B84FF000020429C0F0128010F0030CA0
:1007E00000F01B80CCF1040CBCF1020F18BF00F824
:1007F000012BA8BF20F8022BA1EB0C0100F00DB8D3
:100800005FEAC17C24BF00F8012B00F8012B48BF30
:1008100000F8012B70474FF0000200B513469446D4
:100820009646203922BFA0E80C50A0E80C50B1F148
:100830002001BFF4F7AF090728BFA0E80C5048BF5C
:100840000CC05DF804EB890028BF40F8042B08BFFA
:10085000704748BF20F8022B11F0804F18BF00F8F6
:10086000012B70474FF0013C50F8042B51F8043B2A
:100870009A4221D1A2EB0C03934313EACC1317D174
:1008800050F8042B51F8043B9A4215D1A2EB0C030B
:10089000934313EACC130BD150F8042B51F8043BCB
:1008A0009A4209D1A2EB0C03934313EACC13DBD099
:1008B0004FF00000704700BFD01A01BAB1FA81F1C1
:1008C00001F0180122FA01F0CB40C1F12001DBB2A6
:1008D000C0B2C01A2CFA01F3D11A914311EAC31124
:1008E000E6D1704770477047704700000048704776
:1008F000C827002009684A0501D540B27047C905DC
:10090000FCD500B2704709684A0501D5C0B27047EE
:10091000C905FCD580B2704770B50C460546012A62
:1009200005D02878800600D5EA69002302E001237B
:1009300005E05B1C934202D2E05C0028F9D1A86973
:10094000E618C01AA861286A184428622846FFF7EA
:100950002FFD04E0D5E9012114F8010B9047B442C2
:10096000F8D32846FFF73AFD70BD2DE9F0470D4654
:1009700099469246044600F124080168880604D589
:10098000E06921F01001216000E00120A84201DDB2
:10099000471B00E00027A1697A1902EB0900081A39
:1009A000A0612078C00602D42046FFF701FD002692
:1009B00008E0D4E901211AF806009047206A401C9B
:1009C000761C20624E45F4DB2078C0060AD520460E
:1009D000FFF7EEFC06E0D4E9012130209047206AC1
:1009E000401C2062381EA7F10107F4DC07E0D4E9BF
:1009F000012118F805009047206A401C2062281E3B
:100A0000A5F10105F3DC2046FFF7E8FC207800069D
:100A100002D50220BDE8F0870120FBE72DE9F04177
:100A20000646002410687529314616A510D0FFF738
:100A300061FF002802DA404213A507E031688A0707
:100A400001D512A502E0490704D511A5012401E052
:100A5000FFF759FF00210A2206F1240709E0B0FB45
:100A6000F2FCB0FBF2F302FB1C0030307854184665
:100A7000491C0028F3D123462A463046BDE8F04100
:100A8000FFF773BF000000002D0000002B000000E6
:100A90002000000011680268006A530501D5087043
:100AA0000AE0D30501D5088006E0130603D5C21776
:100AB000C1E9000200E008600120704701694A1C9A
:100AC00002610878704700B58FB0CDE9013100218F
:100AD000059105497944CDE9031011466846FFF7B1
:100AE000D9FC0FB000BD0000E5FFFFFF0A6802F867
:100AF000010B0A60704700002DE9FF5F15468A462A
:100B00000446DFF8AC80F8440027D8E900103E46E0
:100B1000CDE9001010E03AF816106A4602A800F07D
:100B2000F1FC411C07D02178890603D5E269391808
:100B300091420DD80744761C2078800602D5E069E2
:100B4000B84205DDAE42E6DB3AF816000028E2D1F5
:100B5000A069C01BA0612046FFF72AFCD8E900105D
:100B6000CDE90010002017E03AF818106A4602A8F4
:100B700000F0C8FCB0F1FF3F81460BD000250DF11D
:100B8000080B05E0D4E901211BF8050090476D1C16
:100B90004D45F7D308F10100B0428046E4DB206AFE
:100BA000384420622046FFF719FCBDE8FF9F000093
:100BB0009EBE00002DE9F0418046D21D22F00702C2
:100BC0000025D2E90002F52915A614D0011E72F104
:100BD000000106DA0023D0EB030063EB020211A64A
:100BE00008E0D8F800108B0701D50FA602E04907EE
:100BF00001D50EA601251146002408F1240704E0C2
:100C000000F084F830323A55641C50EA0102F7D102
:100C10002B46324621464046BDE8F041FFF7A5BECF
:100C2000000000002D0000002B000000200000004C
:100C300030B4002100F1240408E002F00705D208D6
:100C4000303542EA4372DB086554491C52EA030519
:100C5000F3D10468002310A2250708D504F020046E
:100C60000C4304D0C46901230CA2641EC46130BCCF
:100C7000FFF77BBE10B5044621461068FFF743FE20
:100C800002462046BDE810400023D1E7D21D22F0E5
:100C90000701D1E90023CBE700000000300000008D
:100CA00010B5203AC0F00B80B1E81850203AA0E807
:100CB0001850B1E81850A0E81850BFF4F5AF5FEA3B
:100CC000027C24BFB1E81850A0E8185044BF18C9EE
:100CD00018C0BDE810405FEA827C24BF51F8043B95
:100CE00040F8043B08BF7047D20728BF31F8023BE9
:100CF00048BF11F8012B28BF20F8023B48BF00F87D
:100D0000012B704700487047A827002030B5B0F18C
:100D10000A024FEA900E71F100034EEA817EB0EBB9
:100D20000E0061EB91014FEA101E4EEA017E10EBBE
:100D30000E0041EB11114FEA102E4EEA016E10EB3E
:100D40000E0041EB11214FEA104E4EEA014E10EB1E
:100D50000E0041EB1141401841F100014FEAD00073
:100D600040EA41704FEAD10110EB80054FEA81045F
:100D700044EA907444EB01046D1944EB0404521BE3
:100D8000A3414FF0000348BF0A3200D530BD401CDC
:100D900041F1000130BD70472DE9FF4F0C461E4662
:100DA0004FF0FF378BB0D2E90001DDF860800A9088
:100DB0008A46C1F30A5505B93D46002108464FF061
:100DC0000000BAF1000F00F4400005DA00EB8000EB
:100DD0004FF4400101EA50004FEA9059B9F1010F78
:100DE00000DDB9460A9850EA4A000ED044F6105089
:100DF000A5F2FF3545432F14B8F1000F1ED0754200
:100E0000291E1EDDC9F100021CE0B8F1010F4FF0F0
:100E1000000001D0302103E0F24305E02154401CE2
:100E2000B042FBDB30460022002121540B99C1F86F
:100E30000880C1E900200FB0BDE8F08FBD1B6D1C1C
:100E4000DEE74A4600DA694206A800F0E1FB06AB9D
:100E500093E8070003AB83E8070050460A9900F0C7
:100E600052FC8DE80700A0F500501F380090039851
:100E7000002D09DD42F21F014A46084403A90390F0
:100E8000684600F0B1FE08E0A0F500504A461F3861
:100E900003A90390684600F0BBFE8DE8070000043C
:100EA000000C03D04FF0FF30410800E01046B8F1CD
:100EB000000F03D00022009215461EE0751E05D4D7
:100EC000FFF724FF303262556D1EF9D5B34601227B
:100ED000084302D000227F1C04E02078302801D192
:100EE00000227F1E002A099786D01DE0112D07DA07
:100EF000FFF70CFF303262556D1C50EA0102F5D14C
:100F0000084302D00098C8B10EE00021681E05E039
:100F1000235C625C63542254401E491C8142F7DB0F
:100F2000AB46A81B401E0990002004F80B000B984C
:100F3000099AC0F80880C0E9002B7CE711264FF021
:100F4000000859E72DE9F04F88460446D21D22F0EB
:100F5000070191B0D1E90001CDE90A0103F09FFA40
:100F600002460B98C00F01D02D2007E020688107B2
:100F700001D52B2002E0202101EAC000032A0990BC
:100F800001D0072A05DB03464146204600F000FB5E
:100F90000BE12078800601D5E06900E00620B8F179
:100FA000650F814606D0B8F1660F18D0B8F1670F0B
:100FB00070D131E00020B9F1110F009001DB112355
:100FC00001E009F101030AAA01A90CA8FFF7E4FE58
:100FD000DDE90C70002609F10105834647E0012098
:100FE0004B4600904FF000470AAA01A90CA8FFF752
:100FF000D3FEDDE90DB00C995D46002610B909F16C
:1010000001000D18B9EB050003D4C0F1FF3609F15A
:101010000105A5EB09002BE0B9F1010F01DA4FF052
:1010200001090020B9F1110F0090484601DD11239C
:1010300000E003460AAA01A90CA8FFF7ADFEDDE90E
:101040000C704D4600268346207800070AD4AB4535
:1010500000DA5D4601A8012D04DD411911F8011CDB
:10106000302907D04F4502DA17F1040F04DA0120C6
:1010700082460FE06D1EEEE7002F02DCED1B3E44C2
:1010800003E0781CA84200DD7D1CB81B00F1010ABA
:101090004FF000472078000703D4AA4501DB4FF04A
:1010A000FF3A0021B7F1004F0DF143088DF84310CE
:1010B00024D002202B23002F01DA7F422D230A2186
:1010C000021EA0F1010000DC5FB197FBF1FC97FB71
:1010D000F1F201FB1C7C17460CF1300C08F801CD35
:1010E000EEE7A8F1010003702188090501D545212B
:1010F00000E06521A0F1010800F8011C09980FA982
:10110000A1EB0807FF1D00B10120411901EBEA70B6
:10111000A1693844081A401EA0612078C00602D494
:101120002046FFF745F9099828B1D4E901219047F5
:10113000206A401C20622078C00622D52046FFF796
:1011400037F91EE0002E04DBB34502DD01A8805D07
:1011500000E03020D4E901219047206A401C206241
:10116000761CAAF101005FEA000A0AD1FFF7BEFB74
:10117000C0680168405CD4E901219047206A401CA6
:101180002062281EA5F10105DCDC07E0D4E901217D
:1011900018F8010B9047206A401C2062381EA7F106
:1011A0000107F3DC2046FFF719F9032011B043E6ED
:1011B0002DE9F04F04460D46D21D22F0070089B0FC
:1011C000D0E9009248461746394603F068F90246CE
:1011D000F80F01D02D2307E02068810701D52B23CC
:1011E00002E0202101EAC0038DF820300BB101207C
:1011F00000E00020032A824601D0072A04DB2946AA
:10120000204600F0C5F93DE12078800601D40D2587
:1012100000E0E569C7F30A560D2D49DA00214FEACF
:10122000175B08464FF00000002F00F4400007DA7B
:1012300000EB80004FF4400100EBD07001EA600049
:101240008115012901DD4FF0FF3100224FEA850CA5
:10125000BCF1180F06D31346ACF118004FF08052C2
:10126000C24003E04FF4801323FA0CF30CF10C0C92
:10127000BCF1200F04D3ACF1200C09FA0CF001E012
:1012800007FA0CF000294FF0004801DD18B90FE013
:101290000ED140450CD319EB02095F4121B94045FD
:1012A00002D19F4329EA0209BBEB175F00D0761CED
:1012B0002088000502D57B48784402E079487844CC
:1012C000193808AA302302F80A30037C0AF1010118
:1012D000002E0AF1020A53546A4602DC4FF0300134
:1012E00001E04FF031014FF001088DF8001002D0FD
:1012F000A6F2FF3603E059EA470100D06A4E002DFE
:1013000002DC2178090704D54FF002082E218DF860
:101310000110C44600210BE0C7F303433F01C35C47
:10132000491C6D1E02F80830052908F1010801DA90
:10133000002DF1DC00210CE000EB1973491C1B7837
:101340006D1E082902F808304FEA091908F1010852
:1013500001DA002DF0DC2178890602D514E0A8F12D
:101360000108E04505DD02EB080111F8011C3029F8
:10137000F5D0B8F1000F07DD02EB080111F8011CF0
:101380002E2901D1A8F10108002D05DD3E2102F82A
:1013900008106D1E08F10108407C002E02F80800BC
:1013A00008F1010804DA2D20764202F8080002E074
:1013B0002B2002F808000A214FF47A70864208F1C7
:1013C00001080BDB96FBF0F3303302F8083096FB94
:1013D000F0F308F1010800FB136601E0642E0CDB5A
:1013E000642096FBF0F3303302F8083096FBF0F3FC
:1013F00008F1010800FB136601E00A2E06DB96FBEC
:10140000F1F0303002F8080008F1010896FBF1F025
:1014100001FB1060303002F80800A16908F10108F2
:1014200008EB050202EB0A00081AA0612078C0064A
:1014300002D42046FEF7BCFF216A08AE01EB0A0089
:10144000206204E0D4E9012116F8010B9047BAF1BB
:10145000010AF7D22078C00602D52046FEF7A8FF81
:101460006E4609E016F8010B3E280FD0D4E90121A1
:101470009047206A401C2062B8F10108F2D2204651
:10148000FEF7ACFF09B00320BDE8F08F206A2844C6
:10149000206203E0D4E90121302090476D1EEBD398
:1014A000F8E7000007B7000002FCFFFF10B5436932
:1014B00013B1AFF3008001E0FFF72EFA012010BD59
:1014C000127800F124010A7000224A700122EDE72F
:1014D00011684FF0FF32E9E710B5436913B1AFF37C
:1014E000008001E0FFF708FB012010BD128800F129
:1014F000240182840022C2840122EDE711684FF0AA
:10150000FF32E9E770B516460C460546FEF720FFA8
:10151000036893F80101012806D0FF2C0FD8185D4D
:1015200068B101202C7070BDD3F807013246214606
:1015300003F2071303442846BDE8704018474FF0F4
:10154000FF3070BD7546FFF7DDFBAE46050069460E
:10155000534620F00700854618B020B5FEF7E6FE9A
:10156000BDE820404FF000064FF000074FF00008A4
:101570004FF0000B21F00701AC46ACE8C009ACE825
:10158000C009ACE8C009ACE8C0098D46704700004E
:101590002DE9F0411F46044603260168072A01F49D
:1015A000006004DB08B116A505E016A503E008B14C
:1015B00015A500E015A521F010002060A069C01E4F
:1015C000A0610FB1401EA0612046FEF7F1FE4FB1B1
:1015D000D4E9012138469047206A401C2062C01C93
:1015E000206206E0206AFAE7D4E9012115F8010B30
:1015F0009047761EF8D22046FEF7F0FEBDE8F08157
:101600004E414E006E616E00494E4600696E6600A6
:101610002DE9F047814616468AB0334878440DC814
:101620008DE80D0030487844801C03AC0DC884E878
:101630000D0041F69B300844372190FBF1F290FBFE
:10164000F1F5A5F1800501FB12041B3C02D56442B3
:10165000012000E00020DFF890A080460027FA4437
:10166000AAF1BE0A0DE0E00709D03246684607EB52
:1016700047010AEB810100F0CBFA8DE80700641006
:101680007F1C002CEFD1184F7F44AC3F18E0E807D7
:1016900014D007EB04100DF1180A90E80E008AE848
:1016A0000E00C068F04201D198190890324606A990
:1016B00003A800F0ADFA03AB83E807006D10641CCB
:1016C000002DE4D132466946B8F1000F03A802D0DC
:1016D00000F08AFA01E000F09BFAC9E90001C9F8BC
:1016E00008200AB0BDE8F08734B400000446AFF328
:1016F00000802046FEF7B9FD01491820ABBEFEE789
:101700002600020070475FEA400C08BF91F0000F0E
:101710004FEA8C234FEAC12243EA51514FEA1C5051
:1017200018BF00F5F0404FEA300018BF41F000410B
:101730005FEA6C5C00F02980BCF1FF3F08BF40F01D
:1017400080407047130C06BF12044FF0100C4FF08E
:10175000000C130E04BF12020CF1080C130F04BF8F
:1017600012010CF1040C930F04BF92000CF1020C57
:10177000D30F04BF52000CF1010C11464FF00002D0
:10178000A0F11F00A0EB0C00704711F0004F08BF44
:10179000704731F000413FF4D5AF0B0C06BF090490
:1017A0004FF0100C4FF0000C0B0E04BF09020CF1AF
:1017B000080C0B0F04BF09010CF1040C8B0F04BFC4
:1017C00089000CF1020CCB0F04BF49000CF1010C95
:1017D000CCF12003A0EB0C0022FA03F302FA0CF286
:1017E00041EA030100F10100704720F07F4C80EADC
:1017F000030023F07F47ACEB070303F57C5300F0B5
:10180000004003F1FF032DE980494FEA154B09B46D
:101810004FEA144325EA0B4E24EA03480FF204264C
:1018200006EB132749083E785FEA320203FB06679E
:10183000C7F5000707FB06F64FEA54374FEAD646CE
:1018400006F1020607FB066CCCF1005C4FEA1C4770
:101850002CEA074C07FB06F40CFB06F504EB1546D7
:101860004FEA961634BF00204FF000404FEAD137C0
:1018700006FB07FC4FEA1C4C0CFB0BF7D21B03FBCF
:101880000CF761EB07010CFB0EF7B0EB074072EBB6
:1018900017420CFB08F734BFA2EB0742B2EB07423A
:1018A00061EB17414FEA0C444FEA910706FB07FC36
:1018B0004FEA1C4C0CFB0BF7B0EBC74072EB5732F6
:1018C00003FB0CF734BFA2EBC742B2EBC74261EB9C
:1018D00057310CFB0EF7B0EBC70072EB57720CFBE5
:1018E00008F734BFA2EBC702B2EBC70261EB577136
:1018F000039F4FEA816141EA921104EBCC044FEA65
:10190000D1374FEA826206FB07FC42EA90124FEAA7
:1019100080604FEA1C4C0CFB0BF7D21B03FB0CF74F
:1019200061EB07010CFB0EF7B0EB074072EB1742BF
:101930000CFB08F734BFA2EB0742B2EB074261EBA6
:1019400017414FEA8C554FEA910704EB9C2406FBA4
:1019500007FC4FEA1C4C0CFB0BF7B0EBC74072EBDB
:10196000573203FB0CF734BFA2EBC742B2EBC742BE
:1019700061EB57310CFB0EF7B0EBC70072EB5772FF
:101980000CFB08F734BFA2EBC702B2EBC70261EB56
:10199000577115EB4C254FEA816141EA92114FEAEC
:1019A00082624FEAD13742EA901206FB07FC44F10B
:1019B00000044FEA80604FEA1C4C0CFB0BF7D21B73
:1019C00003FB0CF761EB07010CFB0EF7B0EB0740D4
:1019D00072EB17420CFB08F734BFA2EB0742B2EBE5
:1019E000074261EB174115EB1C154FEA813141EAC3
:1019F00092414FEA823242EA90424FEA80304FEA07
:101A00000C7644F1000448EA03434EEA0B484FF0D9
:101A1000000EB2EB080C71EB030724BF6246394697
:101A20004EEB0E0E4FF0000B0018524149414BEBAC
:101A30000B0BB2EB080C71EB03077BF1000B24BF1F
:101A4000624639464EEB0E0E4FF0000B0018524125
:101A500049414BEB0B0BB2EB080C71EB03077BF12D
:101A6000000B24BF624639464EEB0E0E51EA0207C8
:101A700018BF46F0010616EB0E7655F1000254F140
:101A8000000103D5BDE88901BDE80088BDE88901F2
:101A9000BDE80048B619524141EB0101A3F1010331
:101AA000704780807F7E7D7C7B7A797877767675CB
:101AB0007473727171706F6E6E6D6C6C6B6A6A6943
:101AC0006868676666656464636362616160605FDD
:101AD0005F5E5E5D5D5C5C5B5B5A5A595958585756
:101AE00057565655555554545353525252515150BE
:101AF00050504F4F4F4E4E4D4D4D4C4C4C4B4B4B11
:101B00004A4A4A4949494848484747474746464656
:101B10004545454444444443434343424242424191
:101B20004141002B26D4770021D01CB54FEA37075E
:101B300003B44FF010004FF010014FF000000FBC45
:101B4000BDE810400BF1010BBBF1010F08BF5FEACC
:101B5000170722BF12F1010211F101014FF00041FC
:101B600043F1000300F0004043EA00007047F9D35E
:101B70005708DAE746EA064613F1400F4FEA1646E1
:101B80001FDD13F1200FDFBF16430A46002120336B
:101B90005B42C8D0C3F1200746EA064602FA07F7BF
:101BA0004FEA164646EA0706C3F1200722FA03F277
:101BB00001FA07F721FA03F14FF0000342EA0702A6
:101BC000B1E746EA020646EA06464FEA164646EA04
:101BD0000106BCBF46EA0646360C4FF000034FF044
:101BE00000024FF000019EE72DE9C048934630B453
:101BF00091E8380007C831EA400C48BF34EA430C8A
:101C000003D5FFF7F2FDFFF78CFFF0BCBDE80088BD
:101C10002DE9C048934630B491E8380007C810F069
:101C2000804F08BF13F0804F03D100F005F8FFF795
:101C300078FFF0BCBDE8008820F07F4780EA030011
:101C400023F07F4C07EB0C03A3F57C5300F000401E
:101C5000A3F1FE0392F0000F00F0B38095F0000FA7
:101C600000F077802DE901494FEA11404FEA144610
:101C700021EA004800FB06FC24EA064708FB06F6BA
:101C800007FB08F800FB07F718EB06484CEB164C6F
:101C90004FEA124B18EB07484FEA15464CEB17403A
:101CA00022EA0B4E0BFB06FC25EA06470EFB06F666
:101CB00007FB0EFE0BFB07F71EEB064E4CEB164C1C
:101CC0004FF000061EEB074E4CEB174B18EB0B08C2
:101CD00040F1000018EB0E0B58EB000840F100003B
:101CE0008F1A4FF000013CBFC943661B14BFB5EB10
:101CF000040C00213CBFC943F61B4FEA17444EEACF
:101D00008E0E27EA04454FEA1C4704FB07622CEAC3
:101D1000074C05FB07F70CFB05F604FB0CFC16EB68
:101D2000074642EB174216EB0C4642EB1C421BEBFC
:101D3000060658EB0202414146EA9E0601D5BDE87F
:101D40000189B619524141EB0101A3F10103BDE83C
:101D500001894FEA14454FEA114724EA054621EA72
:101D6000074C05FB07F406FB07F70CFB06F105FB28
:101D70000CFC11EB074144EB17444FEA124711EBFF
:101D80000C4144EB1C4422EA074C05FB07F206FB1E
:101D900007F70CFB06F605FB0CFC16EB074642EBBF
:101DA000174216EB0C4642EB1C456A1854F1000131
:101DB00048BF7047B619524141EB0101A3F101033D
:101DC000704795F0000F37D04FEA11424FEA1447A1
:101DD00021EA024624EA074C02FB07F106FB07F75B
:101DE0000CFB06F402FB0CFC14EB074441EB17411F
:101DF0004FEA154714EB0C4441EB1C4125EA074C14
:101E000002FB07F506FB07F70CFB06F602FB0CFCD2
:101E100016EB074645EB174516EB0C4645EB1C4207
:101E2000121951F1000148BF7047B619524141EBF8
:101E30000101A3F1010370474FEA14454FEA11472E
:101E400024EA054621EA074C05FB07F106FB07F7E4
:101E50000CFB06F24FF0000605FB0CFC12EB0742F0
:101E600041EB174112EB0C4251EB1C4148BF70474C
:101E7000921841EB0101A3F101037047FEE7000056
:101E8000014800F04DB90000AC010020014800F00D
:101E900047B900006801002030B590F84050012497
:101EA000AC40C56B6C60046863604368102B0368CA
:101EB00003D099600068C26030BD9A600068C1605C
:101EC00030BD704772B6FEE730B5B3F5804F05D030
:101ED0006FF0704140F82210002030BD8C690B6813
:101EE0008D6823434C688989240144EA05242343EF
:101EF00043EA014150F82230014C23401943E9E7FD
:101F00000000F0CF10B50A6850F8223023F001032A
:101F100040F822308C68082C23D000234A682243E2
:101F2000CC681C430B6922431A434B690E4C1A437D
:101F3000CB691A430B6A1A434B6A1A438B6A1A43DA
:101F4000CB6A1A430B6B1A438B6913434A6B0968BC
:101F50001A4350F82130A343134340F821300020A6
:101F600010BD4023DAE700007FFF0F0030B5D1E954
:101F7000003443EA04138C688D89240244EA054442
:101F800023430C8A074D00EB820005EB04542343E6
:101F90000C7D6D0105EB0464896923430B434360A9
:101FA000002030BD0000F0FF10B590F82110002295
:101FB000022905D00421816380F82020012010BD72
:101FC00001680B6823F00E030B6001680B6823F0B7
:101FD00001030B6090F84030C46B012101FA03F358
:101FE000636080F8211080F82020104610BD0000AA
:101FF0002DE9F05F90F821100024022903D004217C
:102000008163012485E001680A6822F00E020A60FB
:1020100001680A6822F001020A603F4E3E4FB21585
:10202000DFF8F4C0DFF8F090DFF8ECA0DFF8E8B0FC
:10203000DFF8E4E00168783F13011502ACF1640CAD
:10204000A9F15009AAF13C0AABF1280BAEF1140E2C
:102050004FF48018B14227D9B9420ED0614512D051
:1020600049451DD0514518D0594518D0714501D169
:10207000424615E0294EB14201D1012210E0274E1F
:102080001436B14201D110220AE0244E2836B14262
:1020900006D0224A3C32914201D11A4600E02A463B
:1020A0001E49091F0A602BE0B94213D0614517D0C1
:1020B000494522D051451DD059451DD0714501D10A
:1020C00042461AE0B14202D14FF0807215E0134E41
:1020D000B14201D1012210E0104E1436B14201D1BB
:1020E00010220AE00D4E2836B14206D00B4A3C328F
:1020F000914201D11A4600E02A46074980394A60D8
:10210000012180F82110002180F82010416B01B1DD
:1021100088472046BDE8F09F800002400804024046
:102120002DE9F05FC16B0A6801680B68046C4FF021
:10213000040808FA04F8844D844E854FDFF814C271
:10214000DFF81492DFF814A2DFF814B2DFF814E21B
:1021500018EA020F65D05FEA437862D50A689206F2
:1021600003D40A6822F004020A60DFF8F0814FF419
:102170008062016808F1140813011402414524D952
:10218000A9420DD0B1420FD0B9421AD0614515D045
:10219000494515D0514501D1120312E0594501D1ED
:1021A00004220EE0714501D140220AE06D4D143544
:1021B000A94206D06B4A2832914201D11A4600E06A
:1021C00022466749091F0A6029E0A94213D0B1429B
:1021D00015D0B94220D061451BD049451BD051458F
:1021E00002D14FF4800217E0414502D14FF08062E6
:1021F00012E0594501D104220EE0714501D140227F
:102200000AE0584D1435A94206D0564A2832914268
:1022100001D11A4600E022464B4908394A60C16A9A
:1022200071E04FF0020808FA04F818EA020F70D0C3
:102230005FEA83786DD50A68920606D40A6822F0B0
:102240000A020A60012180F82110DFF810814FF4A2
:102250000072016808F1140813011402414524D9E1
:10226000A9420DD0B1420FD0B9421AD0614515D064
:10227000494515D0514501D1120312E0594501D10C
:1022800002220EE0714501D120220AE0354D1435BD
:10229000A94206D0334A2832914201D11A4600E0C1
:1022A00022462F49091F0A6029E0A94213D0B142F2
:1022B00015D0B94220D061451BD049451BD05145AE
:1022C00002D14FF4001217E0414502D14FF00072E5
:1022D00012E0594501D102220EE0714501D12022C0
:1022E0000AE0204D1435A94206D01E4A28329142F8
:1022F00001D11A4600E02246134908394A600021FC
:1023000080F82010816A00291CD0BDE8F05F0847E2
:10231000FFE70825A540154214D01A0712D50A6810
:1023200022F00E020A6090F84020C36B012101FAEE
:1023300002F25A60816380F82110002180F8201099
:10234000016BE0E7BDE8F09F080002401C0002407E
:102350003000024044000240580002406C0002403D
:10236000080402401C04024030B560B11A4B0268F8
:1023700014219A4209D2194B1344B3FBF1F189009D
:10238000016417490AE0012030BD134B5B4213443E
:10239000B3FBF1F1890001640F490839C1630221DF
:1023A00080F82110136843F6F0718B43F0E90114B3
:1023B0002143D0E902452C43214304692143446968
:1023C00021438469214319431160002141630122A3
:1023D00042770177084630BD08040240F8FFFDBF90
:1023E0000000024070B5044690F820000025012846
:1023F0000CD0012084F8200094F821600020012EE8
:1024000006D084F820000225284670BD022070BD49
:10241000022684F82160A0632068066826F0010681
:1024200006602046FFF738FDE06A00282068016852
:1024300002D041F00E0106E021F0040101602068A5
:10244000016841F00A0101602068016841F0010162
:102450000160D9E730B585B000200090019002906E
:10246000039017480168002927D101210160154810
:10247000416941F4807141614069022400F4807037
:10248000049041F20100CDE900040325694603955B
:102490000D4800F01FF84FF68070CDE90004694642
:1024A00003950A4800F016F84CF23370CDE90004A9
:1024B00069460395064800F00DF805B030BD0000F0
:1024C00034000020001002400020014000180140AC
:1024D000001401402DE9F84FDFF8C8910024A9F15C
:1024E000040B23460F2709F1040AABF1040ED1E0D7
:1024F0000125A54006EA0502AA4276D1DFF8A8C167
:102500004E68A6EB0C0866452BD00DDC032E34D0AC
:1025100005DC36B3012E19D0022E2FD11BE0112E6F
:1025200016D0122E2AD119E0B8F5881F19D006DC72
:10253000B8F5803F15D0B8F5801F1FD111E0B8F570
:10254000001F0ED0B8F5041F18D10AE0CB6815E0C3
:10255000CB681B1D12E0CB6808330FE0CB680C334F
:102560000CE08B682BB1012B4FF0080303D04561C1
:1025700004E0042302E0056100E00023FF2A01D803
:10258000064601E000F104064FEA840501D9A5F1F1
:102590002005D6F8008007FA05FC28EA0C0803FAA3
:1025A00005F548EA0508C6F800804D68ED0070D5CD
:1025B0003E4DAE6946F00106AE61AD6924F00306FA
:1025C00005F0010500953A4D06EB050CDCF80850C6
:1025D000A607360F07FA06F825EA0805DFF8D480C3
:1025E000404503D14FF0000825E052E0DFF8C880F5
:1025F000404502D14FF001081DE0DFF8C0804045A2
:1026000002D14FF0020816E0DFF8B480404502D155
:102610004FF003080FE0DFF8AC80404502D14FF0E7
:10262000040808E0DFF8A080404502D14FF005081B
:1026300001E04FF0060808FA06F848EA0508CCF869
:1026400008804D68D9F80060ED024D4601D516436B
:1026500000E096432E604D68DAF80060AD02554602
:1026600001D5164300E096432E604D68DBF800600C
:10267000AD035D4601D5164300E096432E604D68DC
:10268000DEF80060ED03754601D5164300E0964381
:102690002E60641C0A681646E2407FF429AFBDE84C
:1026A000F88F0000080401400000111000100240E3
:1026B0000000014000080140000C014000100140F2
:1026C0000014014000180140001C0140C26821EACA
:1026D00002030A4043EA0241016170470AB1016105
:1026E00070470904FBE7000001488068704700005C
:1026F0003C000020024881680278114481607047E4
:102700003C000020074810B5016841F0100101604D
:10271000032000F0A1F80F2000F006F800F04AF8BE
:10272000002010BD0020024030B505461C4887B08F
:10273000816941F400618161806906A900F400604B
:10274000009001A800F030F900F05EF91549164A32
:10275000B0FBF1F11548491E0260416040F2E732DA
:102760000021C0E903218160816100F049FB040080
:1027700012D10E4800F072FB04000DD1192000F0B8
:102780003DF8102D07D200222946192000F044F808
:102790000748056000E0012407B0204630BD000076
:1027A0000010024040420F00002C0140F0010020C8
:1027B000400000200F4808B5816941F001018161A6
:1027C000816901F001010091C16941F08051C1614D
:1027D000C069002200F0805000900F21901E00F090
:1027E0001BF80548416821F0E06141F0007141604B
:1027F00008BD00000010024000000140002809DB75
:1028000000F01F02012191404009800000F1E0200A
:10281000C0F8001170470000F0B40E4B1B680C4666
:10282000C3F30223C3F10705042D00D90425191DA4
:10283000072901D2002300E0DB1E012606FA05F17C
:10284000491E214099409E40761E16403143F0BCFF
:1028500001F039BE0CED00E0064900F007020868FF
:102860004FF6FF03184040EA0220034A1043086075
:10287000704700000CED00E00000FA052DE9F0477C
:102880000F46050061D0434E306800F00700B842A3
:1028900009D2306820F0070038433060306800F01B
:1028A0000700B84251D128683B4C810712D5400738
:1028B00003D5606840F4E06060602878000703D5C5
:1028C000606840F4605060606068A96820F0F000C3
:1028D000084360602878C00728D06868012810D0B5
:1028E0002168022810D0890700292EDA616821F0BA
:1028F000030101436160FFF7F7FE804641F288392A
:102900000DE021688903EFE78901EDE7FFF7ECFEB1
:10291000A0EB0801494502D90320BDE8F0876068B3
:10292000696800F00C00B0EB810FEFD1306800F067
:102930000700B8420BD9306820F0070038433060F8
:10294000306800F00700B84201D00120E5E72878A0
:10295000400705D56068E96820F4E06008436060DE
:102960002878000706D56068296920F4605040EA9D
:10297000C100606000F058F86168084AC1F30311B3
:10298000515CC8400649086006480068FFF7CCFE65
:102990000020C2E70020024000100240D699000843
:1029A00048000020400000200F2202600C4A5368BB
:1029B00003F003034360536803F0F003836053683C
:1029C00003F4E063C36052684FF4E06303EAD202A9
:1029D00002610448006800F00700086070470000CA
:1029E0000010024000200240044805490068496880
:1029F000044AC1F30221515CC840704748000020DE
:102A000000100240E699000804480549006849683A
:102A1000044AC1F3C221515CC840704748000020FD
:102A200000100240E69900080E4A51680E4801F075
:102A30000C03042B11D0082B0FD10C48C1F3834396
:102A4000C903C05C0AD55168084AC1F34041921ECF
:102A5000515C054A5043B0FBF1F0704704494843CC
:102A6000704700000010024000127A00C69900086A
:102A700000093D002DE9F84F040070D02078C04DCA
:102A8000C00749D06868C0F38100012807D0686892
:102A9000C0F38100022809D16868C00306D5286800
:102AA000800339D560680028E7D035E06068B0F56C
:102AB000803F0BD010B1B0F5A02F11D0286820F4C2
:102AC00080302860286820F4802002E0286840F4E4
:102AD00080302860606890B1FFF706FE06460AE085
:102AE000286840F480202860F0E700BFFFF7FCFD75
:102AF000801B642873D828688003F7D50CE0FFF7A3
:102B0000F3FD064605E000BFFFF7EEFD801B6428DD
:102B1000F0D828688003F7D420789A4E80074FF0C9
:102B200001094FF0000839D5686810F00C0F07D084
:102B30006868C0F38100022809D16868C00306D420
:102B40002868800714D52069012808D110E0206981
:102B5000B0B1C6F80090FFF7C7FD074605E00AE1EF
:102B6000FFF7C2FDC01B0228C4D828688007F7D52C
:102B70002868616920F0F80040EAC10028600DE093
:102B8000C6F80080FFF7B0FD074604E0FFF7ACFD94
:102B9000C01B022823D828688007F7D420780007B4
:102BA0002CD57948A169D9B1C0F80090FFF79CFDF8
:102BB000074604E0FFF798FDC01B02280FD8686A9B
:102BC0008007F7D571484FF4FA510068B0FBF1F077
:102BD000009000BF0098411E0091FAD20EE080E004
:102BE000C0F80080FFF780FD074604E0FFF77CFD9A
:102BF000C01B022875D8686A8007F7D42078400780
:102C000060D5E8690027C00008D4E86940F080502A
:102C1000E861E869012700F0805000905C48016895
:102C2000C90513D40168834641F480710160FFF740
:102C30005BFD824606E000BFFFF756FDA0EB0A00F1
:102C400064284ED8DBF80000C005F5D5E0680128FF
:102C50000AD008B1052813D0286A20F001002862A4
:102C6000286A20F0040002E0286A40F0010028628F
:102C7000E06841F2883B98B1FFF736FD82460BE0F1
:102C8000286A40F004002862EEE700BFFFF72CFD41
:102C9000A0EB0A0159455AD8286A8007F6D50CE0FE
:102CA000FFF722FD824605E0FFF71EFDA0EB0A01BB
:102CB00059454CD8286A8007F6D41FB1E86920F03E
:102CC0008050E861E06988B36968C1F38101022935
:102CD00044D00228C6F8608004D0FFF705FD044602
:102CE00038E034E0FFF700FD074604E0FFF7FCFCA6
:102CF000C01B02282BD828688001F7D4206AB0F5C1
:102D0000803F05D16868A16820F4003008436860FE
:102D1000D4E908010843696821F474110843686024
:102D2000C6F86090FFF7E0FC044606E025E000BF2F
:102D3000FFF7DAFC001B022809D828688001F7D5C4
:102D40001BE000BFFFF7D0FC001B022802D90320C4
:102D5000BDE8F88F28688001F4D40EE00128F7D090
:102D60006868226A00F48031914204D1616A00F4FB
:102D70007010884201D00120EAE70020E8E7000057
:102D800000100240000042428004424248000020FD
:102D90000070004070B515460E46040007D0A069CB
:102DA000B0F5807F03D094F8410010B107E0012016
:102DB00070BD002084F84000204600F01DF804F1AA
:102DC00008012068FFF79EF83146A2682068FFF7E7
:102DD000CDF8D4E901022946236BFFF775F8A16805
:102DE000206850F8212042F0010240F82120012003
:102DF00084F84100002070BDFFF72CBB704770477E
:102E000010B5040003D094F83D0010B107E0012094
:102E100010BD002084F83C00204600F01EF802207F
:102E200084F83D00211D206801F026F9012084F876
:102E3000460084F83E0084F83F0084F8400084F89F
:102E4000410084F8420084F8430084F8440084F888
:102E5000450084F83D00002010BD704790F83D10FB
:102E6000012901D001207047022180F83D1001683E
:102E7000CA6842F00102CA6000680E4988420ED05A
:102E80000D4988420BD0B0F1804F08D00B498842E1
:102E900005D00B49884202D00A49884204D1816892
:102EA00001F00701062903D0016841F0010101602A
:102EB00000207047002C0140003401400004004015
:102EC00000080040000C004070472DE9F041044626
:102ED0000068C66805694FF00007A90713D5B10758
:102EE00011D5F91E016101202077206880698007D3
:102EF000204602D0FFF7E8FF04E000F07EF820460D
:102F000000F07CF82777680716D5700714D521687C
:102F10006FF004000861022020772068806910F4B7
:102F2000407F204602D0FFF7CFFF04E000F065F8B5
:102F3000204600F063F82777280715D5300713D50A
:102F400021686FF008000861042020772068C069BC
:102F50008007204602D0FFF7B7FF04E000F04DF8ED
:102F6000204600F04BF82777E80616D5F00614D572
:102F700021686FF010000861082020772068C06980
:102F800010F4407F204602D0FFF79EFF04E000F0DF
:102F900034F8204600F032F82777E80708D0F00729
:102FA00006D021686FF001000861204600F028F883
:102FB000280608D5300606D521686FF08000086124
:102FC0002046FFF71BFF680608D5700606D5216866
:102FD0006FF040000861204600F01CF8A8060AD5F2
:102FE000B00608D521686FF0200008612046BDE8D2
:102FF000F041FFF704BFBDE8F08170477047000063
:1030000000680349884201D1FFF774BB7047000094
:10301000002C01407047704770470000F8B5016808
:1030200004460868CA684B6910F00F0F4FF000059E
:103030005AD003F0010602F49077374365D0C107F8
:1030400005D0D10503D5616C41F0010161644107F0
:1030500005D5D90703D0616C41F002016164810795
:1030600005D5D90703D0616C41F004016164010703
:1030700007D502F02001314303D0616C41F0080113
:103080006164616C00293BD0800604D5900602D5AE
:10309000204601F0F3F820684069616CC0F38010AD
:1030A00001F00801014320462BD001F0B2F820685E
:1030B0004069400621D52068143050E8001F21F0F7
:1030C000400140E80012002AF5D1E06BA8B16D493B
:1030D0004163E06BFEF78CFF002811D0E06B416B81
:1030E00001B0BDE8F040084783060ED593060CD525
:1030F0002046BDE8F84001F0C1B82046FFF78CFF3C
:10310000F8BDFFF789FF6564F8BD266B2023012E0B
:103110007CD1C6067AD5D60678D50868486800906E
:1031200048694FF00206400640D5E16B08684068E8
:103130000004000CE8D0A28D8242E5D9E0858869C0
:1031400020282DD020680C3050E8001F21F4807119
:1031500040E80012002AF5D12168143151E8000F2F
:1031600020F0010041E80002002AF5D12068143067
:1031700050E8001F21F0400140E80012002AF5D17C
:1031800084F84230256320680C3050E8001F21F09D
:10319000100140E80012002AF5D1E06BFEF704FFB1
:1031A0006663A08DE18D401A81B22AE0A08DE18D89
:1031B000401A81B2E08D0028A6D00029A4D0226850
:1031C0000C3252E8000F20F4907042E80007002F04
:1031D000F5D12068143050E8002F22F0010240E8B9
:1031E0000027002FF5D184F84230256320680C3089
:1031F00050E8002F22F0100240E80023002BF5D108
:1032000066632046FFF707FFF8BDFFE705062BD5ED
:10321000150629D594F841002128F5D1A068B0F50C
:10322000805F01D12069B0B1206A411C2162216810
:1032300000784860E08C401E0004000CE084E3D17C
:103240002068C16821F08001C1602068C16841F038
:103250004001C160D8E7206A0088C0F308004860D8
:10326000206A801C2062E5E74006CDD55006CBD50C
:10327000CA68204622F04002CA6084F8413000F05B
:10328000CDF8C1E71541000870B5040004D094F8EA
:103290004100002510B106E0012070BD84F84050C7
:1032A000204600F023F8242084F841002068C168FB
:1032B00021F40051C160204601F042F82068016904
:1032C00021F4904101612068416921F02A014161A6
:1032D0002068C16841F40051C1606564202084F811
:1032E000410084F842006563002070BDF0B585B0F0
:1032F00000240646009401940294039400682D492A
:10330000884255D12C48816941F4804181618169AD
:1033100001F480410491816941F004018161806977
:10332000264D00F0040004904FF40070009002203D
:1033300001900320039069462846FFF7CBF8281533
:10334000CDE90004694628460294FFF7C3F81D4DF5
:103350001B488027C5E90004C5E9024720202C61ED
:10336000C5E905402846EC61FEF7FEFF08B1FEF70F
:10337000A9FDF5636E62134D11484435143801C53B
:10338000102091C50F4845F8104944306C61AC617C
:10339000EC61FEF7E9FF08B1FEF794FDB56300228A
:1033A000052125206E62FFF737FA2520FFF726FA60
:1033B00005B0F0BD00380140001002400008014097
:1033C000580002406801002090F84230202B01D0C4
:1033D0000220704721B11AB10023036301F00CB839
:1033E000012070477047704790F84130202B01D082
:1033F0000220704779B172B101628284C2840021D7
:103400004164212180F841100068C16841F08001C9
:10341000C160002070470120704700000068044927
:10342000884203D10348006804F076BA7047000070
:103430000038014020000020FEE700000D4808B5DC
:10344000416941F0010141614069002200F0010041
:10345000009005210E20FFF7DFF90E20FFF7CEF9CF
:10346000002205210F20FFF7D7F9BDE808400F2003
:10347000FFF7C4B90010024010B50121BAB02D4ABF
:10348000084604F0FDF92C4C2A4A01212062103232
:10349000084604F0F5F9274A012160622032084607
:1034A00004F0EEF9234A0121A0623032084604F00C
:1034B000E7F9204A0121E0624032084604F0E0F9D1
:1034C00020631E4A00211E4804F050FA1B4A206067
:1034D000243269461B4804F049FA184A60604832B1
:1034E0006946194804F042FA144AA0606C326946F1
:1034F000164804F03BFA0F4AE060903A0021144865
:1035000004F034FA0B4A20616C3A6946114804F021
:103510002DFA084A6061483A69460F4804F026FAD5
:10352000044AA061243A69460C4804F01FFAE0619D
:103530003AB010BD749900080000002054980008AB
:10354000E93F0008513F0008A9380008013B000886
:10355000493E0008FD3E00085D380008B93E0008FD
:1035600010B58EB01C216846FDF755F91C2107A83F
:10357000FDF751F91C484FF02041102201601B4912
:103580004160062181600021C160C0E904128161AF
:10359000C16113020162C0E909139302C0E90B1370
:1035A000416381630F20FF230090CDE901030DF1FA
:1035B0000C0C11248CE81500CDE90803CDE90610A8
:1035C0000AAB0D9183E8150007AA69460648FFF784
:1035D000E1FB08B1FEF776FC0548C16941F4806162
:1035E000C1610EB010BD0000D8000020040100A091
:1035F000000001402DE9F04186B0002534480095D7
:10360000019502950395816941F0400181618169CD
:1036100001F040010491816941F0100181618169EB
:1036200001F010010491816941F480718161816927
:1036300001F480710491816941F00801816181691F
:1036400001F008010491816941F0200181618169E3
:1036500001F020010491816941F0040181618069D8
:103660001C4F00F004000490012220213846FFF78F
:1036700035F8DFF8648000224FF471414046FFF7CF
:103680002DF8012220214046FFF728F801242020B0
:10369000CDE900040326CDE9024669463846FEF727
:1036A00019FF4FF22000CDE90004CDE9024669463A
:1036B0004046FEF70FFF20028DE831000220039004
:1036C00069464046FEF706FF06B0BDE8F0810000FF
:1036D0000010024000180140000C01400C4810B5D9
:1036E0000A4901604FF416514160002181600C22AB
:1036F000C160C0E904128161C161FFF7C5FD002806
:1037000003D0BDE81040FEF7DDBB10BD003801401E
:1037100020010020FEE700002DE9F047464D044659
:1037200000264FF480574FF480484FF400594FF46F
:10373000004A00BF94F8E60009281DD2DFE800F037
:103740001C050C2229303C484A00012239462846F3
:10375000FEF7C4FF002201E0012214E041462846A2
:10376000FEF7BCFF002249462846FEF7B7FF0022BD
:1037700051462846FEF7B2FF94F8E500D8B3012879
:1037800044D04EE0002239462846FEF7A7FF01222A
:10379000E4E7002239462846FEF7A0FF012205E0B3
:1037A000002239462846FEF799FF00224146284666
:1037B000FEF794FF0122D6E7002239462846FEF79D
:1037C0008DFF002241462846FEF788FF01220CE0CB
:1037D000002200E0012239462846FEF77FFF002242
:1037E00041462846FEF77AFF002249462846FEF762
:1037F00075FF0122BCE7FFE794F8E600401CC0B269
:1038000084F8E60009280CD1012008E094F8E600CD
:10381000401E10F0FF0084F8E60002D1082084F872
:10382000E600D4F8DC0003F0C1FF761CF6B2082EE7
:1038300080D3BDE8F0870000000C014010B50446BD
:10384000FFF76AFFD4F8E000401EC4F8E00002D1A0
:10385000012084F8E40010BDFEE7000004460020CB
:103860004FF480760F4DC4F8D80012E001223146A3
:103870002846FEF733FFD4F8D80003F097FF002264
:1038800031462846FEF72AFFD4F8D800C0F57A70F2
:1038900000E0642003F08AFFD4F8D8000028F8D0B4
:1038A000E4E70000000C01408AB00546482000F023
:1038B00021FE03F0FFFA4FF6FF7000F041FE6C4866
:1038C0006CA1828805A8FCF75DFD05F149004FF069
:1038D000800B4FF018084FF4784900244FF0100A7D
:1038E000CDF8100066484FF0FF31006803F09AFFF2
:1038F000CDF80080CDE901B40A215F4646462A781A
:103900000223084603F084FE5EA00096CDE9010480
:103910002023F0220A21222003F04FFE0096CDE959
:1039200001746A7802230A212E2003F071FE55A04B
:103930000096CDE901042023F0220A21462003F05D
:103940003CFE0096CDE90174AA7802230A21522098
:1039500003F05EFE20204F464BA18DE88300034616
:10396000F02228210A2003F028FE4BA0CDE90060B8
:103970001823F022502102970A2003F01EFE49A0CE
:10398000CDE900A056461023F0226E2102970A20AE
:1039900003F013FE05A8CDE900601023F022822178
:1039A00002970A2003F009FE42A00096CDE9010427
:1039B0001023F02296210A2003F0FFFD42A000967A
:1039C000CDE901041023F022BE210A2003F0F5FD09
:1039D00043A00096CDE901041023F022E6210A203D
:1039E00003F0EBFDE81C0499FCF73CFF00283FF4D2
:1039F00079AF3FA00096CDE901041023F022AA215F
:103A00000A2003F0DAFDE81C0096CDE9010410233A
:103A1000F022AA210A2003F0D0FDE81C0499FCF74B
:103A2000FDFD33A00096CDE901041023F022D22140
:103A30000A2003F0C2FDCDE900640423D2210A204C
:103A4000D5F8D82003F080FD29A00096CDE9010427
:103A50001023F022FA210A2003F0AFFDCDE9006423
:103A60000523FA210A20D5F8DC2003F06DFD39E7A3
:103A7000542700204C43442049443A253034580010
:103A8000280000203A00000053544D3332463130B4
:103A9000335A4554360000005446544C4344205495
:103AA00045535400557365723A436F737369616E81
:103AB00074000000554152542072656164206461B5
:103AC0007461206973203A00424545502072657345
:103AD000706F6E73652074696D65206973203A009C
:103AE0004D6F746F72204E756D2069733A0000003F
:103AF0002020202020202020202020202020000006
:103B000008B500240546DFF830A2DFF830B28F3068
:103B10006FF02F08A146009089A10098FCF7A2FE43
:103B200050B18AA10098FCF79DFE58B189A1009878
:103B3000FCF798FE58B110E088A003F013FE8AF855
:103B400000900AE089A003F00DFE022003E08AA0A5
:103B500003F008FE01208AF80000072289A10098DE
:103B6000FCF79FFD30B1082288A10098FCF799FD71
:103B700038B32BE000260BE0FCF7EAFB0068C05DE1
:103B8000202804D104EB840108EB41003C18761C8A
:103B9000A81990F88F70002FEED1012C01DA64245F
:103BA00004E04FF47A70844200DD04467AA0C5F840
:103BB000D84003F0D7FD0024DBF8000003F0ACFE92
:103BC00004E078A003F0CEFDC5F8D8900A2279A1D0
:103BD0000098FCF766FDD8B10B2279A10098FCF79C
:103BE00060FD98B30F2279A10098FCF75AFD0028D8
:103BF0004DD0102279A10098FCF753FD002861D028
:103C000009227BA10098FCF74CFD00287DD08BE0B9
:103C100000260BE0FCF79CFB0068C05D202804D167
:103C200004EB840108EB41003C18761CA81990F8BD
:103C30008F70002FEED171A003F094FD0220C5F823
:103C4000DC4085F8E40085F8E5905CE0FFE70026BD
:103C50000CE000BFFCF77CFB0068C05D202804D1AD
:103C600004EB840108EB41003C18761CA81990F87D
:103C70008F70002FEED161A003F074FD0220C5F813
:103C8000DC4085F8E400012085F8E5003BE00026F3
:103C90000CE000BFFCF75CFB0068C05D202804D18D
:103CA00004EB840108EB41003C18761CA81990F83D
:103CB0008F70002FEED155A003F054FD484685F8D3
:103CC000E49018E000260BE0FCF742FB0068C05DC2
:103CD000202804D104EB840108EB41003C18761C39
:103CE000A81990F88F70002FEED14DA003F03AFD87
:103CF00085F8E490012085F8E500A1012D2091FBD5
:103D0000F0F0C5F8E000002400E004E0DBF800007B
:103D100003F002FE08E048A003F024FD0A20C5F8E5
:103D2000DC00012085F8E40046210098FCF751FDF5
:103D3000642003F03BFDEFE6CC00002028000020CB
:103D40004C45445F4155544F000000004C45445FD2
:103D50004F4646004C45445F4F4E00004E6F772063
:103D60004C4544204155544F000000004E6F7720D1
:103D70004C4544204F4646004E6F77204C4544202A
:103D80004F4E0000424545505F4F4E004245455062
:103D90005F4F4646000000004E6F77204265657019
:103DA000204F4E004E6F772042656570204F46468B
:103DB000000000004D4F544F525F4C4546540000E8
:103DC0004D4F544F525F5249474854004D4F544F46
:103DD000525F4155544F5F4C454654004D4F544F30
:103DE000525F4155544F5F5249474854000000000C
:103DF0004D4F544F525F4F46460000004E6F7720A4
:103E00004D6F746F72204C45465400004E6F772002
:103E10004D6F746F72204155544F204C45465400ED
:103E20004E6F77204D6F746F72204155544F205262
:103E300049474854000000004E6F77204D6F746F63
:103E400072204F4646000000184C194E194F0325AA
:103E50004FF47A782078032825D020B101280BD0A0
:103E600002281BD10FE020213046FEF72FFC202135
:103E70003846FEF72BFC11E0002220213046FEF7E9
:103E80002DFC002205E0012220213046FEF726FC11
:103E9000012220213846FEF721FC25704FEA080058
:103EA00003F084FCD6E76420FAE70000CC00002091
:103EB000000C01400018014004460320C4F8DC0057
:103EC000012084F8E400002184F8E51084F8E6007D
:103ED000C4F8E01005E000BF94F8E400022805D023
:103EE00040B1D4F8DC0003F061FCF5E72046FFF7B1
:103EF00013FCF1E72046FFF7A1FCEDE7044617208D
:103F000020703B2060703220104EA07000254FF4CE
:103F10007A77A078401CC0B2A0703C280ED3A57060
:103F20006078401CC0B260703C2807D36570207870
:103F3000401CC0B22070182800D32570306803F0F0
:103F4000EBFC384603F032FCE3E7000028000020D9
:103F500094B00546002448216846FCF75CFC1E48E6
:103F60000068C16841F01001C160462269461A48E4
:103F7000FFF72AFADFF86490DFF864A005F18F00FC
:103F8000DFF860B0E84612904FF0FF31D9F800003A
:103F900003F048FCDAF8000040680026C0F1460053
:103FA00087B24621E81CFCF714FC404609E0015D9D
:103FB000AA19641C761CA4B2D170B6B2462C00D3E8
:103FC0000024BC42F3D1E91C1298FCF727FBDBF874
:103FD000000003F0A1FCD7E720010020240000200E
:103FE0006801002028000020012003F0DFFBFBE730
:103FF00010B54FF0E020006905F0CCF8012803D09F
:10400000BDE8104004F044BC10BD30B58FB028218D
:104010006846FCF700FC14210AA8FCF7FCFB012110
:104020000804CDE900100024029402250491CDE992
:1040300007504FF4E01009906846FEF71BFD08B1E9
:1040400072B6FEE70F20CDE90A054FF48060CDE996
:104050000C4002210AA80E94FEF710FC002801D0A3
:1040600072B6FEE70FB030BD704700000148FEF7A2
:104070002CBF0000F0010020F0B50268204C214D5B
:10408000214E224F224B4FF0804CA04209D0984243
:1040900007D0604505D0A84203D0B04201D0B84255
:1040A00004D122F0700E4A6842EA0E02A04209D002
:1040B000984207D0604505D0A84203D0B04201D055
:1040C000B84203D122F44075CA682A434D6922F0F0
:1040D00080022A4302608A68C2620A688262A04241
:1040E00001D0984201D1096901630121416101694F
:1040F000C90703D0016921F001010161F0BD000091
:10410000002C01400004004000080040000C00406A
:104110000034014010B5406A0021C185C184FEF71A
:104120007BFF10BD70B5446A2068406994F8411067
:10413000C0F3C0100025212904D118B1E584204620
:1041400000F08EF82068406994F84210C0F38010A7
:10415000222904D118B1E585204600F05AF8606C98
:1041600040F0100060642046FEF756FF70BD10B5A9
:104170000146406A096809684FF0000289062ED49A
:10418000C28501680C3151E8003F23F4807341E897
:104190000034002CF5D10168143151E8003F23F0C0
:1041A000010341E80034002CF5D10168143151E8D5
:1041B000003F23F0400341E80034002CF5D12021DA
:1041C00080F84210016B012909D101680C3151E8D6
:1041D000003F23F0100341E80034002CF5D1426386
:1041E000016B012902D0FFF7FDF810BD818DFEF7AC
:1041F00012FF10BD10B5406A01214163016B012916
:1042000002D0FFF7F0F810BD818D4908FEF703FFDB
:1042100010BD01680C3151E8002F22F4907241E882
:104220000023002BF5D10168143151E8002F22F052
:10423000010241E80023002BF5D1016B012909D1CE
:1042400001680C3151E8002F22F0100241E80023F0
:10425000002BF5D1202180F8421000210163704726
:1042600001680C3151E8002F22F0C00241E8002320
:10427000002BF5D1202180F84110704708B590F847
:104280004210222901D0022008BD82684FF48053D9
:104290009A4201D1016921B1816A9A421BD04AB187
:1042A0000AE00268816A5268C2F308020A80816AE1
:1042B000891C08E0026972B10268526802F07F024C
:1042C0000A70816A491C8162C18D491E0904090C6A
:1042D000C18503D01BE002685268F1E70168CA6833
:1042E00022F02002CA600168CA6822F48072CA60A3
:1042F00001684A6922F001024A61202180F84210D7
:1043000000214163026B012A03D0FFF76BF8002004
:1043100008BD016301680C3151E8002F22F0100242
:1043200041E80023002BF5D101680A68D20602D5C6
:104330000A6849680091818DFEF76DFEE7E700008D
:1043400070B5044600680169E26821F440511143E8
:1043500001612169A0680843616908432168CA684E
:1043600041F20C639A430243CA6020684169A26922
:1043700021F44071114341611E492068884202D1F5
:10438000FEF742FB01E0FEF72FFB00EBC00101EB63
:104390000012606864218000B2FBF0F3B3FBF1F31C
:1043A0006FF018067343B2FBF0F5B2FBF0F605EBC5
:1043B0008305322303EB0515B5FBF1F5B6FBF1F6EA
:1043C00005F0F00505EB0615B2FBF0F6B2FBF0F0D8
:1043D000B0FBF1F06FF01802504306EB800003EBE6
:1043E0000010B0FBF1F0216800F00F002844886055
:1043F00070BD00000038014038B5816204468285F6
:10440000002013466064222284F84220E56B1B4A98
:10441000AA62E56B1A4AEA62E56B1A4A2A63E26B02
:1044200050630A462168E06B091DFDF7DBFF206839
:10443000016840680090206948B120680C3050E85D
:10444000001F41F4807140E80012002AF5D1206875
:10445000143050E8001F41F0010140E80012002A2A
:10446000F5D12068143050E8001F41F0400140E8C9
:104470000012002AF5D1002038BD00006F4100086D
:10448000F54100082541000810B503F009FFBDE81B
:1044900010400148FEF7C2BD20010020FEE74900A0
:1044A00050EAC12018BF04204A0D18BF40F0010097
:1044B00040F2FF72B2EB515F08BF40F002000128EA
:1044C00008BF052070470907090E002804DB00F12A
:1044D000E02080F80014704700F00F0000F1E020A9
:1044E00080F8141D704730380A2801D20120704727
:1044F000002070470149086070470000D400002088
:104500004FF47A71484300F001B8000070B54FF0E5
:10451000E024002265690949A36909684843A16943
:104520009942FCD002D2A3EB010302E0A5EB010605
:1045300033441A440B468242F1D370BDD4000020AC
:1045400070B509490646002408884D882146454330
:10455000204602F00FFF03F0DFF8044801E0068078
:10456000641CAC42FBD370BD542700200008006CD3
:104570002DE9F04F38492C260A46887192884FF46D
:10458000305A4FF4285B41F6631E2B274FF02A0C5C
:104590004FF0F00845F210594FF448754FF4A074ED
:1045A0004FF4F07358B10C80A1F802804A4530D125
:1045B000A1F808A0A1F80AB03802888141E0A1F86A
:1045C00000804C804A4507D1A1F808A0A1F80AB0A4
:1045D0004FF42C50888105E072450E8105D14F8142
:1045E000A1F80CC00B804D8002E0A1F80AC08F81B9
:1045F000A2F5A640103803D0A2F5EE40963801D1BE
:104600000C804B80A2F5184006381FD10B804D80DE
:104610001CE0724511D0A2F5184006380DD00E816D
:10462000A1F80AC0A1F80C70A2F5A64010380BD072
:10463000A2F5EE40963807D008E00E81A1F80AC036
:104640008F810D804B80EFE70B804C80BDE8F04FF1
:10465000002002F0CFBD00005427002010B5144602
:1046600002F088FE03F058F80148048010BD0000F5
:104670000008006C10B5CF2003F042F8002003F0D2
:1046800033F8C12003F030F8302003F02DF8ED208E
:1046900003F036F8642003F027F8032003F024F831
:1046A000122003F021F8812003F01EF8E82003F027
:1046B00027F8852003F018F8102003F015F87A2069
:1046C00003F012F8CB2003F01BF8392003F00CF8AC
:1046D0002C2003F009F8002003F006F8342003F042
:1046E00003F8022003F000F8F72003F009F8202077
:1046F00002F0FAFFEA2003F003F8002002F0F4FFD2
:10470000002002F0F1FFC02002F0FAFF1B2002F0AF
:10471000EBFFC12002F0F4FF012002F0E5FFC5200D
:1047200002F0EEFF302002F0DFFF302002F0DCFF6D
:10473000C72002F0E5FFB72002F0D6FF362002F0D6
:10474000DFFF482002F0D0FF3A2002F0D9FF5520C9
:1047500002F0CAFFB12002F0D3FF002002F0C4FF34
:104760001A2002F0C1FFB62002F0CAFF0A2002F0B0
:10477000BBFFA22002F0B8FFF22002F0C1FF002030
:1047800002F0B2FF262002F0BBFF012002F0ACFFD6
:10479000E02002F0B5FF0F2002F0A6FF2A2002F071
:1047A000A3FF282002F0A0FF082002F09DFF0E20AA
:1047B00002F09AFF082002F097FF542002F094FFC5
:1047C000A92002F091FF432002F08EFF0A2002F0A0
:1047D0008BFF0F2002F088FF002002F085FF0020F1
:1047E00002F082FF002002F07FFF002002F07CFF39
:1047F000E12002F085FF002002F076FF152002F094
:1048000073FF172002F070FF072002F06DFF1120E8
:1048100002F06AFF062002F067FF2B2002F064FF1F
:10482000562002F061FF3C2002F05EFF052002F0FE
:104830005BFF102002F058FF0F2002F055FF3F20D1
:1048400002F052FF3F2002F04FFF0F2002F04CFF1A
:104850002B2002F055FF002002F046FF002002F05E
:1048600043FF012002F040FF3F2002F03DFF2A20DD
:1048700002F046FF002002F037FF002002F034FF74
:10488000002002F031FFEF2002F02EFF112002F095
:1048900037FF782002F08AFFBDE81040292002F09F
:1048A0002FBF10B5FF2002F02BFFFF2002F01CFFEE
:1048B000982002F019FF062002F016FFBC2002F03B
:1048C0001FFF012002F010FF0F2002F00DFF6120FA
:1048D00002F00AFFFF2002F007FF012002F004FFB0
:1048E000012002F001FF0B2002F0FEFE102002F07A
:1048F000FBFE372002F0F8FE632002F0F5FEFF20F9
:1049000002F0F2FEFF2002F0EFFE012002F0ECFECA
:10491000012002F0E9FE002002F0E6FE002002F095
:10492000E3FEFF2002F0E0FE522002F0DDFE012057
:1049300002F0DAFE002002F0D7FE402002F0D4FEA2
:10494000BD2002F0DDFE012002F0CEFE232002F0A9
:10495000CBFE452002F0C8FE672002F0C5FE012014
:1049600002F0C2FE232002F0BFFE452002F0BCFE92
:10497000672002F0B9FEBE2002F0C2FE002002F065
:10498000B3FE012002F0B0FEAB2002F0ADFE6020CD
:1049900002F0AAFE222002F0A7FE222002F0A4FECE
:1049A000222002F0A1FE222002F09EFE222002F030
:1049B0009BFEC72002F0A4FE362002F095FEED20FB
:1049C00002F09EFE7F2002F08FFE0F2002F08CFE90
:1049D000C02002F095FE0F2002F086FE0B2002F0B0
:1049E00083FE0A2002F080FEFC2002F089FE0820EF
:1049F00002F07AFEDF2002F083FE002002F074FE57
:104A0000002002F071FE002002F06EFE002002F095
:104A10006BFE002002F068FE202002F065FEF3200D
:104A200002F06EFE742002F05FFEB42002F068FE19
:104A3000002002F059FE002002F056FE002002F095
:104A400053FEF72002F05CFE822002F04DFEB12002
:104A500002F056FE002002F047FE132002F044FE52
:104A6000132002F041FEF22002F04AFE802002F004
:104A70003BFE042002F038FE402002F035FE2820E4
:104A800002F032FEC12002F03BFE172002F02CFEA5
:104A9000882002F029FE882002F026FE202002F065
:104AA00023FEE02002F02CFE002002F01DFE0A2072
:104AB00002F01AFE122002F017FE102002F014FE7F
:104AC0000E2002F011FE202002F00EFECC2002F09B
:104AD0000BFE072002F008FE062002F005FE0B2068
:104AE00002F002FE0E2002F0FFFD0F2002F0FCFD9E
:104AF0000D2002F0F9FD152002F0F6FD102002F065
:104B0000F3FD002002F0F0FDE12002F0F9FD0020AD
:104B100002F0EAFD0B2002F0E7FD132002F0E4FDB5
:104B20000D2002F0E1FD0E2002F0DEFD1B2002F060
:104B3000DBFD712002F0D8FD062002F0D5FD062035
:104B400002F0D2FD0A2002F0CFFD0F2002F0CCFDD2
:104B50000E2002F0C9FD0F2002F0C6FD152002F064
:104B6000C3FD0C2002F0C0FD002002F0BDFD2A2094
:104B700002F0C6FD002002F0B7FD002002F0B4FDF7
:104B8000012002F0B1FDDF2002F0AEFD2B2002F08B
:104B9000B7FD002002F0A8FD002002F0A5FD0320D3
:104BA00002F0A2FD1F2002F09FFD3A2002F0A8FDB6
:104BB000552002F099FD362002F0A2FD002002F0FF
:104BC00093FD112002F09CFD782002F0EFFD2920DA
:104BD00002F096FD142002F0E9FDBDE810402C2003
:104BE00002F08EBD10B5ED2002F08AFD012002F02A
:104BF0007BFDFE2002F078FDEE2002F081FDDE203C
:104C000002F072FD212002F06FFDF12002F078FD2C
:104C1000012002F069FDDF2002F072FD102002F099
:104C200063FDC42002F06CFD8F2002F05DFDC62004
:104C300002F066FD002002F057FDE22002F054FD74
:104C4000E22002F051FDE22002F04EFDBF2002F012
:104C500057FDAA2002F048FDB02002F051FD0D20C2
:104C600002F042FD002002F03FFD0D2002F03CFD6D
:104C7000002002F039FD112002F036FD002002F084
:104C800033FD192002F030FD002002F02DFD21201F
:104C900002F02AFD002002F027FD2D2002F024FD65
:104CA000002002F021FD3D2002F01EFD002002F058
:104CB0001BFD5D2002F018FD002002F015FD5D20B7
:104CC00002F012FD002002F00FFDB12002F018FDED
:104CD000802002F009FD002002F006FD8B2002F08A
:104CE00003FD002002F000FD962002F0FDFC0020F4
:104CF00002F0FAFCB22002F003FD002002F0F4FC06
:104D0000002002F0F1FC022002F0EEFC002002F094
:104D1000EBFC032002F0E8FC002002F0E5FCB320ED
:104D200002F0EEFC002002F0DFFC002002F0DCFCD0
:104D3000002002F0D9FC002002F0D6FC002002F096
:104D4000D3FC002002F0D0FC002002F0CDFC0020BB
:104D500002F0CAFC002002F0C7FC002002F0C4FCF4
:104D6000002002F0C1FC002002F0BEFC002002F096
:104D7000BBFC002002F0B8FC002002F0B5FC0020D3
:104D800002F0B2FC002002F0AFFC002002F0ACFC0C
:104D9000002002F0A9FC002002F0A6FC002002F096
:104DA000A3FC002002F0A0FC002002F09DFC0020EB
:104DB00002F09AFCB42002F0A3FC8B2002F094FCD9
:104DC000002002F091FC962002F08EFC002002F000
:104DD0008BFCA12002F088FC002002F085FCB520AD
:104DE00002F08EFC022002F07FFC002002F07CFC2E
:104DF000032002F079FC002002F076FC042002F08F
:104E000073FC002002F070FCB62002F079FC002058
:104E100002F06AFC002002F067FCB72002F070FC90
:104E2000002002F061FC002002F05EFC3F2002F056
:104E30005BFC002002F058FC5E2002F055FC0020D4
:104E400002F052FC642002F04FFC002002F04CFC07
:104E50008C2002F049FC002002F046FCAC2002F05D
:104E600043FC002002F040FCDC2002F03DFC00206E
:104E700002F03AFC702002F037FC002002F034FC13
:104E8000902002F031FC002002F02EFCEB2002F01A
:104E90002BFC002002F028FCDC2002F025FC002086
:104EA00002F022FCB82002F02BFC002002F01CFCD7
:104EB000002002F019FC002002F016FC002002F095
:104EC00013FC002002F010FC002002F00DFC00207A
:104ED00002F00AFC002002F007FCBA2002F010FCED
:104EE000242002F001FC002002F0FEFB002002F072
:104EF000FBFB002002F0F8FBC12002F001FC2020A7
:104F000002F0F2FB002002F0EFFB542002F0ECFB79
:104F1000002002F0E9FBFF2002F0E6FB002002F097
:104F2000E3FBC22002F0ECFB0A2002F0DDFB0020D4
:104F300002F0DAFB042002F0D7FB002002F0D4FBE1
:104F4000C32002F0DDFB3C2002F0CEFB002002F08B
:104F5000CBFB3A2002F0C8FB002002F0C5FB392051
:104F600002F0C2FB002002F0BFFB372002F0BCFBC6
:104F7000002002F0B9FB3C2002F0B6FB002002F05A
:104F8000B3FB362002F0B0FB002002F0ADFB322074
:104F900002F0AAFB002002F0A7FB2F2002F0A4FBE6
:104FA000002002F0A1FB2C2002F09EFB002002F06A
:104FB0009BFB292002F098FB002002F095FB2620A5
:104FC00002F092FB002002F08FFB242002F08CFB09
:104FD000002002F089FB242002F086FB002002F072
:104FE00083FB232002F080FB002002F07DFB3C20AD
:104FF00002F07AFB002002F077FB362002F074FB0F
:10500000002002F071FB322002F06EFB002002F063
:105010006BFB2F2002F068FB002002F065FB2C20C8
:1050200002F062FB002002F05FFB292002F05CFB33
:10503000002002F059FB262002F056FB002002F06F
:1050400053FB242002F050FB002002F04DFB2420F3
:1050500002F04AFB002002F047FB232002F044FB51
:10506000002002F041FBC42002F04AFB622002F063
:105070003BFB002002F038FB052002F035FB00204E
:1050800002F032FB842002F02FFB002002F02CFB08
:10509000F02002F029FB002002F026FB182002F08D
:1050A00023FB002002F020FBA42002F01DFB0020C7
:1050B00002F01AFB182002F017FB002002F014FB8C
:1050C000502002F011FB002002F00EFB0C2002F039
:1050D0000BFB002002F008FB172002F005FB00206C
:1050E00002F002FB952002F0FFFA002002F0FCFA29
:1050F000F32002F0F9FA002002F0F6FAE62002F0BE
:10510000F3FA002002F0F0FAC52002F0F9FA32209A
:1051100002F0EAFA002002F0E7FA442002F0E4FA92
:10512000002002F0E1FA652002F0DEFA002002F031
:10513000DBFA762002F0D8FA002002F0D5FA8820B7
:1051400002F0D2FA002002F0CFFAC62002F0D8FA1C
:10515000202002F0C9FA002002F0C6FA172002F05F
:10516000C3FA002002F0C0FA012002F0BDFA0020CC
:1051700002F0BAFAC72002F0C3FA002002F0B4FA33
:10518000002002F0B1FA002002F0AEFA002002F096
:10519000ABFAC82002F0B4FA002002F0A5FA002011
:1051A00002F0A2FA002002F09FFA002002F09CFA1E
:1051B000C92002F0A5FA002002F096FA002002F0C1
:1051C00093FA002002F090FA002002F08DFA0020FD
:1051D00002F08AFA002002F087FA002002F084FA36
:1051E000002002F081FA002002F07EFA002002F096
:1051F0007BFA002002F078FA002002F075FA002015
:1052000002F072FA002002F06FFA002002F06CFA4D
:10521000002002F069FAE02002F072FA162002F093
:1052200063FA002002F060FA1C2002F05DFA002010
:1052300002F05AFA212002F057FA002002F054FA44
:10524000362002F051FA002002F04EFA462002F019
:105250004BFA002002F048FA522002F045FA0020F2
:1052600002F042FA642002F03FFA002002F03CFA19
:105270007A2002F039FA002002F036FA8B2002F090
:1052800033FA002002F030FA992002F02DFA0020C3
:1052900002F02AFAA82002F027FA002002F024FAED
:1052A000B92002F021FA002002F01EFAC42002F018
:1052B0001BFA002002F018FACA2002F015FA0020AA
:1052C00002F012FAD22002F00FFA002002F00CFADB
:1052D000D92002F009FA002002F006FAE02002F0DC
:1052E00003FA002002F000FAF32002F0FDF900209A
:1052F00002F0FAF9E12002F003FA162002F0F4F9C4
:10530000002002F0F1F91C2002F0EEF9002002F07A
:10531000EBF9222002F0E8F9002002F0E5F936204E
:1053200002F0E2F9002002F0DFF9452002F0DCF99A
:10533000002002F0D9F9522002F0D6F9002002F044
:10534000D3F9642002F0D0F9002002F0CDF97A20E0
:1053500002F0CAF9002002F0C7F98B2002F0C4F96C
:10536000002002F0C1F9992002F0BEF9002002F0FD
:10537000BBF9A82002F0B8F9002002F0B5F9B92075
:1053800002F0B2F9002002F0AFF9C42002F0ACF94B
:10539000002002F0A9F9CA2002F0A6F9002002F0CC
:1053A000A3F9D22002F0A0F9002002F09DF9D82044
:1053B00002F09AF9002002F097F9E02002F094F947
:1053C000002002F091F9F32002F08EF9002002F0A3
:1053D0008BF9E22002F094F9052002F085F9002013
:1053E00002F082F90B2002F07FF9002002F07CF934
:1053F0001B2002F079F9002002F076F9342002F047
:1054000073F9002002F070F9442002F06DF90020D9
:1054100002F06AF94F2002F067F9002002F064F907
:10542000612002F061F9002002F05EF9792002F0BB
:105430005BF9002002F058F9882002F055F90020AD
:1054400002F052F9972002F04FF9002002F04CF9D7
:10545000A62002F049F9002002F046F9B72002F038
:1054600043F9002002F040F9C22002F03DF900208B
:1054700002F03AF9C72002F037F9002002F034F9BF
:10548000D12002F031F9002002F02EF9D62002F0EE
:105490002BF9002002F028F9DD2002F025F9002088
:1054A00002F022F9F32002F01FF9002002F01CF9AB
:1054B000E32002F025F9052002F016F9002002F0A1
:1054C00013F90A2002F010F9002002F00DF91C2057
:1054D00002F00AF9002002F007F9332002F004F983
:1054E000002002F001F9442002F0FEF8002002F052
:1054F000FBF8502002F0F8F8002002F0F5F86220E6
:1055000002F0F2F8002002F0EFF8782002F0ECF858
:10551000002002F0E9F8882002F0E6F8002002F00E
:10552000E3F8972002F0E0F8002002F0DDF8A62072
:1055300002F0DAF8002002F0D7F8B72002F0D4F831
:10554000002002F0D1F8C22002F0CEF8002002F0D4
:10555000CBF8C72002F0C8F8002002F0C5F8D1202F
:1055600002F0C2F8002002F0BFF8D52002F0BCF82B
:10557000002002F0B9F8DD2002F0B6F8002002F0B9
:10558000B3F8F32002F0B0F8002002F0ADF8E42008
:1055900002F0B6F8012002F0A7F8002002F0A4F80B
:1055A000012002F0A1F8002002F09EF8022002F093
:1055B0009BF8002002F098F82A2002F095F80020CD
:1055C00002F092F83C2002F08FF8002002F08CF8F4
:1055D0004B2002F089F8002002F086F85D2002F0EE
:1055E00083F8002002F080F8742002F07DF800209B
:1055F00002F07AF8842002F077F8002002F074F8C4
:10560000932002F071F8002002F06EF8A22002F060
:105610006BF8002002F068F8B32002F065F8002073
:1056200002F062F8BE2002F05FF8002002F05CF8A1
:10563000C42002F059F8002002F056F8CD2002F004
:1056400053F8002002F050F8D32002F04DF800206B
:1056500002F04AF8DD2002F047F8002002F044F89A
:10566000F32002F041F8002002F03EF8E52002F0BD
:1056700047F8002002F038F8002002F035F800204A
:1056800002F032F8002002F02FF8022002F02CF88D
:10569000002002F029F8292002F026F8002002F06C
:1056A00023F83C2002F020F8002002F01DF84B20E7
:1056B00002F01AF8002002F017F85D2002F014F84A
:1056C000002002F011F8742002F00EF8002002F021
:1056D0000BF8842002F008F8002002F005F893206F
:1056E00002F002F8002001F0FFFFA22001F0FCFF11
:1056F000002001F0F9FFB32001F0F6FF002001F0D7
:10570000F3FFBE2001F0F0FF002001F0EDFFC42008
:1057100001F0EAFF002001F0E7FFCD2001F0E4FFF7
:10572000002001F0E1FFD32001F0DEFF002001F0B6
:10573000DBFFDC2001F0D8FF002001F0D5FFF320D3
:1057400001F0D2FF002001F0CFFFE62001F0D8FFEA
:10575000112001F0C9FF002001F0C6FF342001F044
:10576000C3FF002001F0C0FF562001F0BDFF002064
:1057700001F0BAFF762001F0B7FF002001F0B4FF7E
:10578000772001F0B1FF002001F0AEFF662001F0AC
:10579000ABFF002001F0A8FF882001F0A5FF00204A
:1057A00001F0A2FF992001F09FFF002001F09CFF73
:1057B000BB2001F099FF002001F096FF992001F035
:1057C00093FF002001F090FF662001F08DFF002084
:1057D00001F08AFF552001F087FF002001F084FFCF
:1057E000552001F081FF002001F07EFF452001F0EF
:1057F0007BFF002001F078FF432001F075FF0020BF
:1058000001F072FF442001F06FFF002001F06CFFF7
:10581000E72001F075FF322001F066FF002001F063
:1058200063FF552001F060FF002001F05DFF76204E
:1058300001F05AFF002001F057FF662001F054FFED
:10584000002001F051FF672001F04EFF002001F021
:105850004BFF672001F048FF002001F045FF872043
:1058600001F042FF002001F03FFF992001F03CFFD2
:10587000002001F039FFBB2001F036FF002001F0CD
:1058800033FF992001F030FF002001F02DFF772039
:1058900001F02AFF002001F027FF442001F024FF3F
:1058A000002001F021FF562001F01EFF002001F032
:1058B0001BFF232001F018FF002001F015FF33200B
:1058C00001F012FF002001F00FFF452001F00CFF56
:1058D000002001F009FFE82001F012FF002001F094
:1058E00003FF002001F000FF992001F0FDFE0020E1
:1058F00001F0FAFE872001F0F7FE002001F0F4FE2F
:10590000882001F0F1FE002001F0EEFE772001F08A
:10591000EBFE002001F0E8FE662001F0E5FE00202D
:1059200001F0E2FE882001F0DFFE002001F0DCFE45
:10593000AA2001F0D9FE002001F0D6FEBB2001F024
:10594000D3FE002001F0D0FE992001F0CDFE002012
:1059500001F0CAFE662001F0C7FE002001F0C4FE7F
:10596000552001F0C1FE002001F0BEFE552001F0DF
:10597000BBFE002001F0B8FE442001F0B5FE00207F
:1059800001F0B2FE442001F0AFFE002001F0ACFEB9
:10599000552001F0A9FE002001F0A6FEE92001F04B
:1059A000AFFEAA2001F0A0FE002001F09DFE002025
:1059B00001F09AFE002001F097FE002001F0A0FE09
:1059C000AA2001F091FECF2001F09AFE002001F004
:1059D0008BFE002001F088FE002001F085FE0020F3
:1059E00001F082FE002001F07FFE002001F07CFE2D
:1059F000002001F079FE002001F076FE002001F089
:105A000073FE002001F070FE002001F06DFE00200A
:105A100001F06AFE002001F067FE002001F064FE44
:105A2000002001F061FE002001F05EFE002001F088
:105A30005BFEF02001F064FE002001F055FE5020D6
:105A400001F052FE002001F04FFE002001F04CFE5C
:105A5000002001F049FEF32001F052FE002001F089
:105A600043FEF92001F04CFE062001F03DFE10201F
:105A700001F03AFE292001F037FE002001F034FE4B
:105A80003A2001F03DFE552001F02EFE112001F0DC
:105A900037FE642001F08AFE292001F031FE352016
:105AA00001F02EFE002001F01FFE512001F028FE23
:105AB000FF2001F019FE532001F022FE2C2001F0FE
:105AC00013FE552001F01CFE822001F00DFEBDE802
:105AD00010402C2001F014BE2DE9F05F4FF470430C
