:020000040800F2
:10000000502E00201103000827360008A5330008F1
:1000100025360008E91D0008213E00080000000008
:10002000000000000000000000000000790200084D
:100030002F1E000800000000BD02000875390008EE
:100040002B0300082B0300082B0300082B030008D8
:100050002B0300082B0300082B0300082B030008C8
:100060002B0300082B0300082B0300082B030008B8
:100070002B0300082B030008ED1D0008F91D0008E4
:100080002B0300082B0300082B0300082B03000898
:100090002B0300082B0300082B0300082B03000888
:1000A0002B030008F13900082B0300082B0300087C
:1000B0002B0300082B0300082B0300082B03000868
:1000C0002B0300082B0300082B0300082B03000858
:1000D0002B0300080D3E00082B0300082B0300082B
:1000E0002B0300082B0300082B0300082B03000838
:1000F0002B0300082B0300082B0300082B03000828
:100100002B0300082B0300082B0300082B03000817
:100110002B0300082B0300082B0300082B03000807
:100120002B0300082B0300082B0300082B030008F7
:1001300000F002F800F090F80AA090E8000C824469
:100140008344AAF10107DA4501D100F085F8AFF246
:10015000090EBAE80F0013F0010F18BFFB1A43F0A5
:100160000103184774C1000094C10000103A24BF75
:1001700078C878C1FAD8520724BF30C830C144BF0C
:1001800004680C607047000000230024002500264E
:10019000103A28BF78C1FBD8520728BF30C148BFEA
:1001A0000B6070476E2900F01F84702900F05F819A
:1001B000662908F08787652908F08487672908F091
:1001C0008187612908F0808703681B0A28BF41F0F6
:1001D0008001692900F0CC83642900F0C983752966
:1001E00000F0C6836F2900F0EF84782900F02B819E
:1001F000E92900F08984E42900F08684F52900F0DB
:100200008384EF2900F0EC84F82900F02A81036848
:10021000DB0928BF41F08001632901F0F7807329D1
:1002200001F0FC80E32901F00781F32901F00C8142
:10023000002070471FB501F059F90400002000218B
:1002400008F0ECFD401C60600020002108F0D0FDAB
:10025000E0601FBD10B510BD01F01AF91146FFF79F
:10026000E9FF06F0A7FE01F0F3F903B4FFF7F2FF90
:1002700003BC01F0F7F90000224B19680868B0E8E8
:10028000F00F80F30988BFF36F8F4FF0000080F309
:1002900011884EF00D0E70470000000006480068FF
:1002A000006880F3088862B661B6BFF34F8FBFF372
:1002B0006F8F00DF00BF00BF08ED00E0EFF30980A3
:1002C000BFF36F8F0F4B1A6820E9F00F106008B56D
:1002D0004FF0500080F31188BFF34F8FBFF36F8F43
:1002E00007F08CFE4FF0000080F31188BDE8084055
:1002F00019680868B0E8F00F80F30988BFF36F8FC2
:10030000704700BF38000020EFF305807047000001
:100310000948804709480047FEE7FEE7FEE7FEE799
:10032000FEE7FEE7FEE7FEE7FEE7FEE704480549D5
:10033000054A064B70470000ED39000831010008FE
:1003400050280020502E0020502A0020502A002043
:100350001CB50C46064B7B4469460090204600F0D5
:100360005CFB04460020694600F06AFB20461CBD89
:10037000E70600000FB41CB5084B06AA7B4469468B
:100380000090059800F049FB04460020694600F003
:1003900057FB20461CBC5DF814FB0000C1060000A2
:1003A00070B5044685690068C10601D5302600E0B5
:1003B0002026C00707D070BDD4E901213046904700
:1003C000206A401C20626D1EF6D570BD70B50446D3
:1003D00085690078C00707D170BDD4E901212020CC
:1003E0009047206A401C20626D1EF6D570BD00004B
:1003F000F0B40D460188090502D5214C7C4402E089
:100400001F4C7C440E34002100F1240608E002F069
:100410000F071209E75D42EA03721B097754491C72
:1004200052EA0307F3D102780023120704D5702D96
:1004300006D009B1022311342246F0BC00F03EBAC6
:1004400001231034F8E770B504460D4621461068C4
:1004500000F002FA024629462046BDE8704000231B
:10046000C6E7D21D22F00703D3E90023C0E70368E3
:10047000126843F0200303600823C3610023B7E739
:100480005ABD00002DE9F05F894604464FF0000A8E
:10049000DFF874B1FB44C0F820A02046E16888472B
:1004A000002874D0252806D0D4E901219047206A7D
:1004B000401C2062F1E700265F462046E16888473D
:1004C0002028054607DB312D05D2781910F8200CBD
:1004D00008B10643F1E7B00701D526F00406C4F8D9
:1004E0001CA00027C4F818A02A2D09D0284603F024
:1004F000BCFC38B304EB8708303DC8F8185019E04D
:1005000059F8041B204604EB87029161E168884793
:10051000012F054618D1E069002820DA26F02006D0
:100520001DE0D8F8180000EB800005EB40003038E3
:10053000C8F818002046E1688847054603F095FC96
:100540000028EED1012F0AD02E2D08D12046E168D7
:1005500088477F1C0546022F46F02006C4DBA069B1
:10056000002803DA404246F00106A061F00701D0FE
:1005700026F010066C2D0BD0682D09D04C2D39D0EB
:100580006A2D35D0742D35D07A2D33D016E038E071
:10059000E1682F4620468847B842054609D16C2FAE
:1005A00026D04FF48060E168064320468847054620
:1005B00004E06C2F1AD04FF4807006430DB3A5F100
:1005C0004100192802D8203546F400664A462946DB
:1005D000204626604E46FFF7E5FD80B101280BD08E
:1005E000F61D26F0070000F1080956E74020E4E771
:1005F0008020D8E70020D6E706F104094DE7284619
:1006000052E7206ABDE8F09FEABC000040EA01031F
:10061000024630B59B0710D14FF0013400E008C20C
:1006200008C91D1B9D4315EAC41FF8D013F0FF0134
:1006300002F8011B0DD01B0AF8E711F8013B002B53
:1006400002F8013B05D011F8013B002B02F8013BF9
:10065000F3D130BD10B5431C02E010F8011B71B19D
:100660008107FAD14FF0013202C88C1A8C4314EA88
:10067000C211F9D0C01A0A0603D0C01E10BDC01A9C
:1006800010BD0A0401D0801E10BD0902FCD0401E1E
:1006900010BD032A40F2308010F0030C00F01580EA
:1006A00011F8013BBCF1020F624498BF11F801CB75
:1006B00000F8013B38BF11F8013BA2F1040298BFDA
:1006C00000F801CB38BF00F8013B11F0030300F044
:1006D0009182083AC0F0088051F8043B083A51F87A
:1006E00004CBA0E80810F5E7121D5CBF51F8043BED
:1006F00040F8043BAFF30080D20724BF11F8013B60
:1007000011F801CB48BF11F8012B24BF00F8013BC1
:1007100000F801CB48BF00F8012B704702F0FF033F
:1007200043EA032242EA024200F002B84FF000021C
:100730000429C0F0128010F0030C00F01B80CCF1F3
:10074000040CBCF1020F18BF00F8012BA8BF20F861
:10075000022BA1EB0C0100F00DB85FEAC17C24BFB5
:1007600000F8012B00F8012B48BF00F8012B70475F
:100770004FF0000200B5134694469646203922BF3A
:10078000A0E80C50A0E80C50B1F12001BFF4F7AF85
:10079000090728BFA0E80C5048BF0CC05DF804EB67
:1007A000890028BF40F8042B08BF704748BF20F8D5
:1007B000022B11F0804F18BF00F8012B704700008A
:1007C0004FF0013C50F8042B51F8043B9A4221D1E0
:1007D000A2EB0C03934313EACC1317D150F8042B6C
:1007E00051F8043B9A4215D1A2EB0C03934313EA50
:1007F000CC130BD150F8042B51F8043B9A4209D189
:10080000A2EB0C03934313EACC13DBD04FF00000B0
:10081000704700BFD01A01BAB1FA81F101F0180196
:1008200022FA01F0CB40C1F12001DBB2C0B2C01A04
:100830002CFA01F3D11A914311EAC311E6D17047A2
:1008400070477047704709684A0501D540B2704744
:10085000C905FCD500B2704709684A0501D5C0B288
:100860007047C905FCD580B2704770B50C46054687
:10087000012A05D02878800600D5EA69002302E025
:10088000012305E05B1C934202D2E05C0028F9D111
:10089000A869E618C01AA861286A18442862284680
:1008A000FFF77EFD04E0D5E9012114F8010B904724
:1008B000B442F8D32846FFF789FD70BD2DE9F04713
:1008C0000D4699469246044600F1240801688806C0
:1008D00004D5E06921F01001216000E00120A84268
:1008E00001DD471B00E00027A1697A1902EB09002E
:1008F000081AA0612078C00602D42046FFF750FDF8
:10090000002608E0D4E901211AF806009047206A81
:10091000401C761C20624E45F4DB2078C0060AD5C8
:100920002046FFF73DFD06E0D4E901213020904745
:10093000206A401C2062381EA7F10107F4DC07E0A2
:10094000D4E9012118F805009047206A401C206274
:10095000281EA5F10105F3DC2046FFF737FD2078BE
:10096000000602D50220BDE8F0870120FBE7000069
:100970002DE9F0410646002410687529314616A578
:1009800010D0FFF760FF002802DA404213A507E00D
:1009900031688A0701D512A502E0490704D511A5DF
:1009A000012401E0FFF758FF00210A2206F1240785
:1009B00009E0B0FBF2FCB0FBF2F302FB1C003030AC
:1009C00078541846491C0028F3D123462A4630465D
:1009D000BDE8F041FFF772BF000000002D000000ED
:1009E0002B0000002000000011680268006A530517
:1009F00001D508700AE0D30501D5088006E013068A
:100A000003D5C217C1E9000200E008600120704769
:100A100001694A1C02610878704700B58FB0CDE9C2
:100A200001310021059105497944CDE903101146B2
:100A30006846FFF727FD0FB000BD0000E5FFFFFF90
:100A40000A6802F8010B0A60704700002DE9FF5F99
:100A500015468A460446DFF8AC80F8440027D8E9FA
:100A600000103E46CDE9001010E03AF816106A4634
:100A700002A800F0EDFC411C07D02178890603D5BF
:100A8000E269391891420DD80744761C2078800617
:100A900002D5E069B84205DDAE42E6DB3AF8160061
:100AA0000028E2D1A069C01BA0612046FFF778FCB6
:100AB000D8E90010CDE90010002017E03AF818102E
:100AC0006A4602A800F0C4FCB0F1FF3F81460BD09B
:100AD00000250DF1080B05E0D4E901211BF8050004
:100AE00090476D1C4D45F7D308F10100B042804698
:100AF000E4DB206A384420622046FFF767FCBDE84B
:100B0000FF9F000036B700002DE9F0418046D21D5E
:100B100022F007020025D2E90002F52915A614D01B
:100B2000011E72F1000106DA0023D0EB030063EB33
:100B3000020211A608E0D8F800108B0701D50FA615
:100B400002E0490701D50EA601251146002408F14F
:100B5000240704E000F080F830323A55641C50EA73
:100B60000102F7D12B46324621464046BDE8F0410E
:100B7000FFF7A4BE000000002D0000002B000000C5
:100B80002000000030B4002100F1240408E002F04D
:100B90000705D208303542EA4372DB086554491C28
:100BA00052EA0305F3D10468002310A2250708D5F3
:100BB00004F020040C4304D0C46901230CA2641E79
:100BC000C46130BCFFF77ABE10B5044621461068F8
:100BD000FFF742FE02462046BDE810400023D1E761
:100BE000D21D22F00701D1E90023CBE7000000006D
:100BF0003000000010B5203AC0F00B80B1E818506A
:100C0000203AA0E81850B1E81850A0E81850BFF4F6
:100C1000F5AF5FEA027C24BFB1E81850A0E8185095
:100C200044BF18C918C0BDE810405FEA827C24BFE9
:100C300051F8043B40F8043B08BF7047D20728BF77
:100C400031F8023B48BF11F8012B28BF20F8023BC6
:100C500048BF00F8012B704730B5B0F10A024FEAE7
:100C6000900E71F100034EEA817EB0EB0E0061EB55
:100C700091014FEA101E4EEA017E10EB0E0041EB8F
:100C800011114FEA102E4EEA016E10EB0E0041EBEF
:100C900011214FEA104E4EEA014E10EB0E0041EBCF
:100CA0001141401841F100014FEAD00040EA417083
:100CB0004FEAD10110EB80054FEA810444EA9074B9
:100CC00044EB01046D1944EB0404521BA3414FF0A3
:100CD000000348BF0A3200D530BD401C41F100017D
:100CE00030BD70472DE9FF4F0C461E464FF0FF37D1
:100CF0008BB0D2E90001DDF860800A908A46C1F32A
:100D00000A5505B93D46002108464FF00000BAF1EA
:100D1000000F00F4400005DA00EB80004FF44001C2
:100D200001EA50004FEA9059B9F1010F00DDB946D0
:100D30000A9850EA4A000ED044F61050A5F2FF354A
:100D400045432F14B8F1000F1ED07542291E1EDD39
:100D5000C9F100021CE0B8F1010F4FF0000001D012
:100D6000302103E0F24305E02154401CB042FBDB9C
:100D700030460022002121540B99C1F80880C1E9B6
:100D800000200FB0BDE8F08FBD1B6D1CDEE74A46AA
:100D900000DA694206A800F0EDFB06AB93E8070015
:100DA00003AB83E8070050460A9900F062FC8DE827
:100DB0000700A0F500501F3800900398002D09DDB2
:100DC00042F21F014A46084403A90390684600F016
:100DD000C1FE08E0A0F500504A461F3803A9039061
:100DE000684600F0CBFE8DE807000004000C03D03D
:100DF0004FF0FF30410800E01046B8F1000F03D07B
:100E00000022009215461EE0751E05D4FFF724FF50
:100E1000303262556D1EF9D5B3460122084302D027
:100E200000227F1C04E02078302801D100227F1EA0
:100E3000002A099786D01DE0112D07DAFFF70CFF75
:100E4000303262556D1C50EA0102F5D1084302D0E0
:100E50000098C8B10EE00021681E05E0235C625CCA
:100E600063542254401E491C8142F7DBAB46A81B49
:100E7000401E0990002004F80B000B98099AC0F856
:100E80000880C0E9002B7CE711264FF0000859E7E5
:100E90002DE9F04F88460446D21D22F0070191B09B
:100EA000D1E90001CDE90A0102F0BBFF02460B982F
:100EB000C00F01D02D2007E02068810701D52B202D
:100EC00002E0202101EAC000032A099001D0072A8C
:100ED00005DB03464146204600F00CFB0BE1207881
:100EE000800601D5E06900E00620B8F1650F814673
:100EF00006D0B8F1660F18D0B8F1670F70D131E0A5
:100F00000020B9F1110F009001DB112301E009F17C
:100F100001030AAA01A90CA8FFF7E4FEDDE90C70A1
:100F2000002609F10105834647E001204B46009069
:100F30004FF000470AAA01A90CA8FFF7D3FEDDE98C
:100F40000DB00C995D46002610B909F101000D188D
:100F5000B9EB050003D4C0F1FF3609F10105A5EB9B
:100F600009002BE0B9F1010F01DA4FF0010900206F
:100F7000B9F1110F0090484601DD112300E003464E
:100F80000AAA01A90CA8FFF7ADFEDDE90C704D46D9
:100F900000268346207800070AD4AB4500DA5D4678
:100FA00001A8012D04DD411911F8011C302907D0D9
:100FB0004F4502DA17F1040F04DA012082460FE0F0
:100FC0006D1EEEE7002F02DCED1B3E4403E0781CB3
:100FD000A84200DD7D1CB81B00F1010A4FF000475C
:100FE0002078000703D4AA4501DB4FF0FF3A002127
:100FF000B7F1004F0DF143088DF8431024D00220C3
:101000002B23002F01DA7F422D230A21021EA0F19B
:10101000010000DC5FB197FBF1FC97FBF1F201FBF3
:101020001C7C17460CF1300C08F801CDEEE7A8F156
:10103000010003702188090501D5452100E06521E3
:10104000A0F1010800F8011C09980FA9A1EB0807FD
:10105000FF1D00B10120411901EBEA70A16938447C
:10106000081A401EA0612078C00602D42046FFF76F
:1010700097F9099828B1D4E901219047206A401CCA
:1010800020622078C00622D52046FFF789F91EE0AD
:10109000002E04DBB34502DD01A8805D00E03020B6
:1010A000D4E901219047206A401C2062761CAAF1F5
:1010B00001005FEA000A0AD100F018FAC06801686E
:1010C000405CD4E901219047206A401C2062281E20
:1010D000A5F10105DCDC07E0D4E9012118F8010BDA
:1010E0009047206A401C2062381EA7F10107F3DCFC
:1010F0002046FFF76BF9032011B043E62DE9F04FCE
:1011000004460D46D21D22F0070089B0D0E90092B6
:1011100048461746394602F084FE0246F80F01D0D1
:101120002D2307E02068810701D52B2302E0202131
:1011300001EAC0038DF820300BB1012000E000204F
:10114000032A824601D0072A04DB2946204600F004
:10115000D1F93DE12078800601D40D2500E0E56954
:10116000C7F30A560D2D49DA00214FEA175B0846EE
:101170004FF00000002F00F4400007DA00EB800081
:101180004FF4400100EBD07001EA600081150129A5
:1011900001DD4FF0FF3100224FEA850CBCF1180F42
:1011A00006D31346ACF118004FF08052C24003E062
:1011B0004FF4801323FA0CF30CF10C0CBCF1200F4C
:1011C00004D3ACF1200C09FA0CF001E007FA0CF0A2
:1011D00000294FF0004801DD18B90FE00ED140455D
:1011E0000CD319EB02095F4121B9404502D19F435D
:1011F00029EA0209BBEB175F00D0761C20880005A6
:1012000002D57B48784402E079487844193808AA26
:10121000302302F80A30037C0AF10101002E0AF1A2
:10122000020A53546A4602DC4FF0300101E04FF0ED
:1012300031014FF001088DF8001002D0A6F2FF3600
:1012400003E059EA470100D06A4E002D02DC217804
:10125000090704D54FF002082E218DF80110C4466D
:1012600000210BE0C7F303433F01C35C491C6D1E23
:1012700002F80830052908F1010801DA002DF1DC37
:1012800000210CE000EB1973491C1B786D1E082926
:1012900002F808304FEA091908F1010801DA002DB7
:1012A000F0DC2178890602D514E0A8F10108E045B8
:1012B00005DD02EB080111F8011C3029F5D0B8F169
:1012C000000F07DD02EB080111F8011C2E2901D1E6
:1012D000A8F10108002D05DD3E2102F808106D1E61
:1012E00008F10108407C002E02F8080008F101080E
:1012F00004DA2D20764202F8080002E02B2002F8E2
:1013000008000A214FF47A70864208F101080BDBCD
:1013100096FBF0F3303302F8083096FBF0F308F157
:10132000010800FB136601E0642E0CDB642096FBD1
:10133000F0F3303302F8083096FBF0F308F10108BF
:1013400000FB136601E00A2E06DB96FBF1F030305D
:1013500002F8080008F1010896FBF1F001FB1060AB
:10136000303002F80800A16908F1010808EB050215
:1013700002EB0A00081AA0612078C00602D42046B9
:10138000FFF70EF8216A08AE01EB0A00206204E0C4
:10139000D4E9012116F8010B9047BAF1010AF7D2FE
:1013A0002078C00602D52046FEF7FAFF6E4609E017
:1013B00016F8010B3E280FD0D4E901219047206A8E
:1013C000401C2062B8F10108F2D22046FEF7FEFF71
:1013D00009B00320BDE8F08F206A2844206203E0B2
:1013E000D4E90121302090476D1EEBD3F8E70000CF
:1013F000A7AF000002FCFFFF10B5436913B1AFF3C4
:10140000008001E0FFF731FA012010BD127800F1F1
:1014100024010A7000224A700122EDE711684FF0A2
:10142000FF32E9E710B5436913B1AFF3008001E083
:10143000FFF70CFB012010BD128800F1240182840B
:101440000022C2840122EDE711684FF0FF32E9E784
:1014500070B516460C46054600F040F8036893F850
:101460000101012806D0FF2C0FD8185D68B10120BA
:101470002C7070BDD3F807013246214603F20713E2
:1014800003442846BDE8704018474FF0FF3070BD58
:10149000754600F0E3F8AE4605006946534620F075
:1014A0000700854618B020B5FEF740FFBDE8204094
:1014B0004FF000064FF000074FF000084FF0000B10
:1014C00021F00701AC46ACE8C009ACE8C009ACE8C3
:1014D000C009ACE8C0098D467047000010B500F0A7
:1014E00005F8001D10BD00BF3579000000487047A9
:1014F0000C2800202DE9F0411F4604460326016810
:10150000072A01F4006004DB08B116A505E016A562
:1015100003E008B115A500E015A521F0100020603A
:10152000A069C01EA0610FB1401EA0612046FEF759
:1015300037FF4FB1D4E9012138469047206A401C5B
:101540002062C01C206206E0206AFAE7D4E901218B
:1015500015F8010B9047761EF8D22046FEF736FFAD
:10156000BDE8F0814E414E006E616E00494E46006E
:10157000696E66002DE9F047814616468AB0334809
:1015800078440DC88DE80D0030487844801C03ACC9
:101590000DC884E80D0041F69B300844372190FBCC
:1015A000F1F290FBF1F5A5F1800501FB12041B3C63
:1015B00002D56442012000E00020DFF890A08046C0
:1015C0000027FA44AAF1BE0A0DE0E00709D032462E
:1015D000684607EB47010AEB810100F0CFFA8DE87E
:1015E000070064107F1C002CEFD1184F7F44AC3FE4
:1015F00018E0E80714D007EB04100DF1180A90E882
:101600000E008AE80E00C068F04201D198190890D7
:10161000324606A903A800F0B1FA03AB83E807003D
:101620006D10641C002DE4D132466946B8F1000FFC
:1016300003A802D000F08EFA01E000F09FFAC9E999
:101640000001C9F808200AB0BDE8F087BCAC000072
:101650000446AFF300802046FEF707FE00487047BF
:10166000EC27002001491820ABBEFEE7260002004F
:1016700070475FEA400C08BF91F0000F4FEA8C23DF
:101680004FEAC12243EA51514FEA1C5018BF00F5FE
:10169000F0404FEA300018BF41F000415FEA6C5C57
:1016A00000F02980BCF1FF3F08BF40F08040704748
:1016B000130C06BF12044FF0100C4FF0000C130E69
:1016C00004BF12020CF1080C130F04BF12010CF13D
:1016D000040C930F04BF92000CF1020CD30F04BF53
:1016E00052000CF1010C11464FF00002A0F11F0056
:1016F000A0EB0C00704711F0004F08BF704731F0AD
:1017000000413FF4D5AF0B0C06BF09044FF0100C9D
:101710004FF0000C0B0E04BF09020CF1080C0B0F6C
:1017200004BF09010CF1040C8B0F04BF89000CF1FC
:10173000020CCB0F04BF49000CF1010CCCF12003CB
:10174000A0EB0C0022FA03F302FA0CF241EA0301C7
:1017500000F10100704720F07F4C80EA030023F085
:101760007F47ACEB070303F57C5300F0004003F127
:10177000FF032DE980494FEA154B09B44FEA1443A2
:1017800025EA0B4E24EA03480FF2042606EB132742
:1017900049083E785FEA320203FB0667C7F5000797
:1017A00007FB06F64FEA54374FEAD64606F1020623
:1017B00007FB066CCCF1005C4FEA1C472CEA074C97
:1017C00007FB06F40CFB06F504EB15464FEA9616EC
:1017D00034BF00204FF000404FEAD13706FB07FC32
:1017E0004FEA1C4C0CFB0BF7D21B03FB0CF761EB15
:1017F00007010CFB0EF7B0EB074072EB17420CFB36
:1018000008F734BFA2EB0742B2EB074261EB174186
:101810004FEA0C444FEA910706FB07FC4FEA1C4CC9
:101820000CFB0BF7B0EBC74072EB573203FB0CF726
:1018300034BFA2EBC742B2EBC74261EB57310CFB9E
:101840000EF7B0EBC70072EB57720CFB08F734BF12
:10185000A2EBC702B2EBC70261EB5771039F4FEADD
:10186000816141EA921104EBCC044FEAD1374FEA8F
:10187000826206FB07FC42EA90124FEA80604FEA60
:101880001C4C0CFB0BF7D21B03FB0CF761EB0701A5
:101890000CFB0EF7B0EB074072EB17420CFB08F79E
:1018A00034BFA2EB0742B2EB074261EB17414FEAAC
:1018B0008C554FEA910704EB9C2406FB07FC4FEA8A
:1018C0001C4C0CFB0BF7B0EBC74072EB573203FB21
:1018D0000CF734BFA2EBC742B2EBC74261EB573102
:1018E0000CFB0EF7B0EBC70072EB57720CFB08F75E
:1018F00034BFA2EBC702B2EBC70261EB577115EB25
:101900004C254FEA816141EA92114FEA82624FEA27
:10191000D13742EA901206FB07FC44F100044FEA7B
:1019200080604FEA1C4C0CFB0BF7D21B03FB0CF73F
:1019300061EB07010CFB0EF7B0EB074072EB1742AF
:101940000CFB08F734BFA2EB0742B2EB074261EB96
:10195000174115EB1C154FEA813141EA92414FEADC
:10196000823242EA90424FEA80304FEA0C7644F1EC
:10197000000448EA03434EEA0B484FF0000EB2EB76
:10198000080C71EB030724BF624639464EEB0E0E7E
:101990004FF0000B0018524149414BEB0B0BB2EBDF
:1019A000080C71EB03077BF1000B24BF624639463C
:1019B0004EEB0E0E4FF0000B0018524149414BEB1D
:1019C0000B0BB2EB080C71EB03077BF1000B24BF90
:1019D000624639464EEB0E0E51EA020718BF46F03A
:1019E000010616EB0E7655F1000254F1000103D505
:1019F000BDE88901BDE80088BDE88901BDE800486F
:101A0000B619524141EB0101A3F1010370478080F7
:101A10007F7E7D7C7B7A7978777676757473727148
:101A200071706F6E6E6D6C6C6B6A6A696868676600
:101A300066656464636362616160605F5F5E5E5D92
:101A40005D5C5C5B5B5A5A59595858575756565506
:101A500055555454535352525251515050504F4F68
:101A60004F4E4E4D4D4D4C4C4C4B4B4B4A4A4A49B8
:101A700049494848484747474746464645454544FB
:101A80004444444343434342424242414141002B88
:101A900026D4770021D01CB54FEA370703B44FF0A6
:101AA00010004FF010014FF000000FBCBDE81040D7
:101AB0000BF1010BBBF1010F08BF5FEA170722BF53
:101AC00012F1010211F101014FF0004143F1000355
:101AD00000F0004043EA00007047F9D35708DAE706
:101AE00046EA064613F1400F4FEA16461FDD13F192
:101AF000200FDFBF16430A46002120335B42C8D0C7
:101B0000C3F1200746EA064602FA07F74FEA1646EF
:101B100046EA0706C3F1200722FA03F201FA07F7A3
:101B200021FA03F14FF0000342EA0702B1E746EA67
:101B3000020646EA06464FEA164646EA0106BCBFDA
:101B400046EA0646360C4FF000034FF000024FF015
:101B500000019EE72DE9C048934630B491E8380073
:101B600007C831EA400C48BF34EA430C03D5FFF7FD
:101B7000F2FDFFF78CFFF0BCBDE800882DE9C048FE
:101B8000934630B491E8380007C810F0804F08BF82
:101B900013F0804F03D100F005F8FFF778FFF0BC99
:101BA000BDE8008820F07F4780EA030023F07F4CE7
:101BB00007EB0C03A3F57C5300F00040A3F1FE03F8
:101BC00092F0000F00F0B38095F0000F00F07780E6
:101BD0002DE901494FEA11404FEA144621EA004835
:101BE00000FB06FC24EA064708FB06F607FB08F89C
:101BF00000FB07F718EB06484CEB164C4FEA124B6C
:101C000018EB07484FEA15464CEB174022EA0B4EFB
:101C10000BFB06FC25EA06470EFB06F607FB0EFE4D
:101C20000BFB07F71EEB064E4CEB164C4FF0000675
:101C30001EEB074E4CEB174B18EB0B0840F1000066
:101C400018EB0E0B58EB000840F100008F1A4FF014
:101C500000013CBFC943661B14BFB5EB040C002157
:101C60003CBFC943F61B4FEA17444EEA8E0E27EAE3
:101C700004454FEA1C4704FB07622CEA074C05FBAE
:101C800007F70CFB05F604FB0CFC16EB074642EBD2
:101C9000174216EB0C4642EB1C421BEB060658EBB8
:101CA0000202414146EA9E0601D5BDE80189B61906
:101CB000524141EB0101A3F10103BDE801894FEA63
:101CC00014454FEA114724EA054621EA074C05FB73
:101CD00007F406FB07F70CFB06F105FB0CFC11EB08
:101CE000074144EB17444FEA124711EB0C4144EB18
:101CF0001C4422EA074C05FB07F206FB07F70CFB26
:101D000006F605FB0CFC16EB074642EB174216EBFA
:101D10000C4642EB1C456A1854F1000148BF70475D
:101D2000B619524141EB0101A3F10103704795F04F
:101D3000000F37D04FEA11424FEA144721EA02461A
:101D400024EA074C02FB07F106FB07F70CFB06F43D
:101D500002FB0CFC14EB074441EB17414FEA15471B
:101D600014EB0C4441EB1C4125EA074C02FB07F540
:101D700006FB07F70CFB06F602FB0CFC16EB07460E
:101D800045EB174516EB0C4645EB1C42121951F179
:101D9000000148BF7047B619524141EB0101A3F160
:101DA000010370474FEA14454FEA114724EA0546FC
:101DB00021EA074C05FB07F106FB07F70CFB06F2CF
:101DC0004FF0000605FB0CFC12EB074241EB1741FC
:101DD00012EB0C4251EB1C4148BF7047921841EB8B
:101DE0000101A3F101037047FEE70000014800F084
:101DF0004DB900009C010020014800F047B90000E7
:101E00005801002030B590F840500124AC40C56B1B
:101E10006C60046863604368102B036803D09960AA
:101E20000068C26030BD9A600068C16030BD704714
:101E300072B6FEE730B5B3F5804F05D06FF0704154
:101E400040F82210002030BD8C690B688D68234358
:101E50004C688989240144EA0524234343EA01416B
:101E600050F82230014C23401943E9E70000F0CF3D
:101E700010B50A6850F8223023F0010340F82230F0
:101E80008C68082C23D000234A682243CC681C436A
:101E90000B6922431A434B690E4C1A43CB691A4310
:101EA0000B6A1A434B6A1A438B6A1A43CB6A1A436A
:101EB0000B6B1A438B6913434A6B09681A4350F83A
:101EC0002130A343134340F82130002010BD4023AC
:101ED000DAE700007FFF0F0030B5D1E9003443EAB4
:101EE00004138C688D89240244EA054423430C8A38
:101EF000074D00EB820005EB045423430C7D6D017C
:101F000005EB0464896923430B434360002030BD23
:101F10000000F0FF10B590F821100022022905D032
:101F20000421816380F82020012010BD01680B6826
:101F300023F00E030B6001680B6823F001030B60B4
:101F400090F84030C46B012101FA03F3636080F81C
:101F5000211080F82020104610BD00002DE9F05F10
:101F600090F821100024022903D004218163012468
:101F700085E001680A6822F00E020A6001680A68BA
:101F800022F001020A603F4E3E4FB215DFF8F4C066
:101F9000DFF8F090DFF8ECA0DFF8E8B0DFF8E4E07D
:101FA0000168783F13011502ACF1640CA9F15009E6
:101FB000AAF13C0AABF1280BAEF1140E4FF48018D5
:101FC000B14227D9B9420ED0614512D049451DD042
:101FD000514518D0594518D0714501D1424615E0F8
:101FE000294EB14201D1012210E0274E1436B142F0
:101FF00001D110220AE0244E2836B14206D0224AEE
:102000003C32914201D11A4600E02A461E49091F7E
:102010000A602BE0B94213D0614517D0494522D060
:1020200051451DD059451DD0714501D142461AE098
:10203000B14202D14FF0807215E0134EB14201D18E
:10204000012210E0104E1436B14201D110220AE0F4
:102050000D4E2836B14206D00B4A3C32914201D196
:102060001A4600E02A46074980394A60012180F873
:102070002110002180F82010416B01B188472046D3
:10208000BDE8F09F80000240080402402DE9F05FA7
:10209000C16B0A6801680B68046C4FF0040808FA09
:1020A00004F8844D844E854FDFF814C2DFF8149293
:1020B000DFF814A2DFF814B2DFF814E218EA020F16
:1020C00065D05FEA437862D50A68920603D40A684D
:1020D00022F004020A60DFF8F0814FF480620168A8
:1020E00008F1140813011402414524D9A9420DD066
:1020F000B1420FD0B9421AD0614515D0494515D02B
:10210000514501D1120312E0594501D104220EE0DC
:10211000714501D140220AE06D4D1435A94206D027
:102120006B4A2832914201D11A4600E022466749A3
:10213000091F0A6029E0A94213D0B14215D0B94263
:1021400020D061451BD049451BD0514502D14FF4E9
:10215000800217E0414502D14FF0806212E05945FC
:1021600001D104220EE0714501D140220AE0584D10
:102170001435A94206D0564A2832914201D11A4656
:1021800000E022464B4908394A60C16A71E04FF0CD
:10219000020808FA04F818EA020F70D05FEA8378A0
:1021A0006DD50A68920606D40A6822F00A020A600F
:1021B000012180F82110DFF810814FF400720168CE
:1021C00008F1140813011402414524D9A9420DD085
:1021D000B1420FD0B9421AD0614515D0494515D04A
:1021E000514501D1120312E0594501D102220EE0FE
:1021F000714501D120220AE0354D1435A94206D09F
:10220000334A2832914201D11A4600E022462F4932
:10221000091F0A6029E0A94213D0B14215D0B94282
:1022200020D061451BD049451BD0514502D14FF408
:10223000001217E0414502D14FF0007212E05945FB
:1022400001D102220EE0714501D120220AE0204D89
:102250001435A94206D01E4A2832914201D11A46AD
:1022600000E02246134908394A60002180F8201016
:10227000816A00291CD0BDE8F05F0847FFE7082508
:10228000A540154214D01A0712D50A6822F00E0292
:102290000A6090F84020C36B012101FA02F25A60F3
:1022A000816380F82110002180F82010016BE0E7A5
:1022B000BDE8F09F080002401C00024030000240D0
:1022C00044000240580002406C00024008040240F2
:1022D0001C04024030B560B11A4B026814219A42C6
:1022E00009D2194B1344B3FBF1F18900016417497A
:1022F0000AE0012030BD134B5B421344B3FBF1F104
:10230000890001640F490839C163022180F8211056
:10231000136843F6F0718B43F0E901142143D0E9CF
:1023200002452C43214304692143446921438469C4
:102330002143194311600021416301224277017753
:10234000084630BD08040240F8FFFDBF000002400F
:1023500070B5044690F82000002501280CD001201B
:1023600084F8200094F821600020012E06D084F823
:1023700020000225284670BD022070BD022684F888
:102380002160A0632068066826F0010606602046EA
:10239000FFF738FDE06A00282068016802D041F0AC
:1023A0000E0106E021F0040101602068016841F09F
:1023B0000A0101602068016841F001010160D9E76C
:1023C00030B585B00020009001900290039017482E
:1023D0000168002927D1012101601548416941F4B4
:1023E000807141614069022400F48070049041F2E0
:1023F0000100CDE900040325694603950D4800F06E
:102400001FF84FF68070CDE90004694603950A482D
:1024100000F016F84CF23370CDE9000469460395DC
:10242000064800F00DF805B030BD00002000002087
:10243000001002400020014000180140001401403B
:102440002DE9F84FDFF8C8910024A9F1040B2346C9
:102450000F2709F1040AABF1040ED1E00125A540D4
:1024600006EA0502AA4276D1DFF8A8C14E68A6EBBB
:102470000C0866452BD00DDC032E34D005DC36B3BA
:10248000012E19D0022E2FD11BE0112E16D0122EA4
:102490002AD119E0B8F5881F19D006DCB8F5803FBD
:1024A00015D0B8F5801F1FD111E0B8F5001F0ED070
:1024B000B8F5041F18D10AE0CB6815E0CB681B1DE6
:1024C00012E0CB6808330FE0CB680C330CE08B686C
:1024D0002BB1012B4FF0080303D0456104E0042326
:1024E00002E0056100E00023FF2A01D8064601E072
:1024F00000F104064FEA840501D9A5F12005D6F8BC
:10250000008007FA05FC28EA0C0803FA05F548EAFA
:102510000508C6F800804D68ED0070D53E4DAE69E7
:1025200046F00106AE61AD6924F0030605F0010531
:1025300000953A4D06EB050CDCF80850A607360F5F
:1025400007FA06F825EA0805DFF8D480404503D1EC
:102550004FF0000825E052E0DFF8C880404502D186
:102560004FF001081DE0DFF8C080404502D14FF078
:10257000020816E0DFF8B480404502D14FF00308AE
:102580000FE0DFF8AC80404502D14FF0040808E0CE
:10259000DFF8A080404502D14FF0050801E04FF080
:1025A000060808FA06F848EA0508CCF808804D68DD
:1025B000D9F80060ED024D4601D5164300E0964380
:1025C0002E604D68DAF80060AD02554601D516431D
:1025D00000E096432E604D68DBF80060AD035D4679
:1025E00001D5164300E096432E604D68DEF800608A
:1025F000ED03754601D5164300E096432E60641C3A
:102600000A681646E2407FF429AFBDE8F88F000063
:1026100008040140000011100010024000000140B9
:1026200000080140000C014000100140001401406E
:1026300000180140001C0140C26821EA02030A4060
:1026400043EA0241016170470AB101617047090420
:10265000FBE7000001488068704700002800002068
:102660000248816802781144816070472800002088
:10267000074810B5016841F010010160032000F027
:10268000A1F80F2000F006F800F04AF8002010BD75
:102690000020024030B505461C4887B0816941F4EE
:1026A00000618161806906A900F40060009001A8C2
:1026B00000F030F900F05EF91549164AB0FBF1F16F
:1026C0001548491E0260416040F2E7320021C0E92E
:1026D00003218160816100F049FB040012D10E48A2
:1026E00000F072FB04000DD1192000F03DF8102D10
:1026F00007D200222946192000F044F80748056057
:1027000000E0012407B0204630BD00000010024068
:1027100040420F00002C0140E00100202C0000206E
:102720000F4808B5816941F001018161816901F0BB
:1027300001010091C16941F08051C161C06900226D
:1027400000F0805000900F21901E00F01BF805480B
:10275000416821F0E06141F00071416008BD000076
:102760000010024000000140002809DB00F01F02B9
:10277000012191404009800000F1E020C0F80011E3
:1027800070470000F0B40E4B1B680C46C3F30223E5
:10279000C3F10705042D00D90425191D072901D20D
:1027A000002300E0DB1E012606FA05F1491E214048
:1027B00099409E40761E16403143F0BC01F045BB67
:1027C0000CED00E0064900F0070208684FF6FF0331
:1027D000184040EA0220034A104308607047000096
:1027E0000CED00E00000FA052DE9F0470F4605006A
:1027F00061D0434E306800F00700B84209D230681B
:1028000020F0070038433060306800F00700B8421D
:1028100051D128683B4C810712D5400703D5606829
:1028200040F4E06060602878000703D5606840F4F9
:10283000605060606068A96820F0F0000843606044
:102840002878C00728D06868012810D0216802289D
:1028500010D0890700292EDA616821F003010143B5
:102860006160FFF7F7FE804641F288390DE021688C
:102870008903EFE78901EDE7FFF7ECFEA0EB080124
:10288000494502D90320BDE8F0876068696800F017
:102890000C00B0EB810FEFD1306800F00700B842B8
:1028A0000BD9306820F0070038433060306800F002
:1028B0000700B84201D00120E5E72878400705D598
:1028C0006068E96820F4E0600843606028780007E9
:1028D00006D56068296920F4605040EAC100606054
:1028E00000F058F86168084AC1F30311515CC84010
:1028F0000649086006480068FFF7CCFE0020C2E7E2
:102900000020024000100240C29100083400002064
:102910002C0000200F2202600C4A536803F00303CE
:102920004360536803F0F0038360536803F4E0638B
:10293000C36052684FF4E06303EAD20202610448C4
:10294000006800F0070008607047000000100240B7
:10295000002002400448054900684968044AC1F360
:102960000221515CC8407047340000200010024032
:10297000D29100080448054900684968044AC1F337
:10298000C221515CC8407047340000200010024052
:10299000D29100080E4A51680E4801F00C03042B36
:1029A00011D0082B0FD10C48C1F38343C903C05C7D
:1029B0000AD55168084AC1F34041921E515C054A4C
:1029C0005043B0FBF1F070470449484370470000A2
:1029D0000010024000127A00B291000800093D0088
:1029E0002DE9F84F040070D02078C04DC00749D0C1
:1029F0006868C0F38100012807D06868C0F38100CF
:102A0000022809D16868C00306D52868800339D533
:102A100060680028E7D035E06068B0F5803F0BD0F3
:102A200010B1B0F5A02F11D0286820F480302860B4
:102A3000286820F4802002E0286840F48030286074
:102A4000606890B1FFF706FE06460AE0286840F489
:102A500080202860F0E700BFFFF7FCFD801B6428A2
:102A600073D828688003F7D50CE0FFF7F3FD06461E
:102A700005E000BFFFF7EEFD801B6428F0D8286852
:102A80008003F7D420789A4E80074FF001094FF069
:102A9000000839D5686810F00C0F07D06868C0F3DB
:102AA0008100022809D16868C00306D4286880071D
:102AB00014D52069012808D110E02069B0B1C6F80A
:102AC0000090FFF7C7FD074605E00AE1FFF7C2FDEA
:102AD000C01B0228C4D828688007F7D52868616918
:102AE00020F0F80040EAC10028600DE0C6F8008040
:102AF000FFF7B0FD074604E0FFF7ACFDC01B02285E
:102B000023D828688007F7D4207800072CD5794887
:102B1000A169D9B1C0F80090FFF79CFD074604E019
:102B2000FFF798FDC01B02280FD8686A8007F7D509
:102B300071484FF4FA510068B0FBF1F0009000BF0B
:102B40000098411E0091FAD20EE080E0C0F80080AB
:102B5000FFF780FD074604E0FFF77CFDC01B02285D
:102B600075D8686A8007F7D42078400760D5E8698F
:102B70000027C00008D4E86940F08050E861E869A7
:102B8000012700F0805000905C480168C90513D40B
:102B90000168834641F480710160FFF75BFD824666
:102BA00006E000BFFFF756FDA0EB0A0064284ED8F0
:102BB000DBF80000C005F5D5E06801280AD008B1AF
:102BC000052813D0286A20F001002862286A20F026
:102BD000040002E0286A40F001002862E06841F247
:102BE000883B98B1FFF736FD82460BE0286A40F03B
:102BF00004002862EEE700BFFFF72CFDA0EB0A01FE
:102C000059455AD8286A8007F6D50CE0FFF722FD0F
:102C1000824605E0FFF71EFDA0EB0A0159454CD89E
:102C2000286A8007F6D41FB1E86920F08050E86177
:102C3000E06988B36968C1F38101022944D00228A0
:102C4000C6F8608004D0FFF705FD044638E034E0A4
:102C5000FFF700FD074604E0FFF7FCFCC01B02285D
:102C60002BD828688001F7D4206AB0F5803F05D1C1
:102C70006868A16820F4003008436860D4E908015E
:102C80000843696821F4741108436860C6F86090CD
:102C9000FFF7E0FC044606E025E000BFFFF7DAFCA2
:102CA000001B022809D828688001F7D51BE000BF67
:102CB000FFF7D0FC001B022802D90320BDE8F88FE3
:102CC00028688001F4D40EE00128F7D06868226AF1
:102CD00000F48031914204D1616A00F4701088429E
:102CE00001D00120EAE70020E8E7000000100240E0
:102CF0000000424280044242340000200070004044
:102D000070B515460E46040007D0A069B0F5807F67
:102D100003D094F8410010B107E0012070BD0020FD
:102D200084F84000204600F01DF804F108012068F6
:102D3000FFF79EF83146A2682068FFF7CDF8D4E986
:102D400001022946236BFFF775F8A168206850F847
:102D5000212042F0010240F82120012084F84100A6
:102D6000002070BDFFF72CBB7047704710B5040002
:102D700003D094F83D0010B107E0012010BD002001
:102D800084F83C00204600F01EF8022084F83D0044
:102D9000211D206800F032FE012084F8460084F8EE
:102DA0003E0084F83F0084F8400084F8410084F835
:102DB000420084F8430084F8440084F8450084F815
:102DC0003D00002010BD704790F83D10012901D052
:102DD00001207047022180F83D100168CA6842F066
:102DE0000102CA6000680E4988420ED00D4988422F
:102DF0000BD0B0F1804F08D00B49884205D00B4969
:102E0000884202D00A49884204D1816801F0070152
:102E1000062903D0016841F00101016000207047DC
:102E2000002C014000340140000400400008004034
:102E3000000C004070472DE9F04104460068C66868
:102E400005694FF00007A90713D5B10711D5F91E81
:102E5000016101202077206880698007204602D028
:102E6000FFF7E8FF04E000F07EF8204600F07CF871
:102E70002777680716D5700714D521686FF004000E
:102E80000861022020772068806910F4407F204686
:102E900002D0FFF7CFFF04E000F065F8204600F015
:102EA00063F82777280715D5300713D521686FF009
:102EB00008000861042020772068C0698007204648
:102EC00002D0FFF7B7FF04E000F04DF8204600F015
:102ED0004BF82777E80616D5F00614D521686FF071
:102EE00010000861082020772068C06910F4407F36
:102EF000204602D0FFF79EFF04E000F034F82046A1
:102F000000F032F82777E80708D0F00706D02168EC
:102F10006FF001000861204600F028F8280608D567
:102F2000300606D521686FF0800008612046FFF763
:102F30001BFF680608D5700606D521686FF04000B3
:102F40000861204600F01CF8A8060AD5B00608D58E
:102F500021686FF0200008612046BDE8F041FFF7CE
:102F600004BFBDE8F0817047704700000068034966
:102F7000884201D1FFF774BB70470000002C01406C
:102F80007047704770470000F8B50168044608684C
:102F9000CA684B6910F00F0F4FF000055AD003F0CC
:102FA000010602F49077374365D0C10705D0D105FB
:102FB00003D5616C41F001016164410705D5D90772
:102FC00003D0616C41F002016164810705D5D90726
:102FD00003D0616C41F004016164010707D502F080
:102FE0002001314303D0616C41F008016164616CE0
:102FF00000293BD0800604D5900602D5204600F07B
:10300000FFFD20684069616CC0F3801001F0080189
:10301000014320462BD000F0BEFD206840694006E9
:1030200021D52068143050E8001F21F0400140E80D
:103030000012002AF5D1E06BA8B16D494163E06B45
:10304000FEF78CFF002811D0E06B416B01B0BDE8AA
:10305000F040084783060ED593060CD52046BDE800
:10306000F84000F0CDBD2046FFF78CFFF8BDFFF71C
:1030700089FF6564F8BD266B2023012E7CD1C6062E
:103080007AD5D60678D508684868009048694FF028
:103090000206400640D5E16B086840680004000C59
:1030A000E8D0A28D8242E5D9E085886920282DD01C
:1030B00020680C3050E8001F21F4807140E80012B5
:1030C000002AF5D12168143151E8000F20F00100E9
:1030D00041E80002002AF5D12068143050E8001FB2
:1030E00021F0400140E80012002AF5D184F8423076
:1030F000256320680C3050E8001F21F0100140E8E3
:103100000012002AF5D1E06BFEF704FF6663A08D84
:10311000E18D401A81B22AE0A08DE18D401A81B282
:10312000E08D0028A6D00029A4D022680C3252E8F5
:10313000000F20F4907042E80007002FF5D12068BE
:10314000143050E8002F22F0010240E80027002F41
:10315000F5D184F84230256320680C3050E8002F08
:1031600022F0100240E80023002BF5D166632046D0
:10317000FFF707FFF8BDFFE705062BD5150629D594
:1031800094F841002128F5D1A068B0F5805F01D105
:103190002069B0B1206A411C216221680078486032
:1031A000E08C401E0004000CE084E3D12068C1687C
:1031B00021F08001C1602068C16841F04001C16018
:1031C000D8E7206A0088C0F308004860206A801CA5
:1031D0002062E5E74006CDD55006CBD5CA6820462B
:1031E00022F04002CA6084F8413000F0CDF8C1E717
:1031F000993A000870B5040004D094F84100002505
:1032000010B106E0012070BD84F84050204600F067
:1032100023F8242084F841002068C16821F400517B
:10322000C160204600F04EFD2068016921F4904104
:1032300001612068416921F02A0141612068C1686B
:1032400041F40051C1606564202084F8410084F895
:1032500042006563002070BDF0B585B000240646CD
:10326000009401940294039400682D49884255D13A
:103270002C48816941F480418161816901F4804178
:103280000491816941F0040181618069264D00F05B
:10329000040004904FF4007000900220019003207D
:1032A000039069462846FFF7CBF82815CDE90004BE
:1032B000694628460294FFF7C3F81D4D1B48802736
:1032C000C5E90004C5E9024720202C61C5E9054095
:1032D0002846EC61FEF7FEFF08B1FEF7A9FDF56395
:1032E0006E62134D11484435143801C5102091C544
:1032F0000F4845F8104944306C61AC61EC61FEF751
:10330000E9FF08B1FEF794FDB563002205212520F1
:103310006E62FFF737FA2520FFF726FA05B0F0BDF9
:1033200000380140001002400008014058000240EF
:103330005801002090F84230202B01D00220704725
:1033400021B11AB10023036300F018BD01207047BA
:103350007047704790F84130202B01D00220704711
:1033600079B172B101628284C28400214164212159
:1033700080F841100068C16841F08001C160002000
:10338000704701207047000000680449884203D15B
:103390000348006803F0FCBE70470000003801409D
:1033A00014000020FEE700000D4808B5416941F017
:1033B000010141614069002200F0010000900521F7
:1033C0000E20FFF7DFF90E20FFF7CEF900220521CE
:1033D0000F20FFF7D7F9BDE808400F20FFF7C4B969
:1033E0000010024010B501211B4A084603F084FE7C
:1033F0001A4C194A012160611032084603F07CFE24
:10340000154A0121A0612032084603F075FE124AD8
:10341000E061B43A0021124803F0E4FE0E4A206055
:10342000903A00210F4803F0DDFE0B4A60606C3AD1
:1034300000210D4803F0D6FE074AA060483A00215B
:103440000A4803F0CFFE044AE060243A002108480D
:1034500003F0C8FE206110BD80910008000000202C
:103460006D390008D538000829360008C53700082E
:103470006538000810B58EB01C216846FDF778F954
:103480001C2107A8FDF774F91C484FF020411022B9
:1034900001601B494160062181600021C160C0E9D3
:1034A00004128161C16113020162C0E90913930230
:1034B000C0E90B13416381630F20FF230090CDE926
:1034C00001030DF10C0C11248CE81500CDE9080363
:1034D000CDE906100AAB0D9183E8150007AA6946ED
:1034E0000648FFF70DFC08B1FEF7A2FC0548C169CC
:1034F00041F48061C1610EB010BD0000C800002021
:10350000040100A0000001402DE9F04385B0002532
:1035100033480095019502950395816941F040017A
:103520008161816901F040010491816941F01001DC
:103530008161816901F010010491816941F0080104
:103540008161816901F008010491816941F4807110
:103550008161816901F480710491816941F02001E8
:103560008161816901F020010491816941F00401C8
:1035700081618069DFF86C8000F004000490012212
:1035800020214046FFF760F8DFF85C90002201211F
:103590004846FFF759F8012220214846FFF754F822
:1035A000012420260327CDE90064CDE902476946BE
:1035B0004046FEF745FF0220CDE9025000946946DF
:1035C00001944846FEF73CFFCDE90064CDE902478F
:1035D00069464846FEF734FF05B0BDE8F0830000B9
:1035E0000010024000180140000C01400C4810B5CA
:1035F0000A4901604FF416514160002181600C229C
:10360000C160C0E904128161C161FFF7F3FD0028C8
:1036100003D0BDE81040FEF70BBC10BD00380140E0
:1036200010010020FEE7FEE786B00024482000F0ED
:1036300023FC03F001F946484FF4784546A10560A4
:103640004448828803A8FCF795FE464FDFF818B17E
:10365000A0464FF020094FF0180A10264FF0FF3116
:10366000386803F01BFD0C2C0DD2DFE804F00609CE
:103670005557595C5F6265686B6E4FF6FF7000E0EE
:10368000002000F01FFC39A1CDF80090CDE9011514
:103690002023F02228210A2003F010FC37A1CDF8C6
:1036A00000A0CDE901151823F02250210A2003F0D3
:1036B00005FC35A00096CDE901051023F0226E210E
:1036C0000A2003F0FBFB03A80096CDE901051023B7
:1036D000F02282210A2003F0F1FB2FA1CDE9006145
:1036E0001023F022CDF8088096210A2003F0E6FB93
:1036F000CDE9006B1023F022AA210A20CDF8088022
:1037000003F0DCFB184929A003F068FC641CE4B258
:103710000C2CA3D10024A1E71F20B2E72846B0E774
:103720004FF61F00ADE74FF4FC60AAE740F2FF70D0
:10373000A7E74FF6E070A4E74FF60740A1E748F28D
:1037400030409EE74CF218609BE74BF6404098E70C
:10375000BC000020DC2700204C43442049443A258B
:10376000303458001C0000202E27002053544D33C5
:1037700032463130335A4554360000005446544CDA
:103780004344205445535400557365723A436F7354
:103790007369616E74000000554152542072656176
:1037A000642064617461206973203A004C434420B2
:1037B0007265667265736820646174612069732044
:1037C0003A25730000250226124C012712A1154844
:1037D000FCF7F6FF18B914A003F000FC257016A141
:1037E0001048FCF7EDFF18B915A003F0F7FB2670A1
:1037F00017A10C48FCF7E4FF18B917A003F0EEFB83
:10380000277032210748FCF791FF642003F00AFC7F
:10381000DCE70000B80000204C45445F4155544FA0
:1038200000000000602700204E6F77204C454420A8
:103830004155544F210000004C45445F4F4646001F
:103840004E6F77204C4544204F4646210000000033
:103850004C45445F4F4E00004E6F77204C4544204E
:103860004F4E2100184C194E194F03254FF47A780A
:103870002078032825D020B101280BD002281BD1A5
:103880000FE020213046FEF7D7FE20213846FEF714
:10389000D3FE11E0002220213046FEF7D5FE0022A3
:1038A00005E0012220213046FEF7CEFE0122202134
:1038B0003846FEF7C9FE25704FEA080003F0B2FB58
:1038C000D6E76420FAE70000B8000020000C0140B1
:1038D000001801408EB0002434216846FCF748FFF0
:1038E0001D480068C16841F01001C160322269467C
:1038F0001948FFF71FFDDFF86490DFF864A0DFF8D8
:103900006480DFF864B06F464FF0FF31D9F80000F3
:1039100003F0C4FBDAF8000040680025C0F1320073
:1039200086B232210F48FCF701FF404608E0395DBE
:103930004155641C6D1CA4B2ADB2322C00D30024DE
:10394000B442F4D1074901F13200FCF75FFEDBF825
:10395000000003F01DFCD7E7100100201800002034
:10396000580100202E2700201C000020012003F019
:1039700059FBFBE710B54FF0E020006905F046F871
:10398000012803D0BDE8104004F0BEBB10BD30B527
:103990008FB028216846FCF7EBFE14210AA8FCF73B
:1039A000E7FE01210804CDE900100024029402255D
:1039B0000491CDE907504FF4E01009906846FFF7F5
:1039C0000FF808B172B6FEE70F20CDE90A054FF4F3
:1039D0008060CDE90C4002210AA80E94FEF704FF96
:1039E000002801D072B6FEE70FB030BD704700006E
:1039F0000148FFF720BA0000E0010020F0B502689E
:103A0000204C214D214E224F224B4FF0804CA042A2
:103A100009D0984207D0604505D0A84203D0B042F3
:103A200001D0B84204D122F0700E4A6842EA0E0278
:103A3000A04209D0984207D0604505D0A84203D0E3
:103A4000B04201D0B84203D122F44075CA682A437B
:103A50004D6922F080022A4302608A68C2620A68C5
:103A60008262A04201D0984201D10969016301211B
:103A700041610169C90703D0016921F001010161B8
:103A8000F0BD0000002C0140000400400008004090
:103A9000000C00400034014010B5406A0021C1858F
:103AA000C184FFF76FFA10BD70B5446A20684069A1
:103AB00094F84110C0F3C0100025212904D118B199
:103AC000E584204600F08EF82068406994F84210A2
:103AD000C0F38010222904D118B1E585204600F0FA
:103AE0005AF8606C40F0100060642046FFF74AFA14
:103AF00070BD10B50146406A096809684FF00002C0
:103B000089062ED4C28501680C3151E8003F23F4A8
:103B1000807341E80034002CF5D10168143151E87C
:103B2000003F23F0010341E80034002CF5D1016887
:103B3000143151E8003F23F0400341E80034002CE9
:103B4000F5D1202180F84210016B012909D10168CB
:103B50000C3151E8003F23F0100341E80034002C01
:103B6000F5D14263016B012902D0FFF7F1FB10BDD3
:103B7000818DFFF706FA10BD10B5406A012141633F
:103B8000016B012902D0FFF7E4FB10BD818D4908CC
:103B9000FFF7F7F910BD01680C3151E8002F22F44E
:103BA000907241E80023002BF5D10168143151E8EF
:103BB000002F22F0010241E80023002BF5D1016B18
:103BC000012909D101680C3151E8002F22F01002BF
:103BD00041E80023002BF5D1202180F8421000217C
:103BE0000163704701680C3151E8002F22F0C002D8
:103BF00041E80023002BF5D1202180F841107047C7
:103C000008B590F84210222901D0022008BD826830
:103C10004FF480539A4201D1016921B1816A9A42DD
:103C20001BD04AB10AE00268816A5268C2F30802F6
:103C30000A80816A891C08E0026972B102685268D0
:103C400002F07F020A70816A491C8162C18D491E9F
:103C50000904090CC18503D01BE002685268F1E732
:103C60000168CA6822F02002CA600168CA6822F4AA
:103C70008072CA6001684A6922F001024A6120210B
:103C800080F8421000214163026B012A03D0FFF744
:103C90005FFB002008BD016301680C3151E8002F73
:103CA00022F0100241E80023002BF5D101680A68D8
:103CB000D20602D50A6849680091818DFFF761F943
:103CC000E7E7000070B5044600680169E26821F486
:103CD0004051114301612169A068084361690843AB
:103CE0002168CA6841F20C639A430243CA602068A3
:103CF0004169A26921F44071114341611E49206864
:103D0000884202D1FEF736FE01E0FEF723FE00EB0B
:103D1000C00101EB0012606864218000B2FBF0F387
:103D2000B3FBF1F36FF018067343B2FBF0F5B2FB8F
:103D3000F0F605EB8305322303EB0515B5FBF1F532
:103D4000B6FBF1F605F0F00505EB0615B2FBF0F653
:103D5000B2FBF0F0B0FBF1F06FF01802504306EB4D
:103D6000800003EB0010B0FBF1F0216800F00F00C1
:103D70002844886070BD00000038014038B5816279
:103D800004468285002013466064222284F8422083
:103D9000E56B1B4AAA62E56B1A4AEA62E56B1A4AAE
:103DA0002A63E26B50630A462168E06B091DFEF747
:103DB000CFFA2068016840680090206948B1206807
:103DC0000C3050E8001F41F4807140E80012002AD6
:103DD000F5D12068143050E8001F41F0010140E89F
:103DE0000012002AF5D12068143050E8001F41F07D
:103DF000400140E80012002AF5D1002038BD000043
:103E0000F33A0008793B0008A93A000810B503F01E
:103E100083FEBDE810400148FFF7B6B8100100204E
:103E2000FEE7490050EAC12018BF04204A0D18BF20
:103E300040F0010040F2FF72B2EB515F08BF40F06A
:103E40000200012808BF052070470907090E002855
:103E500004DB00F1E02080F80014704700F00F0050
:103E600000F1E02080F8141D704730380A2801D294
:103E7000012070470020704701490860704700002A
:103E8000C40000204FF47A71484300F001B80000EC
:103E900070B54FF0E024002265690949A3690968FB
:103EA0004843A1699942FCD002D2A3EB010302E08E
:103EB000A5EB010633441A440B468242F1D370BD90
:103EC000C400002070B509490646002408884D88C2
:103ED00021464543204602F007FF03F059F8044805
:103EE00001E00680641CAC42FBD370BDDC270020DF
:103EF0000008006C2DE9F04F38492C260A468871DD
:103F000092884FF4305A4FF4285B41F6631E2B27FA
:103F10004FF02A0C4FF0F00845F210594FF4487555
:103F20004FF4A0744FF4F07358B10C80A1F80280E4
:103F30004A4530D1A1F808A0A1F80AB0380288811A
:103F400041E0A1F800804C804A4507D1A1F808A0C3
:103F5000A1F80AB04FF42C50888105E072450E811B
:103F600005D14F81A1F80CC00B804D8002E0A1F873
:103F70000AC08F81A2F5A640103803D0A2F5EE400A
:103F8000963801D10C804B80A2F5184006381FD11D
:103F90000B804D801CE0724511D0A2F51840063808
:103FA0000DD00E81A1F80AC0A1F80C70A2F5A640B0
:103FB00010380BD0A2F5EE40963807D008E00E81FD
:103FC000A1F80AC08F810D804B80EFE70B804C80F9
:103FD000BDE8F04F002002F0C7BD0000DC27002044
:103FE00010B5144602F080FE02F0D2FF01480480B2
:103FF00010BD00000008006C10B5CF2002F0BCFF1F
:10400000002002F0ADFFC12002F0AAFF302002F034
:10401000A7FFED2002F0B0FF642002F0A1FF032013
:1040200002F09EFF122002F09BFF812002F098FF19
:10403000E82002F0A1FF852002F092FF102002F09C
:104040008FFF7A2002F08CFFCB2002F095FF392001
:1040500002F086FF2C2002F083FF002002F080FF98
:10406000342002F07DFF022002F07AFFF72002F0F8
:1040700083FF202002F074FFEA2002F07DFF002081
:1040800002F06EFF002002F06BFFC02002F074FF10
:104090001B2002F065FFC12002F06EFF012002F03C
:1040A0005FFFC52002F068FF302002F059FF30208A
:1040B00002F056FFC72002F05FFFB72002F050FF6A
:1040C000362002F059FF482002F04AFF3A2002F061
:1040D00053FF552002F044FFB12002F04DFF0020B5
:1040E00002F03EFF1A2002F03BFFB62002F044FF30
:1040F0000A2002F035FFA22002F032FFF22002F087
:104100003BFF002002F02CFF262002F035FF0120AB
:1041100002F026FFE02002F02FFF0F2002F020FF28
:104120002A2002F01DFF282002F01AFF082002F0CA
:1041300017FF0E2002F014FF082002F011FF542098
:1041400002F00EFFA92002F00BFF432002F008FF4F
:104150000A2002F005FF0F2002F002FF002002F00B
:10416000FFFE002002F0FCFE002002F0F9FE00201D
:1041700002F0F6FEE12002F0FFFE002002F0F0FE69
:10418000152002F0EDFE172002F0EAFE072002F0F3
:10419000E7FE112002F0E4FE062002F0E1FE2B20F3
:1041A00002F0DEFE562002F0DBFE3C2002F0D8FEDC
:1041B000052002F0D5FE102002F0D2FE0F2002F002
:1041C000CFFE3F2002F0CCFE3F2002F0C9FE0F20C0
:1041D00002F0C6FE2B2002F0CFFE002002F0C0FE4F
:1041E000002002F0BDFE012002F0BAFE3F2002F0E6
:1041F000B7FE2A2002F0C0FE002002F0B1FE00202F
:1042000002F0AEFE002002F0ABFEEF2002F0A8FEAE
:10421000112002F0B1FE782002F004FFBDE810404A
:10422000292002F0A9BE10B5FF2002F0A5FEFF2054
:1042300002F096FE982002F093FE062002F090FE17
:10424000BC2002F099FE012002F08AFE0F2002F04D
:1042500087FE612002F084FEFF2002F081FE012033
:1042600002F07EFE012002F07BFE0B2002F078FEC1
:10427000102002F075FE372002F072FE632002F07B
:104280006FFEFF2002F06CFEFF2002F069FE0120AD
:1042900002F066FE012002F063FE002002F060FEE4
:1042A000002002F05DFEFF2002F05AFE522002F0D4
:1042B00057FE012002F054FE002002F051FE402083
:1042C00002F04EFEBD2002F057FE012002F048FE33
:1042D000232002F045FE452002F042FE672002F056
:1042E0003FFE012002F03CFE232002F039FE452073
:1042F00002F036FE672002F033FEBE2002F03CFEE4
:10430000002002F02DFE012002F02AFEAB2002F078
:1043100027FE602002F024FE222002F021FE22204F
:1043200002F01EFE222002F01BFE222002F018FEE8
:10433000222002F015FEC72002F01EFE362002F0F9
:104340000FFEED2002F018FE7F2002F009FE0F2084
:1043500002F006FEC02002F00FFE0F2002F000FE69
:104360000B2002F0FDFD0A2002F0FAFDFC2002F015
:1043700003FE082002F0F4FDDF2002F0FDFD002026
:1043800002F0EEFD002002F0EBFD002002F0E8FD5F
:10439000002002F0E5FD002002F0E2FD202002F006
:1043A000DFFDF32002F0E8FD742002F0D9FDB42017
:1043B00002F0E2FD002002F0D3FD002002F0D0FD6B
:1043C000002002F0CDFDF72002F0D6FD822002F0A1
:1043D000C7FDB12002F0D0FD002002F0C1FD132086
:1043E00002F0BEFD132002F0BBFDF22002F0C4FD7E
:1043F000802002F0B5FD042002F0B2FD402002F062
:10440000AFFD282002F0ACFDC12002F0B5FD172061
:1044100002F0A6FD882002F0A3FD882002F0A0FD96
:10442000202002F09DFDE02002F0A6FD002002F019
:1044300097FD0A2002F094FD122002F091FD102059
:1044400002F08EFD0E2002F08BFD202002F088FD90
:10445000CC2002F085FD072002F082FD062002F04C
:104460007FFD0B2002F07CFD0E2002F079FD0F2075
:1044700002F076FD0D2002F073FD152002F070FDB4
:10448000102002F06DFD002002F06AFDE12002F034
:1044900073FD002002F064FD0B2002F061FD13208B
:1044A00002F05EFD0D2002F05BFD0E2002F058FDD3
:1044B0001B2002F055FD712002F052FD062002F093
:1044C0004FFD062002F04CFD0A2002F049FD0F20AE
:1044D00002F046FD0E2002F043FD0F2002F040FDE9
:1044E000152002F03DFD0C2002F03AFD002002F004
:1044F00037FD2A2002F040FD002002F031FD0020AF
:1045000002F02EFD012002F02BFDDF2002F028FD3D
:104510002B2002F031FD002002F022FD002002F0ED
:104520001FFD032002F01CFD1F2002F019FD3A20A0
:1045300002F022FD552002F013FD362002F01CFD92
:10454000002002F00DFD112002F016FD782002F08F
:1045500069FD292002F010FD142002F063FDBDE882
:1045600010402C2002F008BD10B5ED2002F004FD33
:10457000012002F0F5FCFE2002F0F2FCEE2002F039
:10458000FBFCDE2002F0ECFC212002F0E9FCF12033
:1045900002F0F2FC012002F0E3FCDF2002F0ECFC70
:1045A000102002F0DDFCC42002F0E6FC8F2002F0B7
:1045B000D7FCC62002F0E0FC002002F0D1FCE22093
:1045C00002F0CEFCE22002F0CBFCE22002F0C8FCBC
:1045D000BF2002F0D1FCAA2002F0C2FCB02002F001
:1045E000CBFC0D2002F0BCFC002002F0B9FC0D2039
:1045F00002F0B6FC002002F0B3FC112002F0B0FC87
:10460000002002F0ADFC192002F0AAFC002002F00C
:10461000A7FC212002F0A4FC002002F0A1FC2D2028
:1046200002F09EFC002002F09BFC3D2002F098FC72
:10463000002002F095FC5D2002F092FC002002F0C8
:104640008FFC5D2002F08CFC002002F089FCB12080
:1046500002F092FC802002F083FC002002F080FC3B
:104660008B2002F07DFC002002F07AFC962002F004
:1046700077FC002002F074FCB22002F07DFC0020E8
:1046800002F06EFC002002F06BFC022002F068FCDD
:10469000002002F065FC032002F062FC002002F022
:1046A0005FFCB32002F068FC002002F059FC0020FF
:1046B00002F056FC002002F053FC002002F050FCF7
:1046C000002002F04DFC002002F04AFC002002F025
:1046D00047FC002002F044FC002002F041FC0020D6
:1046E00002F03EFC002002F03BFC002002F038FC0F
:1046F000002002F035FC002002F032FC002002F025
:104700002FFC002002F02CFC002002F029FC0020ED
:1047100002F026FC002002F023FC002002F020FC26
:10472000002002F01DFC002002F01AFC002002F024
:1047300017FC002002F014FCB42002F01DFC8B20BA
:1047400002F00EFC002002F00BFC962002F008FCA8
:10475000002002F005FCA12002F002FC002002F083
:10476000FFFBB52002F008FC022002F0F9FB00205C
:1047700002F0F6FB032002F0F3FB002002F0F0FB56
:10478000042002F0EDFB002002F0EAFBB62002F06C
:10479000F3FB002002F0E4FB002002F0E1FBB72075
:1047A00002F0EAFB002002F0DBFB002002F0D8FB65
:1047B0003F2002F0D5FB002002F0D2FB5E2002F089
:1047C000CFFB002002F0CCFB642002F0C9FB0020EC
:1047D00002F0C6FB8C2002F0C3FB002002F0C0FBFD
:1047E000AC2002F0BDFB002002F0BAFBDC2002F09E
:1047F000B7FB002002F0B4FB702002F0B1FB0020F8
:1048000002F0AEFB902002F0ABFB002002F0A8FB10
:10481000EB2002F0A5FB002002F0A2FBDC2002F05E
:104820009FFB002002F09CFBB82002F0A5FB0020BB
:1048300002F096FB002002F093FB002002F090FBB8
:10484000002002F08DFB002002F08AFB002002F025
:1048500087FB002002F084FB002002F081FBBA20DD
:1048600002F08AFB242002F07BFB002002F078FBA0
:10487000002002F075FB002002F072FBC12002F064
:104880007BFB202002F06CFB002002F069FB54202F
:1048900002F066FB002002F063FBFF2002F060FBE9
:1048A000002002F05DFBC22002F066FB0A2002F04D
:1048B00057FB002002F054FB042002F051FB0020C3
:1048C00002F04EFBC32002F057FB3C2002F048FBF5
:1048D000002002F045FB3A2002F042FB002002F0EB
:1048E0003FFB392002F03CFB002002F039FB37206F
:1048F00002F036FB002002F033FB3C2002F030FBDC
:10490000002002F02DFB362002F02AFB002002F0EE
:1049100027FB322002F024FB002002F021FB2F2095
:1049200002F01EFB002002F01BFB2C2002F018FB03
:10493000002002F015FB292002F012FB002002F0FB
:104940000FFB262002F00CFB002002F009FB2420C4
:1049500002F006FB002002F003FB242002F000FB23
:10496000002002F0FDFA232002F0FAFA002002F003
:10497000F7FA3C2002F0F4FA002002F0F1FA3620B7
:1049800002F0EEFA002002F0EBFA322002F0E8FA30
:10499000002002F0E5FA2F2002F0E2FA002002F0F7
:1049A000DFFA2C2002F0DCFA002002F0D9FA2920EC
:1049B00002F0D6FA002002F0D3FA262002F0D0FA54
:1049C000002002F0CDFA242002F0CAFA002002F002
:1049D000C7FA242002F0C4FA002002F0C1FA232012
:1049E00002F0BEFA002002F0BBFAC42002F0C4FAC2
:1049F000622002F0B5FA002002F0B2FA052002F0BF
:104A0000AFFA002002F0ACFA842002F0A9FA0020EC
:104A100002F0A6FAF02002F0A3FA002002F0A0FAB9
:104A2000182002F09DFA002002F09AFAA42002F069
:104A300097FA002002F094FA182002F091FA002070
:104A400002F08EFA502002F08BFA002002F088FA71
:104A50000C2002F085FA002002F082FA172002F002
:104A60007FFA002002F07CFA952002F079FA00200B
:104A700002F076FAF32002F073FA002002F070FAE6
:104A8000E62002F06DFA002002F06AFAC52002F07A
:104A900073FA322002F064FA002002F061FA442036
:104AA00002F05EFA002002F05BFA652002F058FA8C
:104AB000002002F055FA762002F052FA002002F0AF
:104AC0004FFA882002F04CFA002002F049FAC62082
:104AD00002F052FA202002F043FA002002F040FADD
:104AE000172002F03DFA002002F03AFA012002F00D
:104AF00037FA002002F034FAC72002F03DFA002015
:104B000002F02EFA002002F02BFA002002F028FA20
:104B1000002002F025FAC82002F02EFA002002F050
:104B20001FFA002002F01CFA002002F019FA0020FF
:104B300002F016FAC92002F01FFA002002F010FA63
:104B4000002002F00DFA002002F00AFA002002F024
:104B500007FA002002F004FA002002F001FA002017
:104B600002F0FEF9002002F0FBF9002002F0F8F953
:104B7000002002F0F5F9002002F0F2F9002002F026
:104B8000EFF9002002F0ECF9002002F0E9F9002032
:104B900002F0E6F9002002F0E3F9E02002F0ECF97F
:104BA000162002F0DDF9002002F0DAF91C2002F0F4
:104BB000D7F9002002F0D4F9212002F0D1F9002029
:104BC00002F0CEF9362002F0CBF9002002F0C8F94D
:104BD000462002F0C5F9002002F0C2F9522002F08E
:104BE000BFF9002002F0BCF9642002F0B9F90020FE
:104BF00002F0B6F97A2002F0B3F9002002F0B0F921
:104C00008B2002F0ADF9002002F0AAF9992002F001
:104C1000A7F9002002F0A4F9A82002F0A1F90020D1
:104C200002F09EF9B92002F09BF9002002F098F9F9
:104C3000C42002F095F9002002F092F9CA2002F097
:104C40008FF9002002F08CF9D22002F089F90020BF
:104C500002F086F9D92002F083F9002002F080F9F1
:104C6000E02002F07DF9002002F07AF9F32002F052
:104C700077F9002002F074F9E12002F07DF91620A6
:104C800002F06EF9002002F06BF91C2002F068F9C6
:104C9000002002F065F9222002F062F9002002F003
:104CA0005FF9362002F05CF9002002F059F9452046
:104CB00002F056F9002002F053F9522002F050F9A8
:104CC000002002F04DF9642002F04AF9002002F0C1
:104CD00047F97A2002F044F9002002F041F98B20D4
:104CE00002F03EF9002002F03BF9992002F038F979
:104CF000002002F035F9A82002F032F9002002F07D
:104D00002FF9B92002F02CF9002002F029F9C42073
:104D100002F026F9002002F023F9CA2002F020F95F
:104D2000002002F01DF9D22002F01AF9002002F052
:104D300017F9D82002F014F9002002F011F9E02050
:104D400002F00EF9002002F00BF9F32002F008F94E
:104D5000002002F005F9E22002F00EF9052002F031
:104D6000FFF8002002F0FCF80B2002F0F9F8002018
:104D700002F0F6F81B2002F0F3F8002002F0F0F841
:104D8000342002F0EDF8002002F0EAF8442002F0AE
:104D9000E7F8002002F0E4F84F2002F0E1F80020EC
:104DA00002F0DEF8612002F0DBF8002002F0D8F813
:104DB000792002F0D5F8002002F0D2F8882002F025
:104DC000CFF8002002F0CCF8972002F0C9F80020BC
:104DD00002F0C6F8A62002F0C3F8002002F0C0F8E6
:104DE000B72002F0BDF8002002F0BAF8C22002F0AD
:104DF000B7F8002002F0B4F8C72002F0B1F80020A4
:104E000002F0AEF8D12002F0ABF8002002F0A8F8D2
:104E1000D62002F0A5F8002002F0A2F8DD2002F072
:104E20009FF8002002F09CF8F32002F099F800208F
:104E300002F096F8E32002F09FF8052002F090F8C7
:104E4000002002F08DF80A2002F08AF8002002F01B
:104E500087F81C2002F084F8002002F081F833204B
:104E600002F07EF8002002F07BF8442002F078F88F
:104E7000002002F075F8502002F072F8002002F0D5
:104E80006FF8622002F06CF8002002F069F87820D8
:104E900002F066F8002002F063F8882002F060F863
:104EA000002002F05DF8972002F05AF8002002F08E
:104EB00057F8A62002F054F8002002F051F8B7206D
:104EC00002F04EF8002002F04BF8C22002F048F841
:104ED000002002F045F8C72002F042F8002002F05E
:104EE0003FF8D12002F03CF8002002F039F8D5203C
:104EF00002F036F8002002F033F8DD2002F030F83E
:104F0000002002F02DF8F32002F02AF8002002F031
:104F100027F8E42002F030F8012002F021F8002008
:104F200002F01EF8012002F01BF8002002F018F831
:104F3000022002F015F8002002F012F82A2002F0F8
:104F40000FF8002002F00CF83C2002F009F80020D5
:104F500002F006F84B2002F003F8002002F000F8FF
:104F60005D2001F0FDFF002001F0FAFF742001F048
:104F7000F7FF002001F0F4FF842001F0F1FF002092
:104F800001F0EEFF932001F0EBFF002001F0E8FFBD
:104F9000A22001F0E5FF002001F0E2FFB32001F0C4
:104FA000DFFF002001F0DCFFBE2001F0D9FF002070
:104FB00001F0D6FFC42001F0D3FF002001F0D0FFA4
:104FC000CD2001F0CDFF002001F0CAFFD32001F079
:104FD000C7FF002001F0C4FFDD2001F0C1FF002069
:104FE00001F0BEFFF32001F0BBFF002001F0B8FF8D
:104FF000E52001F0C1FF002001F0B2FF002001F028
:10500000AFFF002001F0ACFF002001F0A9FF02205B
:1050100001F0A6FF002001F0A3FF292001F0A0FF6E
:10502000002001F09DFF3C2001F09AFF002001F0DC
:1050300097FF4B2001F094FF002001F091FF5D20CD
:1050400001F08EFF002001F08BFF742001F088FF3B
:10505000002001F085FF842001F082FF002001F094
:105060007FFF932001F07CFF002001F079FFA22058
:1050700001F076FF002001F073FFB32001F070FF14
:10508000002001F06DFFBE2001F06AFF002001F05A
:1050900067FFC42001F064FF002001F061FFCD2014
:1050A00001F05EFF002001F05BFFD32001F058FF0C
:1050B000002001F055FFDC2001F052FF002001F03C
:1050C0004FFFF32001F04CFF002001F049FFE620E4
:1050D00001F052FF112001F043FF002001F040FFDA
:1050E000342001F03DFF002001F03AFF562001F08E
:1050F00037FF002001F034FF762001F031FF00205F
:1051000001F02EFF772001F02BFF002001F028FF97
:10511000662001F025FF002001F022FF882001F029
:105120001FFF002001F01CFF992001F019FF002053
:1051300001F016FFBB2001F013FF002001F010FF6B
:10514000992001F00DFF002001F00AFF662001F018
:1051500007FF002001F004FF552001F001FF0020AF
:1051600001F0FEFE552001F0FBFE002001F0F8FEEC
:10517000452001F0F5FE002001F0F2FE432001F091
:10518000EFFE002001F0ECFE442001F0E9FE0020DB
:1051900001F0E6FEE72001F0EFFE322001F0E0FE34
:1051A000002001F0DDFE552001F0DAFE002001F0C4
:1051B000D7FE762001F0D4FE002001F0D1FE66205B
:1051C00001F0CEFE002001F0CBFE672001F0C8FE0A
:1051D000002001F0C5FE672001F0C2FE002001F0B2
:1051E000BFFE872001F0BCFE002001F0B9FE99202F
:1051F00001F0B6FE002001F0B3FEBB2001F0B0FECE
:10520000002001F0ADFE992001F0AAFE002001F07F
:10521000A7FE772001F0A4FE002001F0A1FE4420AB
:1052200001F09EFE002001F09BFE562001F098FE4A
:10523000002001F095FE232001F092FE002001F0F5
:105240008FFE332001F08CFE002001F089FE452006
:1052500001F086FE002001F083FEE82001F08CFEC4
:10526000002001F07DFE002001F07AFE992001F07F
:1052700077FE002001F074FE872001F071FE00200F
:1052800001F06EFE882001F06BFE002001F068FE48
:10529000772001F065FE002001F062FE662001F03B
:1052A0005FFE002001F05CFE882001F059FE002026
:1052B00001F056FEAA2001F053FE002001F050FE3E
:1052C000BB2001F04DFE002001F04AFE992001F0C4
:1052D00047FE002001F044FE662001F041FE002060
:1052E00001F03EFE552001F03BFE002001F038FEAB
:1052F000552001F035FE002001F032FE442001F07F
:105300002FFE002001F02CFE442001F029FE002099
:1053100001F026FE552001F023FE002001F020FEC2
:10532000E92001F029FEAA2001F01AFE002001F078
:1053300017FE002001F014FE002001F011FE0020F5
:1053400001F01AFEAA2001F00BFECF2001F014FE9E
:10535000002001F005FE002001F002FE002001F017
:10536000FFFD002001F0FCFD002001F0F9FD002010
:1053700001F0F6FD002001F0F3FD002001F0F0FD4A
:10538000002001F0EDFD002001F0EAFD002001F019
:10539000E7FD002001F0E4FD002001F0E1FD002028
:1053A00001F0DEFD002001F0DBFD002001F0D8FD62
:1053B000002001F0D5FDF02001F0DEFD002001F01D
:1053C000CFFD502001F0CCFD002001F0C9FD0020F0
:1053D00001F0C6FD002001F0C3FDF32001F0CCFD7B
:1053E000002001F0BDFDF92001F0C6FD062001F00E
:1053F000B7FD102001F0B4FD292001F0B1FD00201F
:1054000001F0AEFD3A2001F0B7FD552001F0A8FDF6
:10541000112001F0B1FD642001F004FE292001F00B
:10542000ABFD352001F0A8FD002001F099FD5120D1
:1054300001F0A2FDFF2001F093FD532001F09CFD3F
:105440002C2001F08DFD552001F096FD822001F009
:1054500087FDBDE810402C2001F08EBD2DE9F05FE6
:105460004FF470435521184601F09CFD4FF20104A2
:10547000AA21204601F096FD651C5221284601F024
:1054800091FDA61C0821304601F08CFDE71C01218E
:10549000384601F087FD0D214FF4304001F082FDC8
:1054A0000D214BF2010001F07DFD0D214BF20200B8
:1054B00001F078FD4FF436483421404601F072FD8A
:1054C00034214BF2016001F06DFD34214BF202609A
:1054D00001F068FD4FF431490D21484601F062FDAD
:1054E0004BF2011A0D21504601F05CFD0D214BF2EB
:1054F000021001F057FD4FF4374B3421584601F0AC
:1055000051FD34214BF2017001F04CFD34214BF27E
:10551000027001F047FD00214FF4324001F042FDDE
:1055200000214BF2012001F03DFD00214BF2022051
:1055300001F038FD24214FF4384001F033FD2421DF
:105540004BF6010001F02EFD24214BF6020001F084
:1055500029FD01214FF43F4001F024FD0F214FF4BC
:10556000334001F01FFD0F214BF2013001F01AFD15
:105570000F214BF2023001F015FD34214FF4394078
:1055800001F010FD34214BF6011001F00BFD342128
:105590004BF6021001F006FD08214FF4354001F0F2
:1055A00001FD08214BF2015001F0FCFC08214BF2F7
:1055B000025001F0F7FC03214FF4424001F0F2FCED
:1055C00024214FF43A4001F0EDFC24214BF6012058
:1055D00001F0E8FC24214BF6022001F0E3FC00215D
:1055E0004FF43C4001F0DEFC78214BF6014001F025
:1055F000D9FC00214BF6024001F0D4FC00214FF40D
:105600003D4001F0CFFC78214BF6015001F0CAFC7F
:1056100000214BF6025001F0C5FC00214FF43E4042
:1056200001F0C0FC64214BF6016001F0BBFC0021DD
:105630004FF4514001F0B6FC33214DF2011001F05E
:10564000B1FC00214DF2021001F0ACFC34214DF20E
:10565000031001F0A7FC00214DF2041001F0A2FCA0
:105660003A214DF2051001F09DFC00214DF206108B
:1056700001F098FC4A214DF2071001F093FC002143
:105680004DF2081001F08EFC5C214DF2091001F082
:1056900089FC00214DF20A1001F084FC81214DF2B9
:1056A0000B1001F07FFC00214DF20C1001F07AFC90
:1056B000A6214DF20D1001F075FC00214DF20E10E7
:1056C00001F070FCE5214DF20F1001F06BFC01219F
:1056D0004DF2101001F066FC13214DF2111001F093
:1056E00061FC01214DF2121001F05CFC54214DF2DD
:1056F000131001F057FC01214DF2141001F052FC7F
:1057000082214DF2151001F04DFC01214DF21610D1
:1057100001F048FCCA214DF2171001F043FC0221B0
:105720004DF2181001F03EFC00214DF2191001F06D
:1057300039FC02214DF21A1001F034FC01214DF226
:105740001B1001F02FFC02214DF21C1001F02AFC6D
:1057500034214DF21D1001F025FC02214DF21E10E6
:1057600001F020FC67214DF21F1001F01BFC02210B
:105770004DF2201001F016FC84214DF2211001F0B1
:1057800011FC02214DF2221001F00CFCA4214DF27B
:10579000231001F007FC02214DF2241001F002FC5D
:1057A000B7214DF2251001F0FDFB02214DF226102C
:1057B00001F0F8FBCF214DF2271001F0F3FB02219D
:1057C0004DF2281001F0EEFBDE214DF2291001F020
:1057D000E9FB02214DF22A1001F0E4FBF2214DF227
:1057E0002B1001F0DFFB02214DF22C1001F0DAFB4F
:1057F000FE214DF22D1001F0D5FB03214DF22E10AC
:1058000001F0D0FB10214DF22F1001F0CBFB032152
:105810004DF2301001F0C6FB33214DF2311001F092
:10582000C1FB03214DF2321001F0BCFB6D214DF2A2
:10583000331001F0B7FB00214FF4524001F0B2FBEE
:1058400033214DF2012001F0ADFB00214DF2022089
:1058500001F0A8FB34214DF2032001F0A3FB00214D
:105860004DF2042001F09EFB3A214DF2052001F09B
:1058700099FB00214DF2062001F094FB4A214DF2E4
:10588000072001F08FFB00214DF2082001F08AFB78
:105890005C214DF2092001F085FB00214DF20A2028
:1058A00001F080FB81214DF20B2001F07BFB0021F8
:1058B0004DF20C2001F076FBA6214DF20D2001F0F7
:1058C00071FB00214DF20E2001F06CFBE5214DF241
:1058D0000F2001F067FB01214DF2102001F062FB67
:1058E00013214DF2112001F05DFB01214DF2122038
:1058F00001F058FB54214DF2132001F053FB01211C
:105900004DF2142001F04EFB82214DF2152001F0E2
:1059100049FB01214DF2162001F044FBCA214DF252
:10592000172001F03FFB02214DF2182001F03AFB55
:1059300000214DF2192001F035FB02214DF21A2011
:1059400001F030FB01214DF21B2001F02BFB022165
:105950004DF21C2001F026FB34214DF21D2001F0F8
:1059600021FB02214DF21E2001F01CFB67214DF2AC
:105970001F2001F017FB02214DF2202001F012FB45
:1059800084214DF2212001F00DFB02214DF2222055
:1059900001F008FBA4214DF2232001F003FB0221BA
:1059A0004DF2242001F0FEFAB7214DF2252001F03E
:1059B000F9FA02214DF2262001F0F4FACF214DF23E
:1059C000272001F0EFFA02214DF2282001F0EAFA37
:1059D000DE214DF2292001F0E5FA02214DF22A20C4
:1059E00001F0E0FAF2214DF22B2001F0DBFA022166
:1059F0004DF22C2001F0D6FAFE214DF22D2001F0BF
:105A0000D1FA03214DF22E2001F0CCFA10214DF2F3
:105A10002F2001F0C7FA03214DF2302001F0C2FA25
:105A200033214DF2312001F0BDFA03214DF2322035
:105A300001F0B8FA6D214DF2332001F0B3FA0021E4
:105A40004FF4534001F0AEFA33214DF2013001F032
:105A5000A9FA00214DF2023001F0A4FA34214DF2EE
:105A6000033001F09FFA00214DF2043001F09AFA60
:105A70003A214DF2053001F095FA00214DF2063041
:105A800001F090FA4A214DF2073001F08BFA002123
:105A90004DF2083001F086FA5C214DF2093001F038
:105AA00081FA00214DF20A3001F07CFA81214DF299
:105AB0000B3001F077FA00214DF20C3001F072FA50
:105AC000A6214DF20D3001F06DFA00214DF20E309D
:105AD00001F068FAE5214DF20F3001F063FA01217F
