:020000040800F2
:10000000F03E002011030008C74700089143000894
:10001000C547000815240008C55600080000000068
:10002000000000000000000000000000790200084D
:100030005B24000800000000BD020008554F0008C6
:100040002B0300082B0300082B0300082B030008D8
:100050002B0300082B0300082B0300082B030008C8
:100060002B0300082B0300082B0300082B030008B8
:100070002B0300082B03000819240008252400087E
:100080002B0300082B0300082B0300082B03000898
:100090002B0300082B0300082B0300082B03000888
:1000A0002B0300082B0300082B0300082B03000878
:1000B0002B0300082B030008D14F00082B03000876
:1000C0002B0300082B0300082B0300082B03000858
:1000D0002B030008B15600082B0300082B0300086F
:1000E0002B0300082B0300082B0300082B03000838
:1000F0002B0300082B030008E94F00082B0300081E
:100100002B0300082B0300082B0300082B03000817
:100110002B0300082B030008DD4F00082B03000809
:100120002B0300082B0300082B0300082B030008F7
:1001300000F002F800F090F80AA090E8000C824469
:100140008344AAF10107DA4501D100F085F8AFF246
:10015000090EBAE80F0013F0010F18BFFB1A43F0A5
:1001600001031847ECDC00000CDD0000103A24BF4E
:1001700078C878C1FAD8520724BF30C830C144BF0C
:1001800004680C607047000000230024002500264E
:10019000103A28BF78C1FBD8520728BF30C148BFEA
:1001A0000B6070476E2900F02D85702900F05F818B
:1001B00066290AF0E38465290AF0E08467290AF0D9
:1001C000DD8461290AF0DC8403681B0A28BF41F042
:1001D0008001692900F0DA84642900F0D784752948
:1001E00000F0D4846F2900F0FD85782900F02B8180
:1001F000E92900F09785E42900F09485F52900F0BD
:100200009185EF2900F0FA85F82900F02A8103682A
:10021000DB0928BF41F08001632901F05382732973
:1002200001F05882E32901F06382F32901F068822A
:10023000002070471FB501F06FFC04000020002172
:100240000AF048FB401C6060002000210AF02CFBF3
:10025000E0601FBD10B510BD01F030FC1146FFF786
:10026000E9FF08F0B5FB01F009FD03B4FFF7F2FF69
:1002700003BC01F00DFD0000224B19680868B0E8CE
:10028000F00F80F30988BFF36F8F4FF0000080F309
:1002900011884EF00D0E70470000000006480068FF
:1002A000006880F3088862B661B6BFF34F8FBFF372
:1002B0006F8F00DF00BF00BF08ED00E0EFF30980A3
:1002C000BFF36F8F0F4B1A6820E9F00F106008B56D
:1002D0004FF0500080F31188BFF34F8FBFF36F8F43
:1002E00009F0E8FB4FF0000080F31188BDE80840FA
:1002F00019680868B0E8F00F80F30988BFF36F8FC2
:10030000704700BF48000020EFF3058070470000F1
:100310000948804709480047FEE7FEE7FEE7FEE799
:10032000FEE7FEE7FEE7FEE7FEE7FEE704480549D5
:10033000054A064B70470000CD4F00083101000808
:10034000F0380020F03E0020F03A0020F03A002083
:100350001CB50C46064B7B4469460090204600F0D5
:100360006AFC04460020694600F078FC20461CBD6B
:10037000030900000FB41CB5084B06AA7B4469466C
:100380000090059800F057FC04460020694600F0F4
:1003900065FC20461CBC5DF814FB0000DD08000075
:1003A00070B5044685690068C10601D5302600E0B5
:1003B0002026C00707D070BDD4E901213046904700
:1003C000206A401C20626D1EF6D570BD70B50446D3
:1003D00085690078C00707D170BDD4E901212020CC
:1003E0009047206A401C20626D1EF6D570BD00004B
:1003F000F0B40D460188090502D5214C7C4402E089
:100400001F4C7C440E34002100F1240608E002F069
:100410000F071209E75D42EA03721B097754491C72
:1004200052EA0307F3D102780023120704D5702D96
:1004300006D009B1022311342246F0BC00F04CBBB7
:1004400001231034F8E770B504460D4621461068C4
:1004500000F010FB024629462046BDE8704000230C
:10046000C6E7D21D22F00703D3E90023C0E70368E3
:10047000126843F0200303600823C3610023B7E739
:100480008ED800002DE9F05F894604464FF0000A3F
:10049000DFF874B1FB44C0F820A02046E16888472B
:1004A000002874D0252806D0D4E901219047206A7D
:1004B000401C2062F1E700265F462046E16888473D
:1004C0002028054607DB312D05D2781910F8200CBD
:1004D00008B10643F1E7B00701D526F00406C4F8D9
:1004E0001CA00027C4F818A02A2D09D0284605F022
:1004F0001FF938B304EB8708303DC8F8185019E0ED
:1005000059F8041B204604EB87029161E168884793
:10051000012F054618D1E069002820DA26F02006D0
:100520001DE0D8F8180000EB800005EB40003038E3
:10053000C8F818002046E1688847054605F0F8F835
:100540000028EED1012F0AD02E2D08D12046E168D7
:1005500088477F1C0546022F46F02006C4DBA069B1
:10056000002803DA404246F00106A061F00701D0FE
:1005700026F010066C2D0BD0682D09D04C2D39D0EB
:100580006A2D35D0742D35D07A2D33D016E038E071
:10059000E1682F4620468847B842054609D16C2FAE
:1005A00026D04FF48060E168064320468847054620
:1005B00004E06C2F1AD04FF4807006430DB3A5F100
:1005C0004100192802D8203546F400664A462946DB
:1005D000204626604E46FFF7E5FD80B101280BD08E
:1005E000F61D26F0070000F1080956E74020E4E771
:1005F0008020D8E70020D6E706F104094DE7284619
:1006000052E7206ABDE8F09F1ED800000FB400B585
:100610008DB010A9099000910B904FF0FF300A9017
:1006200000200C90064878440690064878446A46B4
:1006300007900F9909A800F0FFFB0DB05DF814FBBF
:100640002F080000470800002DE9FF5F1D464FF00E
:10065000FF3B91464FF000085F46D5E90146A96986
:1006600001987F1C8847296A824688470028F6D16E
:10067000BAF1FF3F0CD0002E24F4C06419DD6006EF
:1006800014D5BAF12B0F09D0BAF12D0F0ED103E01A
:10069000584604B0BDE8F09F44F48064A96901980D
:1006A0007F1C8847761E8246002E02DDBAF1300F8D
:1006B00003D0B9F1000F26D032E0A969761E019867
:1006C0007F1C44F400748847002E824605DDBAF191
:1006D000780F06D0BAF1580F03D0B9F1000F10D03F
:1006E0001EE0B9F1000F02D0B9F1100F18D1A969BD
:1006F000761E01987F1C24F40074884782461020DF
:1007000002E0082000E00A20814609E0A96908FB10
:100710000908761E01987F1C44F4007488478246BD
:10072000002E05DD4946504600F072FB0028EDDA48
:10073000E96901988847A00502D46FF00100A8E795
:10074000E00725D1600613D5600502D5C8F1000089
:1007500000E0404629680A1D2A600968220501D583
:10076000087015E0220701D5088011E008600FE04D
:100770002868011D29600068210502D580F80080E5
:1007800006E0210702D5A0F8008001E0C0F8008053
:1007900038467EE740EA0103024630B59B0710D198
:1007A0004FF0013400E008C208C91D1B9D4315EA43
:1007B000C41FF8D013F0FF0102F8011B0DD01B0A73
:1007C000F8E711F8013B002B02F8013B05D011F8C6
:1007D000013B002B02F8013BF3D130BD10B5431CA7
:1007E00002E010F8011B71B18107FAD14FF001321C
:1007F00002C88C1A8C4314EAC211F9D0C01A0A0636
:1008000003D0C01E10BDC01A10BD0A0401D0801E46
:1008100010BD0902FCD0401E10BD40EA010370B5B6
:100820009B072ED14FF00136042A2AD308C810C9DD
:100830009D1B9D43121F15EAC61517D0D8B2E1B211
:10084000401A50EA056110D198B2A1B2401A50EA9C
:1008500005410AD123F07F4024F07F41401A50EA3D
:10086000052102D1180EA0EB146070BDA342DBD0AD
:1008700018BA21BA884201D9012070BD4FF0FF306B
:1008800070BD0AB9002070BD10F8013B11F8014B92
:1008900063B1A3420AD1521E08D010F8013B11F8EF
:1008A000014B1BB1A34201D1521EEDD1181B70BDEB
:1008B000032A40F2308010F0030C00F0158011F88C
:1008C000013BBCF1020F624498BF11F801CB00F864
:1008D000013B38BF11F8013BA2F1040298BF00F8B8
:1008E00001CB38BF00F8013B11F0030300F0D482C4
:1008F000083AC0F0088051F8043B083A51F804CB9C
:10090000A0E80810F5E7121D5CBF51F8043B40F861
:10091000043BAFF30080D20724BF11F8013B11F86C
:1009200001CB48BF11F8012B24BF00F8013B00F8B0
:1009300001CB48BF00F8012B704702F0FF0343EAE8
:10094000032242EA024200F002B84FF000020429FA
:10095000C0F0128010F0030C00F01B80CCF1040CEE
:10096000BCF1020F18BF00F8012BA8BF20F8022B22
:10097000A1EB0C0100F00DB85FEAC17C24BF00F8C8
:10098000012B00F8012B48BF00F8012B70474FF0F6
:10099000000200B5134694469646203922BFA0E8CF
:1009A0000C50A0E80C50B1F12001BFF4F7AF0907DB
:1009B00028BFA0E80C5048BF0CC05DF804EB8900CC
:1009C00028BF40F8042B08BF704748BF20F8022B0F
:1009D00011F0804F18BF00F8012B70474FF0013C19
:1009E00050F8042B51F8043B9A4221D1A2EB0C039E
:1009F000934313EACC1317D150F8042B51F8043B5E
:100A00009A4215D1A2EB0C03934313EACC130BD1FA
:100A100050F8042B51F8043B9A4209D1A2EB0C0385
:100A2000934313EACC13DBD04FF00000704700BFB4
:100A3000D01A01BAB1FA81F101F0180122FA01F0DD
:100A4000CB40C1F12001DBB2C0B2C01A2CFA01F3D5
:100A5000D11A914311EAC311E6D17047704770472C
:100A6000704709684A0501D540B27047C905FCD5F1
:100A700000B2704709684A0501D5C0B27047C90580
:100A8000FCD580B2704770B50C460546012A05D0EA
:100A90002878800600D5EA69002302E0012305E0FA
:100AA0005B1C934202D2E05C0028F9D1A869E618E9
:100AB000C01AA861286A184428622846FFF770FC0B
:100AC00004E0D5E9012114F8010B9047B442F8D3B2
:100AD0002846FFF77BFC70BD2DE9F0470D4699468F
:100AE0009246044600F124080168880604D5E069AE
:100AF00021F01001216000E00120A84201DD471B28
:100B000000E00027A1697A1902EB0900081AA06128
:100B10002078C00602D42046FFF742FC002608E0F9
:100B2000D4E901211AF806009047206A401C761C7F
:100B300020624E45F4DB2078C0060AD52046FFF738
:100B40002FFC06E0D4E9012130209047206A401CA8
:100B50002062381EA7F10107F4DC07E0D4E9012187
:100B600018F805009047206A401C2062281EA5F155
:100B70000105F3DC2046FFF729FC2078000602D5AA
:100B80000220BDE8F0870120FBE700002DE9F041DD
:100B90000646002410687529314616A510D0FFF7C7
:100BA00060FF002802DA404213A507E031688A0797
:100BB00001D512A502E0490704D511A5012401E0E1
:100BC000FFF758FF00210A2206F1240709E0B0FBD5
:100BD000F2FCB0FBF2F302FB1C00303078541846F4
:100BE000491C0028F3D123462A463046BDE8F0418F
:100BF000FFF772BF000000002D0000002B00000076
:100C00002000000011680268006A530501D50870D1
:100C10000AE0D30501D5088006E0130603D5C21704
:100C2000C1E9000200E008600120704701694A1C28
:100C300002610878704700B58FB0CDE9013100211D
:100C4000059105497944CDE9031011466846FFF73F
:100C500019FC0FB000BD0000E5FFFFFF0A6802F8B5
:100C6000010B0A60704700002DE9FF5F15468A46B8
:100C70000446DFF8AC80F8440027D8E900103E466F
:100C8000CDE9001010E03AF816106A4602A800F00C
:100C9000F5FE411C07D02178890603D5E269391891
:100CA00091420DD80744761C2078800602D5E06971
:100CB000B84205DDAE42E6DB3AF816000028E2D184
:100CC000A069C01BA0612046FFF76AFBD8E90010AD
:100CD000CDE90010002017E03AF818106A4602A883
:100CE00000F0CCFEB0F1FF3F81460BD000250DF1A6
:100CF000080B05E0D4E901211BF8050090476D1CA5
:100D00004D45F7D308F10100B0428046E4DB206A8C
:100D1000384420622046FFF759FBBDE8FF9F0000E2
:100D20004ED000002DE9F0418046D21D22F007028E
:100D30000025D2E90002F52915A614D0011E72F192
:100D4000000106DA0023D0EB030063EB020211A6D8
:100D500008E0D8F800108B0701D50FA602E049077C
:100D600001D50EA601251146002408F1240704E050
:100D700000F0C4F830323A55641C50EA0102F7D151
:100D80002B46324621464046BDE8F041FFF7A4BE5F
:100D9000000000002D0000002B00000020000000DB
:100DA00030B4002100F1240408E002F00705D20865
:100DB000303542EA4372DB086554491C52EA0305A8
:100DC000F3D10468002310A2250708D504F02004FD
:100DD0000C4304D0C46901230CA2641EC46130BC5E
:100DE000FFF77ABE10B5044621461068FFF742FEB1
:100DF00002462046BDE810400023D1E7D21D22F074
:100E00000701D1E90023CBE700000000300000001B
:100E10003A2800D2303820F02002412A01D3A2F132
:100E20003700884201D34FF0FF3070470268114409
:100E30001378016018467047D160054979445161C3
:100E400004497944116200211161114600F05CBC33
:100E5000EDFFFFFF41010000426842B1016811F857
:100E6000013B23B1521EC0E9001218467047012110
:100E7000C160881E704742685AB1C368016843B9AF
:100E800083688B4205D0491E521CC0E90012002025
:100E900070474FF0FF30704710B5203AC0F00B801C
:100EA000B1E81850203AA0E81850B1E81850A0E86E
:100EB0001850BFF4F5AF5FEA027C24BFB1E81850C8
:100EC000A0E8185044BF18C918C0BDE810405FEA38
:100ED000827C24BF51F8043B40F8043B08BF7047B4
:100EE000D20728BF31F8023B48BF11F8012B28BFB9
:100EF00020F8023B48BF00F8012B704730B5B0F135
:100F00000A024FEA900E71F100034EEA817EB0EBC7
:100F10000E0061EB91014FEA101E4EEA017E10EBCC
:100F20000E0041EB11114FEA102E4EEA016E10EB4C
:100F30000E0041EB11214FEA104E4EEA014E10EB2C
:100F40000E0041EB1141401841F100014FEAD00081
:100F500040EA41704FEAD10110EB80054FEA81046D
:100F600044EA907444EB01046D1944EB0404521BF1
:100F7000A3414FF0000348BF0A3200D530BD401CEA
:100F800041F1000130BD10B5044600F0BDFD006820
:100F9000005D00F0010010BD70472DE9FF4F0C46C9
:100FA0001E464FF0FF378BB0D2E90001DDF86080BC
:100FB0000A908A46C1F30A5505B93D460021084604
:100FC0004FF00000BAF1000F00F4400005DA00EB2A
:100FD00080004FF4400101EA50004FEA9059B9F106
:100FE000010F00DDB9460A9850EA4A000ED044F6D7
:100FF0001050A5F2FF3545432F14B8F1000F1ED055
:101000007542291E1EDDC9F100021CE0B8F1010F76
:101010004FF0000001D0302103E0F24305E02154FD
:10102000401CB042FBDB30460022002121540B99CA
:10103000C1F80880C1E900200FB0BDE8F08FBD1BEA
:101040006D1CDEE74A4600DA694206A800F0A8FDFA
:1010500006AB93E8070003AB83E8070050460A9904
:1010600000F01DFE8DE80700A0F500501F3800902D
:101070000398002D09DD42F21F014A46084403A9E6
:101080000390684601F07CF808E0A0F500504A465D
:101090001F3803A90390684601F086F88DE8070021
:1010A0000004000C03D04FF0FF30410800E0104670
:1010B000B8F1000F03D00022009215461EE0751E05
:1010C00005D4FFF71BFF303262556D1EF9D5B346CC
:1010D0000122084302D000227F1C04E0207830283F
:1010E00001D100227F1E002A099786D01DE0112D14
:1010F00007DAFFF703FF303262556D1C50EA010238
:10110000F5D1084302D00098C8B10EE00021681E56
:1011100005E0235C625C63542254401E491C8142FA
:10112000F7DBAB46A81B401E0990002004F80B001B
:101130000B98099AC0F80880C0E9002B7CE71126BB
:101140004FF0000859E72DE9F04F88460446D21DBC
:1011500022F0070191B0D1E90001CDE90A0104F0C4
:10116000C3FA02460B98C00F01D02D2007E020687B
:10117000810701D52B2002E0202101EAC000032ACB
:10118000099001D0072A05DB03464146204600F0BE
:10119000C7FC0BE12078800601D5E06900E006205D
:1011A000B8F1650F814606D0B8F1660F18D0B8F1D6
:1011B000670F70D131E00020B9F1110F009001DB11
:1011C000112301E009F101030AAA01A90CA8FFF704
:1011D000E4FEDDE90C70002609F10105834647E0D5
:1011E00001204B4600904FF000470AAA01A90CA825
:1011F000FFF7D3FEDDE90DB00C995D46002610B96E
:1012000009F101000D18B9EB050003D4C0F1FF3658
:1012100009F10105A5EB09002BE0B9F1010F01DA95
:101220004FF001090020B9F1110F0090484601DD8F
:10123000112300E003460AAA01A90CA8FFF7ADFE9E
:10124000DDE90C704D4600268346207800070AD45D
:10125000AB4500DA5D4601A8012D04DD411911F806
:10126000011C302907D04F4502DA17F1040F04DAC8
:10127000012082460FE06D1EEEE7002F02DCED1B21
:101280003E4403E0781CA84200DD7D1CB81B00F141
:10129000010A4FF000472078000703D4AA4501DB7C
:1012A0004FF0FF3A0021B7F1004F0DF143088DF8E0
:1012B000431024D002202B23002F01DA7F422D235C
:1012C0000A21021EA0F1010000DC5FB197FBF1FCD6
:1012D00097FBF1F201FB1C7C17460CF1300C08F86F
:1012E00001CDEEE7A8F1010003702188090501D5C1
:1012F000452100E06521A0F1010800F8011C0998D2
:101300000FA9A1EB0807FF1D00B10120411901EB56
:10131000EA70A1693844081A401EA0612078C0060E
:1013200002D42046FFF73CF8099828B1D4E90121FE
:101330009047206A401C20622078C00622D52046B3
:10134000FFF72EF81EE0002E04DBB34502DD01A8F6
:10135000805D00E03020D4E901219047206A401CE4
:101360002062761CAAF101005FEA000A0AD100F0AF
:10137000D3FBC0680168405CD4E901219047206A32
:10138000401C2062281EA5F10105DCDC07E0D4E941
:10139000012118F8010B9047206A401C2062381E7A
:1013A000A7F10107F3DC2046FFF710F8032011B086
:1013B00043E600002DE9F04F04460D46D21D22F011
:1013C000070089B0D0E9009248461746394604F034
:1013D0008BF90246F80F01D02D2307E02068810722
:1013E00001D52B2302E0202101EAC0038DF8203033
:1013F0000BB1012000E00020032A824601D0072A19
:1014000004DB2946204600F08BFB3DE12078800676
:1014100001D40D2500E0E569C7F30A560D2D49DA20
:1014200000214FEA175B08464FF00000002F00F440
:10143000400007DA00EB80004FF4400100EBD07071
:1014400001EA60008115012901DD4FF0FF31002222
:101450004FEA850CBCF1180F06D31346ACF1180007
:101460004FF08052C24003E04FF4801323FA0CF394
:101470000CF10C0CBCF1200F04D3ACF1200C09FAD8
:101480000CF001E007FA0CF000294FF0004801DDF4
:1014900018B90FE00ED140450CD319EB02095F419A
:1014A00021B9404502D19F4329EA0209BBEB175FEE
:1014B00000D0761C2088000502D57B48784402E0E5
:1014C00079487844193808AA302302F80A30037C96
:1014D0000AF10101002E0AF1020A53546A4602DCA5
:1014E0004FF0300101E04FF031014FF001088DF86D
:1014F000001002D0A6F2FF3603E059EA470100D0FF
:101500006A4E002D02DC2178090704D54FF002084D
:101510002E218DF80110C44600210BE0C7F30343D0
:101520003F01C35C491C6D1E02F80830052908F113
:10153000010801DA002DF1DC00210CE000EB197349
:10154000491C1B786D1E082902F808304FEA09195A
:1015500008F1010801DA002DF0DC2178890602D5B6
:1015600014E0A8F10108E04505DD02EB080111F8DF
:10157000011C3029F5D0B8F1000F07DD02EB08019E
:1015800011F8011C2E2901D1A8F10108002D05DD5B
:101590003E2102F808106D1E08F10108407C002E63
:1015A00002F8080008F1010804DA2D20764202F85A
:1015B000080002E02B2002F808000A214FF47A709C
:1015C000864208F101080BDB96FBF0F3303302F89A
:1015D000083096FBF0F308F1010800FB136601E008
:1015E000642E0CDB642096FBF0F3303302F80830F5
:1015F00096FBF0F308F1010800FB136601E00A2EE8
:1016000006DB96FBF1F0303002F8080008F1010823
:1016100096FBF1F001FB1060303002F80800A16980
:1016200008F1010808EB050202EB0A00081AA061A4
:101630002078C00602D42046FEF7B2FE216A08AE2A
:1016400001EB0A00206204E0D4E9012116F8010B45
:101650009047BAF1010AF7D22078C00602D5204699
:10166000FEF79EFE6E4609E016F8010B3E280FD0ED
:10167000D4E901219047206A401C2062B8F101089A
:10168000F2D22046FEF7A2FE09B00320BDE8F08F9B
:10169000206A2844206203E0D4E9012130209047E9
:1016A0006D1EEBD3F8E7000023C8000002FCFFFF2B
:1016B00010B5436913B1AFF3008001E0FFF7E3F920
:1016C000012010BD127800F124010A7000224A7036
:1016D0000122EDE711684FF0FF32E9E710B54369E9
:1016E00013B1AFF3008001E0FFF7BEFA012010BD97
:1016F000128800F1240182840022C2840122EDE7D5
:1017000011684FF0FF32E9E72DE9F34F4FF0000A7F
:101710000C4656468DB001200C9001F10C000B9048
:1017200062690B980121904705002DD0252D2CD002
:10173000216A8847C0B162690B9801219047216AEC
:1017400088470028F7D16269411E0B98904700E056
:10175000761CA1690D988847216A88470028F7D12F
:10176000E1690D988847DBE7A1690D988847A84291
:10177000074601D1761CD3E7E1690D9888477F1CA5
:1017800002D1BAF1000F6FD06BE162690B980027AC
:101790003D46394690472A2804D162690B980121B9
:1017A00090470125DFF8D08262690B9801219047AC
:1017B000A0F130010A290AD24745E5DC07EB870191
:1017C00000EB4107303FDFD445F01005ECE7E906B8
:1017D00001D46FF000476C280AD04C2814D0682838
:1017E00015D06A280DD074281CD07A281AD01DE094
:1017F00062690B98012190476C2802D045F00405DE
:1018000014E045F002050DE045F020050AE06269AC
:101810000B9801219047682802D045F0080505E0A3
:1018200045F4006562690B9801219047C4E90157AE
:1018300065283DD019DC58287AD00CDC452837D0F3
:1018400004DC252826D041289ED131E046282FD01F
:10185000472899D12CE05B2877D0612828D06328CD
:101860007CD0642823D15AE0F6E06F2848D008DC09
:1018700066281DD067281BD0692821D06E2816D174
:1018800027E0702845D0732868D0752847D078287D
:101890000DD14DE0A1690D988847252805463FF4F4
:1018A00069AFE1690D9888476D1C3FF46AAFD8E0D5
:1018B0000D9923466A466FF00100AFF30080C5E042
:1018C00045F0400023464FF000026060A80736D480
:1018D0003EE0E8077FF447AF2068011D2160006803
:1018E000290501D506701BE7290701D5068017E7F2
:1018F000A90703D5F117C0E9006111E706600FE7FA
:1019000045F0400023464FF008026060A80716D457
:101910001EE040F60E0125EA0100606016E045F089
:10192000400023464FF00A026060A80707D40FE08A
:1019300045F040006060A80708D5234610220D99A5
:101940006FF00100AFF3008080E007E01022234633
:101950000D996FF00100FEF777FE77E04FF0000978
:1019600063284F46C8464B46CB4602D05B2806D07C
:1019700038E0E80601D40120A060012732E0626966
:10198000D4F80CB00B98012190475E2807D14FF096
:10199000010949466269D4F80CB00B989047216957
:1019A00039B900210A4603AB43F82120491C082914
:1019B000FADBD8B3216949B308F1010862690B98D1
:1019C000012190475D28F4D1B9F1000F09D0002022
:1019D00003A951F82020D24341F82020401C0828B8
:1019E000F7DB03AB2069002820794FEA40701ED056
:1019F0005B462246CDF80080CDE901970D9900287D
:101A00006FF0010020DAAFF300801FE0C11703AAD6
:101A100000EBD1614B1121F01F0102EB8302411A4F
:101A200013680120884003431360C7E719E00D994C
:101A3000224600286FF00100009702DAAFF3008021
:101A400004E0AFF3008001E0AFF3008000280ADA81
:101A5000401C06D10C9820B14FF0FF300FB0BDE80C
:101A6000F08F5046FAE7E90701D10AF1010A06446E
:101A700000200C9054E60000CCCCCC0C70B516467F
:101A80000C46054600F040F8036893F80101012870
:101A900006D0FF2C0FD8185D68B101202C7070BDE6
:101AA000D3F807013246214603F2071303442846C0
:101AB000BDE8704018474FF0FF3070BD754600F02C
:101AC000E3F8AE4605006946534620F00700854618
:101AD00018B020B5FEF72AFCBDE820404FF0000604
:101AE0004FF000074FF000084FF0000B21F0070106
:101AF000AC46ACE8C009ACE8C009ACE8C009ACE849
:101B0000C0098D467047000010B500F005F8001DB3
:101B100010BD00BFC18D000000487047B0380020E4
:101B20002DE9F0411F46044603260168072A01F407
:101B3000006004DB08B116A505E016A503E008B1B6
:101B400015A500E015A521F010002060A069C01EB9
:101B5000A0610FB1401EA0612046FEF721FC4FB1ED
:101B6000D4E9012138469047206A401C2062C01CFD
:101B7000206206E0206AFAE7D4E9012115F8010B9A
:101B80009047761EF8D22046FEF720FCBDE8F08193
:101B90004E414E006E616E00494E4600696E660011
:101BA0002DE9F047814616468AB0334878440DC87F
:101BB0008DE80D0030487844801C03AC0DC884E8E3
:101BC0000D0041F69B300844372190FBF1F290FB69
:101BD000F1F5A5F1800501FB12041B3C02D564421E
:101BE000012000E00020DFF890A080460027FA44A2
:101BF000AAF1BE0A0DE0E00709D03246684607EBBD
:101C000047010AEB810100F0CFFA8DE8070064106C
:101C10007F1C002CEFD1184F7F44AC3F18E0E80741
:101C200014D007EB04100DF1180A90E80E008AE8B2
:101C30000E00C068F04201D198190890324606A9FA
:101C400003A800F0B1FA03AB83E807006D10641C31
:101C5000002DE4D132466946B8F1000F03A802D046
:101C600000F08EFA01E000F09FFAC9E90001C9F81E
:101C700008200AB0BDE8F087C4C100000446AFF3F5
:101C800000802046FEF7F1FA0048704790380020A7
:101C900001491820ABBEFEE72600020070475FEA4C
:101CA000400C08BF91F0000F4FEA8C234FEAC1228D
:101CB00043EA51514FEA1C5018BF00F5F0404FEA7B
:101CC000300018BF41F000415FEA6C5C00F02980F1
:101CD000BCF1FF3F08BF40F080407047130C06BFC7
:101CE00012044FF0100C4FF0000C130E04BF120240
:101CF0000CF1080C130F04BF12010CF1040C930F2C
:101D000004BF92000CF1020CD30F04BF52000CF17F
:101D1000010C11464FF00002A0F11F00A0EB0C00D7
:101D2000704711F0004F08BF704731F000413FF499
:101D3000D5AF0B0C06BF09044FF0100C4FF0000C90
:101D40000B0E04BF09020CF1080C0B0F04BF0901B4
:101D50000CF1040C8B0F04BF89000CF1020CCB0FAB
:101D600004BF49000CF1010CCCF12003A0EB0C00E6
:101D700022FA03F302FA0CF241EA030100F1010036
:101D8000704720F07F4C80EA030023F07F47ACEBE4
:101D9000070303F57C5300F0004003F1FF032DE936
:101DA00080494FEA154B09B44FEA144325EA0B4E1C
:101DB00024EA03480FF2042606EB132749083E786D
:101DC0005FEA320203FB0667C7F5000707FB06F66A
:101DD0004FEA54374FEAD64606F1020607FB066C77
:101DE000CCF1005C4FEA1C472CEA074C07FB06F4D9
:101DF0000CFB06F504EB15464FEA961634BF00209F
:101E00004FF000404FEAD13706FB07FC4FEA1C4C6D
:101E10000CFB0BF7D21B03FB0CF761EB07010CFB70
:101E20000EF7B0EB074072EB17420CFB08F734BF1C
:101E3000A2EB0742B2EB074261EB17414FEA0C44B9
:101E40004FEA910706FB07FC4FEA1C4C0CFB0BF713
:101E5000B0EBC74072EB573203FB0CF734BFA2EB79
:101E6000C742B2EBC74261EB57310CFB0EF7B0EB48
:101E7000C70072EB57720CFB08F734BFA2EBC70226
:101E8000B2EBC70261EB5771039F4FEA816141EAF0
:101E9000921104EBCC044FEAD1374FEA826206FB81
:101EA00007FC42EA90124FEA80604FEA1C4C0CFBA0
:101EB0000BF7D21B03FB0CF761EB07010CFB0EF7D2
:101EC000B0EB074072EB17420CFB08F734BFA2EBF4
:101ED0000742B2EB074261EB17414FEA8C554FEADC
:101EE000910704EB9C2406FB07FC4FEA1C4C0CFBFF
:101EF0000BF7B0EBC74072EB573203FB0CF734BF64
:101F0000A2EBC742B2EBC74261EB57310CFB0EF7B5
:101F1000B0EBC70072EB57720CFB08F734BFA2EBB3
:101F2000C702B2EBC70261EB577115EB4C254FEAC4
:101F3000816141EA92114FEA82624FEAD13742EA67
:101F4000901206FB07FC44F100044FEA80604FEA60
:101F50001C4C0CFB0BF7D21B03FB0CF761EB0701CE
:101F60000CFB0EF7B0EB074072EB17420CFB08F7C7
:101F700034BFA2EB0742B2EB074261EB174115EB0E
:101F80001C154FEA813141EA92414FEA823242EA1E
:101F900090424FEA80304FEA0C7644F1000448EA60
:101FA00003434EEA0B484FF0000EB2EB080C71EB06
:101FB000030724BF624639464EEB0E0E4FF0000B6E
:101FC0000018524149414BEB0B0BB2EB080C71EB83
:101FD00003077BF1000B24BF624639464EEB0E0E21
:101FE0004FF0000B0018524149414BEB0B0BB2EB89
:101FF000080C71EB03077BF1000B24BF62463946E6
:102000004EEB0E0E51EA020718BF46F0010616EB22
:102010000E7655F1000254F1000103D5BDE88901A7
:10202000BDE80088BDE88901BDE80048B619524105
:1020300041EB0101A3F10103704780807F7E7D7C2D
:102040007B7A7978777676757473727171706F6E4A
:102050006E6D6C6C6B6A6A696868676666656464F5
:10206000636362616160605F5F5E5E5D5D5C5C5B7F
:102070005B5A5A59595858575756565555555454EE
:10208000535352525251515050504F4F4F4E4E4D4C
:102090004D4D4C4C4C4B4B4B4A4A4A494949484898
:1020A00048474747474646464545454444444443D8
:1020B00043434342424242414141002B26D47700F0
:1020C00021D01CB54FEA370703B44FF010004FF092
:1020D00010014FF000000FBCBDE810400BF1010BE8
:1020E000BBF1010F08BF5FEA170722BF12F101021F
:1020F00011F101014FF0004143F1000300F00040F5
:1021000043EA00007047F9D35708DAE746EA064683
:1021100013F1400F4FEA16461FDD13F1200FDFBF0A
:1021200016430A46002120335B42C8D0C3F1200782
:1021300046EA064602FA07F74FEA164646EA070657
:10214000C3F1200722FA03F201FA07F721FA03F19B
:102150004FF0000342EA0702B1E746EA020646EA08
:1021600006464FEA164646EA0106BCBF46EA064660
:10217000360C4FF000034FF000024FF000019EE7D5
:102180002DE9C048934630B491E8380007C831EAD9
:10219000400C48BF34EA430C03D5FFF7F2FDFFF7CC
:1021A0008CFFF0BCBDE800882DE9C048934630B4F0
:1021B00091E8380007C810F0804F08BF13F0804F37
:1021C00003D100F005F8FFF778FFF0BCBDE8008808
:1021D00020F07F4780EA030023F07F4C07EB0C03DD
:1021E000A3F57C5300F00040A3F1FE0392F0000F32
:1021F00000F0B38095F0000F00F077802DE90149E1
:102200004FEA11404FEA144621EA004800FB06FC61
:1022100024EA064708FB06F607FB08F800FB07F769
:1022200018EB06484CEB164C4FEA124B18EB0748DC
:102230004FEA15464CEB174022EA0B4E0BFB06FC0F
:1022400025EA06470EFB06F607FB0EFE0BFB07F71B
:102250001EEB064E4CEB164C4FF000061EEB074EE5
:102260004CEB174B18EB0B0840F1000018EB0E0B72
:1022700058EB000840F100008F1A4FF000013CBFFE
:10228000C943661B14BFB5EB040C00213CBFC94316
:10229000F61B4FEA17444EEA8E0E27EA04454FEA32
:1022A0001C4704FB07622CEA074C05FB07F70CFBF5
:1022B00005F604FB0CFC16EB074642EB174216EB47
:1022C0000C4642EB1C421BEB060658EB0202414156
:1022D00046EA9E0601D5BDE80189B619524141EB97
:1022E0000101A3F10103BDE801894FEA14454FEA5A
:1022F000114724EA054621EA074C05FB07F406FBD3
:1023000007F70CFB06F105FB0CFC11EB074144EB56
:1023100017444FEA124711EB0C4144EB1C4422EAEC
:10232000074C05FB07F206FB07F70CFB06F605FB5F
:102330000CFC16EB074642EB174216EB0C4642EB41
:102340001C456A1854F1000148BF7047B619524144
:1023500041EB0101A3F10103704795F0000F37D065
:102360004FEA11424FEA144721EA024624EA074C99
:1023700002FB07F106FB07F70CFB06F402FB0CFC63
:1023800014EB074441EB17414FEA154714EB0C449B
:1023900041EB1C4125EA074C02FB07F506FB07F75A
:1023A0000CFB06F602FB0CFC16EB074645EB17454B
:1023B00016EB0C4645EB1C42121951F1000148BFC7
:1023C0007047B619524141EB0101A3F10103704777
:1023D0004FEA14454FEA114724EA054621EA074C23
:1023E00005FB07F106FB07F70CFB06F24FF00006B2
:1023F00005FB0CFC12EB074241EB174112EB0C42C0
:1024000051EB1C4148BF7047921841EB0101A3F109
:1024100001037047FEE70000014800F04DB90000DD
:102420004C020020014800F047B9000008020020DB
:1024300030B590F840500124AC40C56B6C60046826
:1024400063604368102B036803D099600068C26022
:1024500030BD9A600068C16030BD704772B6FEE75B
:1024600030B5B3F5804F05D06FF0704140F82210C1
:10247000002030BD8C690B688D6823434C688989C6
:10248000240144EA0524234343EA014150F8223061
:10249000014C23401943E9E70000F0CF10B50A686A
:1024A00050F8223023F0010340F822308C68082CC9
:1024B00023D000234A682243CC681C430B69224383
:1024C0001A434B690E4C1A43CB691A430B6A1A43E1
:1024D0004B6A1A438B6A1A43CB6A1A430B6B1A4333
:1024E0008B6913434A6B09681A4350F82130A343A0
:1024F000134340F82130002010BD4023DAE70000EC
:102500007FFF0F0030B5D1E9003443EA04138C6833
:102510008D89240244EA054423430C8A074D00EBCD
:10252000820005EB045423430C7D6D0105EB04642C
:10253000896923430B434360002030BD0000F0FF56
:1025400010B590F821100022022905D004218163E2
:1025500080F82020012010BD01680B6823F00E03D5
:102560000B6001680B6823F001030B6090F84030AA
:10257000C46B012101FA03F3636080F8211080F835
:102580002020104610BD00002DE9F05F90F82110CA
:102590000024022903D004218163012485E001681D
:1025A0000A6822F00E020A6001680A6822F001023D
:1025B0000A603F4E3E4FB215DFF8F4C0DFF8F090EE
:1025C000DFF8ECA0DFF8E8B0DFF8E4E00168783F7E
:1025D00013011502ACF1640CA9F15009AAF13C0AEF
:1025E000ABF1280BAEF1140E4FF48018B14227D98D
:1025F000B9420ED0614512D049451DD0514518D081
:10260000594518D0714501D1424615E0294EB142D5
:1026100001D1012210E0274E1436B14201D110221F
:102620000AE0244E2836B14206D0224A3C3291427A
:1026300001D11A4600E02A461E49091F0A602BE014
:10264000B94213D0614517D0494522D051451DD01C
:1026500059451DD0714501D142461AE0B14202D11F
:102660004FF0807215E0134EB14201D1012210E00B
:10267000104E1436B14201D110220AE00D4E283618
:10268000B14206D00B4A3C32914201D11A4600E0D9
:102690002A46074980394A60012180F8211000212B
:1026A00080F82010416B01B188472046BDE8F09FBB
:1026B00080000240080402402DE9F05FC16B0A6807
:1026C00001680B68046C4FF0040808FA04F8844DA4
:1026D000844E854FDFF814C2DFF81492DFF814A29D
:1026E000DFF814B2DFF814E218EA020F65D05FEAEF
:1026F000437862D50A68920603D40A6822F004027D
:102700000A60DFF8F0814FF48062016808F1140874
:1027100013011402414524D9A9420DD0B1420FD072
:10272000B9421AD0614515D0494515D0514501D15E
:10273000120312E0594501D104220EE0714501D186
:1027400040220AE06D4D1435A94206D06B4A28326A
:10275000914201D11A4600E022466749091F0A60EA
:1027600029E0A94213D0B14215D0B94220D0614529
:102770001BD049451BD0514502D14FF4800217E0D0
:10278000414502D14FF0806212E0594501D1042247
:102790000EE0714501D140220AE0584D1435A9429E
:1027A00006D0564A2832914201D11A4600E022460C
:1027B0004B4908394A60C16A71E04FF0020808FAD3
:1027C00004F818EA020F70D05FEA83786DD50A68C2
:1027D000920606D40A6822F00A020A60012180F8F3
:1027E0002110DFF810814FF40072016808F114081D
:1027F00013011402414524D9A9420DD0B1420FD092
:10280000B9421AD0614515D0494515D0514501D17D
:10281000120312E0594501D102220EE0714501D1A7
:1028200020220AE0354D1435A94206D0334A283219
:10283000914201D11A4600E022462F49091F0A6041
:1028400029E0A94213D0B14215D0B94220D0614548
:102850001BD049451BD0514502D14FF4001217E05F
:10286000414502D14FF0007212E0594501D10222D8
:102870000EE0714501D120220AE0204D1435A94215
:1028800006D01E4A2832914201D11A4600E0224663
:10289000134908394A60002180F82010816A002914
:1028A0001CD0BDE8F05F0847FFE70825A5401542AA
:1028B00014D01A0712D50A6822F00E020A6090F8A6
:1028C0004020C36B012101FA02F25A60816380F853
:1028D0002110002180F82010016BE0E7BDE8F09F97
:1028E000080002401C000240300002404400024048
:1028F000580002406C000240080402401C040240E0
:1029000030B560B11A4B026814219A4209D2194BB2
:102910001344B3FBF1F18900016417490AE0012077
:1029200030BD134B5B421344B3FBF1F189000164EA
:102930000F490839C163022180F82110136843F65A
:10294000F0718B43F0E901142143D0E902452C4397
:102950002143046921434469214384692143194384
:10296000116000214163012242770177084630BDA2
:1029700008040240F8FFFDBF0000024070B50446A5
:1029800090F82000002501280CD0012084F82000B8
:1029900094F821600020012E06D084F82000022542
:1029A000284670BD022070BD022684F82160A06315
:1029B0002068066826F0010606602046FFF738FD0D
:1029C000E06A00282068016802D041F00E0106E0AC
:1029D00021F0040101602068016841F00A010160F2
:1029E0002068016841F001010160D9E730B585B088
:1029F0000020009001900290039017480168002980
:102A000027D1012101601548416941F4807141617C
:102A10004069022400F48070049041F20100CDE985
:102A200000040325694603950D4800F01FF84FF692
:102A30008070CDE90004694603950A4800F016F855
:102A40004CF23370CDE9000469460395064800F066
:102A50000DF805B030BD000030000020001002402D
:102A60000020014000180140001401402DE9F84FFA
:102A7000DFF8C8910024A9F1040B23460F2709F1C0
:102A8000040AABF1040ED1E00125A54006EA0502D7
:102A9000AA4276D1DFF8A8C14E68A6EB0C086645BD
:102AA0002BD00DDC032E34D005DC36B3012E19D02B
:102AB000022E2FD11BE0112E16D0122E2AD119E092
:102AC000B8F5881F19D006DCB8F5803F15D0B8F5E9
:102AD000801F1FD111E0B8F5001F0ED0B8F5041FFC
:102AE00018D10AE0CB6815E0CB681B1D12E0CB685B
:102AF00008330FE0CB680C330CE08B682BB1012B53
:102B00004FF0080303D0456104E0042302E00561AF
:102B100000E00023FF2A01D8064601E000F1040688
:102B20004FEA840501D9A5F12005D6F8008007FAFF
:102B300005FC28EA0C0803FA05F548EA0508C6F87A
:102B400000804D68ED0070D53E4DAE6946F001063F
:102B5000AE61AD6924F0030605F0010500953A4D1C
:102B600006EB050CDCF80850A607360F07FA06F846
:102B700025EA0805DFF8D480404503D14FF000086E
:102B800025E052E0DFF8C880404502D14FF001084F
:102B90001DE0DFF8C080404502D14FF0020816E08A
:102BA000DFF8B480404502D14FF003080FE0DFF8B2
:102BB000AC80404502D14FF0040808E0DFF8A08067
:102BC000404502D14FF0050801E04FF0060808FA31
:102BD00006F848EA0508CCF808804D68D9F8006086
:102BE000ED024D4601D5164300E096432E604D6838
:102BF000DAF80060AD02554601D5164300E0964371
:102C00002E604D68DBF80060AD035D4601D51643CC
:102C100000E096432E604D68DEF80060ED037546D7
:102C200001D5164300E096432E60641C0A681646E0
:102C3000E2407FF429AFBDE8F88F000008040140AE
:102C40000000111000100240000001400008014087
:102C5000000C014000100140001401400018014028
:102C6000001C01408068084000D001207047C26805
:102C700021EA02030A4043EA0241016170470AB1B6
:102C8000016170470904FBE7014880687047000054
:102C90003800002002488168027811448160704742
:102CA00038000020074810B5016841F010010160AC
:102CB000032000F0A7F80F2000F006F800F050F80D
:102CC000002010BD0020024030B505461F4887B0E7
:102CD000C16941F01001C161C06906A900F010008E
:102CE000009001A800F036F90498B0B100F052F954
:102CF00040001749174AB0FBF1F11748491E02601E
:102D0000416040F2E7320021C0E903218160816126
:102D100000F0B4FB040003D015E000F03BF9E8E755
:102D20000D4800F0F7FB04000DD1362000F03CF810
:102D3000102D07D200222946362000F043F807481C
:102D4000056000E0012407B0204630BD00100240BD
:102D500040420F0000100040900200203C00002084
:102D60000F4808B5816941F001018161816901F075
:102D700001010091C16941F08051C161C069002227
:102D800000F0805000900F21901E00F01BF80548C5
:102D9000416821F0E06141F00071416008BD000030
:102DA0000010024000000140002809DB00F01F0273
:102DB000012191404009800000F1E020C0F800119D
:102DC00070470000F0B40E4B1B680C46C3F302239F
:102DD000C3F10705042D00D90425191D072901D2C7
:102DE000002300E0DB1E012606FA05F1491E214002
:102DF00099409E40761E16403143F0BC02F088BCDC
:102E00000CED00E0064900F0070208684FF6FF03EA
:102E1000184040EA0220034A10430860704700004F
:102E20000CED00E00000FA052DE9F0470F46050023
:102E300061D0434E306800F00700B84209D23068D4
:102E400020F0070038433060306800F00700B842D7
:102E500051D128683B4C810712D5400703D56068E3
:102E600040F4E06060602878000703D5606840F4B3
:102E7000605060606068A96820F0F00008436060FE
:102E80002878C00728D06868012810D02168022857
:102E900010D0890700292EDA616821F0030101436F
:102EA0006160FFF7F1FE804641F288390DE021684C
:102EB0008903EFE78901EDE7FFF7E6FEA0EB0801E4
:102EC000494502D90320BDE8F0876068696800F0D1
:102ED0000C00B0EB810FEFD1306800F00700B84272
:102EE0000BD9306820F0070038433060306800F0BC
:102EF0000700B84201D00120E5E72878400705D552
:102F00006068E96820F4E0600843606028780007A2
:102F100006D56068296920F4605040EAC10060600D
:102F200000F058F86168084AC1F30311515CC840C9
:102F30000649086006480068FFF7C6FE0020C2E7A1
:102F40000020024000100240F6AC000844000020BF
:102F50003C0000200F2202600C4A536803F0030378
:102F60004360536803F0F0038360536803F4E06345
:102F7000C36052684FF4E06303EAD202026104487E
:102F8000006800F007000860704700000010024071
:102F9000002002400448054900684968044AC1F31A
:102FA0000221515CC84070474400002000100240DC
:102FB00006AD00080448054900684968044AC1F3A1
:102FC000C221515CC84070474400002000100240FC
:102FD00006AD00080E4A51680E4801F00C03042BA0
:102FE00011D0082B0FD10C48C1F38343C903C05C37
:102FF0000AD55168084AC1F34041921E515C054A06
:103000005043B0FBF1F0704704494843704700005B
:103010000010024000127A00E6AC000800093D00F2
:103020002DE9F84F040070D02078C04DC00749D07A
:103030006868C0F38100012807D06868C0F3810088
:10304000022809D16868C00306D52868800339D5ED
:1030500060680028E7D035E06068B0F5803F0BD0AD
:1030600010B1B0F5A02F11D0286820F4803028606E
:10307000286820F4802002E0286840F4803028602E
:10308000606890B1FFF700FE06460AE0286840F449
:1030900080202860F0E700BFFFF7F6FD801B642862
:1030A00073D828688003F7D50CE0FFF7EDFD0646DE
:1030B00005E000BFFFF7E8FD801B6428F0D8286812
:1030C0008003F7D420789A4E80074FF001094FF023
:1030D000000839D5686810F00C0F07D06868C0F395
:1030E0008100022809D16868C00306D428688007D7
:1030F00014D52069012808D110E02069B0B1C6F8C4
:103100000090FFF7C1FD074605E00AE1FFF7BCFDAF
:10311000C01B0228C4D828688007F7D528686169D1
:1031200020F0F80040EAC10028600DE0C6F80080F9
:10313000FFF7AAFD074604E0FFF7A6FDC01B022823
:1031400023D828688007F7D4207800072CD5794841
:10315000A169D9B1C0F80090FFF796FD074604E0D9
:10316000FFF792FDC01B02280FD8686A8007F7D5C9
:1031700071484FF4FA510068B0FBF1F0009000BFC5
:103180000098411E0091FAD20EE080E0C0F8008065
:10319000FFF77AFD074604E0FFF776FDC01B022823
:1031A00075D8686A8007F7D42078400760D5E86949
:1031B0000027C00008D4E86940F08050E861E86961
:1031C000012700F0805000905C480168C90513D4C5
:1031D0000168834641F480710160FFF755FD824626
:1031E00006E000BFFFF750FDA0EB0A0064284ED8B0
:1031F000DBF80000C005F5D5E06801280AD008B169
:10320000052813D0286A20F001002862286A20F0DF
:10321000040002E0286A40F001002862E06841F200
:10322000883B98B1FFF730FD82460BE0286A40F0FA
:1032300004002862EEE700BFFFF726FDA0EB0A01BD
:1032400059455AD8286A8007F6D50CE0FFF71CFDCF
:10325000824605E0FFF718FDA0EB0A0159454CD85E
:10326000286A8007F6D41FB1E86920F08050E86131
:10327000E06988B36968C1F38101022944D002285A
:10328000C6F8608004D0FFF7FFFC044638E034E065
:10329000FFF7FAFC074604E0FFF7F6FCC01B022824
:1032A0002BD828688001F7D4206AB0F5803F05D17B
:1032B0006868A16820F4003008436860D4E9080118
:1032C0000843696821F4741108436860C6F8609087
:1032D000FFF7DAFC044606E025E000BFFFF7D4FC68
:1032E000001B022809D828688001F7D51BE000BF21
:1032F000FFF7CAFC001B022802D90320BDE8F88FA3
:1033000028688001F4D40EE00128F7D06868226AAA
:1033100000F48031914204D1616A00F47010884257
:1033200001D00120EAE70020E8E700000010024099
:1033300000004242800442424400002000700040ED
:1033400070B515460E46040007D0A069B0F5807F21
:1033500003D094F8410010B107E0012070BD0020B7
:1033600084F84000204600F01DF804F108012068B0
:10337000FFF794F83146A2682068FFF7C3F8D4E954
:1033800001022946236BFFF76BF8A168206850F80B
:10339000212042F0010240F82120012084F8410060
:1033A000002070BDFFF722BB7047704710B590F842
:1033B0003C20012A22D0012280F83C20CA688C6877
:1033C00022F4407222434C6822F4806222430C684B
:1033D00022F4006222430C6922F4805222434C6999
:1033E00022F400522243C969002322F480420A4396
:1033F00001684A6480F83C30002010BD022010BDF6
:1034000070B590F83C20012A2CD0012480F83C4073
:10341000022280F83D2003685A689D6822F07006F9
:103420000A6832435A60104B02689A420ED00F4B22
:103430009A420BD0B2F1804F08D00D4B9A4205D082
:103440000C4B9A4202D00C4B9A4204D1496825F0A9
:1034500080031943916080F83D40002180F83C10C2
:10346000084670BD022070BD002C014000340140B0
:103470000004004000080040000C004010B50400AB
:1034800003D094F83D0010B107E0012010BD0020EA
:1034900084F83C00204600F01FF8022084F83D002C
:1034A000211D206801F0A6FD012084F8460084F863
:1034B0003E0084F83F0084F8400084F8410084F81E
:1034C000420084F8430084F8440084F8450084F8FE
:1034D0003D00002010BD000008B500680B4988427F
:1034E00012D10B48816941F4005181618069002249
:1034F00000F40050009005212E20FFF763FCBDE88A
:1035000008402E20FFF750BC08BD000000340140E9
:103510000010024090F83D10012901D001207047B1
:10352000022180F83D100168CA6842F00102CA60B9
:1035300000680E4988420ED00D4988420BD0B0F188
:10354000804F08D00B49884205D00B49884202D0F1
:103550000A49884204D1816801F00701062903D095
:10356000016841F00101016000207047002C01401A
:10357000003401400004004000080040000C0040FE
:1035800070B5044690F83C000025012817D00126AC
:1035900084F83C60022084F83D002068826822F0B4
:1035A000770222F47F4282600868502838D00DDC10
:1035B00020284FD005DC90B3102811D14AE002201A
:1035C00070BD302846D040280AD13BE060282FD07B
:1035D00070280DD0B0F5805F03D0B0F5005F12D039
:1035E000012584F83D60002084F83C00284670BD29
:1035F000CB68D1E90121206801F057FD206881687E
:1036000041F0770109E0CB68D1E90121206801F0A0
:103610004CFD2068816841F480418160E1E719E058
:10362000CA684968206801F015FE5021206806E04C
:10363000CA684968206801F055FE6021206801F0E1
:103640003EFDCEE7CA684968206801F003FE4021CC
:103650002068F4E7226801461046F0E770B500687C
:103660002D49884257D141152C48FFF7FBFA2C4DC4
:103670002C4C002678B12868016A21F400510162BF
:103680002868016A41F40051016228684662207886
:1036900040F010003EE00C21214800F053FC296866
:1036A00080B20A6A22F400520A6229680A6A0A622F
:1036B0002178CA062BD50A064FF4F9731ED5A0F25D
:1036C0002D129A4202D86068400808E0A0F27952B0
:1036D000B2F5C77F05D86068400840F000406060E0
:1036E00015E040F2E732A0F2D17090420FD260783C
:1036F000401C607001F0F000207008E0A0F58050E0
:103700006938984203D841F08000207066702078B4
:1037100020F01000207070BD00080040000C014037
:1037200048380020D00000202DE9F041054690F8EF
:103730003C0000260C46012810D0012085F83C00F2
:1037400072B1042A1CD0082A2CD00C2A50D0012691
:10375000002085F83C003046BDE8F0810220FBE700
:10376000D4E90012E368286801F086FD28688169C1
:1037700021F00C01816128688169A26811430FE082
:10378000D4E90012E368286801F0BEFD2868816969
:1037900021F44061816128688169A26841EA0221BF
:1037A0008161D5E72868D4E9002C277B036A016A88
:1037B00021F480710162C16923F4007321F00301D7
:1037C00041EA0C0121F0F00C39074FF400774CEA84
:1037D000116107EA02221A43C16102622868C169C5
:1037E00021F00C01C1612868C169A26811432BE076
:1037F0002868D4E90021E768036AD0F820C02CF4D7
:10380000805CC0F820C0D0F81CC023F400532CF416
:10381000407C4CEA012121F4704C4FF6FF7101EA23
:1038200007314FF4005741EA0C0107EA02321A430C
:10383000C16102622868C16921F44061C1612868E0
:10384000C169A26841EA0221C16181E710B50400A3
:1038500003D094F83D0010B107E0012010BD002016
:1038600084F83C00204600F01FF8022084F83D0058
:10387000211D206801F0BEFB012084F8460084F879
:103880003E0084F83F0084F8400084F8410084F84A
:10389000420084F8430084F8440084F8450084F82A
:1038A0003D00002010BD000000B50068184985B03B
:1038B00088422BD11748816941F0080181618169F3
:1038C00001F008010491C16941F00401C161C069BE
:1038D00000F0040004901048416821F4805141F048
:1038E000E0614160401500900020019001200290AD
:1038F0000320039069460948FFF7B8F80322012125
:103900001E20FFF75FFA1E20FFF74EFA05B000BD3C
:10391000000800400010024000000140000C01407F
:1039200030B50446002551B104290DD0082910D026
:1039300094F8412094F84500012A11D10EE094F842
:103940003E2094F84200F7E794F83F2094F84300B3
:10395000F2E794F8402094F84400EDE7012801D004
:10396000012030BD022059B1042912D0082919D0F4
:1039700084F8410084F845000C293ED001253AE046
:1039800084F83E0084F842002068C26842F00202D7
:1039900010E084F83F0084F843002068C26842F0D9
:1039A000040207E084F8400084F844002068C268FC
:1039B00042F00802C2600122206801F069FB11494F
:1039C000206888420ED0104988420BD0B0F1804F59
:1039D00008D00E49884205D00D49884202D00D49D1
:1039E000884204D1816801F00701062903D00168EB
:1039F00041F001010160284630BD2068C26842F0F4
:103A00001002D7E7002C01400034014000040040C0
:103A100000080040000C00402DE9F0410446006819
:103A2000C66805694FF00007A90713D5B10711D57E
:103A3000F91E0161012020772068806980072046F7
:103A400002D0FFF70BFE04E000F0A4F8204600F0DF
:103A500037F92777680716D5700714D521686FF0F6
:103A600004000861022020772068806910F4407FFC
:103A7000204602D0FFF7F2FD04E000F08BF820466C
:103A800000F01EF92777280715D5300713D52168D0
:103A90006FF008000861042020772068C069800763
:103AA000204602D0FFF7DAFD04E000F073F820466C
:103AB00000F006F92777E80616D5F00614D5216838
:103AC0006FF010000861082020772068C06910F4AA
:103AD000407F204602D0FFF7C1FD04E000F05AF815
:103AE000204600F0EDF82777E80708D0F00706D069
:103AF00021686FF001000861204600F0F9F92806FE
:103B000008D5300606D521686FF080000861204690
:103B1000FFF74AFC680608D5700606D521686FF0E5
:103B200040000861204600F022FAA8060AD5B00637
:103B300008D521686FF0200008612046BDE8F041FB
:103B4000FFF733BCBDE8F08100B585B000210091DE
:103B500001910291039100680B49884212D10B48F0
:103B6000816941F0100181618069694600F01000AF
:103B700004904FF4E07000900220019003900448FC
:103B8000FEF774FF05B000BD003401400010024094
:103B900000100140704770B5044690F83C000026C4
:103BA0000D4601280FD0012084F83C006AB1042A98
:103BB0001DD0082A2FD00C2A3FD00126002084F8DF
:103BC0003C00304670BD022070BD206801F080FAD4
:103BD0002068816941F0080181612068816921F0D4
:103BE00004018161206881692A69114311E020681C
:103BF00001F09EFA2068816941F4006181612068CA
:103C0000816921F480618161206881692A6941EAC2
:103C100002218161D2E7206801F0C0FA2068C16901
:103C200041F00801C1612068C16921F00401C1614E
:103C30002068C1692A69114311E0206801F0E2FAA5
:103C40002068C16941F40061C1612068C16921F443
:103C50008061C1612068C1692A6941EA0221C161AC
:103C6000ACE710B5040003D094F83D0010B107E0B4
:103C7000012010BD002084F83C00204600F01EF812
:103C8000022084F83D00211D206801F0B3F90120D5
:103C900084F8460084F83E0084F83F0084F8400031
:103CA00084F8410084F8420084F8430084F844001A
:103CB00084F8450084F83D00002010BD70470000E6
:103CC00070B5224C20466168007819B1012801D1F5
:103CD000491E6160A16821B16278012A01D1491EA3
:103CE000A160E16821B1A278012A01D1491EE160F9
:103CF00001266168002559B9012809D1257066702F
:103D00000021134800F096F80421114800F022F831
:103D1000A06860B96078012809D16570A670042197
:103D20000B4800F087F80821094800F013F8E06814
:103D3000002809D1A078012806D1A570BDE87040FF
:103D40000821034800F076B870BD0000D8000020BC
:103D50007801002030B500250446022249B104292B
:103D600012D0082946D094F8410001284DD00120F6
:103D700030BD94F83E000128F9D184F83E20206837
:103D8000C26842F0020209E094F83F000128EED137
:103D900084F83F202068C26842F00402C260012219
:103DA000206801F075F91E4920681E4A884201D03A
:103DB000904203D1436C43F400434364206888423B
:103DC0000DD090420BD0B0F1804F08D016498842F8
:103DD00005D01649884202D01549884204D181682D
:103DE00001F00701062903D0016841F001010160DB
:103DF000284630BD94F840000128B8D184F840200E
:103E00002068C26842F00802C8E784F841200C2903
:103E100001D00125ECE72068C26842F01002BDE73E
:103E2000002C014000340140000400400008004024
:103E3000000C004070B50D0004464FF0000607D09E
:103E4000042D0AD0082D0DD00C2D10D001263FE0F6
:103E50002068C16821F002010DE02068C16821F0EE
:103E6000040108E02068C16821F0080103E020682F
:103E7000C16821F01001C16000222946206801F0CC
:103E800007F9194B41F2111120688A10984202D0AB
:103E9000164B984209D1036A0B4206D1036A1342BA
:103EA00003D1436C23F4004343642068036A0B424C
:103EB00006D1016A114203D1016821F001010160BC
:103EC00001203DB1042D08D0082D09D084F841000F
:103ED000304670BD84F83E00FAE784F83F00F7E70B
:103EE00084F84000F4E70000002C01400034014059
:103EF00010B5044600681049884201D1FEF7CAFE99
:103F00000E492068884215D10D4801780A0611D55E
:103F100021F0100101700A0702D141F04001017047
:103F2000C9B201F00F020E2A01D2491C01E001F0D2
:103F30007001017010BD000000100040000800403A
:103F4000D00000200246002041B1042909D00829F0
:103F50000AD00C2901D11068006C70471068406BC2
:103F600070471068806B70471068C06B704770476F
:103F700070477047F8B5016804460868CA684B691D
:103F800010F00F0F4FF000055AD003F0010602F4B5
:103F90009077374365D0C10705D0D10503D5616C53
:103FA00041F001016164410705D5D90703D0616C77
:103FB00041F002016164810705D5D90703D0616C26
:103FC00041F004016164010707D502F0200131438B
:103FD00003D0616C41F008016164616C00293BD041
:103FE000800604D5900602D5204601F05CFA2068D0
:103FF0004069616CC0F3801001F008010143204664
:104000002BD001F01BFA20684069400621D52068BA
:10401000143050E8001F21F0400140E80012002A4F
:10402000F5D1E06BA8B16D494163E06BFEF7ACFAE6
:10403000002811D0E06B416B01B0BDE8F0400847AB
:1040400083060ED593060CD52046BDE8F84001F056
:104050002ABA2046FFF78DFFF8BDFFF78AFF656497
:10406000F8BD266B2023012E7CD1C6067AD5D60654
:1040700078D508684868009048694FF00206400605
:1040800040D5E16B086840680004000CE8D0A28DC0
:104090008242E5D9E085886920282DD020680C303F
:1040A00050E8001F21F4807140E80012002AF5D189
:1040B0002168143151E8000F20F0010041E80002AE
:1040C000002AF5D12068143050E8001F21F040018B
:1040D00040E80012002AF5D184F8423025632068B8
:1040E0000C3050E8001F21F0100140E80012002AB7
:1040F000F5D1E06BFEF724FA6663A08DE18D401ADE
:1041000081B22AE0A08DE18D401A81B2E08D0028B5
:10411000A6D00029A4D022680C3252E8000F20F467
:10412000907042E80007002FF5D12068143050E865
:10413000002F22F0010240E80027002FF5D184F87B
:104140004230256320680C3050E8002F22F0100226
:1041500040E80023002BF5D166632046FFF708FFF7
:10416000F8BDFFE705062BD5150629D594F84100C3
:104170002128F5D1A068B0F5805F01D12069B0B1E8
:10418000206A411C2162216800784860E08C401E52
:104190000004000CE084E3D12068C16821F08001B4
:1041A000C1602068C16841F04001C160D8E7206A61
:1041B0000088C0F308004860206A801C2062E5E7A0
:1041C0004006CDD55006CBD5CA68204622F0400225
:1041D000CA6084F8413000F0CDF8C1E73F530008D1
:1041E00070B5040004D094F84100002510B106E039
:1041F000012070BD84F84050204600F023F82420B0
:1042000084F841002068C16821F40051C160204653
:1042100001F0AAF92068016921F490410161206848
:10422000416921F02A0141612068C16841F40051CF
:10423000C1606564202084F8410084F84200656311
:10424000002070BDF0B585B00024064600940194AE
:104250000294039400682D49884255D12C48816905
:1042600041F480418161816901F480410491816957
:1042700041F0040181618069264D00F00400049042
:104280004FF40070009002200190032003906946D3
:104290002846FEF7EBFB2815CDE9000469462846C1
:1042A0000294FEF7E3FB1D4D1B488027C5E900047F
:1042B000C5E9024720202C61C5E905402846EC618C
:1042C000FEF71EFB08B1FEF7C9F8F5636E62134DE9
:1042D00011484435143801C5102091C50F4845F8E0
:1042E000104944306C61AC61EC61FEF709FB08B128
:1042F000FEF7B4F8B5630022052125206E62FEF7B3
:1043000061FD2520FEF750FD05B0F0BD00380140ED
:10431000001002400008014058000240080200203E
:1043200090F84230202B01D00220704721B11AB101
:104330000023036301F074B9012070477047704790
:1043400090F84130202B01D00220704779B172B132
:1043500001628284C28400214164212180F84110DD
:104360000068C16841F08001C160002070470120F1
:104370007047000000680449884203D10348006880
:1043800004F018BC704700000038014020000020F5
:10439000FEE700000D4808B5416941F001014161A7
:1043A0004069002200F00100009005210E20FEF778
:1043B00009FD0E20FEF7F8FC002205210F20FEF774
:1043C00001FDBDE808400F20FEF7EEBC00100240E2
:1043D00010B50121C0B02A4A084604F09FFB294CC1
:1043E000274A012120621032084604F097FB244A34
:1043F000012160622032084604F090FB204A01212E
:10440000A0623032084604F089FBE0621E4A0021B7
:104410001E4804F0F9FB1C4A2060243269461C48FF
:1044200004F0F2FB184A606048326946194804F00B
:10443000EBFB154AA0606C326946174804F0E4FBB8
:104440000F4AE060903A6946144804F0DDFB0C4ADC
:1044500020616C3A6946124804F0D6FB084A606154
:10446000483A69460F4804F0CFFB054AA061243A58
:1044700069460D4804F0C8FBE06140B010BD000083
:10448000A4AC00080000002084AB00084D4F0008D9
:10449000514E000891490008E94B0008254D0008DD
:1044A000054E00082D4900089D4D000810B58EB03E
:1044B0001C216846FCF76BFA1C2107A8FCF767FA79
:1044C0001C484FF02041102201601B494160062129
:1044D00081600021C160C0E904128161C1611302E1
:1044E0000162C0E909139302C0E90B1341638163C0
:1044F0000F20FF230090CDE901030DF10C0C1124D6
:104500008CE81500CDE90803CDE906100AAB0D9142
:1045100083E8150007AA69460648FEF711FF08B1AF
:10452000FDF79CFF0548C16941F48061C1610EB08F
:1045300010BD0000E8000020040100A000000140C0
:104540002DE9F04786B00025344800950195029585
:104550000395816941F040018161816901F0400169
:104560000491816941F010018161816901F01001BC
:104570000491816941F480718161816901F48071E4
:104580000491816941F020018161816901F020017C
:104590000491816941F004018161816901F00401A4
:1045A0000491816941F0080181618069DFF87090B0
:1045B00000F008000490012220214846FEF75FFB2E
:1045C000DFF860A0012220215046FEF758FB4FF48F
:1045D0008078002241465046FEF751FB01242026F8
:1045E0000327CDE90064CDE9024769464846FEF756
:1045F0003DFACDE90064CDE9024769465046FEF731
:1046000035FA0220CDE90250CDE9008469465046D2
:10461000FEF72CFA06B0BDE8F0870000001002405B
:1046200000180140000C014010B586B00024184865
:104630000594049400940194029414490394016035
:104640004721C0E901144FF6FF71C0E903148461EA
:10465000FFF7FCF808B1FDF701FF049404A90C482A
:104660000594FEF7CDFE08B1FDF7F8FE0120CDE977
:10467000004002940C22694605480394FFF754F861
:10468000002801D0FDF7EAFE06B010BD000800408A
:104690003001002030B595B000240F94109411948F
:1046A000129413941C2168461494FCF770F920218D
:1046B00007A8FCF76CF9344D3248286040F2CF204F
:1046C000C5E901046320C5E903046C612846AC61B7
:1046D000FEF7D4FE08B1FDF7C1FE4FF480500F90F5
:1046E0000FA92948FEF74CFF08B1FDF7B7FE264891
:1046F000FFF7B7FA08B1FDF7B1FE139413A92248EA
:104700001494FEF77DFE08B1FDF7A8FE6020CDE908
:1047100000040294039404940594002269461A4804
:104720000694FFF738FA08B1FDF798FE04226946AF
:104730001548FFF730FA08B1FDF790FE08226946E8
:104740001148FFF728FA08B1FDF788FE079408948E
:1047500009944FF400500A94CDE90B4007A90A4888
:104760000E94FEF723FE08B1FDF778FE296832208B
:104770004863296888632968C8630348FFF7E4F938
:1047800015B030BD00340140780100200C4810B550
:104790000A4901604FF416514160002181600C22EA
:1047A000C160C0E904128161C161FFF719FD0028F1
:1047B00003D0BDE81040FDF751BE10BD00380140E8
:1047C000C0010020FEE7FEE710B5044604F0DEFE5F
:1047D000207100285BD035491C28497861714DD083
:1047E00017DC0D2840D00BDC082845D003DC28B3AB
:1047F00007284FD12EE0092830D00C284AD135E0C7
:10480000152829D016282BD0182831D0192841D1A5
:1048100028E0462814D008DCA0F14000052839D251
:10482000DFE800F010383014160047280CD04A2872
:104830002AD05A2824D05E282CD11BE01CA024E0CA
:104840001DA022E01DA020E01EA01EE020A01CE074
:1048500021A01AE022A018E023A016E024A014E072
:1048600025A012E025A010E025A00EE025A00CE078
:1048700025A00AE025A008E025A006E025A004E088
:1048800025A002E025A000E025A0206002E0642031
:1048900004F0DAF86079A179884205D022480068EE
:1048A00004F088F96079A07110BD0000D0000020EC
:1048B0004552524F5200000055500000504C415993
:1048C00000000000414C49454E54454B000000009B
:1048D00052494748540000004C454654000000002F
:1048E000564F4C2D00000000444F574E0000000072
:1048F000564F4C2B00000000310000003200000039
:1049000033000000340000003500000036000000D5
:1049100037000000380000003900000030000000BF
:1049200044454C4554450000280000200021C0F8B3
:10493000F01080F8F410C0F8F810044680F8FC106D
:1049400004F0FCFD114D4FF4807604F1F80700BF30
:1049500094F8F40090B1012231462846FEF78FF911
:10496000D4F8F00004F070F8002231462846FEF733
:1049700086F9D4F8F000C0F57A7003E03846FFF706
:1049800023FF642004F060F8E2E70000000C01401F
:104990008AB00446482000F0D3FE03F0D5FB4FF662
:1049A000FF75284600F0F2FE704871A1828806A8C3
:1049B000FBF7E0FC04F161004FF0000B4FF08008C2
:1049C000AA4604F11B0904906C484FF0FF310068BF
:1049D00004F076F81825CDE90058CDF808B00A2182
:1049E0005E464746227E0223084603F05BFF64A032
:1049F000CDE900502023F0220A210296222003F064
:104A000026FFCDE900570296627E02230A212E205E
:104A100003F048FF5AA0CDE900502023F0220A21DC
:104A20000296462003F013FFCDE900570296A27EBE
:104A300002230A21522003F035FF20204FF478474B
:104A400050A18DE883000346F02228210A2003F0BC
:104A5000FEFE50A0CDE900501823F022502102970D
:104A60000A2003F0F4FE10254DA0CDE900502B469E
:104A7000F0226E2102970A2003F0E9FE06A8CDE994
:104A800000501023F022822102970A2003F0DFFE5B
:104A900047A0CDE900501023F022962102960A206B
:104AA00003F0D5FE47A0CDE900501023F022BE212F
:104AB00002960A2003F0CBFE48460499FBF78EFFCE
:104AC00050B349460498FBF765FE43A0CDE900507A
:104AD0001023F022AA2102960A2003F0B8FECDE9A5
:104AE00000591023F022AA210A20029603F0AFFEFB
:104AF00039A0CDE900501023F022D22102960A20DD
:104B000003F0A5FECDE9005802960423D2210A2025
:104B1000D4F8F02003F0C6FE1F26CDE9005694F825
:104B2000FC200323E6210A20F83403F057FECDE9E8
:104B3000005662790323FA210A2003F04FFE4FF456
:104B40008777BA23B42239460A20CDF800A003F0B3
:104B5000D7FA54F8F8091023CDE90050C822394695
:104B600002960A2003F073FE2EE70000F4370020BF
:104B70004C43442049443A25303458002800002052
:104B80003A00000053544D3332463130335A4554C5
:104B9000360000005446544C4344205445535400BE
:104BA000557365723A436F737369616E74000000E8
:104BB00055415254207265616420646174612069BA
:104BC00073203A00426565702072656164206461FB
:104BD0007461206973203A002020202020202020AA
:104BE000202020202020000092B02F4F01260446D4
:104BF0004FF0FF39002500F1A7084946386803F057
:104C00005FFF2AA14046FBF7E9FE50B12AA14046CA
:104C1000FBF7E4FE58B12AA14046FBF7DFFE68B17E
:104C200011E029A003F0ECFE84F8ED500BE02AA07F
:104C300003F0E6FE022084F8ED0004E029A003F072
:104C4000DFFE84F8ED60072229A14046FBF7E5FD71
:104C500030B1082228A14046FBF7DFFDA0B11AE0E1
:104C600028A003F0CDFE04F1AE016846FBF792FDEB
:104C700010AA27A168461095FBF7C8FC84F8F460D9
:104C80001098C4F8F00006E022A003F0B9FE84F802
:104C9000F450C4F8F05046214046FBF756FE64201D
:104CA00003F0D2FEA9E700002C0000204C45445F31
:104CB0004155544F000000004C45445F4F464600AC
:104CC0004C45445F4F4E00004E6F77204C454420CA
:104CD0004155544F000000004E6F77204C45442052
:104CE0004F4646004E6F77204C4544204F4E000003
:104CF000424545505F4F4E00424545505F4F464646
:104D0000000000004E6F772042454550204F4E0076
:104D1000257500004E6F772042454550204F46468E
:104D200000000000044600201A4E1B4F84F8ED00DE
:104D300003254FF47A7800BF10F0FF0004D001285B
:104D40000BD002281CD10FE020213046FDF78FFF49
:104D500020213846FDF78BFF12E00022202130464B
:104D6000FDF78DFF002205E0012220213046FDF7EE
:104D700086FF012220213846FDF781FF84F8ED509F
:104D80004FEA080003F060FE94F8ED000328D3D149
:104D90006420F7E7000C014000180140044614208D
:104DA00028216060E16060614FF4FA7003F04CFE0E
:104DB0000121204600F0A0F8022600250EA1D4F81B
:104DC000F800FBF70BFE08B10A2011E094F8FC0094
:104DD000452806D1E560666001212046656100F046
:104DE0008BF894F8FC0010B96560E56065610220FD
:104DF00003F02AFEE2E70000414C49454E54454B82
:104E000000000000002505764576104E04468576A4
:104E10004FF47A77A07E401CC0B2A0763C280ED317
:104E2000A576607E401CC0B260763C2807D36576CC
:104E3000207E401CC0B22076182800D3257630682A
:104E400003F0B8FE384603F0FFFDE3E7280000203A
:104E500094B00646002448216846FBF798FD214897
:104E60000068C16841F01001C160462269461D48D2
:104E7000FFF756FA06F11B001290DFF86C90DFF88E
:104E80006CA08C30DFF868B0E84613904FF0FF312B
:104E9000D9F8000003F014FEDAF80000406800259D
:104EA000C0F1460087B246211298FBF74EFD4046FE
:104EB00009E0015D7219641C6D1CA4B2D176ADB21B
:104EC000462C00D30024BC42F3D1DDE91210FBF7DD
:104ED00061FCDBF8000003F06DFE0648006803F09B
:104EE00069FED3E7C0010020240000200802002052
:104EF0002C0000202800002010B50C460346416815
:104F0000012000F0E1FB0220D96800F0DDFB032066
:104F1000596900F0D9FB01200A4A012C0AD0022C61
:104F20000BD0032C0CD190700821BDE8104006482E
:104F3000FEF710BF10700021F7E750700421F4E76E
:104F400010BD0000D800002078010020012003F0EF
:104F50007BFDFBE710B54FF0E020006905F0B2FAE9
:104F6000012803D0BDE8104004F02ABE10BD30B5C2
:104F70008FB028216846FBF70AFD14210AA8FBF729
:104F800006FD01210804CDE9001000240294022549
:104F90000491CDE907504FF4E01009906846FEF700
:104FA0003FF808B172B6FEE70F20CDE90A054FF4CD
:104FB0008060CDE90C4002210AA80E94FDF734FF71
:104FC000002801D072B6FEE70FB030BD7047000078
:104FD0000148FEF721BD0000483800200148FEF7D7
:104FE0001BBD0000900200200148FEF715BD000027
:104FF00078010020F0B50268204C214D214E224F4F
:10500000224B4FF0804CA04209D0984207D0604517
:1050100005D0A84203D0B04201D0B84204D122F05A
:10502000700E4A6842EA0E02A04209D0984207D0A8
:10503000604505D0A84203D0B04201D0B84203D1A8
:1050400022F44075CA682A434D6922F080022A433F
:1050500002608A68C2620A688262A04201D09842F5
:1050600001D109690163012141610169C90703D0C7
:10507000016921F001010161F0BD0000002C014037
:105080000004004000080040000C004000340140D3
:1050900010B501F01F030121046A99408C4304629A
:1050A000016A9A401143016210BD10B5846842EA5A
:1050B000032224F47F440A432243826010BD8268A5
:1050C00022F070020A4342F007018160704700003D
:1050D000F0B5036A026A22F0010202624268846942
:1050E000124E24F073050C682C4323F002058B68E4
:1050F0002B430D4DA84201D0B04205D123F0080743
:10510000CB683B4323F00403A84201D0B04205D151
:105110004D6922F4407215438A692A4342608461D2
:10512000496841630362F0BD002C01400034014036
:10513000F0B5026A036A23F01003036243688469CE
:105140000D6824F4E64444EA05248D6822F0200228
:1051500042EA05120F4D104EA84201D0B04206D1CE
:10516000CF6822F0800242EA071222F04002A842F1
:1051700001D0B04207D14D6923F4406343EA85036F
:105180008D6943EA850343608461496881630262F3
:10519000F0BD0000002C014000340140F0B5026A6F
:1051A000036A23F4807303624368C46922F40072C3
:1051B00024F073050C68124E2C438D6842EA0522D8
:1051C0000E4DA84201D0B04206D1CF6822F4006251
:1051D00042EA072222F48062A84201D0B04207D1FD
:1051E0004D6923F4405343EA05138D6943EA0513DF
:1051F0004360C4614968C1630262F0BD002C014094
:105200000034014030B5046A026A22F4805202621E
:105210004268C3690D6823F4E64343EA05238D68B9
:1052200024F4005444EA0534084DA84202D0084D45
:10523000A84204D14D6922F4804242EA85124260BC
:10524000C36149680164046230BD0000002C014064
:105250000034014010B5036A046A24F001040462BA
:10526000846924F0F00444EA021423F00A020A4399
:105270008461026210BD000070B5056A046A24F002
:10528000010404628469124EB0420ED0114EB04245
:105290000BD0B0F1804F08D00F4EB04205D00F4E6A
:1052A000B04202D00E4EB04203D124F003041443A6
:1052B00001E044F001041A0724F0F00444EA126209
:1052C00025F00A0301F00A0119438261016270BDF1
:1052D000002C014000340140000400400008004060
:1052E000000C004010B5036A046A24F01004046244
:1052F000846923F0A00324F4704444EA023243EAB0
:1053000001118261016210BD30B5046A056A25F0A1
:1053100010050562856925F4407545EA022222F4EC
:1053200070454FF6FF7202EA033224F0A0032A43CD
:10533000A02404EA011119438261016230BD10B555
:10534000406A0021C185C184FEF713FE10BD70B50F
:10535000446A2068406994F84110C0F3C0100025E9
:10536000212904D118B1E584204600F08EF8206888
:10537000406994F84210C0F38010222904D118B17A
:10538000E585204600F05AF8606C40F0100060643B
:105390002046FEF7EEFD70BD10B50146406A096873
:1053A00009684FF0000289062ED4C28501680C31CD
:1053B00051E8003F23F4807341E80034002CF5D11C
:1053C0000168143151E8003F23F0010341E8003443
:1053D000002CF5D10168143151E8003F23F040035F
:1053E00041E80034002CF5D1202180F84210016BF7
:1053F000012909D101680C3151E8003F23F0100365
:1054000041E80034002CF5D14263016B012902D040
:10541000FEF794FF10BD818DFEF7AAFD10BD10B5FB
:10542000406A01214163016B012902D0FEF787FF29
:1054300010BD818D4908FEF79BFD10BD01680C3140
:1054400051E8002F22F4907241E80023002BF5D19F
:105450000168143151E8002F22F0010241E80023D5
:10546000002BF5D1016B012909D101680C3151E8FC
:10547000002F22F0100241E80023002BF5D120215B
:1054800080F8421000210163704701680C3151E837
:10549000002F22F0C00241E80023002BF5D120218B
:1054A00080F84110704708B590F84210222901D0C9
:1054B000022008BD82684FF480539A4201D10169ED
:1054C00021B1816A9A421BD04AB10AE00268816A1E
:1054D0005268C2F308020A80816A891C08E00269E6
:1054E00072B10268526802F07F020A70816A491C38
:1054F0008162C18D491E0904090CC18503D01BE0DE
:1055000002685268F1E70168CA6822F02002CA60A6
:105510000168CA6822F48072CA6001684A6922F090
:1055200001024A61202180F8421000214163026B90
:10553000012A03D0FEF702FF002008BD01630168C5
:105540000C3151E8002F22F0100241E80023002B1B
:10555000F5D101680A68D20602D50A684968009147
:10556000818DFEF705FDE7E770B504460068016927
:10557000E26821F44051114301612169A0680843A8
:10558000616908432168CA6841F20C639A43024387
:10559000CA6020684169A26921F4407111434161E8
:1055A0001E492068884202D1FDF704FD01E0FDF7A5
:1055B000F1FC00EBC00101EB001260686421800087
:1055C000B2FBF0F3B3FBF1F36FF018067343B2FBD9
:1055D000F0F5B2FBF0F605EB8305322303EB05157E
:1055E000B5FBF1F5B6FBF1F605F0F00505EB061598
:1055F000B2FBF0F6B2FBF0F0B0FBF1F06FF0180286
:10560000504306EB800003EB0010B0FBF1F0216883
:1056100000F00F002844886070BD00000038014091
:1056200038B58162044682850020134660642222D8
:1056300084F84220E56B1B4AAA62E56B1A4AEA62CB
:10564000E56B1A4A2A63E26B50630A462168E06BF5
:10565000091DFDF793F920680168406800902069F2
:1056600048B120680C3050E8001F41F4807140E8D8
:105670000012002AF5D12068143050E8001F41F0D4
:10568000010140E80012002AF5D12068143050E8EA
:10569000001F41F0400140E80012002AF5D100202F
:1056A00038BD0000995300081F5400084F530008EC
:1056B00010B503F08DFFBDE810400148FEF75ABC5D
:1056C000C0010020FEE70000064A491C012805D061
:1056D000022805D0032800D1D1607047516070477F
:1056E00091607047D8000020490050EAC12018BFDF
:1056F00004204A0D18BF40F0010040F2FF72B2EBE7
:10570000515F08BF40F00200012808BF0520704724
:105710000907090E002804DB00F1E02080F80014DE
:10572000704700F00F0000F1E02080F8141D704772
:1057300030380A2801D2012070470020704700004D
:105740000149086070470000CC0000204FF47A71D6
:10575000484300F001B8000070B54FF0E02400228B
:1057600065690949A36909684843A1699942FCD060
:1057700002D2A3EB010302E0A5EB010633441A4475
:105780000B468242F1D370BDCC00002070B50949B0
:105790000646002408884D8821464543204602F0ED
:1057A00033FF03F003F9044801E00680641CAC42B7
:1057B000FBD370BDF43700200008006C2DE9F04FDA
:1057C00038492C260A46887192884FF4305A4FF493
:1057D000285B41F6631E2B274FF02A0C4FF0F00890
:1057E00045F210594FF448754FF4A0744FF4F0731C
:1057F00058B10C80A1F802804A4530D1A1F808A028
:10580000A1F80AB03802888141E0A1F800804C80FC
:105810004A4507D1A1F808A0A1F80AB04FF42C50CE
:10582000888105E072450E8105D14F81A1F80CC039
:105830000B804D8002E0A1F80AC08F81A2F5A6403E
:10584000103803D0A2F5EE40963801D10C804B8081
:10585000A2F5184006381FD10B804D801CE0724520
:1058600011D0A2F5184006380DD00E81A1F80AC05B
:10587000A1F80C70A2F5A64010380BD0A2F5EE40AE
:10588000963807D008E00E81A1F80AC08F810D80FC
:105890004B80EFE70B804C80BDE8F04F002002F01A
:1058A000F3BD0000F437002010B5144602F0ACFE42
:1058B00003F07CF80148048010BD00000008006C73
:1058C00010B5CF2003F066F8002003F057F8C12090
:1058D00003F054F8302003F051F8ED2003F05AF8AB
:1058E000642003F04BF8032003F048F8122003F083
:1058F00045F8812003F042F8E82003F04BF88520BA
:1059000003F03CF8102003F039F87A2003F036F861
:10591000CB2003F03FF8392003F030F82C2003F0BF
:105920002DF8002003F02AF8342003F027F8022095
:1059300003F024F8F72003F02DF8202003F01EF8E0
:10594000EA2003F027F8002003F018F8002003F005
:1059500015F8C02003F01EF81B2003F00FF8C1203B
:1059600003F018F8012003F009F8C52003F012F83D
:10597000302003F003F8302003F000F8C72003F0D4
:1059800009F8B72002F0FAFF362003F003F84820A8
:1059900002F0F4FF3A2002F0FDFF552002F0EEFF86
:1059A000B12002F0F7FF002002F0E8FF1A2002F019
:1059B000E5FFB62002F0EEFF0A2002F0DFFFA22092
:1059C00002F0DCFFF22002F0E5FF002002F0D6FF3B
:1059D000262002F0DFFF012002F0D0FFE02002F0DD
:1059E000D9FF0F2002F0CAFF2A2002F0C7FF2820AB
:1059F00002F0C4FF082002F0C1FF0E2002F0BEFF3B
:105A0000082002F0BBFF542002F0B8FFA92002F0EA
:105A1000B5FF432002F0B2FF0A2002F0AFFF0F20D3
:105A200002F0ACFF002002F0A9FF002002F0A6FF68
:105A3000002002F0A3FF002002F0A0FFE12002F00E
:105A4000A9FF002002F09AFF152002F097FF17200F
:105A500002F094FF072002F091FF112002F08EFF68
:105A6000062002F08BFF2B2002F088FF562002F068
:105A700085FF3C2002F082FF052002F07FFF10200E
:105A800002F07CFF0F2002F079FF3F2002F076FF4A
:105A90003F2002F073FF0F2002F070FF2B2002F076
:105AA00079FF002002F06AFF002002F067FF01206A
:105AB00002F064FF3F2002F061FF2A2002F06AFF3B
:105AC000002002F05BFF002002F058FF002002F0EF
:105AD00055FFEF2002F052FF112002F05BFF78200B
