:020000040800F2
:10000000502E0020110300083B360008A5330008DD
:1000100039360008E91D00088D3E00080000000088
:10002000000000000000000000000000790200084D
:100030002F1E000800000000BD020008E139000882
:100040002B0300082B0300082B0300082B030008D8
:100050002B0300082B0300082B0300082B030008C8
:100060002B0300082B0300082B0300082B030008B8
:100070002B0300082B030008ED1D0008F91D0008E4
:100080002B0300082B0300082B0300082B03000898
:100090002B0300082B0300082B0300082B03000888
:1000A0002B0300085D3A00082B0300082B0300080F
:1000B0002B0300082B0300082B0300082B03000868
:1000C0002B0300082B0300082B0300082B03000858
:1000D0002B030008793E00082B0300082B030008BF
:1000E0002B0300082B0300082B0300082B03000838
:1000F0002B0300082B0300082B0300082B03000828
:100100002B0300082B0300082B0300082B03000817
:100110002B0300082B0300082B0300082B03000807
:100120002B0300082B0300082B0300082B030008F7
:1001300000F002F800F090F80AA090E8000C824469
:100140008344AAF10107DA4501D100F085F8AFF246
:10015000090EBAE80F0013F0010F18BFFB1A43F0A5
:1001600001031847A8C20000C8C20000103A24BF0B
:1001700078C878C1FAD8520724BF30C830C144BF0C
:1001800004680C607047000000230024002500264E
:10019000103A28BF78C1FBD8520728BF30C148BFEA
:1001A0000B6070476E2900F01F84702900F05F819A
:1001B000662909F00980652909F00680672909F098
:1001C0000380612909F0028003681B0A28BF41F0FF
:1001D0008001692900F0CC83642900F0C983752966
:1001E00000F0C6836F2900F0EF84782900F02B819E
:1001F000E92900F08984E42900F08684F52900F0DB
:100200008384EF2900F0EC84F82900F02A81036848
:10021000DB0928BF41F08001632901F0F7807329D1
:1002200001F0FC80E32901F00781F32901F00C8142
:10023000002070471FB501F059F90400002000218B
:1002400008F06EFE401C60600020002108F052FEA5
:10025000E0601FBD10B510BD01F01AF91146FFF79F
:10026000E9FF06F029FF01F0F3F903B4FFF7F2FF0D
:1002700003BC01F0F7F90000224B19680868B0E8E8
:10028000F00F80F30988BFF36F8F4FF0000080F309
:1002900011884EF00D0E70470000000006480068FF
:1002A000006880F3088862B661B6BFF34F8FBFF372
:1002B0006F8F00DF00BF00BF08ED00E0EFF30980A3
:1002C000BFF36F8F0F4B1A6820E9F00F106008B56D
:1002D0004FF0500080F31188BFF34F8FBFF36F8F43
:1002E00007F00EFF4FF0000080F31188BDE80840D2
:1002F00019680868B0E8F00F80F30988BFF36F8FC2
:10030000704700BF3C000020EFF3058070470000FD
:100310000948804709480047FEE7FEE7FEE7FEE799
:10032000FEE7FEE7FEE7FEE7FEE7FEE704480549D5
:10033000054A064B70470000593A00083101000891
:1003400050280020502E0020502A0020502A002043
:100350001CB50C46064B7B4469460090204600F0D5
:100360005CFB04460020694600F06AFB20461CBD89
:10037000E70600000FB41CB5084B06AA7B4469468B
:100380000090059800F049FB04460020694600F003
:1003900057FB20461CBC5DF814FB0000C1060000A2
:1003A00070B5044685690068C10601D5302600E0B5
:1003B0002026C00707D070BDD4E901213046904700
:1003C000206A401C20626D1EF6D570BD70B50446D3
:1003D00085690078C00707D170BDD4E901212020CC
:1003E0009047206A401C20626D1EF6D570BD00004B
:1003F000F0B40D460188090502D5214C7C4402E089
:100400001F4C7C440E34002100F1240608E002F069
:100410000F071209E75D42EA03721B097754491C72
:1004200052EA0307F3D102780023120704D5702D96
:1004300006D009B1022311342246F0BC00F03EBAC6
:1004400001231034F8E770B504460D4621461068C4
:1004500000F002FA024629462046BDE8704000231B
:10046000C6E7D21D22F00703D3E90023C0E70368E3
:10047000126843F0200303600823C3610023B7E739
:1004800082BE00002DE9F05F894604464FF0000A65
:10049000DFF874B1FB44C0F820A02046E16888472B
:1004A000002874D0252806D0D4E901219047206A7D
:1004B000401C2062F1E700265F462046E16888473D
:1004C0002028054607DB312D05D2781910F8200CBD
:1004D00008B10643F1E7B00701D526F00406C4F8D9
:1004E0001CA00027C4F818A02A2D09D0284603F024
:1004F000F2FC38B304EB8708303DC8F8185019E017
:1005000059F8041B204604EB87029161E168884793
:10051000012F054618D1E069002820DA26F02006D0
:100520001DE0D8F8180000EB800005EB40003038E3
:10053000C8F818002046E1688847054603F0CBFC60
:100540000028EED1012F0AD02E2D08D12046E168D7
:1005500088477F1C0546022F46F02006C4DBA069B1
:10056000002803DA404246F00106A061F00701D0FE
:1005700026F010066C2D0BD0682D09D04C2D39D0EB
:100580006A2D35D0742D35D07A2D33D016E038E071
:10059000E1682F4620468847B842054609D16C2FAE
:1005A00026D04FF48060E168064320468847054620
:1005B00004E06C2F1AD04FF4807006430DB3A5F100
:1005C0004100192802D8203546F400664A462946DB
:1005D000204626604E46FFF7E5FD80B101280BD08E
:1005E000F61D26F0070000F1080956E74020E4E771
:1005F0008020D8E70020D6E706F104094DE7284619
:1006000052E7206ABDE8F09F12BE000040EA0103F5
:10061000024630B59B0710D14FF0013400E008C20C
:1006200008C91D1B9D4315EAC41FF8D013F0FF0134
:1006300002F8011B0DD01B0AF8E711F8013B002B53
:1006400002F8013B05D011F8013B002B02F8013BF9
:10065000F3D130BD10B5431C02E010F8011B71B19D
:100660008107FAD14FF0013202C88C1A8C4314EA88
:10067000C211F9D0C01A0A0603D0C01E10BDC01A9C
:1006800010BD0A0401D0801E10BD0902FCD0401E1E
:1006900010BD032A40F2308010F0030C00F01580EA
:1006A00011F8013BBCF1020F624498BF11F801CB75
:1006B00000F8013B38BF11F8013BA2F1040298BFDA
:1006C00000F801CB38BF00F8013B11F0030300F044
:1006D0009182083AC0F0088051F8043B083A51F87A
:1006E00004CBA0E80810F5E7121D5CBF51F8043BED
:1006F00040F8043BAFF30080D20724BF11F8013B60
:1007000011F801CB48BF11F8012B24BF00F8013BC1
:1007100000F801CB48BF00F8012B704702F0FF033F
:1007200043EA032242EA024200F002B84FF000021C
:100730000429C0F0128010F0030C00F01B80CCF1F3
:10074000040CBCF1020F18BF00F8012BA8BF20F861
:10075000022BA1EB0C0100F00DB85FEAC17C24BFB5
:1007600000F8012B00F8012B48BF00F8012B70475F
:100770004FF0000200B5134694469646203922BF3A
:10078000A0E80C50A0E80C50B1F12001BFF4F7AF85
:10079000090728BFA0E80C5048BF0CC05DF804EB67
:1007A000890028BF40F8042B08BF704748BF20F8D5
:1007B000022B11F0804F18BF00F8012B704700008A
:1007C0004FF0013C50F8042B51F8043B9A4221D1E0
:1007D000A2EB0C03934313EACC1317D150F8042B6C
:1007E00051F8043B9A4215D1A2EB0C03934313EA50
:1007F000CC130BD150F8042B51F8043B9A4209D189
:10080000A2EB0C03934313EACC13DBD04FF00000B0
:10081000704700BFD01A01BAB1FA81F101F0180196
:1008200022FA01F0CB40C1F12001DBB2C0B2C01A04
:100830002CFA01F3D11A914311EAC311E6D17047A2
:1008400070477047704709684A0501D540B2704744
:10085000C905FCD500B2704709684A0501D5C0B288
:100860007047C905FCD580B2704770B50C46054687
:10087000012A05D02878800600D5EA69002302E025
:10088000012305E05B1C934202D2E05C0028F9D111
:10089000A869E618C01AA861286A18442862284680
:1008A000FFF77EFD04E0D5E9012114F8010B904724
:1008B000B442F8D32846FFF789FD70BD2DE9F04713
:1008C0000D4699469246044600F1240801688806C0
:1008D00004D5E06921F01001216000E00120A84268
:1008E00001DD471B00E00027A1697A1902EB09002E
:1008F000081AA0612078C00602D42046FFF750FDF8
:10090000002608E0D4E901211AF806009047206A81
:10091000401C761C20624E45F4DB2078C0060AD5C8
:100920002046FFF73DFD06E0D4E901213020904745
:10093000206A401C2062381EA7F10107F4DC07E0A2
:10094000D4E9012118F805009047206A401C206274
:10095000281EA5F10105F3DC2046FFF737FD2078BE
:10096000000602D50220BDE8F0870120FBE7000069
:100970002DE9F0410646002410687529314616A578
:1009800010D0FFF760FF002802DA404213A507E00D
:1009900031688A0701D512A502E0490704D511A5DF
:1009A000012401E0FFF758FF00210A2206F1240785
:1009B00009E0B0FBF2FCB0FBF2F302FB1C003030AC
:1009C00078541846491C0028F3D123462A4630465D
:1009D000BDE8F041FFF772BF000000002D000000ED
:1009E0002B0000002000000011680268006A530517
:1009F00001D508700AE0D30501D5088006E013068A
:100A000003D5C217C1E9000200E008600120704769
:100A100001694A1C02610878704700B58FB0CDE9C2
:100A200001310021059105497944CDE903101146B2
:100A30006846FFF727FD0FB000BD0000E5FFFFFF90
:100A40000A6802F8010B0A60704700002DE9FF5F99
:100A500015468A460446DFF8AC80F8440027D8E9FA
:100A600000103E46CDE9001010E03AF816106A4634
:100A700002A800F0EDFC411C07D02178890603D5BF
:100A8000E269391891420DD80744761C2078800617
:100A900002D5E069B84205DDAE42E6DB3AF8160061
:100AA0000028E2D1A069C01BA0612046FFF778FCB6
:100AB000D8E90010CDE90010002017E03AF818102E
:100AC0006A4602A800F0C4FCB0F1FF3F81460BD09B
:100AD00000250DF1080B05E0D4E901211BF8050004
:100AE00090476D1C4D45F7D308F10100B042804698
:100AF000E4DB206A384420622046FFF767FCBDE84B
:100B0000FF9F00005EB800002DE9F0418046D21D35
:100B100022F007020025D2E90002F52915A614D01B
:100B2000011E72F1000106DA0023D0EB030063EB33
:100B3000020211A608E0D8F800108B0701D50FA615
:100B400002E0490701D50EA601251146002408F14F
:100B5000240704E000F080F830323A55641C50EA73
:100B60000102F7D12B46324621464046BDE8F0410E
:100B7000FFF7A4BE000000002D0000002B000000C5
:100B80002000000030B4002100F1240408E002F04D
:100B90000705D208303542EA4372DB086554491C28
:100BA00052EA0305F3D10468002310A2250708D5F3
:100BB00004F020040C4304D0C46901230CA2641E79
:100BC000C46130BCFFF77ABE10B5044621461068F8
:100BD000FFF742FE02462046BDE810400023D1E761
:100BE000D21D22F00701D1E90023CBE7000000006D
:100BF0003000000010B5203AC0F00B80B1E818506A
:100C0000203AA0E81850B1E81850A0E81850BFF4F6
:100C1000F5AF5FEA027C24BFB1E81850A0E8185095
:100C200044BF18C918C0BDE810405FEA827C24BFE9
:100C300051F8043B40F8043B08BF7047D20728BF77
:100C400031F8023B48BF11F8012B28BF20F8023BC6
:100C500048BF00F8012B704730B5B0F10A024FEAE7
:100C6000900E71F100034EEA817EB0EB0E0061EB55
:100C700091014FEA101E4EEA017E10EB0E0041EB8F
:100C800011114FEA102E4EEA016E10EB0E0041EBEF
:100C900011214FEA104E4EEA014E10EB0E0041EBCF
:100CA0001141401841F100014FEAD00040EA417083
:100CB0004FEAD10110EB80054FEA810444EA9074B9
:100CC00044EB01046D1944EB0404521BA3414FF0A3
:100CD000000348BF0A3200D530BD401C41F100017D
:100CE00030BD70472DE9FF4F0C461E464FF0FF37D1
:100CF0008BB0D2E90001DDF860800A908A46C1F32A
:100D00000A5505B93D46002108464FF00000BAF1EA
:100D1000000F00F4400005DA00EB80004FF44001C2
:100D200001EA50004FEA9059B9F1010F00DDB946D0
:100D30000A9850EA4A000ED044F61050A5F2FF354A
:100D400045432F14B8F1000F1ED07542291E1EDD39
:100D5000C9F100021CE0B8F1010F4FF0000001D012
:100D6000302103E0F24305E02154401CB042FBDB9C
:100D700030460022002121540B99C1F80880C1E9B6
:100D800000200FB0BDE8F08FBD1B6D1CDEE74A46AA
:100D900000DA694206A800F0EDFB06AB93E8070015
:100DA00003AB83E8070050460A9900F062FC8DE827
:100DB0000700A0F500501F3800900398002D09DDB2
:100DC00042F21F014A46084403A90390684600F016
:100DD000C1FE08E0A0F500504A461F3803A9039061
:100DE000684600F0CBFE8DE807000004000C03D03D
:100DF0004FF0FF30410800E01046B8F1000F03D07B
:100E00000022009215461EE0751E05D4FFF724FF50
:100E1000303262556D1EF9D5B3460122084302D027
:100E200000227F1C04E02078302801D100227F1EA0
:100E3000002A099786D01DE0112D07DAFFF70CFF75
:100E4000303262556D1C50EA0102F5D1084302D0E0
:100E50000098C8B10EE00021681E05E0235C625CCA
:100E600063542254401E491C8142F7DBAB46A81B49
:100E7000401E0990002004F80B000B98099AC0F856
:100E80000880C0E9002B7CE711264FF0000859E7E5
:100E90002DE9F04F88460446D21D22F0070191B09B
:100EA000D1E90001CDE90A0102F0F1FF02460B98F9
:100EB000C00F01D02D2007E02068810701D52B202D
:100EC00002E0202101EAC000032A099001D0072A8C
:100ED00005DB03464146204600F00CFB0BE1207881
:100EE000800601D5E06900E00620B8F1650F814673
:100EF00006D0B8F1660F18D0B8F1670F70D131E0A5
:100F00000020B9F1110F009001DB112301E009F17C
:100F100001030AAA01A90CA8FFF7E4FEDDE90C70A1
:100F2000002609F10105834647E001204B46009069
:100F30004FF000470AAA01A90CA8FFF7D3FEDDE98C
:100F40000DB00C995D46002610B909F101000D188D
:100F5000B9EB050003D4C0F1FF3609F10105A5EB9B
:100F600009002BE0B9F1010F01DA4FF0010900206F
:100F7000B9F1110F0090484601DD112300E003464E
:100F80000AAA01A90CA8FFF7ADFEDDE90C704D46D9
:100F900000268346207800070AD4AB4500DA5D4678
:100FA00001A8012D04DD411911F8011C302907D0D9
:100FB0004F4502DA17F1040F04DA012082460FE0F0
:100FC0006D1EEEE7002F02DCED1B3E4403E0781CB3
:100FD000A84200DD7D1CB81B00F1010A4FF000475C
:100FE0002078000703D4AA4501DB4FF0FF3A002127
:100FF000B7F1004F0DF143088DF8431024D00220C3
:101000002B23002F01DA7F422D230A21021EA0F19B
:10101000010000DC5FB197FBF1FC97FBF1F201FBF3
:101020001C7C17460CF1300C08F801CDEEE7A8F156
:10103000010003702188090501D5452100E06521E3
:10104000A0F1010800F8011C09980FA9A1EB0807FD
:10105000FF1D00B10120411901EBEA70A16938447C
:10106000081A401EA0612078C00602D42046FFF76F
:1010700097F9099828B1D4E901219047206A401CCA
:1010800020622078C00622D52046FFF789F91EE0AD
:10109000002E04DBB34502DD01A8805D00E03020B6
:1010A000D4E901219047206A401C2062761CAAF1F5
:1010B00001005FEA000A0AD100F018FAC06801686E
:1010C000405CD4E901219047206A401C2062281E20
:1010D000A5F10105DCDC07E0D4E9012118F8010BDA
:1010E0009047206A401C2062381EA7F10107F3DCFC
:1010F0002046FFF76BF9032011B043E62DE9F04FCE
:1011000004460D46D21D22F0070089B0D0E90092B6
:1011100048461746394602F0BAFE0246F80F01D09B
:101120002D2307E02068810701D52B2302E0202131
:1011300001EAC0038DF820300BB1012000E000204F
:10114000032A824601D0072A04DB2946204600F004
:10115000D1F93DE12078800601D40D2500E0E56954
:10116000C7F30A560D2D49DA00214FEA175B0846EE
:101170004FF00000002F00F4400007DA00EB800081
:101180004FF4400100EBD07001EA600081150129A5
:1011900001DD4FF0FF3100224FEA850CBCF1180F42
:1011A00006D31346ACF118004FF08052C24003E062
:1011B0004FF4801323FA0CF30CF10C0CBCF1200F4C
:1011C00004D3ACF1200C09FA0CF001E007FA0CF0A2
:1011D00000294FF0004801DD18B90FE00ED140455D
:1011E0000CD319EB02095F4121B9404502D19F435D
:1011F00029EA0209BBEB175F00D0761C20880005A6
:1012000002D57B48784402E079487844193808AA26
:10121000302302F80A30037C0AF10101002E0AF1A2
:10122000020A53546A4602DC4FF0300101E04FF0ED
:1012300031014FF001088DF8001002D0A6F2FF3600
:1012400003E059EA470100D06A4E002D02DC217804
:10125000090704D54FF002082E218DF80110C4466D
:1012600000210BE0C7F303433F01C35C491C6D1E23
:1012700002F80830052908F1010801DA002DF1DC37
:1012800000210CE000EB1973491C1B786D1E082926
:1012900002F808304FEA091908F1010801DA002DB7
:1012A000F0DC2178890602D514E0A8F10108E045B8
:1012B00005DD02EB080111F8011C3029F5D0B8F169
:1012C000000F07DD02EB080111F8011C2E2901D1E6
:1012D000A8F10108002D05DD3E2102F808106D1E61
:1012E00008F10108407C002E02F8080008F101080E
:1012F00004DA2D20764202F8080002E02B2002F8E2
:1013000008000A214FF47A70864208F101080BDBCD
:1013100096FBF0F3303302F8083096FBF0F308F157
:10132000010800FB136601E0642E0CDB642096FBD1
:10133000F0F3303302F8083096FBF0F308F10108BF
:1013400000FB136601E00A2E06DB96FBF1F030305D
:1013500002F8080008F1010896FBF1F001FB1060AB
:10136000303002F80800A16908F1010808EB050215
:1013700002EB0A00081AA0612078C00602D42046B9
:10138000FFF70EF8216A08AE01EB0A00206204E0C4
:10139000D4E9012116F8010B9047BAF1010AF7D2FE
:1013A0002078C00602D52046FEF7FAFF6E4609E017
:1013B00016F8010B3E280FD0D4E901219047206A8E
:1013C000401C2062B8F10108F2D22046FEF7FEFF71
:1013D00009B00320BDE8F08F206A2844206203E0B2
:1013E000D4E90121302090476D1EEBD3F8E70000CF
:1013F000CFB0000002FCFFFF10B5436913B1AFF39B
:10140000008001E0FFF731FA012010BD127800F1F1
:1014100024010A7000224A700122EDE711684FF0A2
:10142000FF32E9E710B5436913B1AFF3008001E083
:10143000FFF70CFB012010BD128800F1240182840B
:101440000022C2840122EDE711684FF0FF32E9E784
:1014500070B516460C46054600F040F8036893F850
:101460000101012806D0FF2C0FD8185D68B10120BA
:101470002C7070BDD3F807013246214603F20713E2
:1014800003442846BDE8704018474FF0FF3070BD58
:10149000754600F0E3F8AE4605006946534620F075
:1014A0000700854618B020B5FEF740FFBDE8204094
:1014B0004FF000064FF000074FF000084FF0000B10
:1014C00021F00701AC46ACE8C009ACE8C009ACE8C3
:1014D000C009ACE8C0098D467047000010B500F0A7
:1014E00005F8001D10BD00BF397A000000487047A4
:1014F0000C2800202DE9F0411F4604460326016810
:10150000072A01F4006004DB08B116A505E016A562
:1015100003E008B115A500E015A521F0100020603A
:10152000A069C01EA0610FB1401EA0612046FEF759
:1015300037FF4FB1D4E9012138469047206A401C5B
:101540002062C01C206206E0206AFAE7D4E901218B
:1015500015F8010B9047761EF8D22046FEF736FFAD
:10156000BDE8F0814E414E006E616E00494E46006E
:10157000696E66002DE9F047814616468AB0334809
:1015800078440DC88DE80D0030487844801C03ACC9
:101590000DC884E80D0041F69B300844372190FBCC
:1015A000F1F290FBF1F5A5F1800501FB12041B3C63
:1015B00002D56442012000E00020DFF890A08046C0
:1015C0000027FA44AAF1BE0A0DE0E00709D032462E
:1015D000684607EB47010AEB810100F0CFFA8DE87E
:1015E000070064107F1C002CEFD1184F7F44AC3FE4
:1015F00018E0E80714D007EB04100DF1180A90E882
:101600000E008AE80E00C068F04201D198190890D7
:10161000324606A903A800F0B1FA03AB83E807003D
:101620006D10641C002DE4D132466946B8F1000FFC
:1016300003A802D000F08EFA01E000F09FFAC9E999
:101640000001C9F808200AB0BDE8F087E4AD000049
:101650000446AFF300802046FEF707FE00487047BF
:10166000EC27002001491820ABBEFEE7260002004F
:1016700070475FEA400C08BF91F0000F4FEA8C23DF
:101680004FEAC12243EA51514FEA1C5018BF00F5FE
:10169000F0404FEA300018BF41F000415FEA6C5C57
:1016A00000F02980BCF1FF3F08BF40F08040704748
:1016B000130C06BF12044FF0100C4FF0000C130E69
:1016C00004BF12020CF1080C130F04BF12010CF13D
:1016D000040C930F04BF92000CF1020CD30F04BF53
:1016E00052000CF1010C11464FF00002A0F11F0056
:1016F000A0EB0C00704711F0004F08BF704731F0AD
:1017000000413FF4D5AF0B0C06BF09044FF0100C9D
:101710004FF0000C0B0E04BF09020CF1080C0B0F6C
:1017200004BF09010CF1040C8B0F04BF89000CF1FC
:10173000020CCB0F04BF49000CF1010CCCF12003CB
:10174000A0EB0C0022FA03F302FA0CF241EA0301C7
:1017500000F10100704720F07F4C80EA030023F085
:101760007F47ACEB070303F57C5300F0004003F127
:10177000FF032DE980494FEA154B09B44FEA1443A2
:1017800025EA0B4E24EA03480FF2042606EB132742
:1017900049083E785FEA320203FB0667C7F5000797
:1017A00007FB06F64FEA54374FEAD64606F1020623
:1017B00007FB066CCCF1005C4FEA1C472CEA074C97
:1017C00007FB06F40CFB06F504EB15464FEA9616EC
:1017D00034BF00204FF000404FEAD13706FB07FC32
:1017E0004FEA1C4C0CFB0BF7D21B03FB0CF761EB15
:1017F00007010CFB0EF7B0EB074072EB17420CFB36
:1018000008F734BFA2EB0742B2EB074261EB174186
:101810004FEA0C444FEA910706FB07FC4FEA1C4CC9
:101820000CFB0BF7B0EBC74072EB573203FB0CF726
:1018300034BFA2EBC742B2EBC74261EB57310CFB9E
:101840000EF7B0EBC70072EB57720CFB08F734BF12
:10185000A2EBC702B2EBC70261EB5771039F4FEADD
:10186000816141EA921104EBCC044FEAD1374FEA8F
:10187000826206FB07FC42EA90124FEA80604FEA60
:101880001C4C0CFB0BF7D21B03FB0CF761EB0701A5
:101890000CFB0EF7B0EB074072EB17420CFB08F79E
:1018A00034BFA2EB0742B2EB074261EB17414FEAAC
:1018B0008C554FEA910704EB9C2406FB07FC4FEA8A
:1018C0001C4C0CFB0BF7B0EBC74072EB573203FB21
:1018D0000CF734BFA2EBC742B2EBC74261EB573102
:1018E0000CFB0EF7B0EBC70072EB57720CFB08F75E
:1018F00034BFA2EBC702B2EBC70261EB577115EB25
:101900004C254FEA816141EA92114FEA82624FEA27
:10191000D13742EA901206FB07FC44F100044FEA7B
:1019200080604FEA1C4C0CFB0BF7D21B03FB0CF73F
:1019300061EB07010CFB0EF7B0EB074072EB1742AF
:101940000CFB08F734BFA2EB0742B2EB074261EB96
:10195000174115EB1C154FEA813141EA92414FEADC
:10196000823242EA90424FEA80304FEA0C7644F1EC
:10197000000448EA03434EEA0B484FF0000EB2EB76
:10198000080C71EB030724BF624639464EEB0E0E7E
:101990004FF0000B0018524149414BEB0B0BB2EBDF
:1019A000080C71EB03077BF1000B24BF624639463C
:1019B0004EEB0E0E4FF0000B0018524149414BEB1D
:1019C0000B0BB2EB080C71EB03077BF1000B24BF90
:1019D000624639464EEB0E0E51EA020718BF46F03A
:1019E000010616EB0E7655F1000254F1000103D505
:1019F000BDE88901BDE80088BDE88901BDE800486F
:101A0000B619524141EB0101A3F1010370478080F7
:101A10007F7E7D7C7B7A7978777676757473727148
:101A200071706F6E6E6D6C6C6B6A6A696868676600
:101A300066656464636362616160605F5F5E5E5D92
:101A40005D5C5C5B5B5A5A59595858575756565506
:101A500055555454535352525251515050504F4F68
:101A60004F4E4E4D4D4D4C4C4C4B4B4B4A4A4A49B8
:101A700049494848484747474746464645454544FB
:101A80004444444343434342424242414141002B88
:101A900026D4770021D01CB54FEA370703B44FF0A6
:101AA00010004FF010014FF000000FBCBDE81040D7
:101AB0000BF1010BBBF1010F08BF5FEA170722BF53
:101AC00012F1010211F101014FF0004143F1000355
:101AD00000F0004043EA00007047F9D35708DAE706
:101AE00046EA064613F1400F4FEA16461FDD13F192
:101AF000200FDFBF16430A46002120335B42C8D0C7
:101B0000C3F1200746EA064602FA07F74FEA1646EF
:101B100046EA0706C3F1200722FA03F201FA07F7A3
:101B200021FA03F14FF0000342EA0702B1E746EA67
:101B3000020646EA06464FEA164646EA0106BCBFDA
:101B400046EA0646360C4FF000034FF000024FF015
:101B500000019EE72DE9C048934630B491E8380073
:101B600007C831EA400C48BF34EA430C03D5FFF7FD
:101B7000F2FDFFF78CFFF0BCBDE800882DE9C048FE
:101B8000934630B491E8380007C810F0804F08BF82
:101B900013F0804F03D100F005F8FFF778FFF0BC99
:101BA000BDE8008820F07F4780EA030023F07F4CE7
:101BB00007EB0C03A3F57C5300F00040A3F1FE03F8
:101BC00092F0000F00F0B38095F0000F00F07780E6
:101BD0002DE901494FEA11404FEA144621EA004835
:101BE00000FB06FC24EA064708FB06F607FB08F89C
:101BF00000FB07F718EB06484CEB164C4FEA124B6C
:101C000018EB07484FEA15464CEB174022EA0B4EFB
:101C10000BFB06FC25EA06470EFB06F607FB0EFE4D
:101C20000BFB07F71EEB064E4CEB164C4FF0000675
:101C30001EEB074E4CEB174B18EB0B0840F1000066
:101C400018EB0E0B58EB000840F100008F1A4FF014
:101C500000013CBFC943661B14BFB5EB040C002157
:101C60003CBFC943F61B4FEA17444EEA8E0E27EAE3
:101C700004454FEA1C4704FB07622CEA074C05FBAE
:101C800007F70CFB05F604FB0CFC16EB074642EBD2
:101C9000174216EB0C4642EB1C421BEB060658EBB8
:101CA0000202414146EA9E0601D5BDE80189B61906
:101CB000524141EB0101A3F10103BDE801894FEA63
:101CC00014454FEA114724EA054621EA074C05FB73
:101CD00007F406FB07F70CFB06F105FB0CFC11EB08
:101CE000074144EB17444FEA124711EB0C4144EB18
:101CF0001C4422EA074C05FB07F206FB07F70CFB26
:101D000006F605FB0CFC16EB074642EB174216EBFA
:101D10000C4642EB1C456A1854F1000148BF70475D
:101D2000B619524141EB0101A3F10103704795F04F
:101D3000000F37D04FEA11424FEA144721EA02461A
:101D400024EA074C02FB07F106FB07F70CFB06F43D
:101D500002FB0CFC14EB074441EB17414FEA15471B
:101D600014EB0C4441EB1C4125EA074C02FB07F540
:101D700006FB07F70CFB06F602FB0CFC16EB07460E
:101D800045EB174516EB0C4645EB1C42121951F179
:101D9000000148BF7047B619524141EB0101A3F160
:101DA000010370474FEA14454FEA114724EA0546FC
:101DB00021EA074C05FB07F106FB07F70CFB06F2CF
:101DC0004FF0000605FB0CFC12EB074241EB1741FC
:101DD00012EB0C4251EB1C4148BF7047921841EB8B
:101DE0000101A3F101037047FEE70000014800F084
:101DF0004DB900009C010020014800F047B90000E7
:101E00005801002030B590F840500124AC40C56B1B
:101E10006C60046863604368102B036803D09960AA
:101E20000068C26030BD9A600068C16030BD704714
:101E300072B6FEE730B5B3F5804F05D06FF0704154
:101E400040F82210002030BD8C690B688D68234358
:101E50004C688989240144EA0524234343EA01416B
:101E600050F82230014C23401943E9E70000F0CF3D
:101E700010B50A6850F8223023F0010340F82230F0
:101E80008C68082C23D000234A682243CC681C436A
:101E90000B6922431A434B690E4C1A43CB691A4310
:101EA0000B6A1A434B6A1A438B6A1A43CB6A1A436A
:101EB0000B6B1A438B6913434A6B09681A4350F83A
:101EC0002130A343134340F82130002010BD4023AC
:101ED000DAE700007FFF0F0030B5D1E9003443EAB4
:101EE00004138C688D89240244EA054423430C8A38
:101EF000074D00EB820005EB045423430C7D6D017C
:101F000005EB0464896923430B434360002030BD23
:101F10000000F0FF10B590F821100022022905D032
:101F20000421816380F82020012010BD01680B6826
:101F300023F00E030B6001680B6823F001030B60B4
:101F400090F84030C46B012101FA03F3636080F81C
:101F5000211080F82020104610BD00002DE9F05F10
:101F600090F821100024022903D004218163012468
:101F700085E001680A6822F00E020A6001680A68BA
:101F800022F001020A603F4E3E4FB215DFF8F4C066
:101F9000DFF8F090DFF8ECA0DFF8E8B0DFF8E4E07D
:101FA0000168783F13011502ACF1640CA9F15009E6
:101FB000AAF13C0AABF1280BAEF1140E4FF48018D5
:101FC000B14227D9B9420ED0614512D049451DD042
:101FD000514518D0594518D0714501D1424615E0F8
:101FE000294EB14201D1012210E0274E1436B142F0
:101FF00001D110220AE0244E2836B14206D0224AEE
:102000003C32914201D11A4600E02A461E49091F7E
:102010000A602BE0B94213D0614517D0494522D060
:1020200051451DD059451DD0714501D142461AE098
:10203000B14202D14FF0807215E0134EB14201D18E
:10204000012210E0104E1436B14201D110220AE0F4
:102050000D4E2836B14206D00B4A3C32914201D196
:102060001A4600E02A46074980394A60012180F873
:102070002110002180F82010416B01B188472046D3
:10208000BDE8F09F80000240080402402DE9F05FA7
:10209000C16B0A6801680B68046C4FF0040808FA09
:1020A00004F8844D844E854FDFF814C2DFF8149293
:1020B000DFF814A2DFF814B2DFF814E218EA020F16
:1020C00065D05FEA437862D50A68920603D40A684D
:1020D00022F004020A60DFF8F0814FF480620168A8
:1020E00008F1140813011402414524D9A9420DD066
:1020F000B1420FD0B9421AD0614515D0494515D02B
:10210000514501D1120312E0594501D104220EE0DC
:10211000714501D140220AE06D4D1435A94206D027
:102120006B4A2832914201D11A4600E022466749A3
:10213000091F0A6029E0A94213D0B14215D0B94263
:1021400020D061451BD049451BD0514502D14FF4E9
:10215000800217E0414502D14FF0806212E05945FC
:1021600001D104220EE0714501D140220AE0584D10
:102170001435A94206D0564A2832914201D11A4656
:1021800000E022464B4908394A60C16A71E04FF0CD
:10219000020808FA04F818EA020F70D05FEA8378A0
:1021A0006DD50A68920606D40A6822F00A020A600F
:1021B000012180F82110DFF810814FF400720168CE
:1021C00008F1140813011402414524D9A9420DD085
:1021D000B1420FD0B9421AD0614515D0494515D04A
:1021E000514501D1120312E0594501D102220EE0FE
:1021F000714501D120220AE0354D1435A94206D09F
:10220000334A2832914201D11A4600E022462F4932
:10221000091F0A6029E0A94213D0B14215D0B94282
:1022200020D061451BD049451BD0514502D14FF408
:10223000001217E0414502D14FF0007212E05945FB
:1022400001D102220EE0714501D120220AE0204D89
:102250001435A94206D01E4A2832914201D11A46AD
:1022600000E02246134908394A60002180F8201016
:10227000816A00291CD0BDE8F05F0847FFE7082508
:10228000A540154214D01A0712D50A6822F00E0292
:102290000A6090F84020C36B012101FA02F25A60F3
:1022A000816380F82110002180F82010016BE0E7A5
:1022B000BDE8F09F080002401C00024030000240D0
:1022C00044000240580002406C00024008040240F2
:1022D0001C04024030B560B11A4B026814219A42C6
:1022E00009D2194B1344B3FBF1F18900016417497A
:1022F0000AE0012030BD134B5B421344B3FBF1F104
:10230000890001640F490839C163022180F8211056
:10231000136843F6F0718B43F0E901142143D0E9CF
:1023200002452C43214304692143446921438469C4
:102330002143194311600021416301224277017753
:10234000084630BD08040240F8FFFDBF000002400F
:1023500070B5044690F82000002501280CD001201B
:1023600084F8200094F821600020012E06D084F823
:1023700020000225284670BD022070BD022684F888
:102380002160A0632068066826F0010606602046EA
:10239000FFF738FDE06A00282068016802D041F0AC
:1023A0000E0106E021F0040101602068016841F09F
:1023B0000A0101602068016841F001010160D9E76C
:1023C00030B585B00020009001900290039017482E
:1023D0000168002927D1012101601548416941F4B4
:1023E000807141614069022400F48070049041F2E0
:1023F0000100CDE900040325694603950D4800F06E
:102400001FF84FF68070CDE90004694603950A482D
:1024100000F016F84CF23370CDE9000469460395DC
:10242000064800F00DF805B030BD00002400002083
:10243000001002400020014000180140001401403B
:102440002DE9F84FDFF8C8910024A9F1040B2346C9
:102450000F2709F1040AABF1040ED1E00125A540D4
:1024600006EA0502AA4276D1DFF8A8C14E68A6EBBB
:102470000C0866452BD00DDC032E34D005DC36B3BA
:10248000012E19D0022E2FD11BE0112E16D0122EA4
:102490002AD119E0B8F5881F19D006DCB8F5803FBD
:1024A00015D0B8F5801F1FD111E0B8F5001F0ED070
:1024B000B8F5041F18D10AE0CB6815E0CB681B1DE6
:1024C00012E0CB6808330FE0CB680C330CE08B686C
:1024D0002BB1012B4FF0080303D0456104E0042326
:1024E00002E0056100E00023FF2A01D8064601E072
:1024F00000F104064FEA840501D9A5F12005D6F8BC
:10250000008007FA05FC28EA0C0803FA05F548EAFA
:102510000508C6F800804D68ED0070D53E4DAE69E7
:1025200046F00106AE61AD6924F0030605F0010531
:1025300000953A4D06EB050CDCF80850A607360F5F
:1025400007FA06F825EA0805DFF8D480404503D1EC
:102550004FF0000825E052E0DFF8C880404502D186
:102560004FF001081DE0DFF8C080404502D14FF078
:10257000020816E0DFF8B480404502D14FF00308AE
:102580000FE0DFF8AC80404502D14FF0040808E0CE
:10259000DFF8A080404502D14FF0050801E04FF080
:1025A000060808FA06F848EA0508CCF808804D68DD
:1025B000D9F80060ED024D4601D5164300E0964380
:1025C0002E604D68DAF80060AD02554601D516431D
:1025D00000E096432E604D68DBF80060AD035D4679
:1025E00001D5164300E096432E604D68DEF800608A
:1025F000ED03754601D5164300E096432E60641C3A
:102600000A681646E2407FF429AFBDE8F88F000063
:1026100008040140000011100010024000000140B9
:1026200000080140000C014000100140001401406E
:1026300000180140001C0140C26821EA02030A4060
:1026400043EA0241016170470AB101617047090420
:10265000FBE7000001488068704700002C00002064
:102660000248816802781144816070472C00002084
:10267000074810B5016841F010010160032000F027
:10268000A1F80F2000F006F800F04AF8002010BD75
:102690000020024030B505461C4887B0816941F4EE
:1026A00000618161806906A900F40060009001A8C2
:1026B00000F030F900F05EF91549164AB0FBF1F16F
:1026C0001548491E0260416040F2E7320021C0E92E
:1026D00003218160816100F049FB040012D10E48A2
:1026E00000F072FB04000DD1192000F03DF8102D10
:1026F00007D200222946192000F044F80748056057
:1027000000E0012407B0204630BD00000010024068
:1027100040420F00002C0140E0010020300000206A
:102720000F4808B5816941F001018161816901F0BB
:1027300001010091C16941F08051C161C06900226D
:1027400000F0805000900F21901E00F01BF805480B
:10275000416821F0E06141F00071416008BD000076
:102760000010024000000140002809DB00F01F02B9
:10277000012191404009800000F1E020C0F80011E3
:1027800070470000F0B40E4B1B680C46C3F30223E5
:10279000C3F10705042D00D90425191D072901D20D
:1027A000002300E0DB1E012606FA05F1491E214048
:1027B00099409E40761E16403143F0BC01F07BBB31
:1027C0000CED00E0064900F0070208684FF6FF0331
:1027D000184040EA0220034A104308607047000096
:1027E0000CED00E00000FA052DE9F0470F4605006A
:1027F00061D0434E306800F00700B84209D230681B
:1028000020F0070038433060306800F00700B8421D
:1028100051D128683B4C810712D5400703D5606829
:1028200040F4E06060602878000703D5606840F4F9
:10283000605060606068A96820F0F0000843606044
:102840002878C00728D06868012810D0216802289D
:1028500010D0890700292EDA616821F003010143B5
:102860006160FFF7F7FE804641F288390DE021688C
:102870008903EFE78901EDE7FFF7ECFEA0EB080124
:10288000494502D90320BDE8F0876068696800F017
:102890000C00B0EB810FEFD1306800F00700B842B8
:1028A0000BD9306820F0070038433060306800F002
:1028B0000700B84201D00120E5E72878400705D598
:1028C0006068E96820F4E0600843606028780007E9
:1028D00006D56068296920F4605040EAC100606054
:1028E00000F058F86168084AC1F30311515CC84010
:1028F0000649086006480068FFF7CCFE0020C2E7E2
:102900000020024000100240EA9200083800002037
:10291000300000200F2202600C4A536803F00303CA
:102920004360536803F0F0038360536803F4E0638B
:10293000C36052684FF4E06303EAD20202610448C4
:10294000006800F0070008607047000000100240B7
:10295000002002400448054900684968044AC1F360
:102960000221515CC840704738000020001002402E
:10297000FA9200080448054900684968044AC1F30E
:10298000C221515CC840704738000020001002404E
:10299000FA9200080E4A51680E4801F00C03042B0D
:1029A00011D0082B0FD10C48C1F38343C903C05C7D
:1029B0000AD55168084AC1F34041921E515C054A4C
:1029C0005043B0FBF1F070470449484370470000A2
:1029D0000010024000127A00DA92000800093D005F
:1029E0002DE9F84F040070D02078C04DC00749D0C1
:1029F0006868C0F38100012807D06868C0F38100CF
:102A0000022809D16868C00306D52868800339D533
:102A100060680028E7D035E06068B0F5803F0BD0F3
:102A200010B1B0F5A02F11D0286820F480302860B4
:102A3000286820F4802002E0286840F48030286074
:102A4000606890B1FFF706FE06460AE0286840F489
:102A500080202860F0E700BFFFF7FCFD801B6428A2
:102A600073D828688003F7D50CE0FFF7F3FD06461E
:102A700005E000BFFFF7EEFD801B6428F0D8286852
:102A80008003F7D420789A4E80074FF001094FF069
:102A9000000839D5686810F00C0F07D06868C0F3DB
:102AA0008100022809D16868C00306D4286880071D
:102AB00014D52069012808D110E02069B0B1C6F80A
:102AC0000090FFF7C7FD074605E00AE1FFF7C2FDEA
:102AD000C01B0228C4D828688007F7D52868616918
:102AE00020F0F80040EAC10028600DE0C6F8008040
:102AF000FFF7B0FD074604E0FFF7ACFDC01B02285E
:102B000023D828688007F7D4207800072CD5794887
:102B1000A169D9B1C0F80090FFF79CFD074604E019
:102B2000FFF798FDC01B02280FD8686A8007F7D509
:102B300071484FF4FA510068B0FBF1F0009000BF0B
:102B40000098411E0091FAD20EE080E0C0F80080AB
:102B5000FFF780FD074604E0FFF77CFDC01B02285D
:102B600075D8686A8007F7D42078400760D5E8698F
:102B70000027C00008D4E86940F08050E861E869A7
:102B8000012700F0805000905C480168C90513D40B
:102B90000168834641F480710160FFF75BFD824666
:102BA00006E000BFFFF756FDA0EB0A0064284ED8F0
:102BB000DBF80000C005F5D5E06801280AD008B1AF
:102BC000052813D0286A20F001002862286A20F026
:102BD000040002E0286A40F001002862E06841F247
:102BE000883B98B1FFF736FD82460BE0286A40F03B
:102BF00004002862EEE700BFFFF72CFDA0EB0A01FE
:102C000059455AD8286A8007F6D50CE0FFF722FD0F
:102C1000824605E0FFF71EFDA0EB0A0159454CD89E
:102C2000286A8007F6D41FB1E86920F08050E86177
:102C3000E06988B36968C1F38101022944D00228A0
:102C4000C6F8608004D0FFF705FD044638E034E0A4
:102C5000FFF700FD074604E0FFF7FCFCC01B02285D
:102C60002BD828688001F7D4206AB0F5803F05D1C1
:102C70006868A16820F4003008436860D4E908015E
:102C80000843696821F4741108436860C6F86090CD
:102C9000FFF7E0FC044606E025E000BFFFF7DAFCA2
:102CA000001B022809D828688001F7D51BE000BF67
:102CB000FFF7D0FC001B022802D90320BDE8F88FE3
:102CC00028688001F4D40EE00128F7D06868226AF1
:102CD00000F48031914204D1616A00F4701088429E
:102CE00001D00120EAE70020E8E7000000100240E0
:102CF0000000424280044242380000200070004040
:102D000070B515460E46040007D0A069B0F5807F67
:102D100003D094F8410010B107E0012070BD0020FD
:102D200084F84000204600F01DF804F108012068F6
:102D3000FFF79EF83146A2682068FFF7CDF8D4E986
:102D400001022946236BFFF775F8A168206850F847
:102D5000212042F0010240F82120012084F84100A6
:102D6000002070BDFFF72CBB7047704710B5040002
:102D700003D094F83D0010B107E0012010BD002001
:102D800084F83C00204600F01EF8022084F83D0044
:102D9000211D206800F068FE012084F8460084F8B8
:102DA0003E0084F83F0084F8400084F8410084F835
:102DB000420084F8430084F8440084F8450084F815
:102DC0003D00002010BD704790F83D10012901D052
:102DD00001207047022180F83D100168CA6842F066
:102DE0000102CA6000680E4988420ED00D4988422F
:102DF0000BD0B0F1804F08D00B49884205D00B4969
:102E0000884202D00A49884204D1816801F0070152
:102E1000062903D0016841F00101016000207047DC
:102E2000002C014000340140000400400008004034
:102E3000000C004070472DE9F04104460068C66868
:102E400005694FF00007A90713D5B10711D5F91E81
:102E5000016101202077206880698007204602D028
:102E6000FFF7E8FF04E000F07EF8204600F07CF871
:102E70002777680716D5700714D521686FF004000E
:102E80000861022020772068806910F4407F204686
:102E900002D0FFF7CFFF04E000F065F8204600F015
:102EA00063F82777280715D5300713D521686FF009
:102EB00008000861042020772068C0698007204648
:102EC00002D0FFF7B7FF04E000F04DF8204600F015
:102ED0004BF82777E80616D5F00614D521686FF071
:102EE00010000861082020772068C06910F4407F36
:102EF000204602D0FFF79EFF04E000F034F82046A1
:102F000000F032F82777E80708D0F00706D02168EC
:102F10006FF001000861204600F028F8280608D567
:102F2000300606D521686FF0800008612046FFF763
:102F30001BFF680608D5700606D521686FF04000B3
:102F40000861204600F01CF8A8060AD5B00608D58E
:102F500021686FF0200008612046BDE8F041FFF7CE
:102F600004BFBDE8F0817047704700000068034966
:102F7000884201D1FFF774BB70470000002C01406C
:102F80007047704770470000F8B50168044608684C
:102F9000CA684B6910F00F0F4FF000055AD003F0CC
:102FA000010602F49077374365D0C10705D0D105FB
:102FB00003D5616C41F001016164410705D5D90772
:102FC00003D0616C41F002016164810705D5D90726
:102FD00003D0616C41F004016164010707D502F080
:102FE0002001314303D0616C41F008016164616CE0
:102FF00000293BD0800604D5900602D5204600F07B
:1030000035FE20684069616CC0F3801001F0080152
:10301000014320462BD000F0F4FD206840694006B3
:1030200021D52068143050E8001F21F0400140E80D
:103030000012002AF5D1E06BA8B16D494163E06B45
:10304000FEF78CFF002811D0E06B416B01B0BDE8AA
:10305000F040084783060ED593060CD52046BDE800
:10306000F84000F003BE2046FFF78CFFF8BDFFF7E5
:1030700089FF6564F8BD266B2023012E7CD1C6062E
:103080007AD5D60678D508684868009048694FF028
:103090000206400640D5E16B086840680004000C59
:1030A000E8D0A28D8242E5D9E085886920282DD01C
:1030B00020680C3050E8001F21F4807140E80012B5
:1030C000002AF5D12168143151E8000F20F00100E9
:1030D00041E80002002AF5D12068143050E8001FB2
:1030E00021F0400140E80012002AF5D184F8423076
:1030F000256320680C3050E8001F21F0100140E8E3
:103100000012002AF5D1E06BFEF704FF6663A08D84
:10311000E18D401A81B22AE0A08DE18D401A81B282
:10312000E08D0028A6D00029A4D022680C3252E8F5
:10313000000F20F4907042E80007002FF5D12068BE
:10314000143050E8002F22F0010240E80027002F41
:10315000F5D184F84230256320680C3050E8002F08
:1031600022F0100240E80023002BF5D166632046D0
:10317000FFF707FFF8BDFFE705062BD5150629D594
:1031800094F841002128F5D1A068B0F5805F01D105
:103190002069B0B1206A411C216221680078486032
:1031A000E08C401E0004000CE084E3D12068C1687C
:1031B00021F08001C1602068C16841F04001C16018
:1031C000D8E7206A0088C0F308004860206A801CA5
:1031D0002062E5E74006CDD55006CBD5CA6820462B
:1031E00022F04002CA6084F8413000F0CDF8C1E717
:1031F000053B000870B5040004D094F84100002598
:1032000010B106E0012070BD84F84050204600F067
:1032100023F8242084F841002068C16821F400517B
:10322000C160204600F084FD2068016921F49041CE
:1032300001612068416921F02A0141612068C1686B
:1032400041F40051C1606564202084F8410084F895
:1032500042006563002070BDF0B585B000240646CD
:10326000009401940294039400682D49884255D13A
:103270002C48816941F480418161816901F4804178
:103280000491816941F0040181618069264D00F05B
:10329000040004904FF4007000900220019003207D
:1032A000039069462846FFF7CBF82815CDE90004BE
:1032B000694628460294FFF7C3F81D4D1B48802736
:1032C000C5E90004C5E9024720202C61C5E9054095
:1032D0002846EC61FEF7FEFF08B1FEF7A9FDF56395
:1032E0006E62134D11484435143801C5102091C544
:1032F0000F4845F8104944306C61AC61EC61FEF751
:10330000E9FF08B1FEF794FDB563002205212520F1
:103310006E62FFF737FA2520FFF726FA05B0F0BDF9
:1033200000380140001002400008014058000240EF
:103330005801002090F84230202B01D00220704725
:1033400021B11AB10023036300F04EBD0120704784
:103350007047704790F84130202B01D00220704711
:1033600079B172B101628284C28400214164212159
:1033700080F841100068C16841F08001C160002000
:10338000704701207047000000680449884203D15B
:103390000348006803F07EBF70470000003801401A
:1033A00018000020FEE700000D4808B5416941F013
:1033B000010141614069002200F0010000900521F7
:1033C0000E20FFF7DFF90E20FFF7CEF900220521CE
:1033D0000F20FFF7D7F9BDE808400F20FFF7C4B969
:1033E0000010024038B501211F4A084603F006FFCD
:1033F0001E4C1D4A0121A0611032084603F0FEFE5A
:10340000194A0121E0612032084603F0F7FE164A0E
:103410002062D83A0021164803F066FF124A206065
:10342000B43A0021134803F05FFF0F4A6060903AFE
:103430006946114803F058FF0B4AA0606C3A00211E
:103440000E4803F051FF084AE060483A00210C485A
:1034500003F04AFF044A2061243A6946094803F010
:1034600043FF606138BD0000A89200080000002002
:10347000D9390008413900083D360008DD37000819
:103480007D380008ED38000810B58EB01C21684664
:10349000FDF76EF91C2107A8FDF76AF91C484FF0EB
:1034A0002041102201601B494160062181600021FA
:1034B000C160C0E904128161C16113020162C0E907
:1034C00009139302C0E90B13416381630F20FF23AB
:1034D0000090CDE901030DF10C0C11248CE81500CE
:1034E000CDE90803CDE906100AAB0D9183E815007C
:1034F00007AA69460648FFF703FC08B1FEF798FCE7
:103500000548C16941F48061C1610EB010BD000081
:10351000C8000020040100A0000001402DE9F04394
:1035200085B0002533480095019502950395816982
:1035300041F040018161816901F04001049181699C
:1035400041F010018161816901F0100104918169EC
:1035500041F008018161816901F0080104918169EC
:1035600041F480718161816901F480710491816904
:1035700041F020018161816901F02001049181699C
:1035800041F0040181618069DFF86C8000F0040083
:103590000490012220214046FFF756F8DFF85C90A6
:1035A000002201214846FFF74FF80122202148461A
:1035B000FFF74AF8012420260327CDE90064CDE96E
:1035C000024769464046FEF73BFF0220CDE9025024
:1035D0000094694601944846FEF732FFCDE9006445
:1035E000CDE9024769464846FEF72AFF05B0BDE827
:1035F000F08300000010024000180140000C014060
:103600000C4810B50A4901604FF416514160002181
:1036100081600C22C160C0E904128161C161FFF7C1
:10362000E9FD002803D0BDE81040FEF701BC10BD45
:103630000038014010010020FEE7FEE786B0064694
:10364000482000F04FFC03F02DF94FF6FF7000F01A
:103650006FFC454845A1828803A8FCF78BFE002437
:103660004FF0800B4FF018084FF478494FF0100AD4
:1036700041484FF0FF31006803F092FDCDF8008023
:10368000CDE901B40A215F46454632780223084657
:1036900003F07DFC39A00095CDE901042023F02240
:1036A0000A21222003F048FC0095CDE901747278CC
:1036B00002230A212E2003F06AFC30A00095CDE9F8
:1036C00001042023F0220A21462003F035FC009556
:1036D000CDE90174B27802230A21522003F057FC8D
:1036E00020204F4626A18DE883000346F0222821A2
:1036F0000A2003F021FC26A0CDE900501823F02277
:10370000502102970A2003F017FC24A0CDE900A065
:1037100055461023F0226E2102970A2003F00CFC7C
:1037200003A8CDE900501023F022822102970A203D
:1037300003F002FC1DA00095CDE901041023F02246
:1037400096210A2003F0F8FB1D480095CDE90104FD
:103750001023F022AA210A2003F0EEFB184919A039
:1037600003F0BEFC84E70000DC2700204C4344202B
:1037700049443A2530345800200000203A00000027
:1037800053544D3332463130335A455436000000DD
:103790005446544C43442054455354005573657269
:1037A0003A436F737369616E74000000554152545F
:1037B00020726561642064617461206973203A003D
:1037C0002E2700204C434420726566726573682082
:1037D00064617461206973203A2573000025022614
:1037E000124C012712A11548FCF7EAFF18B914A0E2
:1037F00003F076FC257016A11048FCF7E1FF18B91C
:1038000015A003F06DFC267017A10C48FCF7D8FF3B
:1038100018B917A003F064FC277032210748FCF7A1
:1038200085FF642003F080FCDCE70000BC00002082
:103830004C45445F4155544F000000006027002074
:103840004E6F77204C4544204155544F21000000D5
:103850004C45445F4F4646004E6F77204C45442010
:103860004F464621000000004C45445F4F4E00008B
:103870004E6F77204C4544204F4E2100184C194E76
:10388000194F03254FF47A782078032825D020B1EA
:1038900001280BD002281BD10FE020213046FEF773
:1038A000CBFE20213846FEF7C7FE11E00022202182
:1038B0003046FEF7C9FE002205E0012220213046F5
:1038C000FEF7C2FE012220213846FEF7BDFE25701C
:1038D0004FEA080003F028FCD6E76420FAE700006E
:1038E000BC000020000C01400018014004461720D5
:1038F00020703B2060703220104EA07000254FF4E5
:103900007A77A078401CC0B2A0703C280ED3A57076
:103910006078401CC0B260703C2807D36570207886
:10392000401CC0B22070182800D32570306803F006
:10393000B1FC384603F0F8FBE3E70000200000206C
:103940008EB0002434216846FCF712FF1D48006841
:10395000C16841F01001C160322269461948FFF781
:10396000E9FCDFF86490DFF864A0DFF86480DFF83A
:1039700064B06F464FF0FF31D9F8000003F010FC3F
:10398000DAF8000040680025C0F1320086B232212A
:103990000F48FCF7CBFE404608E0395D4155641CFA
:1039A0006D1CA4B2ADB2322C00D30024B442F4D1C9
:1039B000074901F13200FCF729FEDBF8000003F0B3
:1039C00069FCD7E7100100201C00002058010020EE
:1039D0002E27002020000020012003F0A5FBFBE79C
:1039E00010B54FF0E020006905F092F8012803D0EF
:1039F000BDE8104004F00ABC10BD30B58FB02821DE
:103A00006846FCF7B5FE14210AA8FCF7B1FE0121B7
:103A10000804CDE900100024029402250491CDE9A8
:103A200007504FF4E01009906846FEF7D9FF08B13F
:103A300072B6FEE70F20CDE90A054FF48060CDE9AC
:103A40000C4002210AA80E94FEF7CEFE002801D0F9
:103A500072B6FEE70FB030BD704700000148FFF7B7
:103A6000EAB90000E0010020F0B50268204C214DC9
:103A7000214E224F224B4FF0804CA04209D0984259
:103A800007D0604505D0A84203D0B04201D0B8426B
:103A900004D122F0700E4A6842EA0E02A04209D018
:103AA000984207D0604505D0A84203D0B04201D06B
:103AB000B84203D122F44075CA682A434D6922F006
:103AC00080022A4302608A68C2620A688262A04257
:103AD00001D0984201D10969016301214161016965
:103AE000C90703D0016921F001010161F0BD0000A7
:103AF000002C01400004004000080040000C004081
:103B00000034014010B5406A0021C185C184FFF72F
:103B100039FA10BD70B5446A2068406994F84110C4
:103B2000C0F3C0100025212904D118B1E584204636
:103B300000F08EF82068406994F84210C0F38010BD
:103B4000222904D118B1E585204600F05AF8606CAE
:103B500040F0100060642046FFF714FA70BD10B505
:103B60000146406A096809684FF0000289062ED4B0
:103B7000C28501680C3151E8003F23F4807341E8AD
:103B80000034002CF5D10168143151E8003F23F0D6
:103B9000010341E80034002CF5D10168143151E8EB
:103BA000003F23F0400341E80034002CF5D12021F0
:103BB00080F84210016B012909D101680C3151E8EC
:103BC000003F23F0100341E80034002CF5D142639C
:103BD000016B012902D0FFF7BBFB10BD818DFFF700
:103BE000D0F910BD10B5406A01214163016B012974
:103BF00002D0FFF7AEFB10BD818D4908FFF7C1F978
:103C000010BD01680C3151E8002F22F4907241E898
:103C10000023002BF5D10168143151E8002F22F068
:103C2000010241E80023002BF5D1016B012909D1E4
:103C300001680C3151E8002F22F0100241E8002306
:103C4000002BF5D1202180F842100021016370473C
:103C500001680C3151E8002F22F0C00241E8002336
:103C6000002BF5D1202180F84110704708B590F85D
:103C70004210222901D0022008BD82684FF48053EF
:103C80009A4201D1016921B1816A9A421BD04AB19D
:103C90000AE00268816A5268C2F308020A80816AF7
:103CA000891C08E0026972B10268526802F07F0262
:103CB0000A70816A491C8162C18D491E0904090C80
:103CC000C18503D01BE002685268F1E70168CA6849
:103CD00022F02002CA600168CA6822F48072CA60B9
:103CE00001684A6922F001024A61202180F84210ED
:103CF00000214163026B012A03D0FFF729FB00205A
:103D000008BD016301680C3151E8002F22F0100258
:103D100041E80023002BF5D101680A68D20602D5DC
:103D20000A6849680091818DFFF72BF9E7E70000E9
:103D300070B5044600680169E26821F440511143FE
:103D400001612169A0680843616908432168CA6864
:103D500041F20C639A430243CA6020684169A26938
:103D600021F44071114341611E492068884202D10B
:103D7000FEF700FE01E0FEF7EDFD00EBC00101EBF8
:103D80000012606864218000B2FBF0F3B3FBF1F332
:103D90006FF018067343B2FBF0F5B2FBF0F605EBDB
:103DA0008305322303EB0515B5FBF1F5B6FBF1F600
:103DB00005F0F00505EB0615B2FBF0F6B2FBF0F0EE
:103DC000B0FBF1F06FF01802504306EB800003EBFC
:103DD0000010B0FBF1F0216800F00F00284488606B
:103DE00070BD00000038014038B58162044682850C
:103DF000002013466064222284F84220E56B1B4AAF
:103E0000AA62E56B1A4AEA62E56B1A4A2A63E26B18
:103E100050630A462168E06B091DFEF799FA206895
:103E2000016840680090206948B120680C3050E873
:103E3000001F41F4807140E80012002AF5D120688B
:103E4000143050E8001F41F0010140E80012002A40
:103E5000F5D12068143050E8001F41F0400140E8DF
:103E60000012002AF5D1002038BD00005F3B000899
:103E7000E53B0008153B000810B503F0CFFEBDE898
:103E800010400148FFF780B810010020FEE749000C
:103E900050EAC12018BF04204A0D18BF40F00100AD
:103EA00040F2FF72B2EB515F08BF40F00200012800
:103EB00008BF052070470907090E002804DB00F140
:103EC000E02080F80014704700F00F0000F1E020BF
:103ED00080F8141D704730380A2801D2012070473D
:103EE000002070470149086070470000C4000020AE
:103EF0004FF47A71484300F001B8000070B54FF0FC
:103F0000E024002265690949A36909684843A16959
:103F10009942FCD002D2A3EB010302E0A5EB01061B
:103F200033441A440B468242F1D370BDC4000020D2
:103F300070B509490646002408884D882146454346
:103F4000204602F00FFF03F0A5F8044801E00680C8
:103F5000641CAC42FBD370BDDC2700200008006C61
:103F60002DE9F04F38492C260A46887192884FF483
:103F7000305A4FF4285B41F6631E2B274FF02A0C72
:103F80004FF0F00845F210594FF448754FF4A07403
:103F90004FF4F07358B10C80A1F802804A4530D13B
:103FA000A1F808A0A1F80AB03802888141E0A1F880
:103FB00000804C804A4507D1A1F808A0A1F80AB0BA
:103FC0004FF42C50888105E072450E8105D14F8158
:103FD000A1F80CC00B804D8002E0A1F80AC08F81CF
:103FE000A2F5A640103803D0A2F5EE40963801D1D4
:103FF0000C804B80A2F5184006381FD10B804D80F5
:104000001CE0724511D0A2F5184006380DD00E8183
:10401000A1F80AC0A1F80C70A2F5A64010380BD088
:10402000A2F5EE40963807D008E00E81A1F80AC04C
:104030008F810D804B80EFE70B804C80BDE8F04F07
:10404000002002F0CFBD0000DC27002010B5144690
:1040500002F088FE03F01EF80148048010BD000045
:104060000008006C10B5CF2003F008F8002002F023
:10407000F9FFC12002F0F6FF302002F0F3FFED203F
:1040800002F0FCFF642002F0EDFF032002F0EAFFE3
:10409000122002F0E7FF812002F0E4FFE82002F0A6
:1040A000EDFF852002F0DEFF102002F0DBFF7A201A
:1040B00002F0D8FFCB2002F0E1FF392002F0D2FF5E
:1040C0002C2002F0CFFF002002F0CCFF342002F0C1
:1040D000C9FF022002F0C6FFF72002F0CFFF202028
:1040E00002F0C0FFEA2002F0C9FF002002F0BAFF90
:1040F000002002F0B7FFC02002F0C0FF1B2002F03A
:10410000B1FFC12002F0BAFF012002F0ABFFC520D1
:1041100002F0B4FF302002F0A5FF302002F0A2FF31
:10412000C72002F0ABFFB72002F09CFF362002F060
:10413000A5FF482002F096FF3A2002F09FFF55208D
:1041400002F090FFB12002F099FF002002F08AFFF8
:104150001A2002F087FFB62002F090FF0A2002F03A
:1041600081FFA22002F07EFFF22002F087FF0020F4
:1041700002F078FF262002F081FF012002F072FF9A
:10418000E02002F07BFF0F2002F06CFF2A2002F0FB
:1041900069FF282002F066FF082002F063FF0E206E
:1041A00002F060FF082002F05DFF542002F05AFF89
:1041B000A92002F057FF432002F054FF0A2002F02A
:1041C00051FF0F2002F04EFF002002F04BFF0020B5
:1041D00002F048FF002002F045FF002002F042FFFD
:1041E000E12002F04BFF002002F03CFF152002F01E
:1041F00039FF172002F036FF072002F033FF1120AD
:1042000002F030FF062002F02DFF2B2002F02AFFE3
:10421000562002F027FF3C2002F024FF052002F088
:1042200021FF102002F01EFF0F2002F01BFF3F2095
:1042300002F018FF3F2002F015FF0F2002F012FFDE
:104240002B2002F01BFF002002F00CFF002002F0E8
:1042500009FF012002F006FF3F2002F003FF2A20A1
:1042600002F00CFF002002F0FDFE002002F0FAFE3A
:10427000002002F0F7FEEF2002F0F4FE112002F021
:10428000FDFE782002F050FFBDE81040292002F02A
:10429000F5BE10B5FF2002F0F1FEFF2002F0E2FEB5
:1042A000982002F0DFFE062002F0DCFEBC2002F0C7
:1042B000E5FE012002F0D6FE0F2002F0D3FE6120C1
:1042C00002F0D0FEFF2002F0CDFE012002F0CAFE77
:1042D000012002F0C7FE0B2002F0C4FE102002F005
:1042E000C1FE372002F0BEFE632002F0BBFEFF20BD
:1042F00002F0B8FEFF2002F0B5FE012002F0B2FE8F
:10430000012002F0AFFE002002F0ACFE002002F01F
:10431000A9FEFF2002F0A6FE522002F0A3FE01201B
:1043200002F0A0FE002002F09DFE402002F09AFE66
:10433000BD2002F0A3FE012002F094FE232002F033
:1043400091FE452002F08EFE672002F08BFE0120D8
:1043500002F088FE232002F085FE452002F082FE56
:10436000672002F07FFEBE2002F088FE002002F0EF
:1043700079FE012002F076FEAB2002F073FE602091
:1043800002F070FE222002F06DFE222002F06AFE92
:10439000222002F067FE222002F064FE222002F0BA
:1043A00061FEC72002F06AFE362002F05BFEED20BF
:1043B00002F064FE7F2002F055FE0F2002F052FE54
:1043C000C02002F05BFE0F2002F04CFE0B2002F03A
:1043D00049FE0A2002F046FEFC2002F04FFE0820B3
:1043E00002F040FEDF2002F049FE002002F03AFE1B
:1043F000002002F037FE002002F034FE002002F020
:1044000031FE002002F02EFE202002F02BFEF320D1
:1044100002F034FE742002F025FEB42002F02EFEDD
:10442000002002F01FFE002002F01CFE002002F01F
:1044300019FEF72002F022FE822002F013FEB120C6
:1044400002F01CFE002002F00DFE132002F00AFE16
:10445000132002F007FEF22002F010FE802002F08E
:1044600001FE042002F0FEFD402002F0FBFD2820AA
:1044700002F0F8FDC12002F001FE172002F0F2FD6B
:10448000882002F0EFFD882002F0ECFD202002F0F1
:10449000E9FDE02002F0F2FD002002F0E3FD0A2039
:1044A00002F0E0FD122002F0DDFD102002F0DAFD46
:1044B0000E2002F0D7FD202002F0D4FDCC2002F027
:1044C000D1FD072002F0CEFD062002F0CBFD0B202F
:1044D00002F0C8FD0E2002F0C5FD0F2002F0C2FD63
:1044E0000D2002F0BFFD152002F0BCFD102002F0EF
:1044F000B9FD002002F0B6FDE12002F0BFFD002072
:1045000002F0B0FD0B2002F0ADFD132002F0AAFD79
:104510000D2002F0A7FD0E2002F0A4FD1B2002F0EA
:10452000A1FD712002F09EFD062002F09BFD0620F9
:1045300002F098FD0A2002F095FD0F2002F092FD96
:104540000E2002F08FFD0F2002F08CFD152002F0EE
:1045500089FD0C2002F086FD002002F083FD2A2058
:1045600002F08CFD002002F07DFD002002F07AFDBB
:10457000012002F077FDDF2002F074FD2B2002F015
:104580007DFD002002F06EFD002002F06BFD032097
:1045900002F068FD1F2002F065FD3A2002F06EFD7A
:1045A000552002F05FFD362002F068FD002002F089
:1045B00059FD112002F062FD782002F0B5FD29209E
:1045C00002F05CFD142002F0AFFDBDE810402C208D
:1045D00002F054BD10B5ED2002F050FD012002F0B4
:1045E00041FDFE2002F03EFDEE2002F047FDDE2000
:1045F00002F038FD212002F035FDF12002F03EFDF1
:10460000012002F02FFDDF2002F038FD102002F023
:1046100029FDC42002F032FD8F2002F023FDC620C8
:1046200002F02CFD002002F01DFDE22002F01AFD38
:10463000E22002F017FDE22002F014FDBF2002F09C
:104640001DFDAA2002F00EFDB02002F017FD0D2086
:1046500002F008FD002002F005FD0D2002F002FD31
:10466000002002F0FFFC112002F0FCFC002002F010
:10467000F9FC192002F0F6FC002002F0F3FC2120E6
:1046800002F0F0FC002002F0EDFC2D2002F0EAFC2C
:10469000002002F0E7FC3D2002F0E4FC002002F0E4
:1046A000E1FC5D2002F0DEFC002002F0DBFC5D207E
:1046B00002F0D8FC002002F0D5FCB12002F0DEFCB4
:1046C000802002F0CFFC002002F0CCFC8B2002F016
:1046D000C9FC002002F0C6FC962002F0C3FC0020BA
:1046E00002F0C0FCB22002F0C9FC002002F0BAFCCB
:1046F000002002F0B7FC022002F0B4FC002002F01F
:10470000B1FC032002F0AEFC002002F0ABFCB320B1
:1047100002F0B4FC002002F0A5FC002002F0A2FC94
:10472000002002F09FFC002002F09CFC002002F020
:1047300099FC002002F096FC002002F093FC00207F
:1047400002F090FC002002F08DFC002002F08AFCB8
:10475000002002F087FC002002F084FC002002F020
:1047600081FC002002F07EFC002002F07BFC002097
:1047700002F078FC002002F075FC002002F072FCD0
:10478000002002F06FFC002002F06CFC002002F020
:1047900069FC002002F066FC002002F063FC0020AF
:1047A00002F060FCB42002F069FC8B2002F05AFC9D
:1047B000002002F057FC962002F054FC002002F08A
:1047C00051FCA12002F04EFC002002F04BFCB52071
:1047D00002F054FC022002F045FC002002F042FCF2
:1047E000032002F03FFC002002F03CFC042002F019
:1047F00039FC002002F036FCB62002F03FFC00201D
:1048000002F030FC002002F02DFCB72002F036FC54
:10481000002002F027FC002002F024FC3F2002F0E0
:1048200021FC002002F01EFC5E2002F01BFC002098
:1048300002F018FC642002F015FC002002F012FCCB
:104840008C2002F00FFC002002F00CFCAC2002F0E7
:1048500009FC002002F006FCDC2002F003FC002032
:1048600002F000FC702002F0FDFB002002F0FAFBD9
:10487000902002F0F7FB002002F0F4FBEB2002F0A6
:10488000F1FB002002F0EEFBDC2002F0EBFB00204D
:1048900002F0E8FBB82002F0F1FB002002F0E2FB9E
:1048A000002002F0DFFB002002F0DCFB002002F021
:1048B000D9FB002002F0D6FB002002F0D3FB002041
:1048C00002F0D0FB002002F0CDFBBA2002F0D6FBB4
:1048D000242002F0C7FB002002F0C4FB002002F0FD
:1048E000C1FB002002F0BEFBC12002F0C7FB20206C
:1048F00002F0B8FB002002F0B5FB542002F0B2FB3E
:10490000002002F0AFFBFF2002F0ACFB002002F021
:10491000A9FBC22002F0B2FB0A2002F0A3FB002098
:1049200002F0A0FB042002F09DFB002002F09AFBA5
:10493000C32002F0A3FB3C2002F094FB002002F015
:1049400091FB3A2002F08EFB002002F08BFB392015
:1049500002F088FB002002F085FB372002F082FB8A
:10496000002002F07FFB3C2002F07CFB002002F0E4
:1049700079FB362002F076FB002002F073FB322038
:1049800002F070FB002002F06DFB2F2002F06AFBAA
:10499000002002F067FB2C2002F064FB002002F0F4
:1049A00061FB292002F05EFB002002F05BFB262069
:1049B00002F058FB002002F055FB242002F052FBCD
:1049C000002002F04FFB242002F04CFB002002F0FC
:1049D00049FB232002F046FB002002F043FB3C2071
:1049E00002F040FB002002F03DFB362002F03AFBD3
:1049F000002002F037FB322002F034FB002002F0EE
:104A000031FB2F2002F02EFB002002F02BFB2C208C
:104A100002F028FB002002F025FB292002F022FBF7
:104A2000002002F01FFB262002F01CFB002002F0F9
:104A300019FB242002F016FB002002F013FB2420B7
:104A400002F010FB002002F00DFB232002F00AFB15
:104A5000002002F007FBC42002F010FB622002F0ED
:104A600001FB002002F0FEFA052002F0FBFA002014
:104A700002F0F8FA842002F0F5FA002002F0F2FACF
:104A8000F02002F0EFFA002002F0ECFA182002F019
:104A9000E9FA002002F0E6FAA42002F0E3FA00208E
:104AA00002F0E0FA182002F0DDFA002002F0DAFA53
:104AB000502002F0D7FA002002F0D4FA0C2002F0C5
:104AC000D1FA002002F0CEFA172002F0CBFA002033
:104AD00002F0C8FA952002F0C5FA002002F0C2FAEE
:104AE000F32002F0BFFA002002F0BCFAE62002F048
:104AF000B9FA002002F0B6FAC52002F0BFFA32205F
:104B000002F0B0FA002002F0ADFA442002F0AAFA56
:104B1000002002F0A7FA652002F0A4FA002002F0BB
:104B2000A1FA762002F09EFA002002F09BFA88207B
:104B300002F098FA002002F095FAC62002F09EFAE0
:104B4000202002F08FFA002002F08CFA172002F0E9
:104B500089FA002002F086FA012002F083FA002090
:104B600002F080FAC72002F089FA002002F07AFAF7
:104B7000002002F077FA002002F074FA002002F020
:104B800071FAC82002F07AFA002002F06BFA0020D5
:104B900002F068FA002002F065FA002002F062FAE2
:104BA000C92002F06BFA002002F05CFA002002F04B
:104BB00059FA002002F056FA002002F053FA0020C1
:104BC00002F050FA002002F04DFA002002F04AFAFA
:104BD000002002F047FA002002F044FA002002F020
:104BE00041FA002002F03EFA002002F03BFA0020D9
:104BF00002F038FA002002F035FA002002F032FA12
:104C0000002002F02FFAE02002F038FA162002F01D
:104C100029FA002002F026FA1C2002F023FA0020D4
:104C200002F020FA212002F01DFA002002F01AFA08
:104C3000362002F017FA002002F014FA462002F0A3
:104C400011FA002002F00EFA522002F00BFA0020B6
:104C500002F008FA642002F005FA002002F002FADD
:104C60007A2002F0FFF9002002F0FCF98B2002F01C
:104C7000F9F9002002F0F6F9992002F0F3F900208A
:104C800002F0F0F9A82002F0EDF9002002F0EAF9B4
:104C9000B92002F0E7F9002002F0E4F9C42002F0A4
:104CA000E1F9002002F0DEF9CA2002F0DBF9002071
:104CB00002F0D8F9D22002F0D5F9002002F0D2F9A2
:104CC000D92002F0CFF9002002F0CCF9E02002F068
:104CD000C9F9002002F0C6F9F32002F0C3F9002060
:104CE00002F0C0F9E12002F0C9F9162002F0BAF989
:104CF000002002F0B7F91C2002F0B4F9002002F005
:104D0000B1F9222002F0AEF9002002F0ABF9362012
:104D100002F0A8F9002002F0A5F9452002F0A2F95E
:104D2000002002F09FF9522002F09CF9002002F0CE
:104D300099F9642002F096F9002002F093F97A20A4
:104D400002F090F9002002F08DF98B2002F08AF930
:104D5000002002F087F9992002F084F9002002F087
:104D600081F9A82002F07EF9002002F07BF9B92039
:104D700002F078F9002002F075F9C42002F072F90F
:104D8000002002F06FF9CA2002F06CF9002002F056
:104D900069F9D22002F066F9002002F063F9D82008
:104DA00002F060F9002002F05DF9E02002F05AF90B
:104DB000002002F057F9F32002F054F9002002F02D
:104DC00051F9E22002F05AF9052002F04BF90020D7
:104DD00002F048F90B2002F045F9002002F042F9F8
:104DE0001B2002F03FF9002002F03CF9342002F0D1
:104DF00039F9002002F036F9442002F033F900209E
:104E000002F030F94F2002F02DF9002002F02AF9CB
:104E1000612002F027F9002002F024F9792002F045
:104E200021F9002002F01EF9882002F01BF9002071
:104E300002F018F9972002F015F9002002F012F99B
:104E4000A62002F00FF9002002F00CF9B72002F0C2
:104E500009F9002002F006F9C22002F003F900204F
:104E600002F000F9C72002F0FDF8002002F0FAF885
:104E7000D12002F0F7F8002002F0F4F8D62002F07A
:104E8000F1F8002002F0EEF8DD2002F0EBF800204F
:104E900002F0E8F8F32002F0E5F8002002F0E2F872
:104EA000E32002F0EBF8052002F0DCF8002002F02D
:104EB000D9F80A2002F0D6F8002002F0D3F81C201E
:104EC00002F0D0F8002002F0CDF8332002F0CAF84A
:104ED000002002F0C7F8442002F0C4F8002002F0DD
:104EE000C1F8502002F0BEF8002002F0BBF86220AA
:104EF00002F0B8F8002002F0B5F8782002F0B2F81D
:104F0000002002F0AFF8882002F0ACF8002002F098
:104F1000A9F8972002F0A6F8002002F0A3F8A62036
:104F200002F0A0F8002002F09DF8B72002F09AF8F5
:104F3000002002F097F8C22002F094F8002002F05E
:104F400091F8C72002F08EF8002002F08BF8D120F3
:104F500002F088F8002002F085F8D52002F082F8EF
:104F6000002002F07FF8DD2002F07CF8002002F043
:104F700079F8F32002F076F8002002F073F8E420CC
:104F800002F07CF8012002F06DF8002002F06AF8CF
:104F9000012002F067F8002002F064F8022002F01D
:104FA00061F8002002F05EF82A2002F05BF8002091
:104FB00002F058F83C2002F055F8002002F052F8B8
:104FC0004B2002F04FF8002002F04CF85D2002F078
:104FD00049F8002002F046F8742002F043F800205F
:104FE00002F040F8842002F03DF8002002F03AF888
:104FF000932002F037F8002002F034F8A22002F0EB
:1050000031F8002002F02EF8B32002F02BF8002037
:1050100002F028F8BE2002F025F8002002F022F865
:10502000C42002F01FF8002002F01CF8CD2002F08E
:1050300019F8002002F016F8D32002F013F800202F
:1050400002F010F8DD2002F00DF8002002F00AF85E
:10505000F32002F007F8002002F004F8E52002F047
:105060000DF8002001F0FEFF002001F0FBFF002002
:1050700001F0F8FF002001F0F5FF022001F0F2FF3F
:10508000002001F0EFFF292001F0ECFF002001F0EB
:10509000E9FF3C2001F0E6FF002001F0E3FF4B2098
:1050A00001F0E0FF002001F0DDFF5D2001F0DAFFFC
:1050B000002001F0D7FF742001F0D4FF002001F0A0
:1050C000D1FF842001F0CEFF002001F0CBFF932020
:1050D00001F0C8FF002001F0C5FFA22001F0C2FFCF
:1050E000002001F0BFFFB32001F0BCFF002001F061
:1050F000B9FFBE2001F0B6FF002001F0B3FFC420CD
:1051000001F0B0FF002001F0ADFFCD2001F0AAFFBB
:10511000002001F0A7FFD32001F0A4FF002001F040
:10512000A1FFDC2001F09EFF002001F09BFFF32097
:1051300001F098FF002001F095FFE62001F09EFFAE
:10514000112001F08FFF002001F08CFF342001F0CE
:1051500089FF002001F086FF562001F083FF002028
:1051600001F080FF762001F07DFF002001F07AFF42
:10517000772001F077FF002001F074FF662001F036
:1051800071FF002001F06EFF882001F06BFF00200E
:1051900001F068FF992001F065FF002001F062FF37
:1051A000BB2001F05FFF002001F05CFF992001F0BF
:1051B00059FF002001F056FF662001F053FF002048
:1051C00001F050FF552001F04DFF002001F04AFF93
:1051D000552001F047FF002001F044FF452001F079
:1051E00041FF002001F03EFF432001F03BFF002083
:1051F00001F038FF442001F035FF002001F032FFBC
:10520000E72001F03BFF322001F02CFF002001F0ED
:1052100029FF552001F026FF002001F023FF762012
:1052200001F020FF002001F01DFF662001F01AFFB1
:10523000002001F017FF672001F014FF002001F0AB
:1052400011FF672001F00EFF002001F00BFF872007
:1052500001F008FF002001F005FF992001F002FF96
:10526000002001F0FFFEBB2001F0FCFE002001F059
:10527000F9FE992001F0F6FE002001F0F3FE772000
:1052800001F0F0FE002001F0EDFE442001F0EAFE06
:10529000002001F0E7FE562001F0E4FE002001F0BE
:1052A000E1FE232001F0DEFE002001F0DBFE3320D2
:1052B00001F0D8FE002001F0D5FE452001F0D2FE1D
:1052C000002001F0CFFEE82001F0D8FE002001F020
:1052D000C9FE002001F0C6FE992001F0C3FE0020A7
:1052E00001F0C0FE872001F0BDFE002001F0BAFEF3
:1052F000882001F0B7FE002001F0B4FE772001F015
:10530000B1FE002001F0AEFE662001F0ABFE0020F1
:1053100001F0A8FE882001F0A5FE002001F0A2FE09
:10532000AA2001F09FFE002001F09CFEBB2001F0AE
:1053300099FE002001F096FE992001F093FE0020D6
:1053400001F090FE662001F08DFE002001F08AFE43
:10535000552001F087FE002001F084FE552001F069
:1053600081FE002001F07EFE442001F07BFE002043
:1053700001F078FE442001F075FE002001F072FE7D
:10538000552001F06FFE002001F06CFEE92001F0D5
:1053900075FEAA2001F066FE002001F063FE0020E9
:1053A00001F060FE002001F05DFE002001F066FECD
:1053B000AA2001F057FECF2001F060FE002001F08E
:1053C00051FE002001F04EFE002001F04BFE0020B7
:1053D00001F048FE002001F045FE002001F042FEF1
:1053E000002001F03FFE002001F03CFE002001F013
:1053F00039FE002001F036FE002001F033FE0020CF
:1054000001F030FE002001F02DFE002001F02AFE08
:10541000002001F027FE002001F024FE002001F012
:1054200021FEF02001F02AFE002001F01BFE50209A
:1054300001F018FE002001F015FE002001F012FE20
:10544000002001F00FFEF32001F018FE002001F013
:1054500009FEF92001F012FE062001F003FE1020E3
:1054600001F000FE292001F0FDFD002001F0FAFD11
:105470003A2001F003FE552001F0F4FD112001F067
:10548000FDFD642001F050FE292001F0F7FD3520DC
:1054900001F0F4FD002001F0E5FD512001F0EEFDEA
:1054A000FF2001F0DFFD532001F0E8FD2C2001F08A
:1054B000D9FD552001F0E2FD822001F0D3FDBDE8C9
:1054C00010402C2001F0DABD2DE9F05F4FF470435D
:1054D0005521184601F0E8FD4FF20104AA212046AB
:1054E00001F0E2FD651C5221284601F0DDFDA61CFD
:1054F0000821304601F0D8FDE71C0121384601F0B3
:10550000D3FD0D214FF4304001F0CEFD0D214BF2C3
:10551000010001F0C9FD0D214BF2020001F0C4FDB4
:105520004FF436483421404601F0BEFD34214BF2A1
:10553000016001F0B9FD34214BF2026001F0B4FDCD
:105540004FF431490D21484601F0AEFD4BF2011AEE
:105550000D21504601F0A8FD0D214BF2021001F083
:10556000A3FD4FF4374B3421584601F09DFD342103
:105570004BF2017001F098FD34214BF2027001F002
:1055800093FD00214FF4324001F08EFD00214BF2DB
:10559000012001F089FD00214BF2022001F084FD81
:1055A00024214FF4384001F07FFD24214BF6010007
:1055B00001F07AFD24214BF6020001F075FD012176
:1055C0004FF43F4001F070FD0F214FF4334001F0E4
:1055D0006BFD0F214BF2013001F066FD0F214BF204
:1055E000023001F061FD34214FF4394001F05CFDDF
:1055F00034214BF6011001F057FD34214BF6021017
:1056000001F052FD08214FF4354001F04DFD082115
:105610004BF2015001F048FD08214BF2025001F01D
:1056200043FD03214FF4424001F03EFD24214FF49D
:105630003A4001F039FD24214BF6012001F034FD00
:1056400024214BF6022001F02FFD00214FF43C40B5
:1056500001F02AFD78214BF6014001F025FD0021E3
:105660004BF6024001F020FD00214FF43D4001F0D7
:105670001BFD78214BF6015001F016FD00214BF681
:10568000025001F011FD00214FF43E4001F00CFDED
:1056900064214BF6016001F007FD00214FF45140F9
:1056A00001F002FD33214DF2011001F0FDFC00215B
:1056B0004DF2021001F0F8FC34214DF2031001F01C
:1056C000F3FC00214DF2041001F0EEFC3A214DF202
:1056D000051001F0E9FC00214DF2061001F0E4FC98
:1056E0004A214DF2071001F0DFFC00214DF20810B5
:1056F00001F0DAFC5C214DF2091001F0D5FC00212B
:105700004DF20A1001F0D0FC81214DF20B1001F096
:10571000CBFC00214DF20C1001F0C6FCA6214DF28D
:105720000D1001F0C1FC00214DF20E1001F0BCFC87
:10573000E5214DF20F1001F0B7FC01214DF21010E0
:1057400001F0B2FC13214DF2111001F0ADFC01216A
:105750004DF2121001F0A8FC54214DF2131001F08B
:10576000A3FC01214DF2141001F09EFC82214DF2A8
:10577000151001F099FC01214DF2161001F094FC76
:10578000CA214DF2171001F08FFC02214DF21810C2
:1057900001F08AFC00214DF2191001F085FC022174
:1057A0004DF21A1001F080FC01214DF21B1001F0A6
:1057B0007BFC02214DF21C1001F076FC34214DF2ED
:1057C0001D1001F071FC02214DF21E1001F06CFC65
:1057D00067214DF21F1001F067FC02214DF22010ED
:1057E00001F062FC84214DF2211001F05DFC0221E8
:1057F0004DF2221001F058FCA4214DF2231001F0CB
:1058000053FC02214DF2241001F04EFCB7214DF261
:10581000251001F049FC02214DF2261001F044FC54
:10582000CF214DF2271001F03FFC02214DF228104C
:1058300001F03AFCDE214DF2291001F035FC022185
:105840004DF22A1001F030FCF2214DF22B1001F044
:105850002BFC02214DF22C1001F026FCFE214DF212
:105860002D1001F021FC03214DF22E1001F01CFC43
:1058700010214DF22F1001F017FC03214DF23010D2
:1058800001F012FC33214DF2311001F00DFC032127
:105890004DF2321001F008FC6D214DF2331001F091
:1058A00003FC00214FF4524001F0FEFB33214DF286
:1058B000012001F0F9FB00214DF2022001F0F4FB80
:1058C00034214DF2032001F0EFFB00214DF20420C2
:1058D00001F0EAFB3A214DF2052001F0E5FB002141
:1058E0004DF2062001F0E0FB4A214DF2072001F0C5
:1058F000DBFB00214DF2082001F0D6FB5C214DF2CC
:10590000092001F0D1FB00214DF20A2001F0CCFB6F
:1059100081214DF20B2001F0C7FB00214DF20C203C
:1059200001F0C2FBA6214DF20D2001F0BDFB0021CC
:105930004DF20E2001F0B8FBE5214DF20F2001F0F1
:10594000B3FB01214DF2102001F0AEFB13214DF20B
:10595000112001F0A9FB01214DF2122001F0A4FB5E
:1059600054214DF2132001F09FFB01214DF2142030
:1059700001F09AFB82214DF2152001F095FB0121E7
:105980004DF2162001F090FBCA214DF2172001F0D4
:105990008BFB02214DF2182001F086FB00214DF215
:1059A000192001F081FB02214DF21A2001F07CFB4D
:1059B00001214DF21B2001F077FB02214DF21C204A
:1059C00001F072FB34214DF21D2001F06DFB02212C
:1059D0004DF21E2001F068FB67214DF21F2001F0FF
:1059E00063FB02214DF2202001F05EFB84214DF289
:1059F000212001F059FB02214DF2222001F054FB3D
:105A0000A4214DF2232001F04FFB02214DF224206E
:105A100001F04AFBB7214DF2252001F045FB0221A0
:105A20004DF2262001F040FBCF214DF2272001F05E
:105A30003BFB02214DF2282001F036FBDE214DF226
:105A4000292001F031FB02214DF22A2001F02CFB2C
:105A5000F2214DF22B2001F027FB02214DF22C20E8
:105A600001F022FBFE214DF22D2001F01DFB032150
:105A70004DF22E2001F018FB10214DF22F2001F0E5
:105A800013FB03214DF2302001F00EFB33214DF2C8
:105A9000312001F009FB03214DF2322001F004FB1B
:105AA0006D214DF2332001F0FFFA00214FF45340F5
:105AB00001F0FAFA33214DF2013001F0F5FA00213C
:105AC0004DF2023001F0F0FA34214DF2033001F0D2
:105AD000EBFA00214DF2043001F0E6FA3A214DF2E2
