:020000040800F2
:10000000B8200020110300080F2E0008552D00080D
:100010000D2E0008711D000871310008000000005D
:10002000000000000000000000000000790200084D
:10003000731D000800000000BD020008692E0008C2
:100040002B0300082B0300082B0300082B030008D8
:100050002B0300082B0300082B0300082B030008C8
:100060002B0300082B0300082B0300082B030008B8
:100070002B0300082B0300082B0300082B030008A8
:100080002B0300082B0300082B0300082B03000898
:100090002B0300082B0300082B0300082B03000888
:1000A0002B030008E52E00082B0300082B03000893
:1000B0002B0300082B0300082B0300082B03000868
:1000C0002B0300082B0300082B0300082B03000858
:1000D0002B030008653100082B0300082B030008E0
:1000E0002B0300082B0300082B0300082B03000838
:1000F0002B0300082B0300082B0300082B03000828
:100100002B0300082B0300082B0300082B03000817
:100110002B0300082B0300082B0300082B03000807
:100120002B0300082B0300082B0300082B030008F7
:1001300000F002F800F090F80AA090E8000C824469
:100140008344AAF10107DA4501D100F085F8AFF246
:10015000090EBAE80F0013F0010F18BFFB1A43F0A5
:1001600001031847A8500000C8500000103A24BFEF
:1001700078C878C1FAD8520724BF30C830C144BF0C
:1001800004680C607047000000230024002500264E
:10019000103A28BF78C1FBD8520728BF30C148BFEA
:1001A0000B6070476E2900F01982702900F05B83A4
:1001B000662904F03987652904F03687672904F039
:1001C0003387612904F0328703681B0A28BF41F096
:1001D0008001692900F0C681642900F0C381752976
:1001E00000F0C0816F2900F0E982782900F02783B0
:1001F000E92900F08382E42900F08082F52900F0EB
:100200007D82EF2900F0E682F82900F0268303685A
:10021000DB0928BF41F08001632901F07B8073294D
:1002200001F08080E32901F08B80F32901F09080B8
:10023000002070471FB501F0DDF804000020002108
:1002400004F0DCFE401C60600020002104F0C0FED1
:10025000E0601FBD10B510BD01F09EF81146FFF71C
:10026000E9FF02F0B1FF01F077F903B4FFF7F2FF05
:1002700003BC01F0BBF90000224B19680868B0E824
:10028000F00F80F30988BFF36F8F4FF0000080F309
:1002900011884EF00D0E70470000000006480068FF
:1002A000006880F3088862B661B6BFF34F8FBFF372
:1002B0006F8F00DF00BF00BF08ED00E0EFF30980A3
:1002C000BFF36F8F0F4B1A6820E9F00F106008B56D
:1002D0004FF0500080F31188BFF34F8FBFF36F8F43
:1002E00003F07CFF4FF0000080F31188BDE8084068
:1002F00019680868B0E8F00F80F30988BFF36F8FC2
:10030000704700BF20000020EFF305807047000019
:100310000948804709480047FEE7FEE7FEE7FEE799
:10032000FEE7FEE7FEE7FEE7FEE7FEE704480549D5
:10033000054A064B70470000E12E00083101000815
:10034000B81A0020B8200020B81C0020B81C0020DB
:100350001CB50C46064B7B4469460090204600F0D5
:1003600056F904460020694600F064F920461CBD99
:10037000DB02000010B5431C02E010F8011B71B154
:100380008107FAD14FF0013202C88C1A8C4314EA6B
:10039000C211F9D0C01A0A0603D0C01E10BDC01A7F
:1003A00010BD0A0401D0801E10BD0902FCD0401E01
:1003B00010BD032A40F2308010F0030C00F01580CD
:1003C00011F8013BBCF1020F624498BF11F801CB58
:1003D00000F8013B38BF11F8013BA2F1040298BFBD
:1003E00000F801CB38BF00F8013B11F0030300F027
:1003F0000983083AC0F0088051F8043B083A51F8E4
:1004000004CBA0E80810F5E7121D5CBF51F8043BCF
:1004100040F8043BAFF30080D20724BF11F8013B42
:1004200011F801CB48BF11F8012B24BF00F8013BA4
:1004300000F801CB48BF00F8012B704702F0FF0322
:1004400043EA032242EA024200F010BB4FF00002EE
:1004500000B5134694469646203922BFA0E80C50BA
:10046000A0E80C50B1F12001BFF4F7AF090728BF95
:10047000A0E80C5048BF0CC05DF804EB890028BF11
:1004800040F8042B08BF704748BF20F8022B11F03A
:10049000804F18BF00F8012B7047704770477047B6
:1004A00070B5044685690068C10601D5302600E0B4
:1004B0002026C00707D070BDD4E9012130469047FF
:1004C000206A401C20626D1EF6D570BD70B50446D2
:1004D00085690078C00707D170BDD4E901212020CB
:1004E0009047206A401C20626D1EF6D570BD0968D9
:1004F0004A0501D540B27047C905FCD500B2704726
:1005000009684A0501D5C0B27047C905FCD580B25B
:10051000704770B50C460546012A05D0287880063C
:1005200000D5EA69002302E0012305E05B1C934249
:1005300002D2E05C0028F9D1A869E618C01AA861C7
:10054000286A184428622846FFF7AAFF04E0D5E984
:10055000012114F8010B9047B442F8D32846FFF765
:10056000B5FF70BD2DE9F0410646002410687529DD
:10057000314616A510D0FFF7BAFF002802DA404234
:1005800013A507E031688A0701D512A502E04907E3
:1005900004D511A5012401E0FFF7B2FF00210A22D2
:1005A00006F1240709E0B0FBF2FCB0FBF2F302FB1A
:1005B0001C00303078541846491C0028F3D12346DB
:1005C0002A463046BDE8F04100F0B5BA0000000010
:1005D0002D0000002B0000002000000011680268C0
:1005E000006A530501D508700AE0D30501D50880DB
:1005F00006E0130603D5C217C1E9000200E0086057
:100600000120704701694A1C02610878704700B5F3
:100610008FB0CDE901310021059105497944CDE93B
:1006200003101146684600F029F90FB000BD000024
:10063000E5FFFFFF0A6802F8010B0A60704700003F
:100640002DE9FF5F15468A460446DFF8AC80F84482
:100650000027D8E900103E46CDE9001010E03AF836
:1006600016106A4602A800F077FE411C07D02178D8
:10067000890603D5E269391891420DD80744761CE2
:100680002078800602D5E069B84205DDAE42E6DB9F
:100690003AF816000028E2D1A069C01BA0612046EC
:1006A000FFF7FEFED8E90010CDE90010002017E0AA
:1006B0003AF818106A4602A800F04EFEB0F1FF3F6B
:1006C00081460BD000250DF1080B05E0D4E901218E
:1006D0001BF8050090476D1C4D45F7D308F101004C
:1006E000B0428046E4DB206A384420622046FFF7AF
:1006F000EDFEBDE8FF9F0000864A00002DE9F041B5
:100700008046D21D22F007020025D2E90002F52919
:1007100015A614D0011E72F1000106DA0023D0EBF9
:10072000030063EB020211A608E0D8F800108B0763
:1007300001D50FA602E0490701D50EA601251146F5
:10074000002408F1240704E000F0B0F930323A55F3
:10075000641C50EA0102F7D12B463246214640463E
:10076000BDE8F04100F0E7B9000000002D000000F6
:100770002B0000002000000030B4002100F1240410
:1007800008E002F00705D208303542EA4372DB0880
:100790006554491C52EA0305F3D10468002310A2F2
:1007A000250708D504F020040C4304D0C4690123B4
:1007B0000CA2641EC46130BC00F0BDB910B5044683
:1007C00021461068FFF79CFE02462046BDE8104017
:1007D0000023D1E7D21D22F00701D1E90023CBE7A6
:1007E0000000000030000000F0B40D46018809054B
:1007F00002D5214C7C4402E01F4C7C440E34002185
:1008000000F1240608E002F00F071209E75D42EA52
:1008100003721B097754491C52EA0307F3D102788B
:100820000023120704D5702D06D009B1022311341C
:100830002246F0BC00F07FB901231034F8E770B510
:1008400004460D4621461068FFF75AFE0246294627
:100850002046BDE870400023C6E7D21D22F0070302
:10086000D3E90023C0E70368126843F02003036064
:100870000823C3610023B7E7E84800002DE9F05FD3
:10088000894604464FF0000ADFF874B1FB44C0F813
:1008900020A02046E1688847002874D0252806D08B
:1008A000D4E901219047206A401C2062F1E700262C
:1008B0005F462046E16888472028054607DB312D42
:1008C00005D2781910F8200C08B10643F1E7B007FB
:1008D00001D526F00406C4F81CA00027C4F818A00F
:1008E0002A2D09D0284602F068FC38B304EB8708AB
:1008F000303DC8F8185019E059F8041B204604EBA5
:1009000087029161E1688847012F054618D1E069A7
:10091000002820DA26F020061DE0D8F8180000EBA9
:10092000800005EB40003038C8F818002046E16828
:100930008847054602F041FC0028EED1012F0AD07D
:100940002E2D08D12046E16888477F1C0546022FDE
:1009500046F02006C4DBA069002803DA404246F0D6
:100960000106A061F00701D026F010066C2D0BD017
:10097000682D09D04C2D39D06A2D35D0742D35D045
:100980007A2D33D016E038E0E1682F4620468847BC
:10099000B842054609D16C2F26D04FF48060E1683B
:1009A000064320468847054604E06C2F1AD04FF4D2
:1009B000807006430DB3A5F14100192802D82035F7
:1009C00046F400664A462946204626604E46FFF712
:1009D000E9FB80B101280BD0F61D26F0070000F1DD
:1009E000080956E74020E4E78020D8E70020D6E752
:1009F00006F104094DE7284652E7206ABDE8F09F5A
:100A00007848000010B5203AC0F00B80B1E81850CB
:100A1000203AA0E81850B1E81850A0E81850BFF4E8
:100A2000F5AF5FEA027C24BFB1E81850A0E8185087
:100A300044BF18C918C0BDE810405FEA827C24BFDB
:100A400051F8043B40F8043B08BF7047D20728BF69
:100A500031F8023B48BF11F8012B28BF20F8023BB8
:100A600048BF00F8012B70474FF000020429C0F086
:100A7000128010F0030C3FF4EBACCCF1040CBCF191
:100A8000020F18BF00F8012BA8BF20F8022BA1EB22
:100A90000C01FFF7DDBC5FEAC17C24BF00F8012B2D
:100AA00000F8012B48BF00F8012B704730B5B0F1BA
:100AB0000A024FEA900E71F100034EEA817EB0EB1C
:100AC0000E0061EB91014FEA101E4EEA017E10EB21
:100AD0000E0041EB11114FEA102E4EEA016E10EBA1
:100AE0000E0041EB11214FEA104E4EEA014E10EB81
:100AF0000E0041EB1141401841F100014FEAD000D6
:100B000040EA41704FEAD10110EB80054FEA8104C1
:100B100044EA907444EB01046D1944EB0404521B45
:100B2000A3414FF0000348BF0A3200D530BD401C3E
:100B300041F1000130BD2DE9F0470D46994692463E
:100B4000044600F124080168880604D5E06921F014
:100B50001001216000E00120A84201DD471B00E0F8
:100B60000027A1697A1902EB0900081AA061207810
:100B7000C00602D42046FFF793FC002608E0D4E923
:100B800001211AF806009047206A401C761C20625A
:100B90004E45F4DB2078C0060AD52046FFF780FCDE
:100BA00006E0D4E9012130209047206A401C2062F1
:100BB000381EA7F10107F4DC07E0D4E9012118F899
:100BC00005009047206A401C2062281EA5F10105FF
:100BD000F3DC2046FFF77AFC2078000602D50220DD
:100BE000BDE8F0870120FBE770472DE9FF4F0C4679
:100BF0001E464FF0FF378BB0D2E90001DDF8608070
:100C00000A908A46C1F30A5505B93D4600210846B7
:100C10004FF00000BAF1000F00F4400005DA00EBDD
:100C200080004FF4400101EA50004FEA9059B9F1B9
:100C3000010F00DDB9460A9850EA4A000ED044F68A
:100C40001050A5F2FF3545432F14B8F1000F1ED008
:100C50007542291E1EDDC9F100021CE0B8F1010F2A
:100C60004FF0000001D0302103E0F24305E02154B1
:100C7000401CB042FBDB30460022002121540B997E
:100C8000C1F80880C1E900200FB0BDE8F08FBD1B9E
:100C90006D1CDEE74A4600DA694206A800F0EEFB6A
:100CA00006AB93E8070003AB83E8070050460A99B8
:100CB00000F0A3FC8DE80700A0F500501F3800905D
:100CC0000398002D09DD42F21F014A46084403A99A
:100CD0000390684600F002FF08E0A0F500504A4685
:100CE0001F3803A90390684600F00CFF8DE8070049
:100CF0000004000C03D04FF0FF30410800E0104624
:100D0000B8F1000F03D00022009215461EE0751EB8
:100D100005D4FFF7CBFE303262556D1EF9D5B346D0
:100D20000122084302D000227F1C04E020783028F2
:100D300001D100227F1E002A099786D01DE0112DC7
:100D400007DAFFF7B3FE303262556D1C50EA01023C
:100D5000F5D1084302D00098C8B10EE00021681E0A
:100D600005E0235C625C63542254401E491C8142AE
:100D7000F7DBAB46A81B401E0990002004F80B00CF
:100D80000B98099AC0F80880C0E9002B7CE711266F
:100D90004FF0000859E72DE9F04F88460446D21D70
:100DA00022F0070191B0D1E90001CDE90A0102F07A
:100DB000E0F902460B98C00F01D02D2007E0206813
:100DC000810701D52B2002E0202101EAC000032A7F
:100DD000099001D0072A05DB03464146204600F072
:100DE0000DFB0BE12078800601D5E06900E00620CC
:100DF000B8F1650F814606D0B8F1660F18D0B8F18A
:100E0000670F70D131E00020B9F1110F009001DBC4
:100E1000112301E009F101030AAA01A90CA8FFF7B7
:100E2000E4FEDDE90C70002609F10105834647E088
:100E300001204B4600904FF000470AAA01A90CA8D8
:100E4000FFF7D3FEDDE90DB00C995D46002610B921
:100E500009F101000D18B9EB050003D4C0F1FF360C
:100E600009F10105A5EB09002BE0B9F1010F01DA49
:100E70004FF001090020B9F1110F0090484601DD43
:100E8000112300E003460AAA01A90CA8FFF7ADFE52
:100E9000DDE90C704D4600268346207800070AD411
:100EA000AB4500DA5D4601A8012D04DD411911F8BA
:100EB000011C302907D04F4502DA17F1040F04DA7C
:100EC000012082460FE06D1EEEE7002F02DCED1BD5
:100ED0003E4403E0781CA84200DD7D1CB81B00F1F5
:100EE000010A4FF000472078000703D4AA4501DB30
:100EF0004FF0FF3A0021B7F1004F0DF143088DF894
:100F0000431024D002202B23002F01DA7F422D230F
:100F10000A21021EA0F1010000DC5FB197FBF1FC89
:100F200097FBF1F201FB1C7C17460CF1300C08F822
:100F300001CDEEE7A8F1010003702188090501D574
:100F4000452100E06521A0F1010800F8011C099885
:100F50000FA9A1EB0807FF1D00B10120411901EB0A
:100F6000EA70A1693844081A401EA0612078C006C2
:100F700002D42046FFF794FA099828B1D4E9012158
:100F80009047206A401C20622078C00622D5204667
:100F9000FFF786FA1EE0002E04DBB34502DD01A850
:100FA000805D00E03020D4E901219047206A401C98
:100FB0002062761CAAF101005FEA000A0AD100F063
:100FC00019FAC0680168405CD4E901219047206AA1
:100FD000401C2062281EA5F10105DCDC07E0D4E9F5
:100FE000012118F8010B9047206A401C2062381E2E
:100FF000A7F10107F3DC2046FFF768FA032011B0E0
:1010000043E600002DE9F04F04460D46D21D22F0C4
:10101000070089B0D0E9009248461746394602F0E9
:10102000A8F80246F80F01D02D2307E020688107B9
:1010300001D52B2302E0202101EAC0038DF82030E6
:101040000BB1012000E00020032A824601D0072ACC
:1010500004DB2946204600F0D1F93DE120788006E6
:1010600001D40D2500E0E569C7F30A560D2D49DAD4
:1010700000214FEA175B08464FF00000002F00F4F4
:10108000400007DA00EB80004FF4400100EBD07025
:1010900001EA60008115012901DD4FF0FF310022D6
:1010A0004FEA850CBCF1180F06D31346ACF11800BB
:1010B0004FF08052C24003E04FF4801323FA0CF348
:1010C0000CF10C0CBCF1200F04D3ACF1200C09FA8C
:1010D0000CF001E007FA0CF000294FF0004801DDA8
:1010E00018B90FE00ED140450CD319EB02095F414E
:1010F00021B9404502D19F4329EA0209BBEB175FA2
:1011000000D0761C2088000502D57B48784402E098
:1011100079487844193808AA302302F80A30037C49
:101120000AF10101002E0AF1020A53546A4602DC58
:101130004FF0300101E04FF031014FF001088DF820
:10114000001002D0A6F2FF3603E059EA470100D0B2
:101150006A4E002D02DC2178090704D54FF0020801
:101160002E218DF80110C44600210BE0C7F3034384
:101170003F01C35C491C6D1E02F80830052908F1C7
:10118000010801DA002DF1DC00210CE000EB1973FD
:10119000491C1B786D1E082902F808304FEA09190E
:1011A00008F1010801DA002DF0DC2178890602D56A
:1011B00014E0A8F10108E04505DD02EB080111F893
:1011C000011C3029F5D0B8F1000F07DD02EB080152
:1011D00011F8011C2E2901D1A8F10108002D05DD0F
:1011E0003E2102F808106D1E08F10108407C002E17
:1011F00002F8080008F1010804DA2D20764202F80E
:10120000080002E02B2002F808000A214FF47A704F
:10121000864208F101080BDB96FBF0F3303302F84D
:10122000083096FBF0F308F1010800FB136601E0BB
:10123000642E0CDB642096FBF0F3303302F80830A8
:1012400096FBF0F308F1010800FB136601E00A2E9B
:1012500006DB96FBF1F0303002F8080008F10108D7
:1012600096FBF1F001FB1060303002F80800A16934
:1012700008F1010808EB050202EB0A00081AA06158
:101280002078C00602D42046FFF70AF9216A08AE8A
:1012900001EB0A00206204E0D4E9012116F8010BF9
:1012A0009047BAF1010AF7D22078C00602D520464D
:1012B000FFF7F6F86E4609E016F8010B3E280FD04E
:1012C000D4E901219047206A401C2062B8F101084E
:1012D000F2D22046FFF7FAF809B00320BDE8F08FFC
:1012E000206A2844206203E0D4E90121302090479D
:1012F0006D1EEBD3F8E700001C40000002FCFFFF6E
:1013000010B5436913B1AFF3008001E0FFF701F9B5
:10131000012010BD127800F124010A7000224A70E9
:101320000122EDE711684FF0FF32E9E710B543699C
:1013300013B1AFF3008001E0FFF782F9012010BD87
:10134000128800F1240182840022C2840122EDE788
:1013500011684FF0FF32E9E770B516460C460546B6
:1013600000F040F8036893F80101012806D0FF2C33
:101370000FD8185D68B101202C7070BDD3F807013B
:101380003246214603F2071303442846BDE8704065
:1013900018474FF0FF3070BD754600F0E3F8AE46D9
:1013A00005006946534620F00700854618B020B571
:1013B000FEF7BCFFBDE820404FF000064FF00007ED
:1013C0004FF000084FF0000B21F00701AC46ACE8ED
:1013D000C009ACE8C009ACE8C009ACE8C0098D465A
:1013E0007047000010B500F005F8001D10BD00BFEB
:1013F0000D3C000000487047741A00202DE9F041B0
:101400001F46044603260168072A01F4006004DB36
:1014100008B116A505E016A503E008B115A500E082
:1014200015A521F010002060A069C01EA0610FB1B9
:10143000401EA0612046FFF733F84FB1D4E90121E7
:1014400038469047206A401C2062C01C206206E09B
:10145000206AFAE7D4E9012115F8010B9047761EBE
:10146000F8D22046FFF732F8BDE8F0814E414E0039
:101470006E616E00494E4600696E66002DE9F047C8
:10148000814616468AB0334878440DC88DE80D0071
:1014900030487844801C03AC0DC884E80D0041F648
:1014A0009B300844372190FBF1F290FBF1F5A5F158
:1014B000800501FB12041B3C02D56442012000E0C0
:1014C0000020DFF890A080460027FA44AAF1BE0A67
:1014D0000DE0E00709D03246684607EB47010AEB0A
:1014E000810100F00FFB8DE8070064107F1C002CC9
:1014F000EFD1184F7F44AC3F18E0E80714D007EB5A
:1015000004100DF1180A90E80E008AE80E00C06879
:10151000F04201D198190890324606A903A800F0BC
:10152000F1FA03AB83E807006D10641C002DE4D1D1
:1015300032466946B8F1000F03A802D000F0CEFA97
:1015400001E000F0DFFAC9E90001C9F808200AB09B
:10155000BDE8F087303D00000446AFF30080204630
:10156000FEF783FE00487047541A00204FF0013CFC
:1015700050F8042B51F8043B9A4221D1A2EB0C0302
:10158000934313EACC1317D150F8042B51F8043BC2
:101590009A4215D1A2EB0C03934313EACC130BD15F
:1015A00050F8042B51F8043B9A4209D1A2EB0C03EA
:1015B000934313EACC13DBD04FF00000704700BF19
:1015C000D01A01BAB1FA81F101F0180122FA01F042
:1015D000CB40C1F12001DBB2C0B2C01A2CFA01F33A
:1015E000D11A914311EAC311E6D17047014918207D
:1015F000ABBEFEE72600020070475FEA400C08BF62
:1016000091F0000F4FEA8C234FEAC12243EA515177
:101610004FEA1C5018BF00F5F0404FEA300018BFE9
:1016200041F000415FEA6C5C00F02980BCF1FF3FB3
:1016300008BF40F080407047130C06BF12044FF003
:10164000100C4FF0000C130E04BF12020CF1080C2A
:10165000130F04BF12010CF1040C930F04BF92008E
:101660000CF1020CD30F04BF52000CF1010C114617
:101670004FF00002A0F11F00A0EB0C00704711F02A
:10168000004F08BF704731F000413FF4D5AF0B0C5D
:1016900006BF09044FF0100C4FF0000C0B0E04BFF6
:1016A00009020CF1080C0B0F04BF09010CF1040C2A
:1016B0008B0F04BF89000CF1020CCB0F04BF490053
:1016C0000CF1010CCCF12003A0EB0C0022FA03F387
:1016D00002FA0CF241EA030100F10100704720F028
:1016E0007F4C80EA030023F07F47ACEB070303F550
:1016F0007C5300F0004003F1FF032DE980494FEADD
:10170000154B09B44FEA144325EA0B4E24EA03486B
:101710000FF2042606EB132749083E785FEA3202EF
:1017200003FB0667C7F5000707FB06F64FEA5437C9
:101730004FEAD64606F1020607FB066CCCF1005CC8
:101740004FEA1C472CEA074C07FB06F40CFB06F596
:1017500004EB15464FEA961634BF00204FF00040C8
:101760004FEAD13706FB07FC4FEA1C4C0CFB0BF78A
:10177000D21B03FB0CF761EB07010CFB0EF7B0EB80
:10178000074072EB17420CFB08F734BFA2EB07428D
:10179000B2EB074261EB17414FEA0C444FEA910765
:1017A00006FB07FC4FEA1C4C0CFB0BF7B0EBC740E9
:1017B00072EB573203FB0CF734BFA2EBC742B2EB1C
:1017C000C74261EB57310CFB0EF7B0EBC70072EB71
:1017D00057720CFB08F734BFA2EBC702B2EBC7028B
:1017E00061EB5771039F4FEA816141EA921104EB6B
:1017F000CC044FEAD1374FEA826206FB07FC42EA8B
:1018000090124FEA80604FEA1C4C0CFB0BF7D21B86
:1018100003FB0CF761EB07010CFB0EF7B0EB074085
:1018200072EB17420CFB08F734BFA2EB0742B2EB96
:10183000074261EB17414FEA8C554FEA910704EBE1
:101840009C2406FB07FC4FEA1C4C0CFB0BF7B0EB8F
:10185000C74072EB573203FB0CF734BFA2EBC74211
:10186000B2EBC74261EB57310CFB0EF7B0EBC70090
:1018700072EB57720CFB08F734BFA2EBC702B2EB56
:10188000C70261EB577115EB4C254FEA816141EAC4
:1018900092114FEA82624FEAD13742EA901206FB78
:1018A00007FC44F100044FEA80604FEA1C4C0CFB3B
:1018B0000BF7D21B03FB0CF761EB07010CFB0EF7D8
:1018C000B0EB074072EB17420CFB08F734BFA2EBFA
:1018D0000742B2EB074261EB174115EB1C154FEACB
:1018E000813141EA92414FEA823242EA90424FEA24
:1018F00080304FEA0C7644F1000448EA03434EEA94
:101900000B484FF0000EB2EB080C71EB030724BF3D
:10191000624639464EEB0E0E4FF0000B0018524156
:1019200049414BEB0B0BB2EB080C71EB03077BF15E
:10193000000B24BF624639464EEB0E0E4FF0000BF3
:101940000018524149414BEB0B0BB2EB080C71EB09
:1019500003077BF1000B24BF624639464EEB0E0EA7
:1019600051EA020718BF46F0010616EB0E7655F154
:10197000000254F1000103D5BDE88901BDE80088EB
:10198000BDE88901BDE80048B619524141EB0101AB
:10199000A3F10103704780807F7E7D7C7B7A79781C
:1019A000777676757473727171706F6E6E6D6C6C24
:1019B0006B6A6A69686867666665646463636261C6
:1019C0006160605F5F5E5E5D5D5C5C5B5B5A5A5947
:1019D00059585857575656555555545453535252B3
:1019E0005251515050504F4F4F4E4E4D4D4D4C4C0B
:1019F0004C4B4B4B4A4A4A49494948484847474754
:101A00004746464645454544444444434343434290
:101A1000424242414141002B26D4770021D01CB5DF
:101A20004FEA370703B44FF010004FF010014FF0AA
:101A300000000FBCBDE810400BF1010BBBF1010F22
:101A400008BF5FEA170722BF12F1010211F101017D
:101A50004FF0004143F1000300F0004043EA000072
:101A60007047F9D35708DAE746EA064613F1400F04
:101A70004FEA16461FDD13F1200FDFBF16430A465B
:101A8000002120335B42C8D0C3F1200746EA064656
:101A900002FA07F74FEA164646EA0706C3F120079F
:101AA00022FA03F201FA07F721FA03F14FF00003DB
:101AB00042EA0702B1E746EA020646EA06464FEA6C
:101AC000164646EA0106BCBF46EA0646360C4FF00B
:101AD00000034FF000024FF000019EE72DE9C048DF
:101AE000934630B491E8380007C831EA400C48BF4B
:101AF00034EA430C03D5FFF7F2FDFFF78CFFF0BC8F
:101B0000BDE800882DE9C048934630B491E838001C
:101B100007C810F0804F08BF13F0804F03D100F0CA
:101B200005F8FFF778FFF0BCBDE8008820F07F479C
:101B300080EA030023F07F4C07EB0C03A3F57C53F2
:101B400000F00040A3F1FE0392F0000F00F0B3801C
:101B500095F0000F00F077802DE901494FEA114020
:101B60004FEA144621EA004800FB06FC24EA064737
:101B700008FB06F607FB08F800FB07F718EB06481A
:101B80004CEB164C4FEA124B18EB07484FEA154640
:101B90004CEB174022EA0B4E0BFB06FC25EA0647EE
:101BA0000EFB06F607FB0EFE0BFB07F71EEB064EC1
:101BB0004CEB164C4FF000061EEB074E4CEB174B50
:101BC00018EB0B0840F1000018EB0E0B58EB000867
:101BD00040F100008F1A4FF000013CBFC943661B63
:101BE00014BFB5EB040C00213CBFC943F61B4FEA00
:101BF00017444EEA8E0E27EA04454FEA1C4704FBC1
:101C000007622CEA074C05FB07F70CFB05F604FB03
:101C10000CFC16EB074642EB174216EB0C4642EB68
:101C20001C421BEB060658EB0202414146EA9E06A7
:101C300001D5BDE80189B619524141EB0101A3F17B
:101C40000103BDE801894FEA14454FEA114724EA30
:101C5000054621EA074C05FB07F406FB07F70CFBDA
:101C600006F105FB0CFC11EB074144EB17444FEA6E
:101C7000124711EB0C4144EB1C4422EA074C05FBD4
:101C800007F206FB07F70CFB06F605FB0CFC16EB50
:101C9000074642EB174216EB0C4642EB1C456A180E
:101CA00054F1000148BF7047B619524141EB0101A0
:101CB000A3F10103704795F0000F37D04FEA1142AE
:101CC0004FEA144721EA024624EA074C02FB07F1D7
:101CD00006FB07F70CFB06F402FB0CFC14EB0744B5
:101CE00041EB17414FEA154714EB0C4441EB1C4103
:101CF00025EA074C02FB07F506FB07F70CFB06F687
:101D000002FB0CFC16EB074645EB174516EB0C46A1
:101D100045EB1C42121951F1000148BF7047B6193A
:101D2000524141EB0101A3F1010370474FEA144511
:101D30004FEA114724EA054621EA074C05FB07F163
:101D400006FB07F70CFB06F24FF0000605FB0CFC48
:101D500012EB074241EB174112EB0C4251EB1C41D5
:101D600048BF7047921841EB0101A3F1010370478E
:101D7000FEE7704772B6FEE710B590F8211000221A
:101D8000022905D00421816380F82020012010BDA4
:101D900001680B6823F00E030B6001680B6823F0E9
:101DA00001030B6090F84030C46B012101FA03F38A
:101DB000636080F8211080F82020104610BD0000DC
:101DC0002DE9F05F90F821100024022903D00421AE
:101DD0008163012485E001680A6822F00E020A602E
:101DE00001680A6822F001020A603F4E3E4FB215B8
:101DF000DFF8F4C0DFF8F090DFF8ECA0DFF8E8B02F
:101E0000DFF8E4E00168783F13011502ACF1640CDF
:101E1000A9F15009AAF13C0AABF1280BAEF1140E5E
:101E20004FF48018B14227D9B9420ED0614512D083
:101E300049451DD0514518D0594518D0714501D19B
:101E4000424615E0294EB14201D1012210E0274E51
:101E50001436B14201D110220AE0244E2836B14294
:101E600006D0224A3C32914201D11A4600E02A466D
:101E70001E49091F0A602BE0B94213D0614517D0F3
:101E8000494522D051451DD059451DD0714501D13C
:101E900042461AE0B14202D14FF0807215E0134E73
:101EA000B14201D1012210E0104E1436B14201D1ED
:101EB00010220AE00D4E2836B14206D00B4A3C32C1
:101EC000914201D11A4600E02A46074980394A600A
:101ED000012180F82110002180F82010416B01B110
:101EE00088472046BDE8F09F800002400804024079
:101EF0002DE9F84FDFF8C8910024A9F1040B23461F
:101F00000F2709F1040AABF1040ED1E00125A54029
:101F100006EA0502AA4276D1DFF8A8C14E68A6EB10
:101F20000C0866452BD00DDC032E34D005DC36B30F
:101F3000012E19D0022E2FD11BE0112E16D0122EF9
:101F40002AD119E0B8F5881F19D006DCB8F5803F12
:101F500015D0B8F5801F1FD111E0B8F5001F0ED0C5
:101F6000B8F5041F18D10AE0CB6815E0CB681B1D3B
:101F700012E0CB6808330FE0CB680C330CE08B68C1
:101F80002BB1012B4FF0080303D0456104E004237B
:101F900002E0056100E00023FF2A01D8064601E0C7
:101FA00000F104064FEA840501D9A5F12005D6F811
:101FB000008007FA05FC28EA0C0803FA05F548EA50
:101FC0000508C6F800804D68ED0070D53E4DAE693D
:101FD00046F00106AE61AD6924F0030605F0010587
:101FE00000953A4D06EB050CDCF80850A607360FB5
:101FF00007FA06F825EA0805DFF8D480404503D142
:102000004FF0000825E052E0DFF8C880404502D1DB
:102010004FF001081DE0DFF8C080404502D14FF0CD
:10202000020816E0DFF8B480404502D14FF0030803
:102030000FE0DFF8AC80404502D14FF0040808E023
:10204000DFF8A080404502D14FF0050801E04FF0D5
:10205000060808FA06F848EA0508CCF808804D6832
:10206000D9F80060ED024D4601D5164300E09643D5
:102070002E604D68DAF80060AD02554601D5164372
:1020800000E096432E604D68DBF80060AD035D46CE
:1020900001D5164300E096432E604D68DEF80060DF
:1020A000ED03754601D5164300E096432E60641C8F
:1020B0000A681646E2407FF429AFBDE8F88F0000B9
:1020C000080401400000111000100240000001400F
:1020D00000080140000C01400010014000140140C4
:1020E00000180140001C0140014880687047000052
:1020F0001000002002488168027811448160704716
:1021000010000020074810B5016841F0100101607F
:10211000032000F0A1F80F2000F006F800F04AF8C4
:10212000002010BD0020024030B505461C4887B095
:10213000816941F400618161806906A900F4006051
:10214000009001A800F030F900F05EF91549164A38
:10215000B0FBF1F11548491E0260416040F2E732E0
:102160000021C0E903218160816100F015FB0400BA
:1021700012D10E4800F03EFB04000DD1192000F0F2
:102180003DF8102D07D200222946192000F044F80E
:102190000748056000E0012407B0204630BD00007C
:1021A0000010024040420F00002C0140E8000020D7
:1021B000140000200F4808B5816941F001018161D8
:1021C000816901F001010091C16941F08051C16153
:1021D000C069002200F0805000900F21901E00F096
:1021E0001BF80548416821F0E06141F00071416051
:1021F00008BD00000010024000000140002809DB7B
:1022000000F01F02012191404009800000F1E02010
:10221000C0F8001170470000F0B40E4B1B680C466C
:10222000C3F30223C3F10705042D00D90425191DAA
:10223000072901D2002300E0DB1E012606FA05F182
:10224000491E214099409E40761E16403143F0BC05
:1022500000F0A3BF0CED00E0064900F0070208689B
:102260004FF6FF03184040EA0220034A104308607B
:10227000704700000CED00E00000FA052DE9F04782
:102280000F46050061D0434E306800F00700B842A9
:1022900009D2306820F0070038433060306800F021
:1022A0000700B84251D128683B4C810712D540073E
:1022B00003D5606840F4E06060602878000703D5CB
:1022C000606840F4605060606068A96820F0F000C9
:1022D000084360602878C00728D06868012810D0BB
:1022E0002168022810D0890700292EDA616821F0C0
:1022F000030101436160FFF7F7FE804641F2883930
:102300000DE021688903EFE78901EDE7FFF7ECFEB7
:10231000A0EB0801494502D90320BDE8F0876068B9
:10232000696800F00C00B0EB810FEFD1306800F06D
:102330000700B8420BD9306820F0070038433060FE
:10234000306800F00700B84201D00120E5E72878A6
:10235000400705D56068E96820F4E06008436060E4
:102360002878000706D56068296920F4605040EAA3
:10237000C100606000F058F86168084AC1F30311B9
:10238000515CC8400649086006480068FFF7CCFE6B
:102390000020C2E70020024000100240BE500008AA
:1023A0001C000020140000200F2202600C4A536819
:1023B00003F003034360536803F0F0038360536842
:1023C00003F4E063C36052684FF4E06303EAD202AF
:1023D00002610448006800F00700086070470000D0
:1023E0000010024000200240044805490068496886
:1023F000044AC1F30221515CC84070471C00002010
:1024000000100240CE5000080448054900684968A1
:10241000044AC1F3C221515CC84070471C0000202F
:1024200000100240CE5000080E4A51680E4801F0DC
:102430000C03042B11D0082B0FD10C48C1F383439C
:10244000C903C05C0AD55168084AC1F34041921ED5
:10245000515C054A5043B0FBF1F0704704494843D2
:10246000704700000010024000127A00AE500008D1
:1024700000093D002DE9F84F040070D02078C04DD0
:10248000C00749D06868C0F38100012807D0686898
:10249000C0F38100022809D16868C00306D5286806
:1024A000800339D560680028E7D035E06068B0F572
:1024B000803F0BD010B1B0F5A02F11D0286820F4C8
:1024C00080302860286820F4802002E0286840F4EA
:1024D00080302860606890B1FFF706FE06460AE08B
:1024E000286840F480202860F0E700BFFFF7FCFD7B
:1024F000801B642873D828688003F7D50CE0FFF7A9
:10250000F3FD064605E000BFFFF7EEFD801B6428E3
:10251000F0D828688003F7D420789A4E80074FF0CF
:1025200001094FF0000839D5686810F00C0F07D08A
:102530006868C0F38100022809D16868C00306D426
:102540002868800714D52069012808D110E0206987
:10255000B0B1C6F80090FFF7C7FD074605E00AE1F5
:10256000FFF7C2FDC01B0228C4D828688007F7D532
:102570002868616920F0F80040EAC10028600DE099
:10258000C6F80080FFF7B0FD074604E0FFF7ACFD9A
:10259000C01B022823D828688007F7D420780007BA
:1025A0002CD57948A169D9B1C0F80090FFF79CFDFE
:1025B000074604E0FFF798FDC01B02280FD8686AA1
:1025C0008007F7D571484FF4FA510068B0FBF1F07D
:1025D000009000BF0098411E0091FAD20EE080E00A
:1025E000C0F80080FFF780FD074604E0FFF77CFDA0
:1025F000C01B022875D8686A8007F7D42078400786
:1026000060D5E8690027C00008D4E86940F0805030
:10261000E861E869012700F0805000905C4801689B
:10262000C90513D40168834641F480710160FFF746
:102630005BFD824606E000BFFFF756FDA0EB0A00F7
:1026400064284ED8DBF80000C005F5D5E068012805
:102650000AD008B1052813D0286A20F001002862AA
:10266000286A20F0040002E0286A40F00100286295
:10267000E06841F2883B98B1FFF736FD82460BE0F7
:10268000286A40F004002862EEE700BFFFF72CFD47
:10269000A0EB0A0159455AD8286A8007F6D50CE004
:1026A000FFF722FD824605E0FFF71EFDA0EB0A01C1
:1026B00059454CD8286A8007F6D41FB1E86920F044
:1026C0008050E861E06988B36968C1F3810102293B
:1026D00044D00228C6F8608004D0FFF705FD044608
:1026E00038E034E0FFF700FD074604E0FFF7FCFCAC
:1026F000C01B02282BD828688001F7D4206AB0F5C7
:10270000803F05D16868A16820F400300843686004
:10271000D4E908010843696821F47411084368602A
:10272000C6F86090FFF7E0FC044606E025E000BF35
:10273000FFF7DAFC001B022809D828688001F7D5CA
:102740001BE000BFFFF7D0FC001B022802D90320CA
:10275000BDE8F88F28688001F4D40EE00128F7D096
:102760006868226A00F48031914204D1616A00F401
:102770007010884201D00120EAE70020E8E700005D
:102780000010024000004242800442421C0000202F
:10279000007000407047704710B5040003D094F8F3
:1027A0003D0010B107E0012010BD002084F83C007E
:1027B000204600F01EF8022084F83D00211D20680C
:1027C00000F096FB012084F8460084F83E0084F86F
:1027D0003F0084F8400084F8410084F8420084F807
:1027E000430084F8440084F8450084F83D0000204C
:1027F00010BD704790F83D10012901D001207047AD
:10280000022180F83D100168CA6842F00102CA60E6
:1028100000680E4988420ED00D4988420BD0B0F1B5
:10282000804F08D00B49884205D00B49884202D01E
:102830000A49884204D1816801F00701062903D0C2
:10284000016841F00101016000207047002C014047
:10285000003401400004004000080040000C00402B
:1028600070472DE9F04104460068C66805694FF0DD
:102870000007A90713D5B10711D5F91E0161012081
:102880002077206880698007204602D0FFF7E8FFA4
:1028900004E000F07EF8204600F07CF82777680717
:1028A00016D5700714D521686FF004000861022066
:1028B00020772068806910F4407F204602D0FFF71F
:1028C000CFFF04E000F065F8204600F063F82777BA
:1028D000280715D5300713D521686FF00800086167
:1028E000042020772068C0698007204602D0FFF7C7
:1028F000B7FF04E000F04DF8204600F04BF82777D2
:10290000E80616D5F00614D521686FF010000861AE
:10291000082020772068C06910F4407F204602D04C
:10292000FFF79EFF04E000F034F8204600F032F894
:102930002777E80708D0F00706D021686FF001007C
:102940000861204600F028F8280608D5300606D58C
:1029500021686FF0800008612046FFF71BFF6806C2
:1029600008D5700606D521686FF040000861204642
:1029700000F01CF8A8060AD5B00608D521686FF04B
:10298000200008612046BDE8F041FFF704BFBDE824
:10299000F08170477047000000680349884201D108
:1029A000FFF7A8BB70470000002C0140704770473C
:1029B00070470000F8B5016804460868CA684B69AA
:1029C00010F00F0F4FF000055AD003F0010602F48B
:1029D0009077374365D0C10705D0D10503D5616C29
:1029E00041F001016164410705D5D90703D0616C4D
:1029F00041F002016164810705D5D90703D0616CFC
:102A000041F004016164010707D502F02001314360
:102A100003D0616C41F008016164616C00293BD016
:102A2000800604D5900602D5204600F0DEFA206824
:102A30004069616CC0F3801001F008010143204639
:102A40002BD000F0ABFA20684069400621D5206801
:102A5000143050E8001F21F0400140E80012002A25
:102A6000F5D1E06BA8B16D494163E06BFFF7A8F9C0
:102A7000002811D0E06B416B01B0BDE8F040084781
:102A800083060ED593060CD52046BDE8F84000F02D
:102A9000ACBA2046FFF78CFFF8BDFFF789FF6564ED
:102AA000F8BD266B2023012E7CD1C6067AD5D6062A
:102AB00078D508684868009048694FF002064006DB
:102AC00040D5E16B086840680004000CE8D0A28D96
:102AD0008242E5D9E085886920282DD020680C3015
:102AE00050E8001F21F4807140E80012002AF5D15F
:102AF0002168143151E8000F20F0010041E8000284
:102B0000002AF5D12068143050E8001F21F0400160
:102B100040E80012002AF5D184F84230256320688D
:102B20000C3050E8001F21F0100140E80012002A8C
:102B3000F5D1E06BFFF720F96663A08DE18D401AB7
:102B400081B22AE0A08DE18D401A81B2E08D00288B
:102B5000A6D00029A4D022680C3252E8000F20F43D
:102B6000907042E80007002FF5D12068143050E83B
:102B7000002F22F0010240E80027002FF5D184F851
:102B80004230256320680C3050E8002F22F01002FC
:102B900040E80023002BF5D166632046FFF707FFCE
:102BA000F8BDFFE705062BD5150629D594F8410099
:102BB0002128F5D1A068B0F5805F01D12069B0B1BE
:102BC000206A411C2162216800784860E08C401E28
:102BD0000004000CE084E3D12068C16821F080018A
:102BE000C1602068C16841F04001C160D8E7206A37
:102BF0000088C0F308004860206A801C2062E5E776
:102C00004006CDD55006CBD5CA68204622F04002FA
:102C1000CA6084F8413000F08FF8C1E78D2F0008BA
:102C200070B5040004D094F84100002510B106E00E
:102C3000012070BD84F84050204600F023F8242085
:102C400084F841002068C16821F40051C160204629
:102C500000F02CFA2068016921F49041016120689C
:102C6000416921F02A0141612068C16841F40051A5
:102C7000C1606564202084F8410084F842006563E7
:102C8000002070BD30B585B00024009401940294FA
:102C900003940068184988422CD11848816941F48E
:102CA00080418161816901F480410491816941F031
:102CB000040181618069124D00F0040004904FF41A
:102CC000007000900220019003200390694628467E
:102CD000FFF70EF92815CDE900046946284602944D
:102CE000FFF706F9002205212520FFF795FA252098
:102CF000FFF784FA05B030BD0038014000100240F3
:102D000000080140704790F84130202B01D002208C
:102D1000704779B172B101628284C284002141643A
:102D2000212180F841100068C16841F08001C16034
:102D3000002070470120704700680449884203D191
:102D40000348006800F02ABB7047000000380140CB
:102D50000C000020FEE7000010B501210D4A0846D6
:102D600000F0D0FA0C4C0B4A0021E0606C3A0B48A2
:102D700000F03EFB074A2060483A0021084800F076
:102D800037FB044A6060243A0021064800F030FB1B
:102D9000A06010BD9C50000800000020612E0008BB
:102DA000392E0008112E0008094808B5816941F044
:102DB00010018161816901F010010091816941F088
:102DC00004018161806900F00400009008BD0000EA
:102DD000001002400C4810B50A4901604FF416512A
:102DE0004160002181600C22C160C0E90412816150
:102DF000C161FFF715FF002803D0BDE81040FEF7C2
:102E0000B9BF10BD00380140A0000020FEE7FEE77A
:102E100003A000F0E9F9642000F00AFAF8E70000E6
:102E20003C746573743120746573743120746573F8
:102E300074313E0D0A00000003A000F0D5F9C8204F
:102E400000F0F6F9F8E700003C7465737432207402
:102E5000657374322074657374323E0D0A0000008D
:102E6000012000F0E5F9FBE710B54FF0E020006924
:102E700001F0BCFE012803D0BDE8104001F034BAD7
:102E800010BD30B58FB028216846FDF7DFFA142158
:102E90000AA8FDF7DBFA01210804CDE9001000249F
:102EA000029402250491CDE907504FF4E0100990F7
:102EB0006846FFF7DFFA08B172B6FEE70F20CDE9EA
:102EC0000A054FF48060CDE90C4002210AA80E9457
:102ED000FFF7D4F9002801D072B6FEE70FB030BD7D
:102EE000704700000148FFF7BCBC0000E80000206C
:102EF000F0B50268204C214D214E224F224B4FF05D
:102F0000804CA04209D0984207D0604505D0A84225
:102F100003D0B04201D0B84204D122F0700E4A680A
:102F200042EA0E02A04209D0984207D0604505D07F
:102F3000A84203D0B04201D0B84203D122F4407578
:102F4000CA682A434D6922F080022A4302608A68D7
:102F5000C2620A688262A04201D0984201D1096926
:102F60000163012141610169C90703D0016921F0B1
:102F700001010161F0BD0000002C0140000400408F
:102F800000080040000C00400034014010B5406AC9
:102F90000021C185C184FFF70BFD10BD01680C3114
:102FA00051E8002F22F4907241E80023002BF5D164
:102FB0000168143151E8002F22F0010241E800239A
:102FC000002BF5D1016B012909D101680C3151E8C1
:102FD000002F22F0100241E80023002BF5D1202120
:102FE00080F8421000210163704708B590F8421044
:102FF000222901D0022008BD82684FF480539A42F2
:1030000001D1016921B1816A9A421BD04AB10AE01B
:103010000268816A5268C2F308020A80816A891CC8
:1030200008E0026972B10268526802F07F020A7019
:10303000816A491C8162C18D491E0904090CC18540
:1030400003D01BE002685268F1E70168CA6822F009
:103050002002CA600168CA6822F48072CA600168EE
:103060004A6922F001024A61202180F842100021C1
:103070004163026B012A03D0FFF744FE002008BD24
:10308000016301680C3151E8002F22F0100241E881
:103090000023002BF5D101680A68D20602D50A6820
:1030A00049680091818DFFF782FCE7E770B504461F
:1030B00000680169E26821F440511143016121690E
:1030C000A0680843616908432168CA6841F20C633B
:1030D0009A430243CA6020684169A26921F44071A1
:1030E000114341611E492068884202D1FFF78CF9E3
:1030F00001E0FFF779F900EBC00101EB0012606815
:1031000064218000B2FBF0F3B3FBF1F36FF018061B
:103110007343B2FBF0F5B2FBF0F605EB8305322307
:1031200003EB0515B5FBF1F5B6FBF1F605F0F0057F
:1031300005EB0615B2FBF0F6B2FBF0F0B0FBF1F0D8
:103140006FF01802504306EB800003EB0010B0FB59
:10315000F1F0216800F00F002844886070BD000085
:10316000003801400148FFF725BC0000A000002006
:10317000FEE7490050EAC12018BF04204A0D18BFDD
:1031800040F0010040F2FF72B2EB515F08BF40F027
:103190000200012808BF052070470907090E002812
:1031A00004DB00F1E02080F80014704700F00F000D
:1031B00000F1E02080F8141D704730380A2801D251
:1031C0000120704700207047FEF79CFFFFF759FE73
:1031D000FFF7EAFDFFF7FEFD00F038F8FFF7BCFD52
:1031E00000F046F8FEE700000FB40E4810B54FF0AF
:1031F000FF31006800F058F80B4803AA90F841002E
:1032000021280BD009480299FDF7A2F80748FDF7DD
:10321000B1F882B205490448FFF775FD10BC5DF8AE
:1032200014FB00000C000020A0000020041A002065
:1032300010B5EFF3058111B16FF0050403E0002430
:1032400008B100F0CFFE204610BD0000EFF305806E
:1032500010B16FF0050070470448016811B14FF0DC
:10326000FF3070470121016000207047700000208E
:1032700010B5EFF3058010B16FF0050010BD0848E0
:103280000168012902D04FF0FF3010BD054A00212E
:1032900082F8141D0221016000F054FF002010BDCF
:1032A000700000200BE000E0F8B50D460024211F5F
:1032B0004E1C002803D0EFF30582A2B10DB10C46DD
:1032C0001BE000216A46009101F0F4FA012813D1B5
:1032D000009890B10A494FF080500860BFF34F8FBB
:1032E000BFF36F8F09E0294601F032FB012804D0BB
:1032F00015B16FF0010400E034462046F8BD00002F
:1033000004ED00E0F8B5144603460E464FF0000504
:10331000EFF3058098BB93B39E423DD84CB1A068B3
:103320000028E06803D0502836D3012002E008B11D
:1033300032E00020012B05D010B31846A26801F03E
:1033400006F820E040B10320009000221146012041
:10335000A36801F03DF804E003220021012001F000
:1033600016F8050018D086B100231A46194601F058
:10337000A7F8012809D0284600F0E6FD00250BE05B
:10338000184600F0C7FF050006D00CB1216800E028
:103390000021284600F0C4FD2846F8BD38B50024B9
:1033A000E51E00280AD0EFF30581A9B100210091A4
:1033B000694601F094F9012815D102E06FF0030489
:1033C00012E0009880B109494FF080500860BFF3C7
:1033D0004F8FBFF36F8F07E000231A46194601F0A5
:1033E0006FF8012800D02C46204638BD04ED00E0DF
:1033F0002DE9FF410B464FF00005EFF305810395E2
:1034000049BB40B38027182100244AB3166806B18F
:10341000344696691EB13146761E382E02D2167990
:10342000F60703D0002004B0BDE8F081566906B16C
:10343000B708D2F808C0BCF1000F0DD0D5685C2DDC
:1034400018D312693AB136B18DE806103A462146D2
:1034500001F0A1FB03900DE0D6685EB912694AB98C
:1034600003AACDE90012BAB2214601F067FB012898
:1034700000D003950398D6E72DE9F041134C0F4691
:103480000546E6682068001D00F04CFC681C07D16A
:1034900037B12168BDE8F0410D48091D00F092BC2C
:1034A00020683544B5424560216805D2A06BBDE86F
:1034B000F041091D00F06EBC606B091D00F06AFC54
:1034C000A06A854200D2A562BDE8F08120000020FC
:1034D000200600202DE9F041054600F07FFC2D4C30
:1034E000A068401CA06020682B4F10B1606930B309
:1034F0002BE02560A068012827D1002606EB860076
:1035000007EB800000F038FC761C382EF6D32348F9
:1035100000F032FC2148143000F02EFC1F48283007
:1035200000F02AFC1D483C3000F026FC1B485030BF
:1035300000F022FC194860631430A06305E02068A5
:10354000E96AC06A884200D82560606A401C6062EF
:103550006864E86A2169884200D9206100EB800034
:1035600007EB8000291D00F02DFC00F057FC60697E
:1035700000280CD02068E96AC06A884207D208494E
:103580004FF080500860BFF34F8FBFF36F8FBDE8DF
:10359000F08100002000002070010020D0050020F4
:1035A00004ED00E038B500F019FC104C2068C8B9F3
:1035B0000F4800F0E1FB0E48143000F0DDFB0C4832
:1035C000E060143020610A4B0020F03B009003F1D2
:1035D000500210210A2000F0FBFE206010B105A16E
:1035E00000F09EFCBDE8384000F018BC5C000020F4
:1035F00024070020546D72510000000030B4026CAA
:103600000B46002A0BD0C1681144C1608468A142F6
:1036100001D30168C16030BC1846FCF7CABE30BC9B
:1036200070472DE9F041856B174604460026026C71
:1036300082B1C7B1E068FCF7BCFEE168206C091AF2
:10364000E1602268914202D2A168081AE060022F6C
:1036500016D017E02068A8B9A06801F03FFB064625
:103660000020A0600EE06068FCF7A3FE216C60689B
:1036700008446060A168884204D32068606001E06B
:1036800005B16D1E6D1CA5633046BDE8F08110B517
:10369000044690F8590058B101280CD002280FD0E8
:1036A000502080F31188BFF34F8FBFF36F8FFEE779
:1036B000206B00F0C7FB2046BDE8104000F0C2BB05
:1036C00010BD000010484FF44061420706D0C01DF5
:1036D0000D4920F00700411AC1F540610B4A002353
:1036E0000144C2E900030839183A21F007011160CA
:1036F0004B600B600B1AC0E9001393604FF0004061
:103700005360506170470000040E00208C000020C0
:10371000144E154CA6F29C474FF08058DFF84C90A1
:1037200012E000BF00F05AFBF068C568281D00F0E9
:10373000F9FAA068401EA0606068401E606000F05A
:103740006DFB2846FFF7A3FF60680028EAD13868C0
:103750000128F9D9C9F80080BFF34F8FBFF36F8FED
:10376000F2E700000C0600202000002004ED00E03D
:1037700070B51D46049C51B1C4F80020C4E90F0186
:103780000121204600F058FE84F84C5070BD2460A2
:10379000F4E700002DE9F05F8846DDE90B9415465B
:1037A000834691009A460A9EA522206BFCF746FEAE
:1037B0006FF00301206B01EB8501084420F007073F
:1037C000780707D0502080F31188BFF34F8FBFF3E5
:1037D0006F8FFEE70025B8F1000F0FD05FF00000FB
:1037E000221818F8001082F8341018F8001011B1DF
:1037F000401C1028F4D384F8435001E084F834507E
:10380000382E00D33726E662C4E91365201D00F088
:10381000BEFA04F1180000F0BAFA2461C6F13800CB
:103820006462A061656584F858505246594638462E
:1038300000F066FA2060B9F1000F01D0C9F800402D
:10384000BDE8F09F30B5114900E011460A68824298
:10385000FBD34B685C18844203D14068184448602D
:10386000084643681C18944209D1084C183C246847
:10387000A24209D052681A4442600A681268026083
:10388000814200D0086030BD0460F9E78C00002060
:1038900070B5002441600B4D0061914206D8D11AE9
:1038A0008269914206D2011D286907E09A4203D23B
:1038B000994201D3012403E0011DE86800F06AFA8F
:1038C000204670BD5C00002010B5044600F086FA6A
:1038D000A06B28B15FF0000400F0A0FA204610BDF4
:1038E0000124F9E730B589B03C4D6EE0049800281A
:1038F00006DADDE90601059A90470498002864DBA2
:10390000069C606910B1201D00F00CFA03A800F0BD
:10391000D7F8024604980A2857D2DFE800F00505D8
:10392000052D334A05052D3394F8280040F0010099
:1039300084F828000599A069059B01442046FFF7FB
:10394000A7FF68B3216A2046884794F828004007FB
:103950003BD5002000900598A16900234218194624
:10396000204601F001FBD8B9502080F31188BFF345
:103970004F8FBFF36F8FFEE714F8280F20F0010080
:10398000207022E094F8280040F0010084F828001C
:103990000598A06128B1811813462046FFF778FFEB
:1039A00013E0502080F31188BFF34F8FBFF36F8F68
:1039B000FEE794F82800810703D4204600F042FA7D
:1039C00003E020F0010084F82800002204A9286800
:1039D00000F0D4FE002889D109B030BD5C00002081
:1039E0002DE9FC410F46054600F0F0FB01A800F070
:1039F00067F80446019818B101F024FABDE8FC818B
:103A0000254EAFB130690068D0B30027291B3A4674
:103A1000306800F0C5FA01F015FA0028EED11F4910
:103A20004FF080500860BFF34F8FBFF36F8FE5E713
:103A3000A542EBD801F006FAF0682746C068C468D2
:103A4000201D00F06FF994F82800410719D5A069EE
:103A50002B4641193A462046FFF71AFFA8B100202D
:103A60000346014600902A46204601F07DFA60B9DF
:103A7000502080F31188BFF34F8FBFF36F8FFEE7A5
:103A800007E020F0010084F82800216A20468847DA
:103A9000B4E70127BAE700005C00002004ED00E075
:103AA0000648416B096829B1416BC968C968496812
:103AB000816270474FF0FF31FAE7000020000020DC
:103AC00070B5054601F0A0F8064E0446B068844281
:103AD00003D200F009F8012000E000202860204611
:103AE000B46070BD5C000020F8B5194D20E0C068DE
:103AF000C4680668201D00F015F9216A2046884731
:103B000094F82800400713D5A0693044B04206D984
:103B100024616060211DE86800F03CF908E00020A5
:103B20000346014600903246204601F01DFA38B1A6
:103B3000E86801680029DAD12969C5E90310F8BDF0
:103B4000502080F31188BFF34F8FBFF36F8FFEE7D4
:103B50005C00002008484068401C4FF0500080F393
:103B6000118804D0BFF34F8FBFF36F8FFEE7BFF311
:103B70004F8FBFF36F8FFEE794000020074CE06883
:103B8000016841B1C0680021D0F80000FFF728FFAC
:103B9000FFF7A8FEF3E701210020F7E75C00002013
:103BA0002DE9F041044600F019F994F9455004F16B
:103BB000240609E0606A48B1304601F00BF908B10B
:103BC00000F03EFA6D1E6DB2002DF3DC4FF0FF36B3
:103BD00084F8456000F022F900F000F994F94450AF
:103BE00004F1100709E0206948B1384601F0F2F805
:103BF00008B100F025FA6D1E6DB2002DF3DC84F8DB
:103C00004460BDE8F04100F009B900002DE9F04141
:103C10000546002700F0DAFA324E306808B9FFF79F
:103C200051FD706905424ED1C5B3083568070ED005
:103C300005F00700C0F108000544680707D05020D0
:103C400080F31188BFF34F8FBFF36F8FFEE72DB363
:103C50007068854237D82348183001460C6801E067
:103C600020460C466168A94202D221680029F7D19A
:103C700031688C4227D00768216801606068083786
:103C8000411B10290FD96019420708D0502080F33A
:103C90001188BFF34F8FBFF36F8FFEE713E04160D2
:103CA0006560FFF7CFFD61687068401A7060B268A8
:103CB000904200D2B060706901430020C4E9000165
:103CC000F068401CF06001F0BDF8780707D0502084
:103CD00080F31188BFF34F8FBFF36F8FFEE7384635
:103CE000BDE8F081740000200449086818B1086834
:103CF000026D521C02650868704700002000002019
:103D000010B5031F4FF080741C601B1F21F00101D0
:103D10001960191F024B0B60143940380A6010BD3E
:103D2000553B0008D0E9013201699A60D0E90123CE
:103D30005A604A68824201D182684A600022026168
:103D40000868401E0860086870470000034B036065
:103D500003F15C0008608020106070474C07002071
:103D6000044B036003F15C0008604FF48070106046
:103D700070470000A809002000F108014FF0FF3251
:103D8000C0E90112C160016100210160704700219A
:103D90000161704730B50B685A1C02D000F108026F
:103DA00002E0026904E02246546825689D42FAD97F
:103DB00053684B6099608A60516008610168491CD2
:103DC000016030BD42684A6093688B6093685960B7
:103DD000916008610168491C01607047502080F3C0
:103DE0001188BFF34F8FBFF36F8F0A494868401C9B
:103DF000486001280CD10848006810F0FF0F07D078
:103E0000502080F31188BFF34F8FBFF36F8FFEE711
:103E1000704700009400002004ED00E00849486865
:103E200028B1401E486001D180F3118870475020AE
:103E300080F31188BFF34F8FBFF36F8FFEE7000051
:103E40009400002070B500282AD0164DA0F1080477
:103E500060686969084207D1502080F31188BFF378
:103E60004F8FBFF36F8FFEE722683AB1502080F387
:103E70001188BFF34F8FBFF36F8FFEE788436060F9
:103E800000F0A4F960686968084468602046FFF79C
:103E9000D9FC2869401C2861BDE8704000F0D2BF01
:103EA00070BD0000740000204FF0E020002101618F
:103EB000816105494FF47A720968B1FBF2F1491E3C
:103EC00041610721016170471C00002010B5FCF71B
:103ED0001BFA114910280ED300F1E02090F8F003EE
:103EE0000A78904207D2502080F31188BFF34F8F99
:103EF000BFF36F8FFEE709480068896800F4E0604F
:103F0000884207D9502080F31188BFF34F8FBFF349
:103F10006F8FFEE710BD0000940000200CED00E064
:103F200010B5084B002200BF53F832401CB1521CA0
:103F3000082AF9D310BD43F8321003EBC2014860E0
:103F400010BD00003001002010B504000AD000F0C0
:103F500013F894F8460000280CD12046BDE8104024
:103F6000FFF770BF502080F31188BFF34F8FBFF36E
:103F70006F8FFEE710BD0000084A002102EBC1036D
:103F80005B68834206D1002042F8310002EBC10198
:103F900048607047491C0829F0D370473001002061
:103FA00070B515460E460446FFF718FF94F9441005
:103FB0000020491C01D184F8440094F94510491CA3
:103FC00001D184F84500FFF729FFA06B28B92A46E4
:103FD000314604F1240000F051F82046BDE870405D
:103FE000FFF7DEBD10B5020014D00F48006B38B1EA
:103FF000502080F31188BFF34F8FBFF36F8FFEE720
:1040000000F0E4F800211046FFF736FA00F01AFF3E
:10401000002807D105494FF080500860BFF34F8F4B
:10402000BFF36F8F10BD00002000002004ED00E002
:1040300002490A6A0260C968416070472000002096
:1040400001490120C86170472000002010B50C46CE
:1040500050B1094909681831FFF79CFE2046BDE8B8
:1040600010400121FFF708BA502080F31188BFF3F8
:104070004F8FBFF36F8FFEE72000002070B514460E
:104080000D4668B10A4909681831FFF79BFE0CB16B
:104090004FF0FF3521462846BDE87040FFF7ECB9E8
:1040A000502080F31188BFF34F8FBFF36F8FFEE76F
:1040B0002000002070B504003ED0226DA2B1E06C5B
:1040C000884200D30146E06A884235D0012A33D1C4
:1040D0001A4D2A6894420FD1502080F31188BFF303
:1040E0004F8FBFF36F8FFEE7502080F31188BFF32F
:1040F0004F8FBFF36F8FFEE7E162A269002A02DBF8
:10410000C1F13801A1610E4E00EB8000616906EB40
:104110008000814210D1201DFFF704FEE06A29696A
:10412000884200D9286100EB800006EB8000211D49
:10413000BDE87040FFF746BE70BD000020000020C3
:104140007001002030B587B00024039405AA04A9AB
:1041500003A80494FFF7FAFDDDE903010094CDE91B
:104160000110002315A11748059A00F014FD164D03
:104170000028E8621FD000F0C7FE012809D0401CCB
:1041800019D1502080F31188BFF34F8FBFF36F8F89
:10419000FEE7502080F31188BFF34F8FBFF36F8F7E
:1041A0004FF0FF30A86201206861EC6007B0BDE805
:1041B000304000F045B807B030BD000049444C45E0
:1041C0000000000011370008200000200248016BA9
:1041D000491C01637047000020000020164810B5FC
:1041E000016B11B10121C16110BD0021C1610169E3
:1041F000124A01E0B9B1491E01EB810352F82330A4
:10420000002BF7D001EB810302EB830202F10804DB
:1042100053685B685360A34201D15B685360DA68FE
:104220000260016110BD502080F31188BFF34F8FF1
:10423000BFF36F8FFEE70000200000207001002018
:104240001CB5264908780190FF20087008788DF881
:1042500000009DF800009DF8002000F0F000904262
:1042600007D0502080F31188BFF34F8FBFF36F8FBB
:10427000FEE79DF800001A4C00F050002070072067
:10428000A06005E09DF8002052008DF80020401E3F
:104290009DF800201206F5D4A060032807D0502016
:1042A00080F31188BFF34F8FBFF36F8FFEE74FF49A
:1042B0004070A060019808700A48016841F47001DC
:1042C0000160016841F070410160FFF7EDFD0020E1
:1042D0006060FBF7E3FF00201CBD000000E400E08D
:1042E0009400002020ED00E010B5502080F31188EC
:1042F000BFF34F8FBFF36F8F00F08CFC18B10449F0
:104300004FF080500860002080F3118810BD00003D
:1043100004ED00E010B50C4648B184420FD950209E
:1043200080F31188BFF34F8FBFF36F8FFEE75020EC
:1043300080F31188BFF34F8FBFF36F8FFEE7022228
:10434000002100F024F8002800D0846310BD38B5A7
:104350000C4648B184420FD9502080F31188BFF336
:104360004F8FBFF36F8FFEE7502080F31188BFF3AC
:104370004F8FBFF36F8FFEE702211346002200919B
:10438000114600F025F8002800D0846338BDF8B548
:1043900017460E46050013D005FB06F05030FFF718
:1043A00035FC04000AD0002084F8460004F15002D5
:1043B0003B46314628460094FFF7DAF92046F8BD1F
:1043C000502080F31188BFF34F8FBFF36F8FFEE74C
:1043D00038B5049D18B153B1CAB181B120E0502065
:1043E00080F31188BFF34F8FBFF36F8FFEE750202C
:1043F00080F31188BFF34F8FBFF36F8FFEE750201C
:1044000080F31188BFF34F8FBFF36F8FFEE739B191
:10441000502080F31188BFF34F8FBFF36F8FFEE7FB
:1044200050241C46012384F846302B460094FFF7A5
:104430009FF9204638BD000070B50D46040025D018
:10444000FFF7CCFCD4E90F20216802FB0011A1602A
:104450000021A163216861600A46D4E90F01401E72
:1044600000FB0121E16021464FF0FF3001F8440FCD
:10447000487004F110008DB1FFF77EFC04F12400B8
:10448000FFF77AFCFFF7CAFC012070BD502080F3D3
:104490001188BFF34F8FBFF36F8FFEE721690029AB
:1044A000F0D000F097FC0028ECD004494FF0805089
:1044B0000860BFF34F8FBFF36F8FE3E704ED00E0B9
:1044C0002DE9FF4782B01D468A464FF000080400E0
:1044D00003D0BAF1000F08D011E0502080F311880A
:1044E000BFF34F8FBFF36F8FFEE7206C38B15020C2
:1044F00080F31188BFF34F8FBFF36F8FFEE7022D5C
:104500000AD1E06B012807D0502080F31188BFF357
:104510004F8FBFF36F8FFEE700F068FB3F4F4FF008
:1045200000094FF0805648B9049838B1502080F304
:104530001188BFF34F8FBFF36F8FFEE7FFF74EFC7D
:10454000A06BE16B884207D3022D05D00498D0B14F
:10455000B8F1000F1AD01EE02A4651462046FFF758
:1045600060F8616A19B104F1240000F033FC20B155
:104570003E60BFF34F8FBFF36F8FFFF74FFC0120FB
:1045800006B0BDE8F087FFF749FC22E06846FFF778
:104590004FFD4FF00108FFF741FCFFF717FEFFF753
:1045A0001DFC94F94400401C01D184F8449094F916
:1045B0004500401C01D184F84590FFF72FFC04A969
:1045C000684600F081FA30B12046FFF7E9FA00F0C2
:1045D00039FC0020D4E7FFF701FCA06BE16B8842B7
:1045E00013D1FFF71BFC04F110000499FFF72EFD17
:1045F0002046FFF7D5FA00F025FC00289ED13E604A
:10460000BFF34F8FBFF36F8F98E7FFF707FC20468C
:10461000FFF7C6FA00F016FC90E7000004ED00E09A
:104620002DE9F0471F4690468946040003D0B9F1B2
:10463000000F08D011E0502080F31188BFF34F8F96
:10464000BFF36F8FFEE7206C38B1502080F31188E4
:10465000BFF34F8FBFF36F8FFEE7022F0AD1E06BDE
:10466000012807D0502080F31188BFF34F8FBFF38C
:104670006F8FFEE7FFF72AFC5020EFF3118680F3DF
:104680001188BFF34F8FBFF36F8FA06BE16B884230
:1046900006D3022F04D0002086F31188BDE8F087EE
:1046A00094F94550A06B3A4649462046FEF7B9FFBB
:1046B000681C04D06D1C84F845500120ECE7606A4A
:1046C0000028FAD004F1240000F084FB0028F4D084
:1046D000B8F1000FF1D00121C8F80010EDE770B576
:1046E0000E46040009D0206C78B1502080F3118868
:1046F000BFF34F8FBFF36F8FFEE7502080F3118819
:10470000BFF34F8FBFF36F8FFEE7206848B9A068F3
:1047100038B1502080F31188BFF34F8FBFF36F8FF4
:10472000FEE7FFF7D3FB5020EFF3118580F31188EC
:10473000BFF34F8FBFF36F8FA16BE06B884218D927
:1047400094F94500491CA163411C04D0401C84F825
:10475000450001200EE0606A0028FAD004F1240030
:1047600000F038FB0028F4D0002EF2D00120306099
:10477000EFE7002085F3118870BD00002DE9F747B1
:10478000002683B08A46040003D0BAF1000F08D097
:1047900011E0502080F31188BFF34F8FBFF36F8F6C
:1047A000FEE7206C38B1502080F31188BFF34F8FA3
:1047B000BFF36F8FFEE700F019FADFF8F4804FF0D7
:1047C00000094FF0805748B9059838B1502080F360
:1047D0001188BFF34F8FBFF36F8FFEE7FFF7FEFA2D
:1047E000A56BC5B151462046FEF708FF6D1EA563B7
:1047F000206950B104F1100000F0ECFA28B1C8F8BB
:104800000070BFF34F8FBFF36F8FFFF707FB0120DF
:1048100006B0BDE8F087059808B11EB106E0FFF7C5
:10482000FDFA27E06846FFF703FC0126FFF7F6FADA
:10483000FFF7CCFCFFF7D2FA94F94400401C01D1F9
:1048400084F8449094F94500401C01D184F84590C7
:10485000FFF7E4FA05A9684600F036F9002820467B
:104860000AD0FFF79DF900F0EDFA2046FFF72CF88B
:104870000028B3D00020CBE7FFF726F890B104F171
:1048800024000599FFF7E2FB2046FFF789F900F0C5
:10489000D9FA0028A2D1C8F80070BFF34F8FBFF338
:1048A0006F8F9BE72046FFF77BF900F0CBFA95E787
:1048B00004ED00E02DE9F04790468946040003D05E
:1048C000B9F1000F08D011E0502080F31188BFF338
:1048D0004F8FBFF36F8FFEE7206C38B1502080F30D
:1048E0001188BFF34F8FBFF36F8FFEE7FFF7EEFA2C
:1048F0005020EFF3118680F31188BFF34F8FBFF381
:104900006F8FA76BF7B194F9445049462046FEF7E4
:1049100075FE7F1EA763681C04D06D1C84F844508C
:10492000012010E020690028FAD004F1100000F006
:1049300051FA0028F4D0B8F1000FF1D00121C8F8E5
:104940000010EDE7002086F31188BDE8F087000035
:104950002DE9F343002683B00400354609D0206CCE
:1049600078B1502080F31188BFF34F8FBFF36F8F62
:10497000FEE7502080F31188BFF34F8FBFF36F8F96
:10498000FEE700F033F9DFF83C814FF000094FF00B
:10499000805748B9049838B1502080F31188BFF38C
:1049A0004F8FBFF36F8FFEE7FFF718FAA06BC8B108
:1049B000401EA063206810B9FFF796F9A060206937
:1049C00050B104F1100000F005FA28B1C8F80070E9
:1049D000BFF34F8FBFF36F8FFFF720FA012005B0B1
:1049E000BDE8F083049808B166B10FE03DB15020F6
:1049F00080F31188BFF34F8FBFF36F8FFEE7FFF790
:104A00000DFA5DE06846FFF713FB0126FFF706FA93
:104A1000FFF7DCFBFFF7E2F994F94400401C01D1F9
:104A200084F8449094F94500401C01D184F84590E5
:104A3000FFF7F4F904A9684600F046F8002820467C
:104A400012D0FFF7ADF800F0FDF92046FEF73CFF6D
:104A50000028A9D09DB3FFF7C1F9606A50B3206B5D
:104A60000068C0F1380126E0FEF72EFFE0B12068B3
:104A700038B9FFF7B3F9A06800F070F90546FFF701
:104A8000CDF904F124000499FFF7E0FA2046FFF77E
:104A900087F800F0D7F9002886D1C8F80070BFF376
:104AA0004F8FBFF36F8F7FE72046FFF779F800F055
:104AB000C9F979E70021A068FFF7FCFA9FE7FFE753
:104AC00000208CE704ED00E02DE9F0410C460500E4
:104AD00011D0C4B1FFF782F9174BDA686E6820680D
:104AE000911B471C17D02F681B6A9F4219D0964212
:104AF00017D8012410E0502080F31188BFF34F8FA6
:104B0000BFF36F8FFEE7502080F31188BFF34F8F04
:104B1000BFF36F8FFEE70024FFF780F92046BDE862
:104B2000F081884205D9401A20602846FFF780FAB4
:104B3000F1E700202060DCE7200000202DE9FF5F86
:104B40008346DDE90E87994616468A469000FFF7B0
:104B50005DF805001CD05C20FFF758F8040014D065
:104B60000020256384F85900CDE90240CDE9008793
:104B70004B46324651465846FEF70CFE2046FEF79D
:104B8000A9FC012004B0BDE8F09F2846FFF75AF9C0
:104B90004FF0FF30F6E7F0B585B0DDE90B640A9D14
:104BA000A6B1DCB15C2700972663022684F8596021
:104BB000002604AFCDE90246CDE90057FEF7EAFD35
:104BC0002046FEF787FC049805B0F0BD502080F326
:104BD0001188BFF34F8FBFF36F8FFEE7502080F334
:104BE0001188BFF34F8FBFF36F8FFEE70548416910
:104BF00019B1006B18B100207047012070470220E6
:104C000070470000200000200148C0687047000085
:104C1000200000202DE9F0412E4C0027206B28B108
:104C2000A069401CA0613846BDE8F081E668761CAA
:104C3000E66013D1606B006838B1502080F31188B2
:104C4000BFF34F8FBFF36F8FFEE7606BA16B6163A4
:104C5000A063206A401C2062FEF722FFA06ADFF8F2
:104C60007880864209D3606B0068A0B1606BC06831
:104C7000C5686868864211D2A0622068C06A00EBED
:104C8000800158F82100012800D90127E069002897
:104C9000C9D00127C7E74FF0FF30EDE7281DFFF728
:104CA00041F8A86A18B105F11800FFF73BF8E86A67
:104CB0002169884200D9206100EB800108EB810066
:104CC000291DFFF77FF8E86A2168C96A8842CAD3BC
:104CD0000127C8E7200000207001002070B5040003
:104CE0004FF0000133D01B4D2868844207D050207C
:104CF00080F31188BFF34F8FBFF36F8FFEE7206DF6
:104D000038B1401E2065E36CE26A9A421FD040B180
:104D10001DE0502080F31188BFF34F8FBFF36F8FDA
:104D2000FEE7201DFEF7FEFFE06CE062C0F13800F8
:104D3000A061E06A2969884200D92861064900EB30
:104D4000800001EB8000211DFFF73CF8012108469F
:104D500070BD0000200000207001002070B504002C
:104D60004FF000002BD0194DE16A2A68D26A9142B7
:104D700026D2A069002804DB2868C06AC0F1380088
:104D8000A061134E01EB8101606906EB810188424D
:104D900011D1201DFEF7C6FF2868C06AE0622969AC
:104DA000884200D9286100EB800006EB8000211DBD
:104DB000FFF708F802E02868C06AE062012070BDD1
:104DC000E16C2A68D26A9142F8D370BD20000020BD
:104DD0007001002070B5C068C46854B104F11800B7
:104DE0000646FEF79FFF144D286B50B1314613481D
:104DF00015E0502080F31188BFF34F8FBFF36F8F02
:104E0000FEE7201DFEF78EFFE06A2969884200D97F
:104E100028610B4900EB800001EB8000211DFEF7AB
:104E2000D1FFE06A2968C96A884202D90120E86195
:104E300070BD002070BD000020000020F80500209B
:104E4000700100202DE9F0472C4D00242746286BE7
:104E500038B1FEF7C3FF286B401E2863286B40B1B2
:104E600046E0502080F31188BFF34F8FBFF36F8F60
:104E7000FEE7A968224E0120D1B3A6F591698046CC
:104E80003068E0B1F068C46804F11800FEF74AFF2A
:104E9000201DFEF747FFE06A2969884200D9286192
:104EA00000EB800109EB8100211DFEF78BFFE06A1A
:104EB0002968C96A8842E3D3C5F81C80E0E70CB1D1
:104EC000FEF7EEFDAC694CB14FEA0806FFF7A2FE13
:104ED00000B1EE61641EF9D10020A861E86938B123
:104EE0000849012738070860BFF34F8FBFF36F8F62
:104EF000FEF794FF3846BDE8F08700002000002050
:104F0000F805002004ED00E010B586B0FEF74AFB7E
:104F1000114C2068B8B100200390049005AA04A9A0
:104F200003A8FEF71DFFDDE9032102208DE807003D
:104F300000230AA10B48059AFFF72DFE606010B10F
:104F400006B0012010BD502080F31188BFF34F8FB1
:104F5000BFF36F8FFEE700005C000020546D7220ED
:104F6000537663007D3B00082DE9FF411E46134642
:104F700002000A9D4FF0000016D0144C2768002F45
:104F80000FD0CDE900130292062917DAFFF72EFEA3
:104F900002284FF000030FD0002269462068FFF777
:104FA0008FFA04B0BDE8F081502080F31188BFF380
:104FB0004F8FBFF36F8FFEE72A46EEE7002332469E
:104FC00069463846FFF72CFBEBE700005C00002049
:104FD00010B500290AD00878002807D00548784481
:104FE000FCF7C4FA002801D0002010BD0248784424
:104FF00010BD00004E0200004602000010B500295E
:105000000AD00878002807D005487844FCF7AEFAA3
:10501000002801D0002010BD0248784410BD0000D7
:105020003E02000036020000FBF7B5BEFBF7EABF08
:10503000EC5100080000000000000000000000002B
:105040000000000000020000180000000000000046
:1050500000000000E0510008000000000000000017
:105060000000000000000000000200000800000036
:105070000000000000000000D45100080000000003
:10508000000000000000000000000000000200001E
:10509000180000000000000000000000F8510008A7
:1050A00000000000000000000000000001020203F8
:1050B0000405060708090A0B0C0D0E0F101000005E
:1050C00000000000000001020304060708090000B8
:1050D00000000102030400000000000000000000C6
:1050E000303132333435363738394142434445461E
:1050F0004030580030313233343536373839616218
:105100006364656640307800040000080000000019
:105110000000000200010000103031323334353617
:1051200037383961626364656678700030313233D4
:1051300034353637383941424344454658500000EB
:1051400002400000000000A0000000000540000038
:10515000000000C8000000000C4000000000409C5F
:1051600000000000194000000020BCBE000000004C
:1051700034400000BFC91B8E00000004B540000091
:10518000504BCFD06607E2CF010000006C41000019
:105190003E8251AADFEEA73401000000D942000090
:1051A000DCB5A0E23A301F97FFFFFFFFB4450000D7
:1051B000FD25A0C8E9A3C14FFFFFFFFFFF3F00008F
:1051C0000000008000000000FF3F000000000080A1
:1051D000000000004C4544315461736B0000000036
:1051E0004C4544325461736B000000006465666195
:1051F000756C655461736B0075617274315F7072A8
:10520000696E74665F6773656D000000585300082F
:1052100000000020A00000006C010008F853000806
:10522000A000002018200000880100081C000000D9
:1052300043000000F8FFFFFF0C0000000E0000001C
:105240000F0000002E0000001001000043000000CD
:10525000F8FFFFFF00404040404040404040414197
:10526000414141404040404040404040404040403B
:1052700040404040400502020202020202020202D5
:1052800002020202022020202020202020202002D2
:105290000202020202029090909090901010101062
:1052A00010101010101010101010101010101010FE
:1052B0000202020202028888888888880808080892
:1052C000080808080808080808080808080808085E
:1052D0000202020240000000000000000000000086
:1052E00000000000000000000000000000000000BE
:1052F00000000000000000000000000000000000AE
:10530000000000000000000000000000000000009D
:10531000000000000000000000000000000000008D
:10532000000000000000000000000000000000007D
:10533000000000000000000000000000000000006D
:10534000000000000000000000000000000000005D
:10535000000000000000000000000000000000004D
:10536000000000000000000001000000100000002C
:105370000000000000127A000000000000000000A1
:10538000000000000000000000000000000000001D
:10539000000000000000000000000000000000000D
:1053A00000000000000000000000000000000000FD
:1053B00000000000000000000000000000000000ED
:1053C00000000000000000000000000000000000DD
:1053D00000000000000000000000000000000000CD
:1053E00000000000000000000000000000000000BD
:0853F000AAAAAAAA000000000D
:0400000508000131BD
:00000001FF
